S01C000050694C4F545F73625F4D53535F434D335F6170702E7372656318
S113000000000120910100007F0300008103000033
S11300108303000085030000870300000000000044
S11300200000000000000000000000008903000040
S11300308B030000000000008D0300008F0300000C
S1130040910300009303000071800000958000007C
S1130050990300009B0300009D0300009F03000020
S1130060A1030000A303000021600000456000001C
S1130070A9030000AB030000AD030000AF030000C0
S1130080B1030000B3030000B503000059B1000040
S1130090B9030000BB030000BD030000BF03000060
S11300A0C1030000C3030000C5030000C703000030
S11300B0C9030000CB030000CD030000CF03000000
S11300C0D1030000D3030000A5300000B9300000C4
S11300D0CD300000E1300000F530000001310000B7
S11300E00D3100001931000025310000E703000044
S11300F0E9030000EB030000ED030000EF03000040
S1130100F1030000F3030000F5030000A137000031
S1130110F9030000F9370000FD030000FF030000AD
S113012001040000030400000504000007040000AB
S1130130090400000B0400000D0400000F0400007B
S1130140110400001304000015040000170400004B
S1130150190400001B0400001D0400001F0400001B
S113016021040000230400002504000027040000EB
S1130170290400002B0400002D0400002F040000BB
S113018031040000330400000000000000000000FF
S11301904FF0000BDFF8BE020068DFF8B612096802
S11301A001F0030100F01C00142801D14BF0020BF4
S11301B0002901D04BF0010BBBF1000F05D0A7487B
S11301C0A749DFF8722200F09FF8A64880470BF099
S11301D0020ABAF1000F0CD0DFF86E02DFF86E12DB
S11301E002680B680FB44FF000024FF0FF03026087
S11301F00B609D489D4A9E4B022808D1DFF83E12B1
S11302000A60DFF842120A60DFF836120B60012838
S113021008D1DFF82E120A60DFF82A120A60DFF82C
S11302201E120B609348002809D193489349944ABD
S113023000F032F893489449944A00F02DF8944819
S11302409449954A00F028F894489549DFF8E62146
S113025000F05AF8BBF1000F12D092489249DFF82F
S1130260DA2100F051F80BF0020ABAF1000F07D0BE
S11302700FBC02600B6000BFAFF30080AFF30080DF
S1130280DFF828020FF2030E00474FF000004FF092
S11302900001DFF81CF2FEE72DE9F841884225D081
S11302A0B2EB010200D5FEE740EA010313F00303B9
S11302B002D000F01DF819E04FF00003904612112F
S11302C0F7D09A421CBFF0C8F0C103F10103F8D182
S11302D008F00F08B8F1000F08D004780C7000F192
S11302E0010001F10101B8F10108F6D1BDE8F8817E
S11302F008B54FF0000303780B7000F1010001F121
S11303000101013AF7D108BD884237D000F0030655
S1130310002E14D04FF00405A5EB06044FF0080797
S113032007FB06F8914669FA08F9002C07D080F813
S1130330009069FA07F900F10100013CF5E74FF07C
S113034000060F46091A88460911914614461546B7
S1130350B14206D018BFA0E8340206F10106B1424A
S1130360F8D108F00F08B8F1000F07D002704FEA77
S1130370322200F10100B8F10108F4E77047FEE70A
S1130380FEE7FEE7FEE7FEE7FEE7FEE7FEE7FEE741
S1130390FEE7FEE7FEE7FEE7FEE7FEE7FEE7FEE731
S11303A0FEE7FEE7FEE7FEE7FEE7FEE7FEE7FEE721
S11303B0FEE7FEE7FEE7FEE7FEE7FEE7FEE7FEE711
S11303C0FEE7FEE7FEE7FEE7FEE7FEE7FEE7FEE701
S11303D0FEE7FEE7FEE7FEE7FEE7FEE7FEE7FEE7F1
S11303E0FEE7FEE7FEE7FEE7FEE7FEE7FEE7FEE7E1
S11303F0FEE7FEE7FEE7FEE7FEE7FEE7FEE7FEE7D1
S1130400FEE7FEE7FEE7FEE7FEE7FEE7FEE7FEE7C0
S1130410FEE7FEE7FEE7FEE7FEE7FEE7FEE7FEE7B0
S1130420FEE7FEE7FEE7FEE7FEE7FEE7FEE7FEE7A0
S1130430FEE7FEE7704700000000A2A2A2A200802F
S11304400340088003401080034030800340348020
S113045003403880034018080240000000F00020E8
S113046000000120D9AA00000000000000000000E4
S11304700100000000000000000000000000000077
S113048090010000C0040000C004000050BB000044
S113049050BB000000000020500300205003002047
S11304A0101600201016002000F0002021B90000D2
S11304B0D12C0000AFF30080AFF30080AFF30080D5
S11304C040F25033C2F200031A780AB901201870BE
S11304D0704700BF40F20000C2F2000008B5036894
S11304E02BB140F20003C0F2000303B1984708BDEA
S11304F080B483B000AF7860396044F20003C4F282
S113050000035A6B3B681A6044F20003C4F2000310
S11305101A6B7B681A6007F10C07BD4680BC7047F4
S113052080B400AF45F20003C4F200031B68184610
S1130530BD4680BC704700BF80B500AF40F2344078
S1130540C2F200004FF0A0414FF040024FF0000310
S113055009F084FA40F2C450C2F2000043F20001F0
S1130560C5F200014FF06A024FF0000309F076FA79
S113057040F2A040C2F2000041F20001C5F20001C5
S11305804FF021024FF0000309F068FA80BD00BF6C
S113059080B485B000AF78600B467B804FF00003D9
S11305A03B734FF000037B734FF00003BB734FF0BA
S11305B00003FB734FF00003FB733AE03A7BF97BD3
S11305C07B680B441B7802EB030148F28103C8F2F9
S11305D0800383FB01230B444FEAE3124FEAE173E8
S11305E0C3EB020213464FEA0323C2EB0303C3EB3C
S11305F0010213463B737A7B3B7B02EB030148F217
S11306008103C8F2800383FB01230B444FEAE31206
S11306104FEAE173C3EB020213464FEA0323C2EB32
S11306200303C3EB010213467B73FB7B03F101035A
S1130630FB73FB7B7A889A42C0D83A7B7B7B02EBC4
S1130640030148F28103C8F2800383FB01230B44B6
S11306504FEAE3124FEAE173C3EB020213464FEA97
S11306600323C2EB0303C3EB0102D3B26FEA030318
S1130670BB733A7BBB7B02EB030148F28103C8F2F4
S1130680800383FB01230B444FEAE3124FEAE17337
S1130690C3EB020213464FEA0323C2EB0303C3EB8B
S11306A00102D3B26FEA03037B737B7B4FEA03231C
S11306B09AB2BB7B42EA03039BB29BB2184607F192
S11306C01407BD4680BC704790B58FB000AF40F2B0
S11306D03462C2F2000240F20C53C2F200031A6008
S11306E04FF000037B864FF0000387F835304BF65C
S11306F04423C0F2000307F1040C9E46BEE80F0039
S1130700ACE80F00DEF80030ACF8003041F2D8322B
S1130710C2F2000241F2C833C2F200031046194685
S1130720FFF7E6FE07F1300107F12E0207F12C0373
S1130730084611461A4603F049FC0346002B0CBF39
S1130740002301237B8607F12A0107F1280207F120
S11307502603084611461A4603F0C4FD0346002B3F
S113076002D04FF0020301E04FF00003798E1A46E5
S11307700B4642EA03039BB27B8607F11A03184631
S113078003F022FF0346002B14BF00230123002B98
S113079003D04FEA83039BB201E04FF00403798E48
S11307A01A460B4642EA03039BB27B8640F20C5383
S11307B0C2F200031A6840F20403C2F200031B7879
S11307C0537440F20C53C2F200031A684FF0000352
S11307D043F0500393744FF000036FEA030303F0F4
S11307E03C036FEA0303D37440F20C53C2F20003D8
S11307F01C68FFF795FE034603F0FF024FF000016B
S113080041EA020222754FEA132202F0FF024FF07E
S1130810000141EA020262754FEA134202F0FF024C
S11308204FF0000141EA0202A2754FEA13634FF050
S1130830000242EA0303E37540F20C53C2F20003E0
S11308401A6840F26833C2F200031B78937640F2D0
S11308500C53C2F200031A6841F2E033C2F20003FF
S11308601B681B78137640F20C53C2F200031A681B
S113087040F26233C2F200031B78937316E040F235
S11308800C53C2F20003196897F8350097F8352025
S113089041F2B403C2F200039A5C00EB0103DA767E
S11308A097F8353003F1010387F8353097F8353080
S11308B00F2BE4D940F20C53C2F200031A6840F241
S11308C06533C2F200031B78D37340F20C53C2F2B7
S11308D000031A6840F26633C2F200031B781374F3
S11308E040F20C53C2F200031B683A8E02F0FF017F
S11308F04FF0000040EA010183F82B104FEA122266
S113090092B24FF0000141EA020283F82C2040F237
S11309100C53C2F200031B68FA8D02F0FF014FF082
S1130920000040EA010183F82D104FEA122292B22E
S11309304FF0000141EA020283F82E2040F20C53EA
S1130940C2F200031B68BA8D02F0FF014FF00000F1
S113095040EA010183F82F104FEA122292B24FF0BD
S1130960000141EA020283F8302040F20C53C2F243
S113097000031B687A8D02F0FF014FF0000040EA8B
S1130980010183F831104FEA122292B24FF00001B4
S113099041EA020283F8322040F20C53C2F200030F
S11309A01B683A8D02F0FF014FF0000040EA01019C
S11309B083F833104FEA122292B24FF0000141EA59
S11309C0020283F8342040F20C53C2F200031B6885
S11309D0FA8C02F0FF014FF0000040EA010183F8B5
S11309E035104FEA122292B24FF0000141EA02029E
S11309F083F8362040F20C53C2F200031B687A8B52
S1130A0002F0FF014FF0000040EA010183F83710C3
S1130A104FEA122292B24FF0000141EA020283F837
S1130A20382040F20C53C2F200031C6807F119038A
S1130A304FF040004FF002011A4603F041F903461B
S1130A4003F0FF024FF0000141EA020284F839206A
S1130A504FEA13239BB24FF0000242EA030384F8E7
S1130A603A307B7E4FEAC3039AB27B8E42EA030399
S1130A709BB27B8640F20C53C2F200031C6807F160
S1130A8019034FF040004FF003011A4603F018F920
S1130A90034603F0FF024FF0000141EA020284F82A
S1130AA03B204FEA13239BB24FF0000242EA0303B8
S1130AB084F83C307B7E4FEA03139AB27B8E42EA81
S1130AC003039BB27B8640F20C53C2F200031B6803
S1130AD041F20C42C2F20002D26802F0FF014FF070
S1130AE0000040EA010183F845104FEA122101F0A9
S1130AF0FF014FF0000040EA010183F846104FEA7D
S1130B00124101F0FF014FF0000040EA010183F8B7
S1130B1047104FEA12624FF0000141EA020283F8E3
S1130B20482040F20C53C2F200031B6841F20C420D
S1130B30C2F20002926802F0FF014FF0000040EAA6
S1130B40010183F841104FEA122101F0FF014FF037
S1130B50000040EA010183F842104FEA124101F01B
S1130B60FF014FF0000040EA010183F843104FEA0F
S1130B7012624FF0000141EA020283F8442040F27D
S1130B800C53C2F200031B6841F2FC32C2F20002B1
S1130B90D26802F0FF014FF0000040EA010183F83F
S1130BA055104FEA122101F0FF014FF0000040EA16
S1130BB0010183F856104FEA124101F0FF014FF092
S1130BC0000040EA010183F857104FEA12624FF027
S1130BD0000141EA020283F8582040F20C53C2F2A9
S1130BE000031B6841F2FC32C2F20002926802F078
S1130BF0FF014FF0000040EA010183F851104FEA71
S1130C00122101F0FF014FF0000040EA010183F8D6
S1130C1052104FEA124101F0FF014FF0000040EA88
S1130C20010183F853104FEA12624FF0000141EAC8
S1130C30020283F8542040F20C53C2F200031B68F2
S1130C4041F2E832C2F20002D26802F0FF014FF032
S1130C50000040EA010183F84D104FEA122101F02F
S1130C60FF014FF0000040EA010183F84E104FEA03
S1130C70124101F0FF014FF0000040EA010183F846
S1130C804F104FEA12624FF0000141EA020283F86A
S1130C90502040F20C53C2F200031B6841F2E832C8
S1130CA0C2F20002926802F0FF014FF0000040EA35
S1130CB0010183F849104FEA122101F0FF014FF0BE
S1130CC0000040EA010183F84A104FEA124101F0A2
S1130CD0FF014FF0000040EA010183F84B104FEA96
S1130CE012624FF0000141EA020283F84C2040F204
S1130CF00C53C2F200031C6807F119034FF04000C3
S1130D004FF002011A4603F039F8034603F0FF02DC
S1130D104FF0000141EA020284F83D204FEA132318
S1130D209BB24FF0000242EA030384F83E307B7E1C
S1130D304FEA43139AB27B8E42EA03039BB27B864B
S1130D4040F20C53C2F200031C6807F119034FF080
S1130D5040004FF003011A4603F010F8034603F075
S1130D60FF024FF0000141EA020284F83F204FEAFB
S1130D7013239BB24FF0000242EA030384F840308D
S1130D807B7E4FEA83139AB27B8E42EA03039BB2C3
S1130D907B8640F20C53C2F200031A6840F25433CB
S1130DA0C2F200031B78537641F22040C2F20000E5
S1130DB002F06EFD17E040F20C53C2F20003196812
S1130DC097F8350097F8352041F22043C2F200032A
S1130DD09A5C00EB010383F85A2097F8353003F14D
S1130DE0010387F8353097F835301F2BE3D940F2EB
S1130DF00C53C2F200031B684FF0000242F00802D9
S1130E001A704FF0000242F001025A7040F20C5383
S1130E10C2F20003186840F25233C2F20003198888
S1130E200B466FEA83436FEA93439BB29BB24FEA4C
S1130E3003231FFA83FC40F25233C2F200031A88E0
S1130E4013466FEA83436FEA93439BB29BB24FEA24
S1130E5013239BB24CEA03039BB29BB203F0FF0C37
S1130E604FF0000E4EEA0C0C80F802C04FEA132338
S1130E709BB24FF0000C4CEA0303C37001F1010371
S1130E8099B240F25233C2F20003198002F1010315
S1130E909AB240F25233C2F200031A8040F20C5369
S1130EA0C2F200031B684FF000021A714FF00002F7
S1130EB042F07C025A7140F20C53C2F200031B68E8
S1130EC041F2C832C2F20002D2E90001024602F045
S1130ED0FF014FF0000040EA010199724FEA12212C
S1130EE001F0FF014FF0000040EA0101D9724FEA1E
S1130EF0124101F0FF014FF0000040EA01011973B3
S1130F004FEA12624FF0000141EA02025A7340F2C2
S1130F100C53C2F200031B6841F2D832C2F2000241
S1130F20D2E90001024602F0FF014FF0000040EA5E
S1130F30010199714FEA122101F0FF014FF0000005
S1130F4040EA0101D9714FEA124101F0FF014FF06B
S1130F50000040EA010119724FEA12624FF00001E9
S1130F6041EA02025A7240F25533C2F200031B787E
S1130F70002B5CD040F26733C2F200034FF0010251
S1130F801A7040F20C53C2F200031A6840F267333D
S1130F90C2F200031B7882F8593040F20C53C2F2BB
S1130FA000031C6840F23460C2F200004FF07A0182
S1130FB0FFF7EEFA034603F0FF024FF0000141EAA7
S1130FC0020284F87A204FEA13239BB24FF0000206
S1130FD042EA030384F87B3041F20C40C2F2000081
S1130FE040F23461C2F2000103F0A0FF0346002B7B
S1130FF002D04FF0800301E04FF00003798E1A46CF
S11310000B4642EA03039BB27B8641F20C40C2F2D8
S1131010000040F23461C2F2000103F087FF40F2A5
S11310205533C2F200034FF000021A703DE040F263
S11310306733C2F200034FF000021A7040F20C53FF
S1131040C2F200031A6840F26733C2F200031B784D
S113105082F8593040F20C53C2F200031C6840F28B
S11310603460C2F200004FF07A01FFF791FA0346B0
S113107003F0FF024FF0000141EA020284F87A20F3
S11310804FEA13239BB24FF0000242EA030384F8B1
S11310907B3041F2C040C2F2000040F23461C2F23F
S11310A000014FF07C0204F049FF7B8E184607F1E3
S11310B03C07BD4690BD00BFB0B582B000AF4FF055
S11310C000033B714FF000037B714FF00003FB8082
S11310D040F23462C2F2000240F23063C2F2000312
S11310E01A603AE040F23063C2F200031C683D79B2
S11310F03A7907F1030340F2A040C2F200004FF036
S1131100210102F013FF0346194605F1040201F020
S1131110FF004FEA420323444FF0000C4CEA000066
S113112098714FEA112398B24FEA420323444FF0D7
S113113000021146024641EA0202DA71FB781A46BD
S11311403B7902FA03F39AB2FB8842EA03039BB2A7
S1131150FB803B7903F101033B713B79072BC1D938
S113116040F25533C2F200031B78002B14D04FF029
S113117001037B7141F2E830C2F2000040F23461B5
S1131180C2F2000103F0D2FE40F25533C2F2000372
S11311904FF000021A700EE04FF000037B7141F231
S11311A0C040C2F2000040F23461C2F200014FF0CC
S11311B07C0204F0C3FEFB88184607F10807BD460D
S11311C0B0BD00BF80B500AF41F20C40C2F20000D8
S11311D040F23461C2F2000103F0D6FE41F2C04095
S11311E0C2F2000040F23461C2F200014FF07C020E
S11311F004F0A4FE80BD00BF90B583B000AF4FF0F3
S11312000003FB8040F23462C2F2000241F2301368
S1131210C2F200031A6041F24800C2F2000041F237
S11312204C11C2F2000103F00FFF03461A4641F2CB
S11312307813C2F200031A7041F27813C2F2000369
S11312401B784FEA4303DAB241F27813C2F2000387
S11312501A7041F24C13C2F200031B781A4641F291
S11312604813C2F200031A6041F24813C2F20003A9
S11312701B684FEA032241F24813C2F200031A60CA
S113128041F24C13C2F200035B781A4641F2481350
S1131290C2F200031B6842EA030241F24813C2F29D
S11312A000031A6041F24813C2F200031B684FEABC
S11312B0032241F24813C2F200031A6041F24C13B4
S11312C0C2F200039B781A4641F24813C2F20003AB
S11312D01B6842EA030241F24813C2F200031A6097
S11312E041F24800C2F2000041F25011C2F2000182
S11312F003F0D4FE03461A4641F27813C2F2000307
S11313001A7041F27813C2F200031B784FEA4303C8
S1131310DAB241F27813C2F200031A7041F24C13AC
S1131320C2F200031B781A4641F27413C2F200039E
S11313301A6041F27413C2F200031B684FEA0322DD
S113134041F27413C2F200031A6041F24C13C2F268
S113135000035B781A4641F27413C2F200031B685F
S113136042EA030241F27413C2F200031A6041F22A
S11313707413C2F200031B684FEA032241F2741390
S1131380C2F200031A6041F24C13C2F200039B78CC
S11313901A4641F27413C2F200031B6842EA0302C4
S11313A041F27413C2F200031A6041F23413C2F220
S11313B0000341F24800C2F20000194603F0B4FEF3
S11313C041F23013C2F200031A6840F20403C2F27D
S11313D000031B78937341F23013C2F200031B68BD
S11313E041F24812C2F20002126802F0FF014FF00B
S11313F0000040EA0101D9734FEA122101F0FF0114
S11314004FF0000040EA010119744FEA124101F063
S1131410FF014FF0000040EA010159744FEA1262E3
S11314204FF0000141EA02029A7441F23013C2F211
S113143000031B6841F27412C2F20002126802F047
S1131440FF014FF0000040EA0101D9744FEA122174
S113145001F0FF014FF0000040EA010119754FEA65
S1131460124101F0FF014FF0000040EA01015975FB
S11314704FEA12624FF0000141EA02029A754FF0FE
S11314800003FB802AE041F23013C2F200031A6821
S1131490F988F88841F23413C2F2000333F81000DB
S11314A001F1080100F0FF0C4FEA410313444FF02F
S11314B0000E4EEA0C0C83F807C04FEA102398B2D2
S11314C04FEA410313444FF000021146024641EA39
S11314D002021A72FB8803F10103FB80FB88072BCD
S11314E0D1D94FF00003FB8041F23013C2F2000364
S11314F01B684FF0000242F008021A704FF000021D
S113150042F002025A7041F23013C2F2000318682A
S113151040F25A33C2F2000319880B466FEA834340
S11315206FEA93439BB29BB24FEA03231FFA83FCF7
S113153040F25A33C2F200031A8813466FEA834317
S11315406FEA93439BB29BB24FEA13239BB24CEADC
S113155003039BB29BB203F0FF0C4FF0000E4EEA64
S11315600C0C80F802C04FEA13239BB24FF0000C1E
S11315704CEA0303C37001F1010399B240F25A33F8
S1131580C2F20003198002F101039AB240F25A3305
S1131590C2F200031A8041F23013C2F200031B6846
S11315A04FF000021A714FF0000242F04A025A71E1
S11315B041F23013C2F200031B684FF000029A712B
S11315C04FF00002DA714FF000021A724FF000027D
S11315D05A7241F23013C2F200031B684FF000024A
S11315E09A724FF00002DA724FF000021A734FF051
S11315F000025A7340F25533C2F200031B78002BE9
S11316003CD040F25733C2F200034FF001021A708B
S113161041F23013C2F200031A6840F25733C2F2A7
S113162000031B7882F8273041F23013C2F2000322
S11316301C6840F23460C2F200004FF04801FEF72B
S1131640A7FF034603F0FF024FF0000141EA020244
S113165084F848204FEA13239BB24FF0000242EA79
S1131660030384F8493041F2A010C2F2000040F2B2
S11316703461C2F2000103F059FC3DE040F25733FB
S1131680C2F200034FF000021A7041F23013C2F2AA
S113169000031A6840F25733C2F200031B7882F841
S11316A0273041F23013C2F200031C6840F2346068
S11316B0C2F200004FF04801FEF76AFF034603F050
S11316C0FF024FF0000141EA020284F848204FEA89
S11316D013239BB24FF0000242EA030384F849301B
S11316E041F2C040C2F2000040F23461C2F2000193
S11316F04FF04A0204F022FC41F27813C2F20003D4
S11317001B78184607F10C07BD4690BD90B583B011
S113171000AF4FF00003FB8040F23462C2F20002DB
S113172041F24413C2F200031A600CE0FA8841F259
S11317305413C2F200034FF0000143F82210FB8857
S113174003F10103FB80FB88072BEFD94FF0000363
S1131750FB8041F2F830C2F2000004F0DBF941F200
S11317604413C2F200031A6840F20403C2F20003F5
S11317701B78937341F24413C2F200031A6841F2D6
S1131780F833C2F200031B8803F0FF014FF000009E
S113179040EA010111754FEA13239BB24FF0000197
S11317A041EA0303537541F24413C2F200031A6879
S11317B040F26233C2F200031B78D37341F2441344
S11317C0C2F200031A6840F26333C2F200031B78CA
S11317D0137441F24413C2F200031A6840F26433F2
S11317E0C2F200031B78537441F24413C2F20003A3
S11317F01A6841F2E433C2F200031B8803F0FF01CC
S11318004FF0000040EA010191744FEA13239BB2A8
S11318104FF0000141EA0303D37441F24413C2F2CE
S113182000031C6804F01AFA0346A37541F244133A
S1131830C2F200031C6804F029FA034603F0FF0215
S11318404FF0000141EA0202E2754FEA132202F06E
S1131850FF024FF0000141EA020222764FEA1342EE
S113186002F0FF024FF0000141EA020262764FEA01
S113187013634FF0000242EA0303A37641F24413D8
S1131880C2F200031C6804F029FA034603F0FF02C5
S11318904FF0000141EA0202E2764FEA132202F01D
S11318A0FF024FF0000141EA020222774FEA13429D
S11318B002F0FF024FF0000141EA020262774FEAB0
S11318C013634FF0000242EA0303A37741F2441387
S11318D0C2F200031B6840F25C32C2F200021268DA
S11318E002F0FF014FF0000040EA0101D9774FEA0E
S11318F0122101F0FF014FF0000040EA010183F8DA
S113190020104FEA124101F0FF014FF0000040EABD
S1131910010183F821104FEA12624FF0000141EAFD
S1131920020283F8222041F24413C2F200031A682F
S113193040F26033C2F200031B7882F8233041F294
S11319404413C2F200031C6804F096F8034684F8BA
S1131950443043E041F24413C2F200031B68F888A8
S1131960F98841F25412C2F2000252F8211000F137
S1131970080201F0FF0C4FEA820018444FF0000EF9
S11319804EEA0C0C80F804C04FEA112000F0FF0C62
S11319904FEA820018444FF0000E4EEA0C0C80F817
S11319A005C04FEA114000F0FF0C4FEA82001844D2
S11319B04FF0000E4EEA0C0C80F806C04FEA11609E
S11319C04FEA82021A444FF000031946034641EAE3
S11319D00303D371FB8803F10103FB8040F26033FE
S11319E0C2F200031B78FA889A42B3D341F244133B
S11319F0C2F200031B684FF0000242F008021A70A2
S1131A004FF0000242F003025A7041F24413C2F252
S1131A100003186840F25833C2F2000319880B46D9
S1131A206FEA83436FEA93439BB29BB24FEA03236B
S1131A301FFA83FC40F25833C2F200031A8813469B
S1131A406FEA83436FEA93439BB29BB24FEA13233B
S1131A509BB24CEA03039BB29BB203F0FF0C4FF022
S1131A60000E4EEA0C0C80F802C04FEA13239BB21E
S1131A704FF0000C4CEA0303C37001F1010399B267
S1131A8040F25833C2F20003198002F101039AB202
S1131A9040F25833C2F200031A8041F24413C2F2F6
S1131AA000031B684FF000021A714FF0000242F06D
S1131AB068025A7141F24413C2F200031B684FF0EA
S1131AC000029A714FF00002DA714FF000021A72AC
S1131AD04FF000025A7241F24413C2F200031B6831
S1131AE04FF000029A724FF00002DA724FF00002D7
S1131AF01A734FF000025A7340F25533C2F20003D6
S1131B001B78002B43D040F25633C2F200034FF04F
S1131B1001021A7041F24413C2F200031A6840F23F
S1131B205633C2F200031B7882F8453041F2441365
S1131B30C2F200031C6840F23460C2F200004FF0AD
S1131B406601FEF725FD034603F0FF024FF0000196
S1131B5041EA020284F866204FEA13239BB24FF055
S1131B60000242EA030384F8673041F2FC30C2F217
S1131B70000040F23461C2F2000103F0D7F940F2F0
S1131B805533C2F200034FF000021A703DE040F2F8
S1131B905633C2F200034FF000021A7041F24413AC
S1131BA0C2F200031A6840F25633C2F200031B78F3
S1131BB082F8453041F24413C2F200031C6840F23B
S1131BC03460C2F200004FF06601FEF7E1FC034608
S1131BD003F0FF024FF0000141EA020284F866209C
S1131BE04FEA13239BB24FF0000242EA030384F846
S1131BF0673041F2C040C2F2000040F23461C2F2E8
S1131C0000014FF0680204F099F907F10C07BD4692
S1131C1090BD00BF80B483B000AF0346FB714EF2A9
S1131C200013CEF2000397F907204FEA5212F97914
S1131C3001F01F014FF0010000FA01F143F82210F6
S1131C4007F10C07BD4680BC704700BF80B483B069
S1131C5000AF0346FB714EF20013CEF2000397F976
S1131C6007204FEA5212F97901F01F014FF00100E9
S1131C7000FA01F102F1200243F8221007F10C07E7
S1131C80BD4680BC704700BF80B483B000AF03463C
S1131C90FB714EF20013CEF2000397F907204FEACE
S1131CA05212F97901F01F014FF0010000FA01F11D
S1131CB002F1600243F8221007F10C07BD4680BC14
S1131CC0704700BF80B483B000AF03463960FB7136
S1131CD097F90730002B10DA4EF60053CEF20003CA
S1131CE0FA7902F00F02A2F104013A68D2B24FEA83
S1131CF00212D2B20B441A760DE04EF20013CEF269
S1131D00000397F907103A68D2B24FEA0212D2B22E
S1131D100B4483F8002307F10C07BD4680BC7047D1
S1131D2080B582B000AF0346FB714FF00E00FFF7A1
S1131D308DFF4FF00F00FFF789FF48F20003C4F254
S1131D40030348F20002C4F20302926C22F0400240
S1131D509A6444F20003C4F200034FF001025A658E
S1131D6040F20003C4F208234FF00002C3F8002934
S1131D7040F20003C4F208234FF00002C3F808291C
S1131D8040F20003C4F20823FA79C3F8042944F2A8
S1131D900003C4F200034FF001021A6144F200038D
S1131DA0C4F200034FF001029A624FF00E00FFF7F5
S1131DB06BFF4FF00F00FFF767FF07F10807BD4601
S1131DC080BD00BF80B400AF40F20003C4F208231A
S1131DD04FF00102C3F80029BD4680BC704700BF24
S1131DE080B483B000AF7860396044F20003C4F279
S1131DF000035A6B3B681A6044F20003C4F2000308
S1131E001A6B7B681A6007F10C07BD4680BC7047EB
S1131E1080B483B000AF7860396044F20003C4F248
S1131E2000037A689A6344F20003C4F200033A6838
S1131E30DA6307F10C07BD4680BC704780B582B0F9
S1131E4000AF45F20003C4F2000345F20002C4F2FD
S1131E500002526922F003025A6145F20003C4F2FF
S1131E6000034FF00302DA614FF00000FFF70CFFAC
S1131E7045F20003C4F200031B687B6045F20003D3
S1131E80C4F200039A687B689A4208D945F20003B9
S1131E90C4F200034DF64262CAF61542DA6007F155
S1131EA00807BD4680BD00BF80B400AF45F2000303
S1131EB0C4F200034DF64262CAF61542DA60BD462A
S1131EC080BC704798B500AF41F2D832C2F200022C
S1131ED041F2C833C2F2000310461946FFF780FFEF
S1131EE041F29C13C2F200031B684FF0000242F05F
S1131EF008021A704FF0000242F006025A7041F2D2
S1131F009C13C2F200031A6841F2BC33C2F200030C
S1131F101B886FEA83436FEA93439BB29BB24FEAF9
S1131F20032399B241F2BC33C2F200031B886FEA67
S1131F3083436FEA93439BB29BB24FEA13239BB252
S1131F4041EA03039BB29BB203F0FF014FF0000090
S1131F5040EA010191704FEA13239BB24FF0000154
S1131F6041EA0303D37041F29C13C2F200031B68DD
S1131F704FF000021A714FF0000242F07E025A71D3
S1131F8041F29C13C2F200031B6841F2C832C2F250
S1131F900002D2E90001024602F0FF014FF0000006
S1131FA040EA010199724FEA122101F0FF014FF05A
S1131FB0000040EA0101D9724FEA124101F0FF0129
S1131FC04FF0000040EA010119734FEA12624FF02A
S1131FD0000141EA02025A7341F29C13C2F2000367
S1131FE01B6841F2D832C2F20002D2E90001024673
S1131FF002F0FF014FF0000040EA010199714FEA3D
S1132000122101F0FF014FF0000040EA0101D971F3
S11320104FEA124101F0FF014FF0000040EA0101D4
S113202019724FEA12624FF0000141EA02025A7239
S113203041F29C13C2F200031C6841F2B810C2F2D0
S113204000004FF07C01FEF7A3FA034603F0FF0201
S11320504FF0000141EA020284F87C204FEA132386
S11320609BB24FF0000242EA030384F87D3040F251
S11320705533C2F200031B78002B0AD041F28410BE
S1132080C2F2000041F2B811C2F2000102F04EFFA8
S11320900BE041F2C040C2F2000041F2B811C2F2BA
S11320A000014FF07E0203F049FF41F28013C2F2B7
S11320B000034FF000021A7041F2BC33C2F2000375
S11320C01B8803F101039AB241F2BC33C2F200034C
S11320D01A8098BD80B500AF41F2D832C2F2000236
S11320E041F2C833C2F2000310461946FFF778FEE6
S11320F0FEF7EAFA03461A4641F2D433C2F2000369
S11321001A8041F28013C2F200031B78092B01D913
S1132110FFF7D8FE41F29C13C2F20003196841F2A2
S11321208013C2F200031B781A4613464FEA830356
S113213013444FEA430313440B4403F116034FF0D3
S113214002021A7041F29C13C2F20003186841F2B1
S11321508013C2F200031B78194641F2D833C2F24D
S11321600003D3E900230B464FEA83030B444FEAF1
S113217043030B44034403F1080302F0FF014FF04F
S1132180000040EA010199724FEA122101F0FF01B7
S11321904FF0000040EA0101D9724FEA124101F008
S11321A0FF014FF0000040EA010119734FEA126287
S11321B04FF0000141EA02025A7341F29C13C2F249
S11321C00003186841F28013C2F200031B78194619
S11321D041F2C833C2F20003D3E900230B464FEAAD
S11321E083030B444FEA43030B44034403F1080302
S11321F002F0FF014FF0000040EA010199714FEA3B
S1132200122101F0FF014FF0000040EA0101D971F1
S11322104FEA124101F0FF014FF0000040EA0101D2
S113222019724FEA12624FF0000141EA02025A7237
S113223041F29C13C2F20003186841F28013C2F207
S113224000031B781A4641F2D433C2F20003198802
S113225013464FEA830313444FEA430313440344EE
S113226003F1100301F0FF024FF0000040EA020204
S1132270DA714FEA112292B24FF0000141EA0202F0
S11322801A7241F28013C2F200031B7803F10103B6
S1132290DAB241F28013C2F200031A7041F21C4018
S11322A0C2F2000007F032F880BD00BF80B500AF75
S11322B041F2D832C2F2000241F2C833C2F2000342
S11322C010461946FFF78CFDFEF796FF03461A46A3
S11322D041F2B213C2F200031A8041F28013C2F237
S11322E000031B78092B01D9FFF7ECFD41F29C1385
S11322F0C2F20003196841F28013C2F200031B7892
S11323001A4613464FEA830313444FEA4303134424
S11323100B4403F116034FF006021A7041F29C13AA
S1132320C2F20003186841F28013C2F200031B7862
S1132330194641F2D833C2F20003D3E900230B4615
S11323404FEA83030B444FEA43030B44034403F172
S1132350080302F0FF014FF0000040EA0101997206
S11323604FEA122101F0FF014FF0000040EA0101A1
S1132370D9724FEA124101F0FF014FF0000040EA28
S1132380010119734FEA12624FF0000141EA02029F
S11323905A7341F29C13C2F20003186841F280138D
S11323A0C2F200031B78194641F2C833C2F200039B
S11323B0D3E900230B464FEA83030B444FEA43035C
S11323C00B44034403F1080302F0FF014FF0000043
S11323D040EA010199714FEA122101F0FF014FF027
S11323E0000040EA0101D9714FEA124101F0FF01F6
S11323F04FF0000040EA010119724FEA12624FF0F7
S1132400000141EA02025A7241F29C13C2F2000333
S1132410186841F28013C2F200031B781A4641F295
S1132420B213C2F20003198813464FEA830313441C
S11324304FEA43031344034403F1100301F0FF0282
S11324404FF0000040EA0202DA714FEA112292B220
S11324504FF0000141EA02021A7241F28013C2F203
S113246000031B7803F10103DAB241F28013C2F2D4
S113247000031A7041F2B830C2F2000006F046FFC1
S113248080BD00BF80B500AF41F2D832C2F2000275
S113249041F2C833C2F2000310461946FFF7A0FC0C
S11324A0FFF734F903461A4641F24043C2F20003EF
S11324B01A8041F28013C2F200031B78092B01D960
S11324C0FFF700FD41F29C13C2F20003196841F2C8
S11324D08013C2F200031B781A4613464FEA8303A3
S11324E013444FEA430313440B4403F116034FF020
S11324F004021A7041F29C13C2F20003186841F2FC
S11325008013C2F200031B78194641F2D833C2F299
S11325100003D3E900230B464FEA83030B444FEA3D
S113252043030B44034403F1080302F0FF014FF09B
S1132530000040EA010199724FEA122101F0FF0103
S11325404FF0000040EA0101D9724FEA124101F054
S1132550FF014FF0000040EA010119734FEA1262D3
S11325604FF0000141EA02025A7341F29C13C2F295
S11325700003186841F28013C2F200031B78194665
S113258041F2C833C2F20003D3E900230B464FEAF9
S113259083030B444FEA43030B44034403F108034E
S11325A002F0FF014FF0000040EA010199714FEA87
S11325B0122101F0FF014FF0000040EA0101D9713E
S11325C04FEA124101F0FF014FF0000040EA01011F
S11325D019724FEA12624FF0000141EA02025A7284
S11325E041F29C13C2F20003186841F28013C2F254
S11325F000031B781A4641F24043C2F200031988D3
S113260013464FEA830313444FEA4303134403443A
S113261003F1100301F0FF024FF0000040EA020250
S1132620DA714FEA112292B24FF0000141EA02023C
S11326301A7241F28013C2F200031B7803F1010302
S1132640DAB241F28013C2F200031A7041F294101C
S1132650C2F2000006F05AFE80BD00BF80B500AF94
S113266041F2D832C2F2000241F2C833C2F200038E
S113267010461946FFF7B4FBFEF71EFD03461A4643
S113268041F29813C2F200031A8041F28013C2F29D
S113269000031B78092B01D9FFF714FC41F29C13AA
S11326A0C2F20003196841F28013C2F200031B78DE
S11326B01A4613464FEA830313444FEA4303134471
S11326C00B4403F116034FF001021A7041F29C13FC
S11326D0C2F20003186841F28013C2F200031B78AF
S11326E0194641F2D833C2F20003D3E900230B4662
S11326F04FEA83030B444FEA43030B44034403F1BF
S1132700080302F0FF014FF0000040EA0101997252
S11327104FEA122101F0FF014FF0000040EA0101ED
S1132720D9724FEA124101F0FF014FF0000040EA74
S1132730010119734FEA12624FF0000141EA0202EB
S11327405A7341F29C13C2F20003186841F28013D9
S1132750C2F200031B78194641F2C833C2F20003E7
S1132760D3E900230B464FEA83030B444FEA4303A8
S11327700B44034403F1080302F0FF014FF000008F
S113278040EA010199714FEA122101F0FF014FF073
S1132790000040EA0101D9714FEA124101F0FF0142
S11327A04FF0000040EA010119724FEA12624FF043
S11327B0000141EA02025A7241F29C13C2F2000380
S11327C0186841F28013C2F200031B781A4641F2E2
S11327D09813C2F20003198813464FEA8303134483
S11327E04FEA43031344034403F1100301F0FF02CF
S11327F04FF0000040EA0202DA714FEA112292B26D
S11328004FF0000141EA02021A7241F28013C2F24F
S113281000031B7803F10103DAB241F28013C2F220
S113282000031A7041F2C030C2F2000006F06EFDDF
S113283080BD00BF80B500AFFEF7C4FC41F20C437D
S1132840C2F200039A6841F20C43C2F20003DB684F
S11328509A4208D240F25533C2F200031B78002B8F
S113286001D1FEF7AFFC41F2D030C2F2000006F015
S11328704DFD80BD80B582B002AF45F65E73009316
S113288041F21C40C2F2000046F20001C5F2000110
S11328904FF000024FF0090306F076FC41F21C40B1
S11328A0C2F2000006F014FD4FF02600FFF7B2F963
S11328B04FF026004FF0FE01FFF704FA49F69603A5
S11328C0009341F29410C2F2000047F20001C5F2F5
S11328D000014FF000024FF0090306F055FC41F2ED
S11328E09410C2F2000006F0F3FC4FF02700FFF74B
S11328F091F94FF027004FF0FE01FFF7E3F94BF693
S1132900BC63009341F2C030C2F2000048F20001FF
S1132910C5F200014FF000024FF0090306F034FC49
S113292041F2C030C2F2000006F0D2FC4FF02800A1
S1132930FFF770F94FF028004FF0FE01FFF7C2F9DE
S113294047F25833C0F20703009341F2D030C2F289
S1132950000049F20001C5F200014FF000024FF0FF
S1132960090306F011FC41F2D030C2F2000006F077
S1132970AFFC4FF02900FFF74DF94FF029004FF05D
S1132980FE01FFF79FF945F65E73009341F2B830FC
S1132990C2F200004AF20001C5F200014FF0000249
S11329A04FF0090306F0F0FB41F2B830C2F2000028
S11329B006F08EFC4FF02A00FFF72CF94FF02A00A6
S11329C04FF0FE01FFF77EF941F21C40C2F2000015
S11329D006F042FC41F29410C2F2000006F03CFC06
S11329E0BD4680BD80B582B000AF78600B46FB70F9
S11329F07A6841F2E033C2F200031A6041F2E03334
S1132A00C2F200031A68FB781046194600F090FBE6
S1132A100346002B26D041F2E033C2F200031B68C8
S1132A20184600F001FCFB78002B0DD140F2653311
S1132A30C2F200031B7803F10103DAB240F26533FA
S1132A40C2F200031A702BE040F26333C2F20003B7
S1132A501B7803F10103DAB240F26333C2F20003DC
S1132A601A701DE0FB78002B0DD140F26633C2F2E0
S1132A7000031B7803F10103DAB240F26633C2F2B9
S1132A8000031A700CE040F26433C2F200031B78B6
S1132A9003F10103DAB240F26433C2F200031A70A4
S1132AA007F10807BD4680BD80B500AF43F2792326
S1132AB0C0F200034FF000004FF002011A4600F08C
S1132AC055FB43F28D23C0F200034FF001004FF099
S1132AD003011A4600F04AFB43F2A543C0F2000387
S1132AE04FF002004FF003011A4600F03FFB43F29F
S1132AF0D153C0F200034FF003004FF006011A4611
S1132B0000F034FB43F2D163C0F200034FF0040041
S1132B104FF010011A4600F029FB80BD80B500AFCC
S1132B204FF00100FFF7FCF84FF0FF304FF0FF319A
S1132B30FFF76EF9FFF746F980BD00BF90B583B08B
S1132B4000AF40F23462C2F2000241F2B413C2F2A6
S1132B5000031A6041F2B413C2F200031A6840F28F
S1132B606C33C2F200031B78D37341F2B413C2F284
S1132B7000031A6840F26E33C2F200031B78137428
S1132B8041F2B413C2F200031A6840F26D33C2F288
S1132B9000031B78537441F2B413C2F200031B68A0
S1132BA04FF0000242F008021A704FF0000242F0A7
S1132BB005025A7041F2B413C2F200031A684FF0CE
S1132BC000036FEA83636FEA936393704FF000032B
S1132BD0D37041F2B413C2F200031B684FF0000239
S1132BE01A714FF0000242F034025A7141F2B413E8
S1132BF0C2F200031B684FF000029A714FF000020A
S1132C00DA714FF000021A724FF000025A7241F268
S1132C10B413C2F200031B684FF000029A724FF023
S1132C200002DA724FF000021A734FF000025A7376
S1132C304FF00003FB7141F22040C2F2000000F0AB
S1132C4027FE12E041F2B413C2F200031968F879C6
S1132C50FA7941F22043C2F200039A5C00EB0103CB
S1132C609A74FB7903F10103FB71FB791F2BE9D9FA
S1132C7041F2B413C2F200031C6840F23460C2F2A1
S1132C8000004FF03201FDF783FC034603F0FF021E
S1132C904FF0000141EA020284F832204FEA132384
S1132CA09BB24FF0000242EA030384F8333041F24E
S1132CB0C040C2F2000040F23461C2F200014FF0A1
S1132CC0340203F03BF907F10C07BD4690BD00BF89
S1132CD080B58CB002AFFFF7B1F8FFF7E5F8FDF768
S1132CE02BFC06F055F94FF000004FF0050106F0FB
S1132CF0A5F94FF002004FF0050106F09FF94FF0DF
S1132D0006004FF0050106F099F94FF000004FF06E
S1132D10010106F0B1F94FF002004FF0010106F095
S1132D20ABF94FF006004FF0010106F0A5F94FF0A2
S1132D30000003F037FD41F28450C2F2000004F0B9
S1132D4047FB4FF00803009341F28450C2F20000A5
S1132D504FF000014FF000024FF0080304F082FC32
S1132D6041F20050C2F2000004F032FB4FF00803BD
S1132D70009341F20050C2F200004FF000014FF006
S1132D8000024FF4007304F06DFC41F20C40C2F2F7
S1132D9000004FF00A0141F60A22C0F24F0202F08D
S1132DA0ADF841F2FC30C2F2000040F2D231C0F280
S1132DB057014CF65262C0F2570202F09FF841F2FA
S1132DC0E830C2F2000046F27E41C0F2590145F6F5
S1132DD0FE12C0F27A0202F091F841F2A010C2F29F
S1132DE000004FF42F714FF4487202F087F841F25B
S1132DF08410C2F2000041F66E21C0F24F0140F28D
S1132E006E32C0F2570202F079F84FF000033B73C0
S1132E104FF000037B734FF00003BB7340F20803D1
S1132E20C2F200031A6807F10C03104619464FF06A
S1132E3003024FF0000305F03FF941F2B812C2F269
S1132E40000241F29C13C2F200031A6041F28013A3
S1132E50C2F200034FF000021A7041F2BC33C2F216
S1132E6000034FF001021A80FFF758FE4FF00003F1
S1132E707B7441F24800C2F2000002F0B3F840F261
S1132E80A040C2F200004FF0210100F0D7FF03463A
S1132E901A4640F26C33C2F200031B7842EA030381
S1132EA0DAB240F26C33C2F200031A7040F26C33AF
S1132EB0C2F200031B784FEA4303DAB240F26C33E8
S1132EC0C2F200031A7041F24800C2F200004FF04F
S1132ED0210100F0B3FF03461A4640F26C33C2F2FC
S1132EE000031B7842EA0303DAB240F26C33C2F205
S1132EF000031A7040F26C33C2F200031B784FEAED
S1132F004303DAB240F26C33C2F200031A7001F0E8
S1132F10BBFB03461A4640F26C33C2F200031B7833
S1132F2042EA0303DAB240F26C33C2F200031A70CD
S1132F3040F26C33C2F200031B784FEA4313DAB257
S1132F4040F26C33C2F200031A7000F0D7FC03465F
S1132F501A4640F26C33C2F200031B7842EA0303C0
S1132F60DAB240F26C33C2F200031A7002F02CF9A8
S1132F7003461A4640F26E33C2F200031A7002F09E
S1132F807BFD03467B7440F26D33C2F200031A7872
S1132F907B7C42EA0303DAB240F26D33C2F20003EF
S1132FA01A7040F26D33C2F200031B784FEA4303F8
S1132FB0DAB240F26D33C2F200031A704FF04000EF
S1132FC000F042FE03461A4640F26D33C2F200039B
S1132FD01B7842EA0303DAB240F26D33C2F2000313
S1132FE01A7040F26D33C2F200031B784FEA4303B8
S1132FF0DAB240F26D33C2F200031A704FF00003EC
S1133000FB75FFF751FD41F2C040C2F200004FF4DE
S113301016514FF0030202F04FFF4FF02600FEF767
S113302033FE4FF02700FEF72FFEFFF723FC4FF08F
S1133030FF33FB6149F6FF23CEF232233B624FF0AC
S113304000037B62FFF77AFD02E000BF00E000BFEF
S11330504FF0860002F080FB41F2E430C2F200003F
S113306002F0A2FD40F25533C2F200031B78012B9B
S1133070EBD145F20C00C5F2000002F071FE0346EC
S11330807B8241F2B013C2F200031B887A8A9A420F
S1133090DDD940F25533C2F200034FF000021A703A
S11330A0D6E700BF80B500AF40F23440C2F2000062
S11330B006F0FAFE80BD00BF80B500AF40F2A0402C
S11330C0C2F2000006F0F0FE80BD00BF80B500AF84
S11330D041F24800C2F2000006F0E6FE80BD00BFE7
S11330E080B500AF40F2C450C2F2000006F0DCFE2E
S11330F080BD00BF80B500AFFEF7ECFF80BD00BF10
S113310080B500AFFFF7BEF980BD00BF80B500AF4A
S1133110FFF7A4FA80BD00BF80B500AFFFF78AFBBC
S113312080BD00BF80B500AFFFF7C0F880BD00BF11
S113313080B483B000AF78600B46FB707B681B786B
S113314003F1FF33002B08DB7B681B7803F1FF33AB
S1133150052B02DC4FF0010301E04FF00003184699
S113316007F10C07BD4680BC704700BF80B483B034
S113317000AF0B463A600246FA71BB80F97941F21E
S11331804442C2F200020B464FEAC303C1EB0303FD
S11331901344FA791A70F97941F24442C2F20002F6
S11331A00B464FEAC303C1EB030313443A794FF0D0
S11331B0000141EA02025A707A794FF0000141EAB3
S11331C002029A70F8793A6841F24441C2F200016D
S11331D003464FEAC303C0EB03030B4402F0FF01B1
S11331E04FF0000040EA0101D9704FEA122101F0CA
S11331F0FF014FF0000040EA010119714FEA12414A
S113320001F0FF014FF0000040EA010159714FEA5B
S113321012624FF0000141EA02029A7107F10C07B1
S1133220BD4680BC704700BF80B582B000AF7860F7
S11332307B681B7803F1FF3141F24442C2F2000281
S11332400B464FEAC303C1EB03031344DA7819793D
S11332504FEA012141EA020259794FEA014141EA68
S113326002029B794FEA036343EA020378689847B2
S113327007F10807BD4680BD80B485B000AF786013
S113328007F11407BD4680BC704700BF80B586B007
S113329002AF78607B689A784CF6CD43CCF6CC4389
S11332A0A3FB02134FEAD303DBB24BF6BC6202FB6F
S11332B003F3FB607B689B78002B00F0A5807B68A0
S11332C05B78002B1CD1FB68009341F21C40C2F2D6
S11332D0000046F20001C5F200014FF000024FF079
S11332E0090305F051FF41F21C40C2F2000005F051
S11332F0EFFF41F21C40C2F2000005F0ADFFBBE05D
S11333007B685B78012B1CD1FB68009341F294101D
S1133310C2F2000047F20001C5F200014FF00002C2
S11333204FF0090305F030FF41F29410C2F200009F
S113333005F0CEFF41F29410C2F2000005F08CFFBC
S11333409AE07B685B78022B1CD1FB68009341F206
S1133350C030C2F2000048F20001C5F200014FF093
S113336000024FF0090305F00FFF41F2C030C2F232
S1133370000005F0ADFF41F2C030C2F2000005F0DC
S11333806BFF79E07B685B78052B1CD1FB680093AD
S113339041F2D030C2F2000049F20001C5F200014E
S11333A04FF000024FF0090305F0EEFE41F2D03079
S11333B0C2F2000005F08CFF41F2D030C2F20000EE
S11333C005F04AFF58E07B685B78032B53D1FB6818
S11333D0009341F2B830C2F200004AF20001C5F293
S11333E000014FF000024FF0090305F0CDFE41F259
S11333F0B830C2F2000005F06BFF41F2B830C2F2FF
S1133400000005F029FF37E07B685B78002B06D1CC
S113341041F21C40C2F2000005F03CFF2CE07B6846
S11334205B78012B06D141F29410C2F2000005F042
S113343031FF21E07B685B78022B06D141F2C0307A
S1133440C2F2000005F026FF16E07B685B78052BCE
S113345006D141F2D030C2F2000005F01BFF0BE0B0
S11334607B685B78032B07D141F2B830C2F20000CD
S113347005F010FF00E000BF07F11007BD4680BD56
S113348080B483B000AF786003E07B6803F1FF335E
S11334907B607B68002BF8D107F10C07BD4680BC2C
S11334A0704700BF80B584B000AF78607B685B78FC
S11334B0072B07D07B685B78142B03D07B685B7881
S11334C0212B22D140F20803C2F200031A687B6860
S11334D003F10103104619464FF001024FF00003B7
S11334E004F0EAFD7B685A7840F25433C2F20003D8
S11334F01A7040F20803C2F200031B6803F10102D0
S113350040F20803C2F200031A6040F20C03C2F254
S113351000031B681B78072B56D140F20C03C2F240
S113352000031B6803F101031B78142B4CD140F2F8
S11335300C03C2F200031B6803F102031B78212B66
S113354042D141F28450C2F200004FF0000104F075
S113355031F941F28453C2F200031A6841F28453F0
S1133560C2F200031B681B6843F08063136043F6D8
S11335708000C0F20100FFF783FF4FF000004FF41A
S1133580805103F035FD0346FB7343F68000C0F21F
S11335900100FFF775FFFB7B002B0DD040F2613378
S11335A0C2F200031B7843F00103DAB240F2613344
S11335B0C2F200031A7007E04FF001004FF480518B
S11335C003F016FD0346BB7307F11007BD4680BD2B
S11335D080B584B000AF78607B689B784FEA036263
S11335E07B68DB784FEA034342EA03027B681B797A
S11335F04FEA032342EA03027B685B7942EA03034E
S11336001A4640F25C33C2F200031A607B685A78AF
S113361040F26033C2F200031A7040F25C33C2F22B
S113362000031A6807F108034FF0780011461A46A0
S11336304FF0060302F044F8BB7A4FEA0362FB7AC8
S11336404FEA034342EA03023B7B4FEA032342EA85
S113365003027B7B42EA03031A4641F25413C2F28B
S113366000031A6040F25C33C2F200031B6803F1EA
S1133670040240F25C33C2F200031A6040F25C338D
S1133680C2F200031A6807F108034FF078001146EC
S11336901A464FF0060302F013F8BB7A4FEA0362AE
S11336A0FB7A4FEA034342EA03023B7B4FEA0323DC
S11336B042EA03027B7B42EA03031A4641F25413B3
S11336C0C2F200035A6007F11007BD4680BD00BF77
S11336D080B485B000AF78604FF00003FB730DE059
S11336E0FA7BF97B7B680B44597841F2B403C2F24C
S11336F000039954FB7B03F10103FB73FB7B0F2B4A
S1133700EED907F11407BD4680BC704780B483B07E
S113371000AF0346FB714EF20013CEF2000397F99B
S113372007204FEA5212F97901F01F014FF001000E
S113373000FA01F143F8221007F10C07BD4680BCE2
S1133740704700BF80B483B000AF03463960FB719B
S113375097F90730002B10DA4EF60053CEF200032F
S1133760FA7902F00F02A2F104013A68D2B24FEAE8
S11337700212D2B20B441A760DE04EF20013CEF2CE
S1133780000397F907103A68D2B24FEA0212D2B294
S11337900B4483F8002307F10C07BD4680BC704737
S11337A080B584B000AF4FF000037B814FF001037C
S11337B03B814FF0FF03BB8045F20C00C5F20000D3
S11337C002F0CEFA0346BB8145F21000C5F20000B8
S11337D002F0C6FA0346FB8140F25533C2F20003FD
S11337E04FF001021A704FF0010005F0ADFC07F133
S11337F01007BD4680BD00BF90B58BB000AF4FF041
S1133800000387F8273015E097F827404BF20C00A7
S1133810C5F2000002F0BCFA03461A4607F128017B
S113382001EB040303F8242C97F8273003F1010378
S113383087F8273097F827301F2BE5D915E097F83C
S113384027404BF20C00C5F2000002F0A1FA034637
S11338501A4607F1280101EB040303F8242C97F816
S1133860273003F1010387F8273097F827301F2BFF
S1133870E5D907F1040318464FF00001FFF7B2F849
S11338804FF0030005F060FC07F12C07BD4690BD26
S113389090B585B000AF78604FF00003FB730FE084
S11338A0FA7B7B6802EB03044CF20C00C5F20000C7
S11338B002F06EFA03462370FB7B03F10103FB73F2
S11338C0FB7B1F2BECD94FF00003FB730FE0FA7B5B
S11338D07B6802EB03044CF20C00C5F2000002F01A
S11338E057FA03462370FB7B03F10103FB73FB7B55
S11338F01F2BECD907F11407BD4690BD80B584B0E9
S113390000AF4FF001004FF0420105F097FB4FF07C
S1133910010005F0E9FB4FF03300FFF7F7FE4FF02D
S113392033004FF0FF01FFF70DFF4FF003004FF09E
S1133930620105F083FB4FF0030005F0D5FB4FF067
S11339403500FFF7E3FE4FF035004FF0FD01FFF7C0
S1133950F9FE4FF00003BB804FF000037B8145F27A
S11339601400C5F200004FF00A0102F00FFA45F20C
S11339701800C5F200004FF0190102F007FA4BF2EB
S11339801000C5F200004FF0070102F0FFF945F204
S11339900800C5F2000002F0FBF90346BB73BB7BD1
S11339A0AB2B07D0FB7B43F00103FB73FB7B4FEA9C
S11339B04303FB73FB7B4FEA4303FB734BF20800A7
S11339C0C5F2000002F0E4F90346BB73BB7BAB2BEA
S11339D007D0FB7B43F00103FB73FB7B4FEA4303FC
S11339E0FB73FB7B4FEA4303FB734CF20800C5F205
S11339F0000002F0CDF90346BB73BB7BAB2B07D0B1
S1133A00FB7B43F00103FB73FB7B4FEA4303FB7334
S1133A10FB7B4FEA4303FB7345F20C00C5F2000045
S1133A2002F09EF90346BB81BB89002B07D0FB7BC8
S1133A3043F00103FB73FB7B4FEA4303FB73FB7B04
S1133A404FEA4303FB7345F21000C5F2000002F095
S1133A5087F903463B813B89022B07D0FB7B43F06C
S1133A600103FB73FB7B4FEA4303FB73FB7B4FEACE
S1133A704303FB734BF20C00C5F2000002F088F91B
S1133A800346BB804CF20C00C5F2000002F080F942
S1133A900346BB80FB7B184607F11007BD4680BD7B
S1133AA080B586B002AFB96013460246FA73FB7163
S1133AB041F27443C2F200034FF000021A7032E084
S1133AC0FB79FA7B4FF00001009140F23440C2F2DE
S1133AD000001146BA6806F037F840F23440C2F2EA
S1133AE000004FF0000106F0ABF903461A4641F21C
S1133AF07813C2F200031A7041F27813C2F2000381
S1133B001B78002B02D14FF0000318E041F27443FC
S1133B10C2F200031B7803F10103DAB241F27443E9
S1133B20C2F200031A7041F27443C2F200031B781C
S1133B30092BC5D941F27443C2F200031B7818461D
S1133B4007F11007BD4680BD80B586B002AFB960ED
S1133B5013460246FA73FB7141F27443C2F2000346
S1133B604FF000021A7032E0FB79FA7B4FF000014B
S1133B70009140F23440C2F200001146BA6806F0E7
S1133B8055F840F23440C2F200004FF0000106F054
S1133B9057F903461A4641F27813C2F200031A7029
S1133BA041F27813C2F200031B78002B02D14FF0CC
S1133BB0000318E041F27443C2F200031B7803F1DE
S1133BC00103DAB241F27443C2F200031A7041F203
S1133BD07443C2F200031B78092BC5D941F2744324
S1133BE0C2F200031B78184607F11007BD4680BDDA
S1133BF080B582B000AF0B463A600246FA71BB71E1
S1133C00FA7907F10603104619464FF00102FFF74F
S1133C1047FF0346092B02D94FF001030EE0FB795D
S1133C20184639684FF00202FFF78EFF0346092B4E
S1133C3002D94FF0010301E04FF00003184607F1E9
S1133C400807BD4680BD00BF80B582B000AF034603
S1133C50FB7141F26C43C2F2000347F207021A807F
S1133C6041F27543C2F200034FF000021A70FB796F
S1133C70184641F27541C2F200014FF00102FFF70C
S1133C800FFF0346092B02D94FF0010312E041F262
S1133C906C43C2F20003FA79104619464FF002024F
S1133CA0FFF7FEFE0346092B02D94FF0010301E0A2
S1133CB04FF00003184607F10807BD4680BD00BF5A
S1133CC080B582B000AF0B463A600246FA71BB7110
S1133CD041F27043C2F200034FF000021A7041F245
S1133CE07043C2F200034FF000025A7041F2724373
S1133CF0C2F200034FF000021A80BB794FEA43037B
S1133D00DBB2FA791046194641F27042C2F200025F
S1133D10FFF76EFF0346002B1AD141F27043C2F243
S1133D2000031B784FEA03239AB241F27043C2F2B4
S1133D3000035B7842EA03039BB29AB241F27243F6
S1133D40C2F200031A803B684FF000021A700AE0C6
S1133D503B684FF001021A7041F27243C2F2000351
S1133D604FF000021A8041F27243C2F200031B8832
S1133D70184607F10807BD4680BD00BF80B582B074
S1133D8000AF0B463A600246FA71BB7141F27043D0
S1133D90C2F200034FF000021A7041F27043C2F203
S1133DA000034FF000025A7041F27243C2F2000362
S1133DB04FF000021A80BB794FEA4303DBB203F1F0
S1133DC0FF33DBB2FA791046194641F27042C2F26F
S1133DD00002FFF70DFF0346002B1AD141F2704396
S1133DE0C2F200031B784FEA03239AB241F27043F4
S1133DF0C2F200035B7842EA03039BB29AB241F237
S1133E007243C2F200031A803B684FF000021A703A
S1133E100AE03B684FF001021A7041F27243C2F2A9
S1133E2000034FF000021A8041F27243C2F2000311
S1133E301B88184607F10807BD4680BD80B588B0C9
S1133E4002AF78600B46FB704FF00003BB754FF078
S1133E500003FB754BF65822C0F2000207F1100371
S1133E6012681146198003F102034FEA12421A70D4
S1133E704FF004033B734FF000037B734FF00003D8
S1133E80BB7349E0BB7D1A464FEA42021344DBB2DE
S1133E9003F10503DBB23B74BB7D1A464FEA4202D1
S1133EA01344DBB203F10403DBB23B73FA7807F18A
S1133EB010034FF000010091786811461A464FF044
S1133EC0030305F041FE78684FF0000105F0B8FFE8
S1133ED003467B75FA7807F10C034FF0000100915B
S1133EE0786811461A464FF0030305F02DFE7868F2
S1133EF04FF0000105F0A4FF03467B757A7DBB7D7E
S1133F0002FA03F3DAB2FB7D42EA0303DBB2FB7588
S1133F10BB7D03F10103BB75BB7D032BB2D9FB7DD4
S1133F20184607F11807BD4680BD00BF80B58CB0A8
S1133F3004AFF8607B600B46FB721346BB72BB7A1E
S1133F403B753B7D43F00803DBB23B753B7D4FEA99
S1133F500313DBB23B75FA7A07F1140307F1180176
S1133F6000914FF0020101914FF000010291F868B5
S1133F7011461A464FF0010305F0CAFEF8684FF0E7
S1133F80000105F05DFF03467B777B7F002B04D0A7
S1133F907B684FF001021A7012E03B7E4FEA032364
S1133FA09AB27B7E42EA03039BB2FB83FB8B4FEA0C
S1133FB003534FEA1353FB837B684FF000021A70DC
S1133FC0FB8B184607F12007BD4680BD80B592B033
S1133FD004AFF860B9607A604BF66023C0F2000366
S1133FE01B88BB864FF0280387F830304FF02A0334
S1133FF087F82C304FF02C0387F828304FF0290332
S113400087F824304FF02B0387F820304FF02D032E
S11340103B774FF0000387F8363007F1340307F19C
S1134020180200924FF0010201924FF00002029236
S113403040F2C450C2F200004FF06A011A464FF039
S1134040020305F065FE40F2C450C2F200004FF0D6
S1134050000105F0F5FE034687F8373097F836205F
S113406097F83730134487F8363007F1280307F1FF
S1134070180200924FF0010201924FF000020292E6
S113408040F2C450C2F200004FF06A011A464FF0E9
S1134090010305F03DFE40F2C450C2F200004FF0AF
S11340A0000105F0CDFE034687F8373097F8362037
S11340B097F83730134487F8363007F11C0307F1BB
S11340C0140200924FF0010201924FF0000202929A
S11340D040F2C450C2F200004FF06A011A464FF099
S11340E0010305F015FE40F2C450C2F200004FF087
S11340F0000105F0A5FE034687F8373097F836200F
S113410097F83730134487F836303B7D4FEA032362
S11341109AB23B7E42EA03039BB29AB27B681A804E
S11341207B681B88B3F5004F06D97B681B886FEA50
S113413003039AB27B681A8007F12C0307F1180273
S113414000924FF0010201924FF00002029240F2FD
S1134150C450C2F200004FF06A011A464FF0010346
S113416005F0D6FD40F2C450C2F200004FF0000149
S113417005F066FE034687F8373097F8362097F83F
S11341803730134487F8363007F1200307F114025F
S113419000924FF0010201924FF00002029240F2AD
S11341A0C450C2F200004FF06A011A464FF00103F6
S11341B005F0AEFD40F2C450C2F200004FF0000121
S11341C005F03EFE034687F8373097F8362097F817
S11341D03730134487F836303B7D4FEA03239AB2D5
S11341E03B7E42EA03039BB29AB2BB681A80BB6867
S11341F01B88B3F5004F06D9BB681B886FEA03031D
S11342009AB2BB681A8007F1300307F118020092D2
S11342104FF0010201924FF00002029240F2C450AA
S1134220C2F200004FF06A011A464FF0010305F094
S11342306FFD40F2C450C2F200004FF0000105F0DF
S1134240FFFD034687F8373097F8362097F8373064
S1134250134487F8363007F1240307F1140200925F
S11342604FF0010201924FF00002029240F2C4505A
S1134270C2F200004FF06A011A464FF0010305F044
S113428047FD40F2C450C2F200004FF0000105F0B7
S1134290D7FD034687F8373097F8362097F837303C
S11342A0134487F836303B7D4FEA03239AB23B7EB2
S11342B042EA03039BB29AB2FB681A80FB681B882C
S11342C0B3F5004F06D9FB681B886FEA03039AB263
S11342D0FB681A8097F83730184607F13807BD464F
S11342E080BD00BF80B592B004AFF860B9607A6059
S11342F04BF65C23C0F200031B883B864FF0180387
S113430087F82C304FF01A0387F828304FF01C033D
S113431087F824304FF0190387F820304FF01B033F
S11343203B774FF01D033B764FF06A0387F8353037
S11343304FF0000387F8363097F8352007F1300343
S113434007F1140100914FF0010101914FF00001B8
S1134350029140F2C450C2F2000011461A464FF0D6
S1134360020305F0D5FC40F2C450C2F200004FF045
S1134370000105F065FD034687F8373097F83620CD
S113438097F83730134487F8363097F8352007F11B
S1134390240307F1140100914FF0010101914FF042
S11343A00001029140F2C450C2F2000011461A46C4
S11343B04FF0010305F0ACFC40F2C450C2F200001F
S11343C04FF0000105F03CFD034687F8373097F8BD
S11343D0362097F83730134487F8363097F835206D
S11343E007F1180307F1100100914FF00101019149
S11343F04FF00001029140F2C450C2F20000114695
S11344001A464FF0010305F083FC40F2C450C2F297
S113441000004FF0000105F013FD034687F8373024
S113442097F8362097F83730134487F836303B7CBA
S11344304FEA03239AB23B7D42EA03039BB29AB24A
S1134440FB681A8097F8352007F1280307F1140157
S113445000914FF0010101914FF00001029140F2EF
S1134460C450C2F2000011461A464FF0010305F091
S11344704FFC40F2C450C2F200004FF0000105F0BE
S1134480DFFC034687F8373097F8362097F8373043
S1134490134487F8363097F8352007F11C0307F1E9
S11344A0100100914FF0010101914FF000010291C0
S11344B040F2C450C2F2000011461A464FF0010304
S11344C005F026FC40F2C450C2F200004FF0000197
S11344D005F0B6FC034687F8373097F8362097F88E
S11344E03730134487F836303B7C4FEA03239AB2C3
S11344F03B7D42EA03039BB29AB2BB681A8097F8E9
S1134500352007F12C0307F1140100914FF001014C
S113451001914FF00001029140F2C450C2F2000038
S113452011461A464FF0010305F0F2FB40F2C45065
S1134530C2F200004FF0000105F082FC034687F848
S1134540373097F8362097F83730134487F83630E9
S113455097F8352007F1200307F1100100914FF07F
S1134560010101914FF00001029140F2C450C2F2E6
S1134570000011461A464FF0010305F0C9FB40F252
S1134580C450C2F200004FF0000105F059FC03468C
S113459087F8373097F8362097F83730134487F880
S11345A036303B7C4FEA03239AB23B7D42EA030355
S11345B09BB29AB27B681A8097F83730184607F195
S11345C03807BD4680BD00BF80B58AB004AF7860AF
S11345D04FF015033B754FF016033B744FF06A031D
S11345E0BB75BA7D07F1140307F10C0100914FF07C
S11345F0010101914FF00001029140F2C450C2F256
S1134600000011461A464FF0010305F081FB40F209
S1134610C450C2F200004FF0000105F011FC034643
S1134620FB75BA7D07F1100307F1080100914FF003
S1134630010101914FF00001029140F2C450C2F215
S1134640000011461A464FF0010305F061FB40F2E9
S1134650C450C2F200004FF0000105F0F1FB034624
S1134660FB753B7B1A463B7A4FEA03239BB242EA33
S113467003039BB29AB27B681A804FF0000318467A
S113468007F11807BD4680BD80B586B002AF41F280
S11346907643C2F200034FF000021A704FF00A0092
S11346A04FF0010104F0E8FC4FF000033B714FF0C0
S11346B000037B714FF00003BB714FF00003FB71EB
S11346C04FF000033B724FF00003FB604FF0000318
S11346D0FB600BE041F20050C2F200004FF0FF011A
S11346E003F034F9FB6803F10103FB60FB68092B59
S11346F0F0D941F20050C2F200004FF0000103F083
S113470059F807F104034FF00102009241F20050FE
S1134710C2F2000040F21001C2F200014FF00702A1
S113472003F074F9FB6803F10103FB603B79012B8F
S113473006D03B79012B04D0FB68FE2BE1D900E0C5
S113474000BF4FF00003FB6041F20050C2F20000D2
S11347504FF0FF0103F0FAF841F20050C2F20000FA
S11347604FF0FF0103F0F2F807F104034FF00502E4
S1134770009241F20050C2F2000040F21801C2F26D
S113478000014FF0070203F041F941F20050C2F278
S113479000004FF0FF0103F0D9F841F20050C2F2DB
S11347A000004FF0FF0103F0D1F8FB6803F10103AF
S11347B0FB603B7AAA2B10D1FB79012B0DD1BB797D
S11347C0002B0AD17B79002B07D141F27643C2F248
S11347D000034FF001021A7002E0FB68FE2BB3D90C
S11347E0FB68FE2B0AD941F20050C2F200004FF0E0
S11347F0000103F063F84FF001037EE14FF0000382
S11348003B714FF000037B714FF00003BB714FF01D
S11348100003FB714FF000033B724FF00003FB6099
S113482041F27643C2F200034FF000021A7041F2E3
S11348300050C2F200004FF0FF0103F087F841F28C
S11348400050C2F200004FF0FF0103F07FF807F1BF
S113485004034FF00502009241F20050C2F200003E
S113486040F22001C2F200014FF0070203F0CEF83B
S113487041F20050C2F200004FF0FF0103F066F86D
S113488041F20050C2F200004FF0FF0103F05EF865
S1134890FB6803F10103FB60FB79802B0AD1BB7930
S11348A0FF2B07D141F27643C2F200034FF001021D
S11348B01A7002E0FB68FE2BB9D9FB68FE2B0AD9FB
S11348C041F20050C2F200004FF0000102F0F6FF86
S11348D04FF0010311E14FF000033B714FF000036F
S11348E07B714FF00003BB714FF00003FB714FF07D
S11348F000033B724FF00003FB6041F27643C2F2C7
S113490000034FF000021A7041F20050C2F200009E
S11349104FF0FF0103F01AF841F20050C2F2000018
S11349204FF0FF0103F012F807F104034FF0010206
S1134930009241F20050C2F2000040F22801C2F29B
S113494000014FF0070203F061F841F20050C2F297
S113495000004FF0FF0102F0F9FF07F104034FF0EC
S11349600102009241F20050C2F2000040F2300114
S1134970C2F200014FF0070203F048F841F2005080
S1134980C2F200004FF0FF0102F0E0FF41F20050DC
S1134990C2F200004FF0FF0102F0D8FFFB6803F100
S11349A00103FB603B79002B07D141F27643C2F24D
S11349B000034FF001021A7004E0FA6840F6F513A0
S11349C09A42A1D941F27643C2F200031B78002B2C
S11349D00AD141F20050C2F200004FF0000102F08F
S11349E06DFF4FF0010388E04FF000033B714FF07F
S11349F000037B714FF00003BB714FF00003FB71A8
S1134A004FF000033B724FF00003FB6041F276432A
S1134A10C2F200034FF000021A7041F20050C2F2D9
S1134A2000004FF0FF0102F091FF41F20050C2F28A
S1134A3000004FF0FF0102F089FF07F104034FF07B
S1134A400502009241F20050C2F2000040F220013F
S1134A50C2F200014FF0070202F0D8FF41F2005009
S1134A60C2F200004FF0FF0102F070FF41F200506B
S1134A70C2F200004FF0FF0102F068FFFB6803F18F
S1134A800103FB60FB79802B0AD1BB79FF2B07D193
S1134A9041F27643C2F200034FF001021A7002E0C1
S1134AA0FB68FE2BB9D9FB68FE2B0AD941F20050F2
S1134AB0C2F200004FF0000102F000FF4FF00103CA
S1134AC01BE041F27643C2F200031B78012B0AD1AA
S1134AD041F20050C2F200004FF0000102F0EEFE7D
S1134AE04FF0000309E041F20050C2F200004FF021
S1134AF0000102F0E3FE4FF00103184607F110072E
S1134B00BD4680BD80B58CB002AF786039607B68EB
S1134B104FEA1363D8B27B684FEA1343D9B27B6878
S1134B204FEA1323DAB27B68DBB24FF0580C87F8F4
S1134B3018C07876B976FA763B774FF0FF337B77F7
S1134B404FF0FF33BB774FF000033B744FF000038B
S1134B507B744FF00003BB744FF00003FB744FF001
S1134B6000033B754FF00003FB776FF00103FB7309
S1134B704FF000033B624FF000037B6241F20050B0
S1134B80C2F200004FF0FF0102F0E0FE41F20050DB
S1134B90C2F200004FF0000102F00CFE41F200509E
S1134BA0C2F200004FF0FF0102F0D0FE07F118023C
S1134BB007F110034FF00101009141F20050C2F2DD
S1134BC0000011464FF0070202F020FF41F20050AE
S1134BD0C2F200004FF0FF0102F0B8FE3B6A03F19D
S1134BE001033B623B7C002B77D107F10F0207F1F5
S1134BF010034FF00101009141F20050C2F2000095
S1134C0011464FF0010202F001FF07F110034FF0CB
S1134C100002009241F20050C2F2000039684FF4E1
S1134C20007202F0F3FE17E041F20050C2F20000FD
S1134C304FF0FF0102F08AFE0346DBB23B743B7C7B
S1134C4003F01F03052B03D14FF00103FB7706E0AC
S1134C507B6A03F101037B627B6A632BE4D9FB7FEC
S1134C60012B3FD14FF00003FB774FF000037B6231
S1134C702FE041F20050C2F200004FF0FF0102F0B9
S1134C8065FE0346DBB23B743B7C002B1DD04FF02A
S1134C900103FB7741F20050C2F200004FF0FF0124
S1134CA002F054FE41F20050C2F200004FF0000145
S1134CB002F004FE41F20050C2F200004FF0FF0186
S1134CC002F044FE4FF0000335E07B6A03F1010378
S1134CD07B627B6A632BCCD905E03B6AFE2B7FF6B3
S1134CE04DAF00E000BF3B6AFE2B12D941F20050E9
S1134CF0C2F200004FF0000102F0E0FD41F200506A
S1134D00C2F200004FF0FF0102F020FE4FF0010359
S1134D1011E041F20050C2F200004FF0000102F035
S1134D20CDFD41F20050C2F200004FF0FF0102F04D
S1134D300DFE4FF00103184607F12807BD4680BD5C
S1134D4080B58CB002AF786039607B684FEA13633A
S1134D50D8B27B684FEA1343D9B27B684FEA132376
S1134D60DAB27B68DBB24FF0510C87F818C0787662
S1134D70B976FA763B774FF0FF337B774FF0FF330A
S1134D80BB774FF000033B744FF000037B744FF08C
S1134D900003BB744FF00003FB744FF000033B753A
S1134DA04FF00003FB774FF0FF33FB734FF000032A
S1134DB03B624FF00003FB8441F20050C2F200005A
S1134DC04FF0FF0102F0C2FD41F20050C2F20000B8
S1134DD04FF0000102F0EEFC41F20050C2F200007C
S1134DE04FF0FF0102F0B2FD07F1180207F11003C2
S1134DF04FF00101009141F20050C2F2000011464F
S1134E004FF0070202F002FE56E041F20050C2F2F7
S1134E1000004FF0FF0102F099FD0346DBB23B7442
S1134E20FB8C03F10103FB843B7CFE2B44D141F258
S1134E300050C2F200004FF0FF0102F087FD07F1BD
S1134E400F034FF40072009241F20050C2F20000CE
S1134E5019464FF000023B6802F0D8FD41F20050C1
S1134E60C2F200004FF0FF0102F070FD41F2005069
S1134E70C2F200004FF0FF0102F068FD4FF00103A1
S1134E80FB7741F20050C2F200004FF0FF0102F044
S1134E905DFD41F20050C2F200004FF0000102F04B
S1134EA00DFD41F20050C2F200004FF0FF0102F08C
S1134EB04DFD4FF000031CE0FB8CF92BA5D93B6A98
S1134EC003F101033B623B6A632B7FF675AF41F24A
S1134ED00050C2F200004FF0000102F0EFFC41F27A
S1134EE00050C2F200004FF0FF0102F02FFD4FF01E
S1134EF00103184607F12807BD4680BD80B485B07C
S1134F0000AFF860B9607A60FB68BA681A60FB6841
S1134F107A685A60FB68BA689A60FB68BA68DA60B3
S1134F2007F11407BD4680BC704700BF80B582B04E
S1134F3000AF786039607B68DA687B685B689A42A6
S1134F4005D27B68DA687B681B689A4202D24FF00C
S1134F50020313E07B68DB6818463968FFF7D2FD6B
S1134F600346002B08D17B68DB6803F101027B68F0
S1134F70DA604FF0000301E04FF00103184607F137
S1134F800807BD4680BD00BF80B582B000AF786021
S1134F9039607B689A687B68DB689A4205D27B68D3
S1134FA09A687B681B689A4202D24FF0020313E0AE
S1134FB07B689B6818463968FFF7C2FE0346002BDE
S1134FC008D17B689B6803F101027B689A604FF00B
S1134FD0000301E04FF00103184607F10807BD463E
S1134FE080BD00BF80B582B000AF78604FF006008E
S1134FF04FF0050104F022F84FF006004FF00101D4
S113500004F03AF8786842F20001C5F200014FF06A
S113501010024FF0000304F021FD78684FF0000106
S113502004F00EFF03461A4641F27813C2F200035D
S11350301A7041F27813C2F200031B78184607F184
S11350400807BD4680BD00BF80B584B002AF78605C
S1135050396040F23803C2F200031B784FF00002BB
S1135060009278684FF032013A6804F0DFFD786806
S11350704FF0000104F0E4FE03461A4641F27813AF
S1135080C2F200031A7041F27813C2F200031B78D3
S1135090184607F10807BD4680BD00BF80B586B03D
S11350A002AF786039604FF00103FB734FF00103E6
S11350B03B73FB7B07F10C024FF001010091786810
S11350C04FF0320104F040FD78684FF0000104F025
S11350D0B7FE03461A4641F27813C2F200031A706F
S11350E040F23803C2F200031B784FF00002009232
S11350F078684FF032013A6804F098FD78684FF010
S1135100000104F09DFE03461A4641F27813C2F2F0
S113511000031A7041F27813C2F200031B78184698
S113512007F11007BD4680BD90B585B000AF78602B
S113513039604FF00003FB732EE0FA7B3B6802EB0F
S11351400304FB7B41F24800C2F200004FF021014E
S11351501A4641F27643C2F20003FEF7E7FE034625
S1135160DBB2237041F27743C2F200031B784FEAAB
S11351704303DAB241F27643C2F200031B7842EAF7
S11351800303DBB2DAB241F27743C2F200031A70CE
S1135190FB7B03F10103FB73FB7B072BCDD907F1E9
S11351A01407BD4690BD00BF80B483B000AF7860E3
S11351B041F27843C2F200037A681A6007F10C07DF
S11351C0BD4680BC704700BF80B58AB002AF4FF0C7
S11351D0FF33FB604FF0FF33FB724FF00003BB76ED
S11351E04FF00103FB764FF00003BB724FF0000356
S11351F03B714FF0FF337B714FF01003BB714FF0E5
S11352001703FB7140F21050C2F2000044F2000197
S1135210C5F200014FF0080204F092F840F2105079
S1135220C2F2000004F0FEF84FF005004FF0050153
S113523003F004FF40F21050C2F20000FFF7B4FF85
S11352404FF005004FF0000103F016FF4FF000038C
S1135250BB834FF00003BB8303E0BB8B03F101036B
S1135260BB83BA8B40F2E7339A42F6D94FF005007C
S11352704FF0010103F000FF4FF00003BB8341F244
S11352807843C2F200031B6818464FF0000104F093
S11352900BF94FF00003BB8303E0BB8B03F1010365
S11352A0BB83BA8B40F25D139A42F6D941F278433C
S11352B0C2F20003196807F10B0207F10A034FF069
S11352C001000090084611464FF0010200F026FB51
S11352D0BB7A002B1AD04FF00003FB7641F27843DF
S11352E0C2F200031B6818464FF0000104F030F9C5
S11352F04FF00003BB8303E0BB8B03F10103BB83CB
S1135300BA8B40F2E7339A42F6D906E0BB7E03F14A
S11353100103BB76BB7E092BB1D941F27843C2F2BB
S113532000031B6818464FF0000104F0BDF841F279
S11353307843C2F20003196807F10B0207F10A036C
S11353404FF001000090084611464FF0010200F0B2
S1135350E5FA4FF00003FB704FF0FF33BB704FF0E2
S11353600003BB7741F27843C2F20003196807F1E6
S1135370020207F103034FF00100009008461146B2
S11353804FF0010200F0CAFAFB7803F02003002B6F
S113539004D0FB7803F00403002B0CD1BB7F632BF8
S11353A08CBF00230123DBB2BA7F02F10102BA777A
S11353B0002BD7D100E000BF41F27843C2F20003D2
S11353C01B6818464FF0000104F0C2F84FF00003C8
S11353D0BB7706E000F050FB0346FB77FB7F012B15
S11353E00CD0BB7F632B8CBF00230123DBB2BA7FBD
S11353F002F10102BA77002BECD100E000BF00F00B
S113540095F80346BB76BB7E002B07D100F00AFA61
S11354100346BB76BB7E002B03D00AE04FF00303A8
S113542018E000F03DFA0346BB76BB7E002B03D0A8
S11354300FE04FF002030DE007F104034FF03800D2
S113544040F20051C2F200011A464FF0040300F08A
S1135450EDF8FFE7184607F12007BD4680BD00BF01
S113546080B588B002AF78600B467B804FF00003B4
S1135470FB6041F27843C2F200031B6818464FF008
S1135480000104F011F87A68FB6813441B784FEAB2
S11354900342FB6803F101017B680B441B784FEA6C
S11354A0032342EA0302FB6803F102017B680B4415
S11354B01B7842EA03037B617A694FF6FF739A42D1
S11354C002D94FF001032BE0FB6803F103037A6870
S11354D013443B6141F27843C2F200031A683B690A
S11354E003F101037969A1F10401009110463969BE
S11354F04FF0010200F046FAFA687B691344FB603E
S11355007A88FB689A42BED841F27843C2F200031B
S11355101B6818464FF0000104F01AF84FF000031E
S1135520184607F11807BD4680BD00BF80B588B096
S113553000AF4BF66423C0F200031B68BB614BF65B
S11355406823C0F200031B687B614BF66C23C0F236
S113555000031B683B614BF67023C0F200031B6819
S1135560FB604FF000033B714FF000037B714FF081
S11355700003BB714FF00003FB714FF000033B725B
S11355804FF000037B724FF00003FB7740F23C00C6
S1135590C2F200004FF43671FFF762FF0346BB7797
S11355A0BB7F002B02D04FF003033AE04FF085009D
S11355B000F0D2F80346BB77BB7F002B02D04FF03C
S11355C001032EE04FF0820000F0C6F80346BB77DB
S11355D0BB7F002B0ED0BB7F6FEA83636FEA9363BC
S11355E0DBB21EE000F048FA0346BB77BB7F022B18
S11355F00ED000E000BFFB7F632B8CBF0023012390
S1135600DBB2FA7F02F10102FA77002BEAD100E063
S113561000BFFB7F632B02D94FF0010301E04FF081
S11356200003184607F12007BD4680BD80B588B049
S113563002AFB9607A603B600346FB73BB684FEA14
S11356401363D8B2BB684FEA1343D9B2BB684FEABD
S11356501323DAB2BB68DBB297F80FC087F810C027
S11356607874B974FA743B7541F27843C2F200035A
S11356701B6818464FF0000103F016FF41F278430F
S1135680C2F200031A6807F110033968009110464A
S113569019464FF005027B6800F074F941F2784333
S11356A0C2F200031B6818464FF0000103F050FFDC
S11356B04FF00003184607F11807BD4680BD00BF30
S11356C080B588B002AFB9607A603B600346FB7373
S11356D0BB684FEA1363D8B2BB684FEA1343D9B22D
S11356E0BB684FEA1323DAB2BB68DBB297F80FC08A
S11356F087F810C07874B974FA743B7541F2784332
S1135700C2F200031B6818464FF0000103F0CCFE00
S113571041F27843C2F200031A683B6803F10201C4
S113572007F110030091104619464FF005027B68FB
S113573000F0F4F841F27843C2F200031B68184603
S11357404FF0000103F004FF7B6803F102031846E5
S113575007F11807BD4680BD80B586B002AF034689
S1135760FB7141F27843C2F200031B6818464FF004
S1135770000103F099FE4FF00003BB734FF0FF33B9
S11357807B734FF00003FB7341F27843C2F20003D2
S1135790196807F10D0207F10E034FF001000090A4
S11357A0084611464FF0010200F0B8F8BB7B03F045
S11357B02003002B0CD1FB7B632B8CBF0023012324
S11357C0DBB2FA7B02F10102FA73002BDCD100E0B8
S11357D000BFFB7B632B02D94FF002031DE041F2B3
S11357E07843C2F20003196807F1070207F10E03B8
S11357F04FF001000090084611464FF0010200F0FE
S1135800C1F841F27843C2F200031B6818464FF016
S1135810000103F09DFE4FF00003184607F1100746
S1135820BD4680BD80B584B002AF4FF00003BB71AC
S11358304FF0FF337B714FF00003FB7141F278436B
S1135840C2F20003196807F1050207F106034FF0DD
S113585001000090084611464FF0010200F05EF886
S1135860BB7903F02003002B0CD1FB79632B8CBF95
S113587000230123DBB2FA7902F10102FA71002B51
S1135880DCD100E000BFFB79632B02D94FF00103A8
S113589001E04FF00003184607F10807BD4680BD3C
S11358A080B584B002AF4FF00003BB714FF0FF33FB
S11358B07B714FF00003FB7141F27843C2F20003A5
S11358C0196807F1050207F106034FF00100009083
S11358D0084611464FF0010200F020F8BB7903F0AE
S11358E00403002B0CD1FB79632B8CBF0023012311
S11358F0DBB2FA7902F10102FA71002BDCD100E08B
S113590000BFFB79632B02D94FF0010301E04FF094
S11359100003184607F10807BD4680BD80B588B06E
S113592002AFF860B9607A603B604FF000033B74EB
S11359307B689AB23B6A99B207F110030091F86848
S1135940B96803F05BFE4FF00003FB8211E0FA8AB2
S11359503B6A9A4209D2FA8A3B681344FA8A07F1ED
S113596018010A4412F8082C1A70FB8A03F1010387
S1135970FB82FA8A40F2E7339A42E8D907F1180722
S1135980BD4680BD80B5D2B002AF07F10C0CCCF897
S1135990000007F10800016007F104010A603A46BB
S11359A013604FF00003A7F83E3111E0B7F83E3121
S11359B0B7F83E1107F1080212680A44117807F19A
S11359C01002D154B7F83E3103F10103A7F83E3178
S11359D0B7F83E2107F104031B689A42E6D315E0A9
S11359E0B7F83E31B7F83E1107F104021268C2EB72
S11359F001013A4612680A44117807F11002D154A1
S1135A00B7F83E3103F10103A7F83E31B7F83E2160
S1135A1007F104031968D7F848310B449A42DFD3DD
S1135A2007F104031B689AB2D7F848319BB21344B8
S1135A309BB207F10C0107F110024FF00000009037
S1135A40086811461A464FF0000303F0D7FD4FF0E3
S1135A500003A7F83E3105E0B7F83E3103F1010336
S1135A60A7F83E31B7F83E2140F2E7339A42F3D922
S1135A7007F5A077BD4680BD80B582B000AF4FF07A
S1135A8000033B704FF000037B704FF00003BB70CA
S1135A904FF00003FB704FF000033B714FF0000325
S1135AA07B714FF00003BB714FF00003FB7114E0F6
S1135AB03B464FF0780044F2B421C4F200011A4688
S1135AC04FF00403FFF7FCFD3B78E22B17D03B7843
S1135AD0A22B14D03B78002B11D03B78E42B0ED0B2
S1135AE03B78A42B0BD0FB79632B8CBF00230123C1
S1135AF0DBB2FA7902F10102FA71002BD8D13B79B9
S1135B0003F03F03BB71BB79184607F10807BD4694
S1135B1080BD00BF80B584B000AF78604FF0000353
S1135B203B720CE007F108034FF0780040F2385163
S1135B30C2F200011A464FF00403FFF7C1FD3B7A9D
S1135B40002BEFD0BB7A03F007034FEA03239AB28A
S1135B50FB7A13449AB27B681A807B681B88C3F172
S1135B6000039BB29AB27B681A807B681B884FEA59
S1135B7003534FEA13537A6813807B681B88B3F589
S1135B80006F06D97B681B88A3F500639AB27B6813
S1135B901A807B681B884FEA93039AB27B681A8049
S1135BA007F11007BD4680BD80B584B000AF7860B2
S1135BB04FF000033B724FF08600FFF7CDFDFFF777
S1135BC05BFF0346FB7303E0FFF756FF0346FB73DB
S1135BD0FB7B022BF8D10CE007F108034FF07800AF
S1135BE040F27C31C2F200011A464FF00403FFF781
S1135BF067FD3B7A002BEFD03B7B03F007034FEAB2
S1135C0003239AB27B7B13449AB27B681A807B6825
S1135C101B88C3F100039BB29AB27B681A807B682D
S1135C201B884FEA03534FEA13537A6813807B6847
S1135C301B88B3F5006F06D97B681B88A3F5006346
S1135C409AB27B681A807B681B884FEA93039AB2E6
S1135C507B681A8007F11007BD4680BD80B582B00D
S1135C6000AF3B464FF0780040F20451C2F200010D
S1135C701A464FF00403FFF723FDFB78FB71FB7911
S1135C80184607F10807BD4680BD00BF80B584B043
S1135C9000AF07F104034FF0780040F21451C2F250
S1135CA000011A464FF00403FFF70AFDBB794FEADF
S1135CB00362FB794FEA034342EA03023B7A4FEA69
S1135CC0032342EA03027B7A42EA0303FB60FB6894
S1135CD0184607F11007BD4680BD00BF80B584B0EB
