:1000000000800020910100007F03000081030000B8
:100010008303000085030000870300000000000048
:100020000000000000000000000000008903000044
:100030008B030000000000008D0300008F03000010
:100040009103000093030000697800008D780000A0
:10005000990300009B0300009D0300009F03000024
:10006000A1030000A3030000E95E00000D5F000093
:10007000A9030000AB030000AD030000AF030000C4
:10008000B1030000B3030000B5030000A5A7000002
:10009000B9030000BB030000BD030000BF03000064
:1000A000C1030000C3030000C5030000C703000034
:1000B000C9030000CB030000CD030000CF03000004
:1000C000D1030000D30300003136000045360000A4
:1000D000593600006D360000813600008D36000074
:1000E00099360000A5360000B1360000E703000095
:1000F000E9030000EB030000ED030000EF03000044
:10010000F1030000F3030000F5030000A53C00002C
:10011000F9030000FD3C0000FD030000FF030000A8
:1001200001040000030400000504000007040000AF
:10013000090400000B0400000D0400000F0400007F
:10014000110400001304000015040000170400004F
:10015000190400001B0400001D0400001F0400001F
:1001600021040000230400002504000027040000EF
:10017000290400002B0400002D0400002F040000BF
:100180003104000033040000000000000000000003
:100190004FF0000BDFF8BE020068DFF8B612096806
:1001A00001F0030100F01C00142801D14BF0020BF8
:1001B000002901D04BF0010BBBF1000F05D0A7487F
:1001C000A749DFF8722200F09FF8A64880470BF09D
:1001D000020ABAF1000F0CD0DFF86E02DFF86E12DF
:1001E00002680B680FB44FF000024FF0FF0302608B
:1001F0000B609D489D4A9E4B022808D1DFF83E12B5
:100200000A60DFF842120A60DFF836120B6001283C
:1002100008D1DFF82E120A60DFF82A120A60DFF830
:100220001E120B609348002809D193489349944AC1
:1002300000F032F893489449944A00F02DF894481D
:100240009449954A00F028F894489549DFF8E6214A
:1002500000F05AF8BBF1000F12D092489249DFF833
:10026000DA2100F051F80BF0020ABAF1000F07D0C2
:100270000FBC02600B6000BFAFF30080AFF30080E3
:10028000DFF828020FF2030E00474FF000004FF096
:100290000001DFF81CF2FEE72DE9F841884225D085
:1002A000B2EB010200D5FEE740EA010313F00303BD
:1002B00002D000F01DF819E04FF000039046121133
:1002C000F7D09A421CBFF0C8F0C103F10103F8D186
:1002D00008F00F08B8F1000F08D004780C7000F196
:1002E000010001F10101B8F10108F6D1BDE8F88182
:1002F00008B54FF0000303780B7000F1010001F125
:100300000101013AF7D108BD884237D000F0030659
:10031000002E14D04FF00405A5EB06044FF008079B
:1003200007FB06F8914669FA08F9002C07D080F817
:10033000009069FA07F900F10100013CF5E74FF080
:1003400000060F46091A88460911914614461546BB
:10035000B14206D018BFA0E8340206F10106B1424E
:10036000F8D108F00F08B8F1000F07D002704FEA7B
:10037000322200F10100B8F10108F4E77047FEE70E
:10038000FEE7FEE7FEE7FEE7FEE7FEE7FEE7FEE745
:10039000FEE7FEE7FEE7FEE7FEE7FEE7FEE7FEE735
:1003A000FEE7FEE7FEE7FEE7FEE7FEE7FEE7FEE725
:1003B000FEE7FEE7FEE7FEE7FEE7FEE7FEE7FEE715
:1003C000FEE7FEE7FEE7FEE7FEE7FEE7FEE7FEE705
:1003D000FEE7FEE7FEE7FEE7FEE7FEE7FEE7FEE7F5
:1003E000FEE7FEE7FEE7FEE7FEE7FEE7FEE7FEE7E5
:1003F000FEE7FEE7FEE7FEE7FEE7FEE7FEE7FEE7D5
:10040000FEE7FEE7FEE7FEE7FEE7FEE7FEE7FEE7C4
:10041000FEE7FEE7FEE7FEE7FEE7FEE7FEE7FEE7B4
:10042000FEE7FEE7FEE7FEE7FEE7FEE7FEE7FEE7A4
:10043000FEE7FEE7704700000000A2A2A2A2008033
:100440000340088003401080034030800340348024
:10045000034038800340180802400000007000206C
:1004600000800020D1A20000000000000000000079
:10047000010000000000000000000000000000007B
:1004800090010000C0040000C004000040B1000062
:1004900040B1000000000020500300205003002065
:1004A0001016002010160020007000201DAF000064
:1004B00041320000AFF30080AFF30080AFF3008063
:1004C00040F25033C2F200031A780AB901201870C2
:1004D000704700BF40F20000C2F2000008B5036898
:1004E0002BB140F20003C0F2000303B1984708BDEE
:1004F00080B483B000AF7860396044F20003C4F286
:1005000000035A6B3B681A6044F20003C4F2000314
:100510001A6B7B681A6007F10C07BD4680BC7047F8
:1005200080B400AF45F20003C4F200031B68184614
:10053000BD4680BC704700BF80B500AF40F234407C
:10054000C2F200004FF0A0414FF040024FF0000314
:1005500008F080FE40F2C450C2F2000043F20001F5
:10056000C5F200014FF06A024FF0000308F072FE7E
:1005700040F2A040C2F2000041F20001C5F20001C9
:100580004FF023024FF0070308F064FE80BD00BF68
:1005900080B485B000AF78600B467B804FF00003DD
:1005A0003B734FF000037B734FF00003BB734FF0BE
:1005B0000003FB734FF00003FB733AE03A7BF97BD7
:1005C0007B680B441B7802EB030148F28103C8F2FD
:1005D000800383FB01230B444FEAE3124FEAE173EC
:1005E000C3EB020213464FEA0323C2EB0303C3EB40
:1005F000010213463B737A7B3B7B02EB030148F21B
:100600008103C8F2800383FB01230B444FEAE3120A
:100610004FEAE173C3EB020213464FEA0323C2EB36
:100620000303C3EB010213467B73FB7B03F101035E
:10063000FB73FB7B7A889A42C0D83A7B7B7B02EBC8
:10064000030148F28103C8F2800383FB01230B44BA
:100650004FEAE3124FEAE173C3EB020213464FEA9B
:100660000323C2EB0303C3EB0102D3B26FEA03031C
:10067000BB733A7BBB7B02EB030148F28103C8F2F8
:10068000800383FB01230B444FEAE3124FEAE1733B
:10069000C3EB020213464FEA0323C2EB0303C3EB8F
:1006A0000102D3B26FEA03037B737B7B4FEA032320
:1006B0009AB2BB7B42EA03039BB29BB2184607F196
:1006C0001407BD4680BC704790B58DB000AF40F2B6
:1006D0003462C2F2000240F20C53C2F200031A600C
:1006E0004FF000037B854FF0000387F82D304BF26D
:1006F0004003C0F20003BC469E46BEE80F00ACE8D3
:100700000F00DEF80030ACF8003041F2D832C2F20F
:10071000000241F2C833C2F2000310461946FFF747
:10072000E7FE40F20C53C2F200031A6840F20403E1
:10073000C2F200031B78537440F20C53C2F2000360
:100740001A684FF0000343F0500393744FF0000316
:100750006FEA030303F03C036FEA0303D37440F230
:100760000C53C2F200031C68FFF7DAFE034603F0E5
:10077000FF024FF0000141EA020222754FEA132204
:1007800002F0FF024FF0000141EA020262754FEAF7
:10079000134202F0FF024FF0000141EA0202A2758B
:1007A0004FEA13634FF0000242EA0303E37540F29D
:1007B0000C53C2F200031A6840F26C33C2F2000319
:1007C0001B78937640F20C53C2F200031A6841F290
:1007D000E033C2F200031B681B78137640F20C531F
:1007E000C2F200031A6840F26533C2F200031B78BC
:1007F000937316E040F20C53C2F20003196897F8A5
:100800002D0097F82D2041F2B403C2F200039A5C48
:1008100000EB0103DA7697F82D3003F1010387F836
:100820002D3097F82D300F2BE4D940F20C53C2F243
:1008300000031A6840F26833C2F200031B78D373D6
:1008400040F20C53C2F200031A6840F26933C2F25C
:1008500000031B78137440F20C53C2F200031B68B0
:100860003A7F4FF0000141EA020283F82B207A7FA1
:100870004FF0000141EA020283F82C2040F20C53B1
:10088000C2F200031B68BA7F4FF0000141EA020286
:1008900083F82D20FA7F4FF0000141EA020283F82D
:1008A0002E2040F20C53C2F200031B6897F8202060
:1008B0004FF0000141EA020283F82F2097F821202F
:1008C0004FF0000141EA020283F8302040F20C535D
:1008D000C2F200031B6897F822204FF0000141EAA2
:1008E000020283F8312097F823204FF0000141EAFB
:1008F000020283F8322040F20C53C2F200031B685C
:1009000097F824204FF0000141EA020283F83320D7
:1009100097F825204FF0000141EA020283F83420C5
:1009200040F20C53C2F200031B6897F826204FF0E8
:10093000000141EA020283F8352097F827204FF0A2
:10094000000141EA020283F8362040F20C53C2F261
:1009500000031B6897F828204FF0000141EA0202CB
:1009600083F8372097F829204FF0000141EA02026E
:1009700083F8382040F20C53C2F200031C6807F1E0
:10098000130340F23440C2F200004FF040014FF038
:10099000020203F0E7FB034603F0FF024FF0000101
:1009A00041EA020284F839204FEA13239BB24FF048
:1009B000000242EA030384F83A30FB7C4FEAC303A7
:1009C0009AB27B8D42EA03039BB27B8540F20C53C3
:1009D000C2F200031C6807F1130340F23440C2F274
:1009E00000004FF040014FF0030203F0BBFB034651
:1009F00003F0FF024FF0000141EA020284F83B20BD
:100A00004FEA13239BB24FF0000242EA030384F83B
:100A10003C30FB7C4FEA03139AB27B8D42EA03031E
:100A20009BB27B8540F20C53C2F200031C6807F1B5
:100A3000130340F2A040C2F200004FF040014FF01B
:100A4000010203F08FFB034603F0FF024FF00001A9
:100A500041EA020284F83D204FEA13239BB24FF093
:100A6000000242EA030384F83E3040F20C53C2F223
:100A700000031C6807F1130340F2A040C2F200001B
:100A80004FF040014FF0020203F06CFB034603F00D
:100A9000FF024FF0000141EA020284F83F204FEAD2
:100AA00013239BB24FF0000242EA030384F8403064
:100AB00040F20C53C2F200031C6807F1130340F22A
:100AC000A040C2F200004FF040014FF0030203F0DB
:100AD00049FB034603F0FF024FF0000141EA020226
:100AE00084F841204FEA13239BB24FF0000242EA00
:100AF000030384F8423040F20C53C2F200031B6837
:100B000041F20C42C2F20002D26802F0FF014FF043
:100B1000000040EA010183F851104FEA122101F070
:100B2000FF014FF0000040EA010183F852104FEA44
:100B3000124101F0FF014FF0000040EA010183F88B
:100B400053104FEA12624FF0000141EA020283F8AB
:100B5000542040F20C53C2F200031B6841F20C42D5
:100B6000C2F20002926802F0FF014FF0000040EA7A
:100B7000010183F84D104FEA122101F0FF014FF0FF
:100B8000000040EA010183F84E104FEA124101F0E3
:100B9000FF014FF0000040EA010183F84F104FEAD7
:100BA00012624FF0000141EA020283F8502040F245
:100BB0000C53C2F200031B6841F2FC32C2F2000285
:100BC000D26802F0FF014FF0000040EA010183F813
:100BD00061104FEA122101F0FF014FF0000040EADE
:100BE000010183F862104FEA124101F0FF014FF05A
:100BF000000040EA010183F863104FEA12624FF0EF
:100C0000000141EA020283F8642040F20C53C2F270
:100C100000031B6841F2FC32C2F20002926802F04B
:100C2000FF014FF0000040EA010183F85D104FEA38
:100C3000122101F0FF014FF0000040EA010183F8AA
:100C40005E104FEA124101F0FF014FF0000040EA50
:100C5000010183F85F104FEA12624FF0000141EA90
:100C6000020283F8602040F20C53C2F200031B68BA
:100C700041F2E832C2F20002D26802F0FF014FF006
:100C8000000040EA010183F859104FEA122101F0F7
:100C9000FF014FF0000040EA010183F85A104FEACB
:100CA000124101F0FF014FF0000040EA010183F81A
:100CB0005B104FEA12624FF0000141EA020283F832
:100CC0005C2040F20C53C2F200031B6841F2E83290
:100CD000C2F20002926802F0FF014FF0000040EA09
:100CE000010183F855104FEA122101F0FF014FF086
:100CF000000040EA010183F856104FEA124101F06A
:100D0000FF014FF0000040EA010183F857104FEA5D
:100D100012624FF0000141EA020283F8582040F2CB
:100D20000C53C2F200031C6807F1130340F2344075
:100D3000C2F200004FF040014FF0020203F072FADD
:100D4000034603F0FF024FF0000141EA020284F87B
:100D500043204FEA13239BB24FF0000242EA030301
:100D600084F84430FB7C4FEA43139AB27B8D42EA0D
:100D700003039BB27B8540F20C53C2F200031C6854
:100D800007F1130340F23440C2F200004FF040017B
:100D90004FF0030203F046FA034603F0FF024FF060
:100DA000000141EA020284F845204FEA13239BB276
:100DB0004FF0000242EA030384F84630FB7C4FEA1E
:100DC00083139AB27B8D42EA03039BB27B8540F288
:100DD0000C53C2F200031C6807F1130340F2A04059
:100DE000C2F200004FF040014FF0010203F01AFA86
:100DF000034603F0FF024FF0000141EA020284F8CB
:100E000047204FEA13239BB24FF0000242EA03034C
:100E100084F8483040F20C53C2F200031C6807F11A
:100E2000130340F2A040C2F200004FF040014FF027
:100E3000020203F0F7F9034603F0FF024FF000014E
:100E400041EA020284F849204FEA13239BB24FF093
:100E5000000242EA030384F84A3040F20C53C2F223
:100E600000031C6807F1130340F2A040C2F2000027
:100E70004FF040014FF0030203F0D4F9034603F0B2
:100E8000FF024FF0000141EA020284F84B204FEAD2
:100E900013239BB24FF0000242EA030384F84C3064
:100EA00040F20C53C2F200031A6840F25633C2F209
:100EB00000031B7853764FF0000387F82D3002F0C3
:100EC0004FFF17E040F20C53C2F20003196897F885
:100ED0002D0097F82D2041F22043C2F200039A5CC6
:100EE00000EB010383F8662097F82D3003F101032E
:100EF00087F82D3097F82D301F2BE3D940F20C5393
:100F0000C2F200031B684FF0000242F008021A70A0
:100F10004FF0000242F001025A7040F20C53C2F24C
:100F20000003186840F25233C2F2000319880B46DE
:100F30006FEA83436FEA93439BB29BB24FEA03236A
:100F40001FFA83FC40F25233C2F200031A881346A0
:100F50006FEA83436FEA93439BB29BB24FEA13233A
:100F60009BB24CEA03039BB29BB203F0FF0C4FF021
:100F7000000E4EEA0C0C80F802C04FEA13239BB21D
:100F80004FF0000C4CEA0303C37001F1010399B266
:100F900040F25233C2F20003198002F101039AB207
:100FA00040F25233C2F200031A8040F20C53C2F2F4
:100FB00000031A684FF0000313714FF000036FEA4B
:100FC000030303F077036FEA0303537140F20C53FA
:100FD000C2F200031B6841F2C832C2F20002D2E939
:100FE0000001024602F0FF014FF0000040EA01015B
:100FF00099724FEA122101F0FF014FF0000040EA20
:101000000101D9724FEA124101F0FF014FF00000D7
:1010100040EA010119734FEA12624FF0000141EA00
:1010200002025A7340F20C53C2F200031B6841F2F1
:10103000D832C2F20002D2E90001024602F0FF01FA
:101040004FF0000040EA010199714FEA122101F0CE
:10105000FF014FF0000040EA0101D9714FEA12414F
:1010600001F0FF014FF0000040EA010119724FEA60
:1010700012624FF0000141EA02025A7240F2583304
:10108000C2F200031B78142B0ED140F25833C2F287
:1010900000034FF001021A7040F27233C2F20003F3
:1010A0004FF000021A700CE040F25833C2F2000315
:1010B0001B7803F10103DAB240F25833C2F20003A5
:1010C0001A7040F25733C2F200031B78002B55D040
:1010D00040F26A33C2F200034FF001021A7040F28C
:1010E0000C53C2F200031A6840F26A33C2F20003E2
:1010F0001B7882F8653040F20C53C2F200031C6882
:1011000040F23460C2F200004FF08601FFF740FA6F
:10111000034603F0FF024FF0000141EA020284F8A7
:1011200086204FEA13239BB24FF0000242EA0303EA
:1011300084F8873041F20C40C2F2000040F2346182
:10114000C2F2000103F0EAFD0346002B02D04FF08B
:10115000800301E04FF00003798D1A460B4642EA06
:1011600003039BB27B8541F20C40C2F2000040F2C7
:101170003461C2F2000103F0D1FD3DE040F26A3378
:10118000C2F200034FF000021A7040F20C53C2F298
:1011900000031A6840F26A33C2F200031B7882F837
:1011A000653040F20C53C2F200031C6840F2346018
:1011B000C2F200004FF08601FFF7EAF9034603F0A0
:1011C000FF024FF0000141EA020284F886204FEA54
:1011D00013239BB24FF0000242EA030384F88730E6
:1011E00041F2C040C2F2000040F23461C2F200019C
:1011F0004FF0880204F006FE7B8D184607F1340795
:10120000BD4690BDB0B582B000AF4FF000033B715A
:101210004FF000037B714FF00003FB8040F234621B
:10122000C2F2000240F23063C2F200031A6041F2DF
:10123000D832C2F2000241F2C833C2F200031046B3
:101240001946FFF755F940F23063C2F200031B68FC
:101250004FF0000242F008021A704FF0000242F014
:1012600004025A7040F23063C2F20003186840F280
:101270005433C2F2000319880B466FEA83436FEAC6
:1012800093439BB29BB24FEA03231FFA83FC40F2C5
:101290005433C2F200031A8813466FEA83436FEA9D
:1012A00093439BB29BB24FEA13239BB24CEA0303D6
:1012B0009BB29BB203F0FF0C4FF0000E4EEA0C0CF9
:1012C00080F802C04FEA13239BB24FF0000C4CEAA7
:1012D0000303C37001F1010399B240F25433C2F227
:1012E0000003198002F101039AB240F25433C2F2B2
:1012F00000031A8040F23063C2F200031B684FF013
:1013000000021A714FF0000242F041025A7140F29D
:101310003063C2F200031B6841F2C832C2F200021D
:10132000D2E90001024602F0FF014FF0000040EA5E
:10133000010199724FEA122101F0FF014FF0000004
:1013400040EA0101D9724FEA124101F0FF014FF06A
:10135000000040EA010119734FEA12624FF00001E8
:1013600041EA02025A7340F23063C2F200031B6882
:1013700041F2D832C2F20002D2E90001024602F084
:10138000FF014FF0000040EA010199714FEA12217C
:1013900001F0FF014FF0000040EA0101D9714FEA6E
:1013A000124101F0FF014FF0000040EA0101197203
:1013B0004FEA12624FF0000141EA02025A723AE02B
:1013C00040F23063C2F200031C683D793A7907F1BC
:1013D000030340F2A040C2F200004FF0230102F0EC
:1013E000FBFF0346194605F1040201F0FF004FEA36
:1013F000420323444FF0000C4CEA000098714FEA7E
:10140000112398B24FEA420323444FF000021146E1
:10141000024641EA0202DA71FB781A463B7902FA87
:1014200003F39AB2FB8842EA03039BB2FB803B7949
:1014300003F101033B713B79072BC1D94FF0000346
:101440003B7102F08DFC12E040F23063C2F2000307
:10145000196838793A7941F22043C2F200039A5C64
:1014600000EB0103DA773B7903F101033B713B7930
:101470001F2BE9D940F25733C2F200031B78002B2F
:1014800033D04FF001037B7140F23063C2F20003AE
:101490001B687A799A7740F23063C2F200031C68C5
:1014A00040F23460C2F200004FF03F01FFF770F8E5
:1014B000034603F0FF024FF0000141EA020284F804
:1014C0003F204FEA13239BB24FF0000242EA03038E
:1014D00084F8403041F2E830C2F2000040F234615A
:1014E000C2F2000103F01AFC34E04FF000037B71FC
:1014F00040F23063C2F200031B687A799A7740F2B7
:101500003063C2F200031C6840F23460C2F2000093
:101510004FF03F01FFF73CF8034603F0FF024FF0A6
:10152000000141EA020284F83F204FEA13239BB2F4
:101530004FF0000242EA030384F8403041F2C04019
:10154000C2F2000040F23461C2F200014FF04102E9
:1015500004F058FCFB88184607F10807BD46B0BDEB
:1015600080B500AF41F20C40C2F2000040F234619D
:10157000C2F2000103F000FC41F2C040C2F20000E0
:1015800040F23461C2F200014FF0880204F03AFCEC
:1015900080BD00BF80B483B000AF7860396044F292
:1015A0000003C4F200035A6B3B681A6044F2000364
:1015B000C4F200031A6B7B681A6007F10C07BD4682
:1015C00080BC704790B583B000AF4FF00003FB8044
:1015D00040F23462C2F2000241F23013C2F2000360
:1015E0001A6041F24800C2F2000041F24C11C2F20E
:1015F000000103F021FC03461A4641F27813C2F2BF
:1016000000031A7041F27813C2F200031B784FEA0C
:101610004303DAB241F27813C2F200031A7041F2C6
:101620004C13C2F200031B781A4641F24813C2F26F
:1016300000031A6041F24813C2F200031B684FEA2C
:10164000032241F24813C2F200031A6041F24C1324
:10165000C2F200035B781A4641F24813C2F200035B
:101660001B6842EA030241F24813C2F200031A6007
:1016700041F24813C2F200031B684FEA032241F211
:101680004813C2F200031A6041F24C13C2F2000385
:101690009B781A4641F24813C2F200031B6842EAE3
:1016A000030241F24813C2F200031A6041F24800FB
:1016B000C2F2000041F25011C2F2000103F0E6FB59
:1016C00003461A4641F27813C2F200031A7041F23F
:1016D0007813C2F200031B784FEA4303DAB241F2F7
:1016E0007813C2F200031A7041F24C13C2F20003E5
:1016F0001B781A4641F27413C2F200031A6041F2D9
:101700007413C2F200031B684FEA032241F2741300
:10171000C2F200031A6041F24C13C2F200035B787C
:101720001A4641F27413C2F200031B6842EA030234
:1017300041F27413C2F200031A6041F27413C2F250
:1017400000031B684FEA032241F27413C2F2000344
:101750001A6041F24C13C2F200039B781A4641F220
:101760007413C2F200031B6842EA030241F27413CD
:10177000C2F200031A6041F23413C2F2000341F2D4
:101780004800C2F20000194603F0C6FB41F23013D4
:10179000C2F200031A6840F20403C2F200031B788D
:1017A000937341F23013C2F200031B6841F24812F6
:1017B000C2F20002126802F0FF014FF0000040EA9E
:1017C0000101D9734FEA122101F0FF014FF000002F
:1017D00040EA010119744FEA124101F0FF014FF094
:1017E000000040EA010159744FEA12624FF0000113
:1017F00041EA02029A7441F23013C2F200031B68FC
:1018000041F27412C2F20002126802F0FF014FF0BE
:10181000000040EA0101D9744FEA122101F0FF01F2
:101820004FF0000040EA010119754FEA124101F042
:10183000FF014FF0000040EA010159754FEA1262C2
:101840004FF0000141EA02029A754FF00003FB805D
:101850002AE041F23013C2F200031A68F988F888CE
:1018600041F23413C2F2000333F8100001F1080111
:1018700000F0FF0C4FEA410313444FF0000E4EEA14
:101880000C0C83F807C04FEA102398B24FEA4103CB
:1018900013444FF000021146024641EA02021A7256
:1018A000FB8803F10103FB80FB88072BD1D902F0F1
:1018B00057FA4FF00003FB8013E041F23013C2F2FD
:1018C00000031968F888FA8841F22043C2F2000345
:1018D0009A5C00EB010383F82820FB8803F10103E5
:1018E000FB80FB881F2BE8D941F2D832C2F20002FC
:1018F00041F2C833C2F2000310461946FFF74AFE10
:1019000041F23013C2F200031B684FF0000242F0B4
:1019100008021A704FF0000242F002025A7041F2BF
:101920003013C2F20003186840F25E33C2F20003C3
:1019300019880B466FEA83436FEA93439BB29BB2CD
:101940004FEA03231FFA83FC40F25E33C2F2000326
:101950001A8813466FEA83436FEA93439BB29BB2A4
:101960004FEA13239BB24CEA03039BB29BB203F0F2
:10197000FF0C4FF0000E4EEA0C0C80F802C04FEA4C
:1019800013239BB24FF0000C4CEA0303C37001F128
:10199000010399B240F25E33C2F20003198002F1F2
:1019A00001039AB240F25E33C2F200031A8041F2A0
:1019B0003013C2F200031B684FF000021A714FF09F
:1019C000000242F04A025A7141F23013C2F200039F
:1019D0001B6841F2D832C2F20002D2E9000102468D
:1019E00002F0FF014FF0000040EA010199714FEA57
:1019F000122101F0FF014FF0000040EA0101D9710E
:101A00004FEA124101F0FF014FF0000040EA0101EE
:101A100019724FEA12624FF0000141EA02025A7253
:101A200041F23013C2F200031B6841F2C832C2F225
:101A30000002D2E90001024602F0FF014FF000006F
:101A400040EA010199724FEA122101F0FF014FF0C3
:101A5000000040EA0101D9724FEA124101F0FF0192
:101A60004FF0000040EA010119734FEA12624FF093
:101A7000000141EA02025A7340F25733C2F20003F6
:101A80001B78002B3CD040F25A33C2F200034FF0D7
:101A900001021A7041F23013C2F200031A6840F2D8
:101AA0005A33C2F200031B7882F8273041F2301318
:101AB000C2F200031C6840F23460C2F200004FF032
:101AC0004801FEF765FD034603F0FF024FF00001F9
:101AD00041EA020284F848204FEA13239BB24FF0F8
:101AE000000242EA030384F8493041F2A010C2F236
:101AF000000040F23461C2F2000103F00FF93DE052
:101B000040F25A33C2F200034FF000021A7041F261
:101B10003013C2F200031A6840F25A33C2F20003D3
:101B20001B7882F8273041F23013C2F200031C68A0
:101B300040F23460C2F200004FF04801FEF728FD89
:101B4000034603F0FF024FF0000141EA020284F86D
:101B500048204FEA13239BB24FF0000242EA0303EE
:101B600084F8493041F2C040C2F2000040F23461D2
:101B7000C2F200014FF04A0204F044F941F2781336
:101B8000C2F200031B78184607F10C07BD4690BD52
:101B900090B583B000AF4FF00003FB8040F2346299
:101BA000C2F2000241F24413C2F200031A6041F291
:101BB000D832C2F2000241F2C833C2F2000310462A
:101BC0001946FFF7E7FC0CE0FA8841F25413C2F221
:101BD00000034FF0000143F82210FB8803F10103DA
:101BE000FB80FB88072BEFD94FF00003FB8041F20D
:101BF000F830C2F2000003F0C3FE41F24413C2F217
:101C000000031A6840F20403C2F200031B789373C6
:101C100041F24413C2F200031A6841F2F833C2F2EF
:101C200000031B8803F0FF014FF0000040EA0101B0
:101C300011754FEA13239BB24FF0000141EA0303F1
:101C4000537541F24413C2F200031A6840F265333F
:101C5000C2F200031B78D37341F24413C2F20003B3
:101C60001A6840F26633C2F200031B78137441F223
:101C70004413C2F200031A6840F26733C2F2000351
:101C80001B78537441F24413C2F200031A6841F204
:101C9000E433C2F200031B8803F0FF014FF00000A1
:101CA00040EA010191744FEA13239BB24FF0000107
:101CB00041EA0303D37441F24413C2F200031C68E7
:101CC00003F030FF0346A37541F24413C2F2000350
:101CD0001C6803F03FFF034603F0FF024FF00001D2
:101CE00041EA0202E2754FEA132202F0FF024FF0CE
:101CF000000141EA020222764FEA134202F0FF029B
:101D00004FF0000141EA020262764FEA13634FF09E
:101D1000000242EA0303A37641F24413C2F2000335
:101D20001C6803F03FFF034603F0FF024FF0000181
:101D300041EA0202E2764FEA132202F0FF024FF07C
:101D4000000141EA020222774FEA134202F0FF0249
:101D50004FF0000141EA020262774FEA13634FF04D
:101D6000000242EA0303A37741F24413C2F20003E4
:101D70001B6840F26032C2F20002126802F0FF01FA
:101D80004FF0000040EA0101D9774FEA122101F03B
:101D9000FF014FF0000040EA010183F820104FEAF4
:101DA000124101F0FF014FF0000040EA010183F809
:101DB00021104FEA12624FF0000141EA020283F85B
:101DC000222041F24413C2F200031A6840F2643345
:101DD000C2F200031B7882F8233041F24413C2F2AE
:101DE00000031C6803F07EFD034684F8443043E0A2
:101DF00041F24413C2F200031B68F888F98841F2EB
:101E00005412C2F2000252F8211000F1080201F04F
:101E1000FF0C4FEA820018444FF0000E4EEA0C0C03
:101E200080F804C04FEA112000F0FF0C4FEA820056
:101E300018444FF0000E4EEA0C0C80F805C04FEA33
:101E4000114000F0FF0C4FEA820018444FF0000EE2
:101E50004EEA0C0C80F806C04FEA11604FEA82028D
:101E60001A444FF000031946034641EA0303D371B5
:101E7000FB8803F10103FB8040F26433C2F20003EC
:101E80001B78FA889A42B3D34FF00003FB8041F2EB
:101E90004413C2F200031B684FF0000242F0080234
:101EA0001A704FF0000242F003025A7041F24413DC
:101EB000C2F20003186840F25C33C2F200031988D2
:101EC0000B466FEA83436FEA93439BB29BB24FEAA0
:101ED00003231FFA83FC40F25C33C2F200031A882A
:101EE00013466FEA83436FEA93439BB29BB24FEA78
:101EF00013239BB24CEA03039BB29BB203F0FF0C8B
:101F00004FF0000E4EEA0C0C80F802C04FEA13238B
:101F10009BB24FF0000C4CEA0303C37001F10103C4
:101F200099B240F25C33C2F20003198002F101035E
:101F30009AB240F25C33C2F200031A8041F24413B9
:101F4000C2F200031B684FF000021A714FF000024A
:101F500042F068025A7141F24413C2F200031B6856
:101F600041F2D832C2F20002D2E90001024602F088
:101F7000FF014FF0000040EA010199714FEA122180
:101F800001F0FF014FF0000040EA0101D9714FEA72
:101F9000124101F0FF014FF0000040EA0101197207
:101FA0004FEA12624FF0000141EA02025A7241F216
:101FB0004413C2F200031B6841F2C832C2F20002AD
:101FC000D2E90001024602F0FF014FF0000040EAB2
:101FD000010199724FEA122101F0FF014FF0000058
:101FE00040EA0101D9724FEA124101F0FF014FF0BE
:101FF000000040EA010119734FEA12624FF000013C
:1020000041EA02025A7301F0ABFE13E041F24413BD
:10201000C2F200031968F888FA8841F22043C2F23C
:1020200000039A5C00EB010383F84620FB8803F170
:102030000103FB80FB881F2BE8D940F25733C2F223
:1020400000031B78002B3CD040F25933C2F200034E
:102050004FF001021A7041F24413C2F200031A68F1
:1020600040F25933C2F200031B7882F8453041F246
:102070004413C2F200031C6840F23460C2F2000054
:102080004FF06601FEF784FA034603F0FF024FF0BB
:10209000000141EA020284F866204FEA13239BB252
:1020A0004FF0000242EA030384F8673041F2FC304B
:1020B000C2F2000040F23461C2F2000102F02EFED2
:1020C0003DE040F25933C2F200034FF000021A70B3
:1020D00041F24413C2F200031A6840F25933C2F2CB
:1020E00000031B7882F8453041F24413C2F200032A
:1020F0001C6840F23460C2F200004FF06601FEF747
:1021000047FA034603F0FF024FF0000141EA0202E2
:1021100084F866204FEA13239BB24FF0000242EA94
:10212000030384F8673041F2C040C2F2000040F27D
:102130003461C2F200014FF0680203F063FE07F160
:102140000C07BD4690BD00BF80B483B000AF03460E
:10215000FB714EF20013CEF2000397F907204FEA0D
:102160005212F97901F01F014FF0010000FA01F15C
:1021700043F8221007F10C07BD4680BC704700BF32
:1021800080B483B000AF0346FB714EF20013CEF271
:10219000000397F907204FEA5212F97901F01F0165
:1021A0004FF0010000FA01F102F1200243F8221081
:1021B00007F10C07BD4680BC704700BF80B483B0F8
:1021C00000AF0346FB714EF20013CEF2000397F905
:1021D00007204FEA5212F97901F01F014FF0010078
:1021E00000FA01F102F1600243F8221007F10C0736
:1021F000BD4680BC704700BF80B483B000AF0346CB
:102200003960FB7197F90730002B10DA4EF6005356
:10221000CEF20003FA7902F00F02A2F104013A684B
:10222000D2B24FEA0212D2B20B441A760DE04EF24D
:102230000013CEF2000397F907103A68D2B24FEAC2
:102240000212D2B20B4483F8002307F10C07BD46FB
:1022500080BC704780B582B000AF0346FB714FF081
:102260000E00FFF78DFF4FF00F00FFF789FF48F2D8
:102270000003C4F2030348F20002C4F20302926CAA
:1022800022F040029A6444F20003C4F200034FF0CB
:1022900001025A6540F20003C4F208234FF0000225
:1022A000C3F8002940F20003C4F208234FF00002F3
:1022B000C3F8082940F20003C4F20823FA79C3F8EE
:1022C000042944F20003C4F200034FF001021A6132
:1022D00044F20003C4F200034FF001029A624FF08F
:1022E0000E00FFF76BFF4FF00F00FFF767FF07F1DE
:1022F0000807BD4680BD00BF80B400AF40F20003B8
:10230000C4F208234FF00102C3F80029BD4680BC87
:10231000704700BF80B483B000AF7860396044F28A
:102320000003C4F200035A6B3B681A6044F20003D6
:10233000C4F200031A6B7B681A6007F10C07BD46F4
:1023400080BC704780B483B000AF7860396044F2DD
:102350000003C4F200037A689A6344F20003C4F2F3
:1023600000033A68DA6307F10C07BD4680BC70478A
:1023700080B582B000AF45F20003C4F2000345F21D
:102380000002C4F20002526922F003025A6145F2CF
:102390000003C4F200034FF00302DA614FF00000C3
:1023A000FFF70CFF45F20003C4F200031B687B60DB
:1023B00045F20003C4F200039A687B689A4208D988
:1023C00045F20003C4F200034DF64262CAF615421C
:1023D000DA6007F10807BD4680BD00BF80B400AFDA
:1023E00045F20003C4F200034DF64262CAF61542FC
:1023F000DA60BD4680BC704798B500AF41F2D83274
:10240000C2F2000241F2C833C2F20003104619467C
:10241000FFF780FF41F29C13C2F200031B684FF0EC
:10242000000242F008021A704FF0000242F0060269
:102430005A7041F29C13C2F200031A6841F2BC3395
:10244000C2F200031B886FEA83436FEA93439BB297
:102450009BB24FEA032399B241F2BC33C2F20003AC
:102460001B886FEA83436FEA93439BB29BB24FEAA8
:1024700013239BB241EA03039BB29BB203F0FF011B
:102480004FF0000040EA010191704FEA13239BB224
:102490004FF0000141EA0303D37041F29C13C2F2F2
:1024A00000031B684FF000021A714FF0000242F067
:1024B0007E025A7141F29C13C2F200031B6841F282
:1024C000C832C2F20002D2E90001024602F0FF0166
:1024D0004FF0000040EA010199724FEA122101F029
:1024E000FF014FF0000040EA0101D9724FEA1241AA
:1024F00001F0FF014FF0000040EA010119734FEABB
:1025000012624FF0000141EA02025A7341F29C1339
:10251000C2F200031B6841F2D832C2F20002D2E9D3
:102520000001024602F0FF014FF0000040EA010105
:1025300099714FEA122101F0FF014FF0000040EACB
:102540000101D9714FEA124101F0FF014FF0000083
:1025500040EA010119724FEA12624FF0000141EAAC
:1025600002025A7241F29C13C2F200031C6841F24B
:10257000B810C2F200004FF07C01FEF709F80346E4
:1025800003F0FF024FF0000141EA020284F87C20D0
:102590004FEA13239BB24FF0000242EA030384F890
:1025A0007D3040F25733C2F200031B78002B0AD073
:1025B00041F28410C2F2000041F2B811C2F20001EF
:1025C00002F0ACFB0BE041F2C040C2F2000041F26D
:1025D000B811C2F200014FF07E0203F013FC41F289
:1025E0008013C2F200034FF000021A7041F2BC33B4
:1025F000C2F200031B8803F101039AB241F2BC331B
:10260000C2F200031A8098BD80B500AF41F2D83203
:10261000C2F2000241F2C833C2F20003104619466A
:10262000FFF778FEFEF750F803461A4641F2D4331E
:10263000C2F200031A8041F28013C2F200031B7839
:10264000092B01D9FFF7D8FE41F29C13C2F2000317
:10265000196841F28013C2F200031B781A46134630
:102660004FEA830313444FEA430313440B4403F13B
:1026700016034FF002021A7041F29C13C2F20003DB
:10268000186841F28013C2F200031B78194641F228
:10269000D833C2F20003D3E900230B464FEA830389
:1026A0000B444FEA43030B44034403F1080302F0D5
:1026B000FF014FF0000040EA010199724FEA122138
:1026C00001F0FF014FF0000040EA0101D9724FEA2A
:1026D000124101F0FF014FF0000040EA01011973BF
:1026E0004FEA12624FF0000141EA02025A7341F2CE
:1026F0009C13C2F20003186841F28013C2F2000377
:102700001B78194641F2C833C2F20003D3E9002313
:102710000B464FEA83030B444FEA43030B44034445
:1027200003F1080302F0FF014FF0000040EA01014D
:1027300099714FEA122101F0FF014FF0000040EAC9
:102740000101D9714FEA124101F0FF014FF0000081
:1027500040EA010119724FEA12624FF0000141EAAA
:1027600002025A7241F29C13C2F20003186841F24D
:102770008013C2F200031B781A4641F2D433C2F22E
:102780000003198813464FEA830313444FEA4303B7
:102790001344034403F1100301F0FF024FF0000063
:1027A00040EA0202DA714FEA112292B24FF00001C0
:1027B00041EA02021A7241F28013C2F200031B784E
:1027C00003F10103DAB241F28013C2F200031A707E
:1027D00041F21C40C2F2000006F094F980BD00BF37
:1027E00080B500AF41F2D832C2F2000241F2C833E4
:1027F000C2F2000310461946FFF78CFDFEF7E2FE19
:1028000003461A4641F2B213C2F200031A8041F2A3
:102810008013C2F200031B78092B01D9FFF7ECFDEE
:1028200041F29C13C2F20003196841F28013C2F214
:1028300000031B781A4613464FEA830313444FEAFA
:10284000430313440B4403F116034FF006021A70BE
:1028500041F29C13C2F20003186841F28013C2F2E5
:1028600000031B78194641F2D833C2F20003D3E9C2
:1028700000230B464FEA83030B444FEA43030B4408
:10288000034403F1080302F0FF014FF0000040EAA7
:10289000010199724FEA122101F0FF014FF000008F
:1028A00040EA0101D9724FEA124101F0FF014FF0F5
:1028B000000040EA010119734FEA12624FF0000173
:1028C00041EA02025A7341F29C13C2F200031868F3
:1028D00041F28013C2F200031B78194641F2C8335B
:1028E000C2F20003D3E900230B464FEA83030B44F3
:1028F0004FEA43030B44034403F1080302F0FF01D2
:102900004FF0000040EA010199714FEA122101F0F5
:10291000FF014FF0000040EA0101D9714FEA124176
:1029200001F0FF014FF0000040EA010119724FEA87
:1029300012624FF0000141EA02025A7241F29C1306
:10294000C2F20003186841F28013C2F200031B7840
:102950001A4641F2B213C2F20003198813464FEA35
:10296000830313444FEA43031344034403F1100366
:1029700001F0FF024FF0000040EA0202DA714FEA74
:10298000112292B24FF0000141EA02021A7241F2A2
:102990008013C2F200031B7803F10103DAB241F2A3
:1029A0008013C2F200031A7041F2B830C2F2000084
:1029B00006F0A8F880BD00BF80B500AF41F2D83264
:1029C000C2F2000241F2C833C2F2000310461946B7
:1029D000FFF7A0FCFFF7DCF803461A4641F240433C
:1029E000C2F200031A8041F28013C2F200031B7886
:1029F000092B01D9FFF700FD41F29C13C2F200033D
:102A0000196841F28013C2F200031B781A4613467C
:102A10004FEA830313444FEA430313440B4403F187
:102A200016034FF004021A7041F29C13C2F2000325
:102A3000186841F28013C2F200031B78194641F274
:102A4000D833C2F20003D3E900230B464FEA8303D5
:102A50000B444FEA43030B44034403F1080302F021
:102A6000FF014FF0000040EA010199724FEA122184
:102A700001F0FF014FF0000040EA0101D9724FEA76
:102A8000124101F0FF014FF0000040EA010119730B
:102A90004FEA12624FF0000141EA02025A7341F21A
:102AA0009C13C2F20003186841F28013C2F20003C3
:102AB0001B78194641F2C833C2F20003D3E9002360
:102AC0000B464FEA83030B444FEA43030B44034492
:102AD00003F1080302F0FF014FF0000040EA01019A
:102AE00099714FEA122101F0FF014FF0000040EA16
:102AF0000101D9714FEA124101F0FF014FF00000CE
:102B000040EA010119724FEA12624FF0000141EAF6
:102B100002025A7241F29C13C2F20003186841F299
:102B20008013C2F200031B781A4641F24043C2F2FE
:102B30000003198813464FEA830313444FEA430303
:102B40001344034403F1100301F0FF024FF00000AF
:102B500040EA0202DA714FEA112292B24FF000010C
:102B600041EA02021A7241F28013C2F200031B789A
:102B700003F10103DAB241F28013C2F200031A70CA
:102B800041F29410C2F2000005F0BCFF80BD00BF0E
:102B900080B500AF41F2D832C2F2000241F2C83330
:102BA000C2F2000310461946FFF7B4FBFEF72AFBFA
:102BB00003461A4641F29813C2F200031A8041F20A
:102BC0008013C2F200031B78092B01D9FFF714FC14
:102BD00041F29C13C2F20003196841F28013C2F261
:102BE00000031B781A4613464FEA830313444FEA47
:102BF000430313440B4403F116034FF001021A7010
:102C000041F29C13C2F20003186841F28013C2F231
:102C100000031B78194641F2D833C2F20003D3E90E
:102C200000230B464FEA83030B444FEA43030B4454
:102C3000034403F1080302F0FF014FF0000040EAF3
:102C4000010199724FEA122101F0FF014FF00000DB
:102C500040EA0101D9724FEA124101F0FF014FF041
:102C6000000040EA010119734FEA12624FF00001BF
:102C700041EA02025A7341F29C13C2F2000318683F
:102C800041F28013C2F200031B78194641F2C833A7
:102C9000C2F20003D3E900230B464FEA83030B443F
:102CA0004FEA43030B44034403F1080302F0FF011E
:102CB0004FF0000040EA010199714FEA122101F042
:102CC000FF014FF0000040EA0101D9714FEA1241C3
:102CD00001F0FF014FF0000040EA010119724FEAD4
:102CE00012624FF0000141EA02025A7241F29C1353
:102CF000C2F20003186841F28013C2F200031B788D
:102D00001A4641F29813C2F20003198813464FEA9B
:102D1000830313444FEA43031344034403F11003B2
:102D200001F0FF024FF0000040EA0202DA714FEAC0
:102D3000112292B24FF0000141EA02021A7241F2EE
:102D40008013C2F200031B7803F10103DAB241F2EF
:102D50008013C2F200031A7041F2C030C2F20000C8
:102D600005F0D0FE80BD00BF80B500AFFEF7F8FBD8
:102D700041F20C43C2F200039A6841F20C43C2F2E2
:102D80000003DB689A4208D240F25733C2F20003D4
:102D90001B78002B01D1FEF7E3FB41F2D030C2F2E9
:102DA000000005F0AFFE80BD80B582B002AF45F6F1
:102DB0005E73009341F21C40C2F2000046F2000133
:102DC000C5F200014FF000024FF0090305F0D8FDF5
:102DD00041F21C40C2F2000005F076FE4FF02600E2
:102DE000FFF7B2F94FF026004FF0FE01FFF704FAAB
:102DF00049F69603009341F29410C2F2000047F2A4
:102E00000001C5F200014FF000024FF0090305F088
:102E1000B7FD41F29410C2F2000005F055FE4FF0EC
:102E20002700FFF791F94FF027004FF0FE01FFF761
:102E3000E3F94BF6BC63009341F2C030C2F20000EC
:102E400048F20001C5F200014FF000024FF0090303
:102E500005F096FD41F2C030C2F2000005F034FEEC
:102E60004FF02800FFF770F94FF028004FF0FE01F7
:102E7000FFF7C2F947F25833C0F20703009341F25B
:102E8000D030C2F2000049F20001C5F200014FF05B
:102E900000024FF0090305F073FD41F2D030C2F299
:102EA000000005F011FE4FF02900FFF74DF94FF03B
:102EB00029004FF0FE01FFF79FF945F65E7300937E
:102EC00041F2B830C2F200004AF20001C5F200013E
:102ED0004FF000024FF0090305F052FD41F2B83007
:102EE000C2F2000005F0F0FD4FF02A00FFF72CF9C8
:102EF0004FF02A004FF0FE01FFF77EF941F21C402F
:102F0000C2F2000005F0A4FD41F29410C2F20000EC
:102F100005F09EFD41F2C030C2F2000005F098FDC0
:102F200041F2D030C2F2000005F092FD41F2B8301B
:102F3000C2F2000005F08CFDBD4680BD80B500AF3B
:102F40004FF02700FFF71CF980BD00BF80B500AF30
:102F50004FF02700FFF7F8F880BD00BF80B582B0C2
:102F600000AF78600B46FB707A6841F2E033C2F242
:102F700000031A6041F2E033C2F200031A68FB78E2
:102F80001046194600F09AFB0346002B26D041F26A
:102F9000E033C2F200031B68184600F00BFCFB781C
:102FA000002B0DD140F26833C2F200031B7803F10D
:102FB0000103DAB240F26833C2F200031A702BE068
:102FC00040F26633C2F200031B7803F10103DAB268
:102FD00040F26633C2F200031A701DE0FB78002B4A
:102FE0000DD140F26933C2F200031B7803F10103F3
:102FF000DAB240F26933C2F200031A700CE040F218
:103000006733C2F200031B7803F10103DAB240F226
:103010006733C2F200031A7007F10807BD4680BD8E
:1030200080B500AF43F60503C0F200034FF0000087
:103030004FF002011A4600F05FFB43F61903C0F29D
:1030400000034FF001004FF003011A4600F054FB5B
:1030500043F6AD23C0F200034FF002004FF003012E
:103060001A4600F049FB43F6D523C0F200034FF0A7
:1030700003004FF006011A4600F03EFB43F6D5333D
:10308000C0F200034FF004004FF010011A4600F0A8
:1030900033FB80BD80B500AF4FF00100FFF7DAF8D9
:1030A0004FF0FF304FF0FF31FFF74CF9FFF724F9F5
:1030B00080BD00BF90B583B000AF40F23462C2F271
:1030C000000241F2B413C2F200031A6041F2B413D9
:1030D000C2F200031A6840F27033C2F200031B7898
:1030E000D37341F2B413C2F200031A6840F273338F
:1030F000C2F200031B78137441F2B413C2F200034E
:103100001A6840F27133C2F200031B78537441F223
:10311000B413C2F200031B684FF0000242F0080231
:103120001A704FF0000242F005025A7041F2B413D7
:10313000C2F200031A684FF000036FEA83636FEA7C
:10314000936393704FF00003D37041F2B413C2F253
:1031500000031B684FF000021A714FF0000242F0AA
:1031600034025A7141F2B413C2F200031B684FF0EB
:1031700000029A714FF00002DA714FF000021A72E9
:103180004FF000025A7241F2B413C2F200031B68FE
:103190004FF000029A724FF00002DA724FF0000214
:1031A0001A734FF000025A734FF00003FB7100F0E6
:1031B000D7FD12E041F2B413C2F200031968F879A6
:1031C000FA7941F22043C2F200039A5C00EB01035A
:1031D0009A74FB7903F10103FB71FB791F2BE9D989
:1031E00041F2B413C2F200031C6840F23460C2F230
:1031F00000004FF03201FDF7CBF9034603F0FF0268
:103200004FF0000141EA020284F832204FEA132312
:103210009BB24FF0000242EA030384F8333041F2DC
:10322000C040C2F2000040F23461C2F200014FF02F
:10323000340202F0E7FD07F10C07BD4690BD00BF68
:1032400080B58CB002AFFFF793F8FFF7C7F8FDF732
:1032500073F905F099FA4FF000004FF0050105F001
:10326000E9FA4FF002004FF0050105F0E3FA4FF0E4
:1032700006004FF0050105F0DDFA4FF000004FF0B9
:10328000010105F0F5FA4FF002004FF0010105F0E1
:10329000EFFA4FF006004FF0010105F0E9FA4FF0A8
:1032A000000003F0E3F941F28450C2F2000003F0A1
:1032B0008BFC4FF00803009341F28450C2F20000EF
:1032C0004FF000014FF000024FF0080303F0C6FD7D
:1032D00041F20050C2F2000003F076FC4FF0080308
:1032E000009341F20050C2F200004FF000014FF095
:1032F00000024FF4007303F0B1FD41F20C40C2F242
:1033000000004FF00A0141F60A22C0F24F0201F01C
:10331000EDFC41F2FC30C2F2000040F2D231C0F2CA
:1033200057014CF65262C0F2570201F0DFFC41F245
:10333000E830C2F2000046F27E41C0F2590145F683
:10334000FE12C0F27A0201F0D1FC41F2A010C2F2EA
:1033500000004FF42F714FF4487201F0C7FC41F2A6
:103360008410C2F2000041F66E21C0F24F0140F21B
:103370006E32C0F2570201F0B9FC4FF000033B730C
:103380004FF000037B734FF00003BB7340F2080360
:10339000C2F200031A6807F10C03104619464FF0F9
:1033A00003024FF0000304F083FA41F2B812C2F2B4
:1033B000000241F29C13C2F200031A6041F2801332
:1033C000C2F200034FF000021A7041F2BC33C2F2A5
:1033D00000034FF001021A80FFF75CFE4FF000037C
:1033E0007B7441F24800C2F2000001F0F3FC40F2AD
:1033F000A040C2F200004FF0230100F075FF034629
:103400001A4640F27033C2F200031B7842EA03030B
:10341000DAB240F27033C2F200031A7040F2703335
:10342000C2F200031B784FEA4303DAB240F2703372
:10343000C2F200031A7041F24800C2F200004FF0DD
:10344000230100F051FF03461A4640F27033C2F2E6
:1034500000031B7842EA0303DAB240F27033C2F28F
:1034600000031A7040F27033C2F200031B784FEA77
:103470004303DAB240F27033C2F200031A7000F074
:10348000FBFF03461A4640F27033C2F200031B787A
:1034900042EA0303DAB240F27033C2F200031A7058
:1034A00040F27033C2F200031B784FEA4313DAB2E2
:1034B00040F27033C2F200031A7000F071FC034650
:1034C0001A4640F27033C2F200031B7842EA03034B
:1034D000DAB240F27033C2F200031A7001F06CFDF0
:1034E00003461A4640F27333C2F200031A7002F028
:1034F000F9F903467B7440F27133C2F200031A7883
:103500007B7C42EA0303DAB240F27133C2F2000379
:103510001A7040F27133C2F200031B784FEA430382
:10352000DAB240F27133C2F200031A7040F2344052
:10353000C2F200004FF0400100F0D6FD03461A46EB
:1035400040F27133C2F200031B7842EA0303DAB29D
:1035500040F27133C2F200031A7040F27133C2F2CA
:1035600000031B784FEA4303DAB240F27133C2F230
:1035700000031A7040F2A040C2F200004FF0400178
:1035800000F0B2FD4FF00003FB75FFF749FD41F27B
:10359000C040C2F200004FF416514FF0030202F097
:1035A000EFFB4FF02600FEF709FE4FF02700FEF775
:1035B00005FEFFF7F9FB4FF0FF33FB6149F6FF23F0
:1035C000CEF232233B624FF000037B62FFF772FDC5
:1035D0004FF0860001F0F6FFFFF7B0FC41F2E43057
:1035E000C2F2000002F026FAFFF7B0FC40F25733B7
:1035F000C2F200031B78012B16D145F20C00C5F274
:10360000000002F011FB03467B8241F2B013C2F2CC
:1036100000031B887A8A9A4206D940F25733C2F2D5
:1036200000034FF000021A70FEF7D8FED0E700BF8B
:1036300080B500AF40F23440C2F2000006F030F82E
:1036400080BD00BF80B500AF40F2A040C2F20000D4
:1036500006F026F880BD00BF80B500AF41F24800FB
:10366000C2F2000006F01CF880BD00BF80B500AFBC
:1036700040F2C450C2F2000006F012F880BD00BF54
:1036800080B500AFFEF7C0FF80BD00BF80B500AFC2
:10369000FFF792F980BD00BF80B500AFFFF778FA61
:1036A00080BD00BF80B500AFFFF75EFB80BD00BFEF
:1036B00080B500AFFFF794F880BD00BF80B483B041
:1036C00000AF78600B46FB707B681B7803F1FF331B
:1036D000002B08DB7B681B7803F1FF33052B02DC32
:1036E0004FF0010301E04FF00003184607F10C070B
:1036F000BD4680BC704700BF80B483B000AF0B46AE
:103700003A600246FA71BB80F97941F24442C2F252
:1037100000020B464FEAC303C1EB03031344FA79DB
:103720001A70F97941F24442C2F200020B464FEAA4
:10373000C303C1EB030313443A794FF0000141EA9C
:1037400002025A707A794FF0000141EA02029A703F
:10375000F8793A6841F24441C2F2000103464FEA67
:10376000C303C0EB03030B4402F0FF014FF0000062
:1037700040EA0101D9704FEA122101F0FF014FF038
:10378000000040EA010119714FEA124101F0FF0106
:103790004FF0000040EA010159714FEA12624FF008
:1037A000000141EA02029A7107F10C07BD4680BC94
:1037B000704700BF80B582B000AF78607B681B782F
:1037C00003F1FF3141F24442C2F200020B464FEADC
:1037D000C303C1EB03031344DA7819794FEA0121DB
:1037E00041EA020259794FEA014141EA02029B791A
:1037F0004FEA036343EA02037868984707F1080732
:10380000BD4680BD80B485B000AF786007F1140775
:10381000BD4680BC704700BF80B586B002AF7860FF
:103820007B689A784CF6CD43CCF6CC43A3FB0213CD
:103830004FEAD303DBB24BF6BC6202FB03F3FB603F
:103840007B689B78002B00F0A5807B685B78002B61
:103850001CD1FB68009341F21C40C2F2000046F20A
:103860000001C5F200014FF000024FF0090305F01E
:1038700087F841F21C40C2F2000005F025F941F240
:103880001C40C2F2000005F0E3F8BBE07B685B7807
:10389000012B1CD1FB68009341F29410C2F200008E
:1038A00047F20001C5F200014FF000024FF009039A
:1038B00005F066F841F29410C2F2000005F004F938
:1038C00041F29410C2F2000005F0C2F89AE07B6861
:1038D0005B78022B1CD1FB68009341F2C030C2F22E
:1038E000000048F20001C5F200014FF000024FF065
:1038F000090305F045F841F2C030C2F2000005F0BE
:10390000E3F841F2C030C2F2000005F0A1F879E01E
:103910007B685B78052B1CD1FB68009341F2D030AB
:10392000C2F2000049F20001C5F200014FF00002AE
:103930004FF0090305F024F841F2D030C2F2000044
:1039400005F0C2F841F2D030C2F2000005F080F874
:1039500058E07B685B78032B53D1FB68009341F2FE
:10396000B830C2F200004AF20001C5F200014FF087
:1039700000024FF0090305F003F841F2B830C2F23B
:10398000000005F0A1F841F2B830C2F2000005F0E5
:103990005FF837E07B685B78002B06D141F21C4072
:1039A000C2F2000005F072F82CE07B685B78012B16
:1039B00006D141F29410C2F2000005F067F821E050
:1039C0007B685B78022B06D141F2C030C2F2000066
:1039D00005F05CF816E07B685B78052B06D141F2B8
:1039E000D030C2F2000005F051F80BE07B685B7844
:1039F000032B07D141F2B830C2F2000005F046F8BF
:103A000000E000BF07F11007BD4680BD80B485B05F
:103A100000AF4FF000037B6048F20003C2F20003E6
:103A2000BB604DF20003C6F20003FB604FF00003E1
:103A30007B600FE0FB681A68BB681A60BB6803F123
:103A40000403BB60FB6803F10403FB607B6803F1C4
:103A500001037B607A6840F6CB239A42EAD907F1EA
:103A60001407BD4680BC704780B582B000AF48F2F5
:103A70000403C2F200033B6048F20003C2F20003F9
:103A80001B687B607B6883F3088848F20003C4F2FC
:103A9000030348F20002C4F20302126842F0030278
:103AA0001A603B681B689847FEE700BF80B584B08A
:103AB00000AF786048F20003C4F203034FF0000245
:103AC000DA66FFF7A3FFFFF7CFFF07F11007BD4648
:103AD00080BD00BF80B584B000AF78607B689B7804
:103AE0004FEA03627B68DB784FEA034342EA030252
:103AF0007B681B794FEA032342EA03027B685B7908
:103B000042EA03031A4640F26033C2F200031A602D
:103B10007B685A7840F26433C2F200031A7040F2B4
:103B20006033C2F200031A6807F108034FF078000F
:103B300011461A464FF0060301F0F8FCBB7A4FEA33
:103B40000362FB7A4FEA034342EA03023B7B4FEAFC
:103B5000032342EA03027B7B42EA03031A4641F253
:103B60005413C2F200031A6040F26033C2F2000341
:103B70001B6803F1040240F26033C2F200031A60D2
:103B800040F26033C2F200031A6807F108034FF0F5
:103B9000780011461A464FF0060301F0C7FCBB7AC5
:103BA0004FEA0362FB7A4FEA034342EA03023B7B9C
:103BB0004FEA032342EA03027B7B42EA03031A46ED
:103BC00041F25413C2F200035A6007F11007BD46D8
:103BD00080BD00BF80B485B000AF78604FF00003B7
:103BE000FB730DE0FA7BF97B7B680B44597841F25B
:103BF000B403C2F200039954FB7B03F10103FB738E
:103C0000FB7B0F2BEED907F11407BD4680BC704734
:103C100080B483B000AF0346FB714EF20013CEF2C6
:103C2000000397F907204FEA5212F97901F01F01BA
:103C30004FF0010000FA01F143F8221007F10C07E0
:103C4000BD4680BC704700BF80B483B000AF034660
:103C50003960FB7197F90730002B10DA4EF60053EC
:103C6000CEF20003FA7902F00F02A2F104013A68E1
:103C7000D2B24FEA0212D2B20B441A760DE04EF2E3
:103C80000013CEF2000397F907103A68D2B24FEA58
:103C90000212D2B20B4483F8002307F10C07BD4691
:103CA00080BC704780B584B000AF4FF000037B81CB
:103CB0004FF001033B814FF0FF03BB8045F20C0046
:103CC000C5F2000001F0B0FF0346BB8145F21000D1
:103CD000C5F2000001F0A8FF0346FB8140F2573314
:103CE000C2F200034FF001021A704FF0010004F01D
:103CF00027FE07F11007BD4680BD00BF80B58AB022
:103D000000AF4FF0000387F8273040F27433C2F25F
:103D100000031B7803F10103DAB240F27433C2F2FC
:103D200000031A7040F27433C2F200031B78052BB3
:103D300003D14FF003033B7102E04FF001033B71ED
:103D400007F1040318464FF00001FFF707F94FF0A1
:103D5000030004F0F5FD07F12807BD4680BD00BF54
:103D600090B583B000AF4FF00003FB7111E0FC7918
:103D70004CF20C00C5F2000001F06EFF03461A463B
:103D800041F22043C2F200031A55FB7903F101030B
:103D9000FB71FB791F2BEAD907F10C07BD4690BDDB
:103DA00080B584B000AF4FF001004FF0420104F045
:103DB00041FD4FF0010004F093FD4FF03300FFF799
:103DC00027FF4FF033004FF0FF01FFF73DFF4FF0AB
:103DD00003004FF0620104F02DFD4FF0030004F0EA
:103DE0007FFD4FF03500FFF713FF4FF035004FF028
:103DF000FD01FFF729FF4FF00003BB804FF00003E8
:103E00007B8145F21400C5F200004FF0260101F05D
:103E100021FF45F21800C5F200004FF0190101F032
:103E200019FF4BF21000C5F200004FF0070101F03E
:103E300011FF45F20800C5F2000001F00DFF034636
:103E4000BB73BB7BAB2B07D0FB7B43F00103FB7346
:103E5000FB7B4FEA4303FB73FB7B4FEA4303FB739C
:103E60004BF20800C5F2000001F0F6FE0346BB73FA
:103E7000BB7BAB2B07D0FB7B43F00103FB73FB7BCE
:103E80004FEA4303FB73FB7B4FEA4303FB734CF2A4
:103E90000800C5F2000001F0DFFE0346BB73BB7BE8
:103EA000AB2B07D0FB7B43F00103FB73FB7B4FEA9B
:103EB0004303FB73FB7B4FEA4303FB7345F20C00A8
:103EC000C5F2000001F0B0FE0346BB81BB89002BA8
:103ED00007D0FB7B43F00103FB73FB7B4FEA4303FB
:103EE000FB73FB7B4FEA4303FB7345F21000C5F203
:103EF000000001F099FE03463B813B89022B07D06D
:103F0000FB7B43F00103FB73FB7B4FEA4303FB7333
:103F1000FB7B4FEA4303FB734BF20C00C5F200003E
:103F200001F09AFE0346BB804CF20C00C5F2000083
:103F300001F092FE0346BB80FB7B184607F1100799
:103F4000BD4680BD80B586B002AFF8607A600A4693
:103F5000FA72FB7041F27443C2F200034FF00002A8
:103F60001A702FE0FB78FA7A4FF000010091F868A0
:103F700011467A6805F0E4F940F23440C2F20000DC
:103F80004FF0000105F058FB03461A4641F2781342
:103F9000C2F200031A7041F27813C2F200031B78D8
:103FA000002B02D14FF0000318E041F27443C2F23B
:103FB00000031B7803F10103DAB241F27443C2F249
:103FC00000031A7041F27443C2F200031B78092BFC
:103FD000C8D941F27443C2F200031B78184607F1B6
:103FE0001007BD4680BD00BF80B586B002AFF86047
:103FF0007A600A46FA72FB7041F27443C2F200031F
:104000004FF000021A702FE0FB78FA7A4FF00001AF
:104010000091F86811467A6805F004FA40F23440DD
:10402000C2F200004FF0000105F006FB03461A46FD
:1040300041F27813C2F200031A7041F27813C2F20F
:1040400000031B78002B02D14FF0000318E041F26F
:104050007443C2F200031B7803F10103DAB241F2A8
:104060007443C2F200031A7041F27443C2F20003B7
:104070001B78092BC8D941F27443C2F200031B78A4
:10408000184607F11007BD4680BD00BF80B584B05B
:1040900000AFF8607B600B46FB721346BB72FA7A86
:1040A00007F10A03F86811461A464FF00103FFF7BB
:1040B00049FF0346092B02D94FF001030FE0FB7AB9
:1040C000F86819467A684FF00203FFF78DFF034640
:1040D000092B02D94FF0010301E04FF0000318460D
:1040E00007F11007BD4680BD80B582B000AF786093
:1040F0000B46FB7041F26C43C2F2000347F2070229
:104100001A8041F27543C2F200034FF000021A70A8
:10411000FB787868194641F27542C2F200024FF00E
:104120000103FFF70FFF0346092B02D94FF00103EC
:1041300013E041F26C43C2F20003FA78786811464A
:104140001A464FF00203FFF7FDFE0346092B02D982
:104150004FF0010301E04FF00003184607F1080794
:10416000BD4680BD80B584B000AFF8607B600B4673
:10417000FB721346BB7241F27043C2F200034FF070
:1041800000021A7041F27043C2F200034FF00002C5
:104190005A7041F27243C2F200034FF000021A80DB
:1041A000BB7A4FEA4303DBB2FA7AF86811461A4643
:1041B00041F27043C2F20003FFF768FF0346002B91
:1041C0001AD141F27043C2F200031B784FEA032375
:1041D0009AB241F27043C2F200035B7842EA0303F1
:1041E0009BB29AB241F27243C2F200031A807B681A
:1041F0004FF000021A700AE07B684FF001021A705B
:1042000041F27243C2F200034FF000021A8041F201
:104210007243C2F200031B88184607F11007BD461F
:1042200080BD00BF80B584B000AFF8607B600B46F6
:10423000FB721346BB7241F27043C2F200034FF0AF
:1042400000021A7041F27043C2F200034FF0000204
:104250005A7041F27243C2F200034FF000021A801A
:10426000BB7A4FEA4303DBB203F1FF33DBB2FA7AE6
:10427000F86811461A4641F27043C2F20003FFF794
:1042800005FF0346002B1AD141F27043C2F200032E
:104290001B784FEA03239AB241F27043C2F2000343
:1042A0005B7842EA03039BB29AB241F27243C2F2D4
:1042B00000031A807B684FF000021A700AE07B68E6
:1042C0004FF001021A7041F27243C2F200034FF044
:1042D00000021A8041F27243C2F200031B881846A2
:1042E00007F11007BD4680BD80B588B002AF786089
:1042F0000B46FB704FF00003BB754FF00003FB75DE
:104300004BF25402C0F2000207F11003126811468A
:10431000198003F102034FEA12421A704FF00403AE
:104320003B734FF000037B734FF00003BB7349E016
:10433000BB7D1A464FEA42021344DBB203F1050388
:10434000DBB23B74BB7D1A464FEA42021344DBB238
:1043500003F10403DBB23B73FA7807F110034FF06B
:1043600000010091786811461A464FF0030304F0EB
:10437000E7FF78684FF0000105F05EF903467B75B2
:10438000FA7807F10C034FF00001009178681146AC
:104390001A464FF0030304F0D3FF78684FF0000192
:1043A00005F04AF903467B757A7DBB7D02FA03F37B
:1043B000DAB2FB7D42EA0303DBB2FB75BB7D03F19E
:1043C0000103BB75BB7D032BB2D9FB7D184607F1FA
:1043D0001807BD4680BD00BF80B58CB004AFF86043
:1043E0007B600B46FB721346BB72BB7A3B753B7D11
:1043F00043F00803DBB23B753B7D4FEA0313DBB2AE
:104400003B75FA7A07F1140307F1180100914FF098
:10441000020101914FF000010291F86811461A461D
:104420004FF0010305F070F8F8684FF0000105F057
:1044300003F903467B777B7F002B04D07B684FF02A
:1044400001021A7012E03B7E4FEA03239AB27B7E90
:1044500042EA03039BB2FB83FB8B4FEA03534FEA11
:104460001353FB837B684FF000021A70FB8B1846D6
:1044700007F12007BD4680BD80B586B002AF41F28E
:104480007643C2F200034FF000021A704FF00A00A8
:104490004FF0010104F0ECF94FF000033B714FF0D5
:1044A00000037B714FF00003BB714FF00003FB7101
:1044B0004FF000033B724FF00003FB604FF000032E
:1044C000FB600BE041F20050C2F200004FF0FF0130
:1044D00002F038FEFB6803F10103FB60FB68092B67
:1044E000F0D941F20050C2F200004FF0000102F09A
:1044F0005DFD07F104034FF00102009241F200500C
:10450000C2F2000040F20C01C2F200014FF00702BB
:1045100002F078FEFB6803F10103FB603B79012B9D
:1045200006D03B79012B04D0FB68FE2BE1D900E0DB
:1045300000BF4FF00003FB6041F20050C2F20000E8
:104540004FF0FF0102F0FEFD41F20050C2F2000008
:104550004FF0FF0102F0F6FD07F104034FF00502F2
:10456000009241F20050C2F2000040F21401C2F287
:1045700000014FF0070202F045FE41F20050C2F286
:1045800000004FF0FF0102F0DDFD41F20050C2F2E9
:1045900000004FF0FF0102F0D5FDFB6803F10103BD
:1045A000FB603B7AAA2B10D1FB79012B0DD1BB7993
:1045B000002B0AD17B79002B07D141F27643C2F25E
:1045C00000034FF001021A7002E0FB68FE2BB3D922
:1045D000FB68FE2B0AD941F20050C2F200004FF0F6
:1045E000000102F067FD4FF001037EE14FF0000390
:1045F0003B714FF000037B714FF00003BB714FF034
:104600000003FB714FF000033B724FF00003FB60AF
:1046100041F27643C2F200034FF000021A7041F2F9
:104620000050C2F200004FF0FF0102F08BFD41F29A
:104630000050C2F200004FF0FF0102F083FD07F1CD
:1046400004034FF00502009241F20050C2F2000054
:1046500040F21C01C2F200014FF0070202F0D2FD4D
:1046600041F20050C2F200004FF0FF0102F06AFD7B
:1046700041F20050C2F200004FF0FF0102F062FD73
:10468000FB6803F10103FB60FB79802B0AD1BB7946
:10469000FF2B07D141F27643C2F200034FF0010233
:1046A0001A7002E0FB68FE2BB9D9FB68FE2B0AD911
:1046B00041F20050C2F200004FF0000102F0FAFC9B
:1046C0004FF0010311E14FF000033B714FF0000385
:1046D0007B714FF00003BB714FF00003FB714FF093
:1046E00000033B724FF00003FB6041F27643C2F2DD
:1046F00000034FF000021A7041F20050C2F20000B5
:104700004FF0FF0102F01EFD41F20050C2F2000026
:104710004FF0FF0102F016FD07F104034FF0010214
:10472000009241F20050C2F2000040F22401C2F2B5
:1047300000014FF0070202F065FD41F20050C2F2A5
:1047400000004FF0FF0102F0FDFC07F104034FF001
:104750000102009241F20050C2F2000040F22C012E
:10476000C2F200014FF0070202F04CFD41F200508E
:10477000C2F200004FF0FF0102F0E4FC41F20050F1
:10478000C2F200004FF0FF0102F0DCFCFB6803F115
:104790000103FB603B79002B07D141F27643C2F263
:1047A00000034FF001021A7004E0FA6840F6F513B6
:1047B0009A42A1D941F27643C2F200031B78002B42
:1047C0000AD141F20050C2F200004FF0000102F0A5
:1047D00071FC4FF0010388E04FF000033B714FF094
:1047E00000037B714FF00003BB714FF00003FB71BE
:1047F0004FF000033B724FF00003FB6041F2764341
:10480000C2F200034FF000021A7041F20050C2F2EF
:1048100000004FF0FF0102F095FC41F20050C2F29F
:1048200000004FF0FF0102F08DFC07F104034FF090
:104830000502009241F20050C2F2000040F21C0159
:10484000C2F200014FF0070202F0DCFC41F200501E
:10485000C2F200004FF0FF0102F074FC41F2005080
:10486000C2F200004FF0FF0102F06CFCFB6803F1A4
:104870000103FB60FB79802B0AD1BB79FF2B07D1A9
:1048800041F27643C2F200034FF001021A7002E0D7
:10489000FB68FE2BB9D9FB68FE2B0AD941F2005008
:1048A000C2F200004FF0000102F004FC4FF00103DF
:1048B0001BE041F27643C2F200031B78012B0AD1C0
:1048C00041F20050C2F200004FF0000102F0F2FB92
:1048D0004FF0000309E041F20050C2F200004FF037
:1048E000000102F0E7FB4FF00103184607F1100743
:1048F000BD4680BD80B58CB002AF786039607B6802
:104900004FEA1363D8B27B684FEA1343D9B27B688E
:104910004FEA1323DAB27B68DBB24FF0580C87F80A
:1049200018C07876B976FA763B774FF0FF337B770D
:104930004FF0FF33BB774FF000033B744FF00003A1
:104940007B744FF00003BB744FF00003FB744FF017
:1049500000033B754FF00003FB776FF00103FB731F
:104960004FF000033B624FF000037B6241F20050C6
:10497000C2F200004FF0FF0102F0E4FB41F20050F0
:10498000C2F200004FF0000102F010FB41F20050B3
:10499000C2F200004FF0FF0102F0D4FB07F1180251
:1049A00007F110034FF00101009141F20050C2F2F3
:1049B000000011464FF0070202F024FC41F20050C3
:1049C000C2F200004FF0FF0102F0BCFB3B6A03F1B2
:1049D00001033B623B7C002B77D107F10F0207F10B
:1049E00010034FF00101009141F20050C2F20000AB
:1049F00011464FF0010202F005FC07F110034FF0E1
:104A00000002009241F20050C2F2000039684FF4F7
:104A1000007202F0F7FB17E041F20050C2F2000012
:104A20004FF0FF0102F08EFB0346DBB23B743B7C90
:104A300003F01F03052B03D14FF00103FB7706E0C2
:104A40007B6A03F101037B627B6A632BE4D9FB7F02
:104A5000012B3FD14FF00003FB774FF000037B6247
:104A60002FE041F20050C2F200004FF0FF0102F0CF
:104A700069FB0346DBB23B743B7C002B1DD04FF03F
:104A80000103FB7741F20050C2F200004FF0FF013A
:104A900002F058FB41F20050C2F200004FF000015A
:104AA00002F008FB41F20050C2F200004FF0FF019B
:104AB00002F048FB4FF0000335E07B6A03F101038D
:104AC0007B627B6A632BCCD905E03B6AFE2B7FF6C9
:104AD0004DAF00E000BF3B6AFE2B12D941F20050FF
:104AE000C2F200004FF0000102F0E4FA41F200507F
:104AF000C2F200004FF0FF0102F024FB4FF001036F
:104B000011E041F20050C2F200004FF0000102F04B
:104B1000D1FA41F20050C2F200004FF0FF0102F062
:104B200011FB4FF00103184607F12807BD4680BD71
:104B300080B58CB002AF786039607B684FEA136350
:104B4000D8B27B684FEA1343D9B27B684FEA13238C
:104B5000DAB27B68DBB24FF0510C87F818C0787678
:104B6000B976FA763B774FF0FF337B774FF0FF3320
:104B7000BB774FF000033B744FF000037B744FF0A2
:104B80000003BB744FF00003FB744FF000033B7550
:104B90004FF00003FB774FF0FF33FB734FF0000340
:104BA0003B624FF00003FB8441F20050C2F2000070
:104BB0004FF0FF0102F0C6FA41F20050C2F20000CD
:104BC0004FF0000102F0F2F941F20050C2F2000091
:104BD0004FF0FF0102F0B6FA07F1180207F11003D7
:104BE0004FF00101009141F20050C2F20000114665
:104BF0004FF0070202F006FB56E041F20050C2F20D
:104C000000004FF0FF0102F09DFA0346DBB23B7457
:104C1000FB8C03F10103FB843B7CFE2B44D141F26E
:104C20000050C2F200004FF0FF0102F08BFA07F1D2
:104C30000F034FF40072009241F20050C2F20000E4
:104C400019464FF000023B6802F0DCFA41F20050D6
:104C5000C2F200004FF0FF0102F074FA41F200507E
:104C6000C2F200004FF0FF0102F06CFA4FF00103B6
:104C7000FB7741F20050C2F200004FF0FF0102F05A
:104C800061FA41F20050C2F200004FF0000102F060
:104C900011FA41F20050C2F200004FF0FF0102F0A1
:104CA00051FA4FF000031CE0FB8CF92BA5D93B6AAD
:104CB00003F101033B623B6A632B7FF675AF41F260
:104CC0000050C2F200004FF0000102F0F3F941F28F
:104CD0000050C2F200004FF0FF0102F033FA4FF033
:104CE0000103184607F12807BD4680BD80B485B092
:104CF00000AFF860B9607A60FB68BA681A60FB6858
:104D00007A685A60FB68BA689A60FB68BA68DA60C9
:104D100007F11407BD4680BC704700BF80B582B064
:104D200000AF786039607B68DA687B685B689A42BC
:104D300005D27B68DA687B681B689A4202D24FF022
:104D4000020313E07B68DB6818463968FFF7D2FD81
:104D50000346002B08D17B68DB6803F101027B6806
:104D6000DA604FF0000301E04FF00103184607F14D
:104D70000807BD4680BD00BF80B582B000AF786037
:104D800039607B689A687B68DB689A4205D27B68E9
:104D90009A687B681B689A4202D24FF0020313E0C4
:104DA0007B689B6818463968FFF7C2FE0346002BF4
:104DB00008D17B689B6803F101027B689A604FF021
:104DC000000301E04FF00103184607F10807BD4654
:104DD00080BD00BF80B582B000AF78604FF00600A4
:104DE0004FF0050103F026FD4FF006004FF00101E2
:104DF00003F03EFD786842F20001C5F200014FF079
:104E000010024FF0000304F025FA78684FF000011B
:104E100004F012FC03461A4641F27813C2F2000372
:104E20001A7041F27813C2F200031B78184607F19A
:104E30000807BD4680BD00BF80B584B002AF786072
:104E4000396040F23403C2F200031B784FF00002D5
:104E5000009278684FF032013A6804F0E3FA78681B
:104E60004FF0000104F0E8FB03461A4641F27813C4
:104E7000C2F200031A7041F27813C2F200031B78E9
:104E8000184607F10807BD4680BD00BF80B586B053
:104E900002AF786039604FF00103FB734FF00103FC
:104EA0003B73FB7B07F10C024FF001010091786826
:104EB0004FF0320104F044FA78684FF0000104F03A
:104EC000BBFB03461A4641F27813C2F200031A7084
:104ED00040F23403C2F200031B784FF0000200924C
:104EE00078684FF032013A6804F09CFA78684FF025
:104EF000000104F0A1FB03461A4641F27813C2F206
:104F000000031A7041F27813C2F200031B781846AE
:104F100007F11007BD4680BD90B585B000AF786041
:104F200039604FF00003FB732EE0FA7B3B6802EB25
:104F30000304FB7B41F24800C2F200004FF0230162
:104F40001A4641F27643C2F20003FFF745FA0346E0
:104F5000DBB2237041F27743C2F200031B784FEAC1
:104F60004303DAB241F27643C2F200031B7842EA0D
:104F70000303DBB2DAB241F27743C2F200031A70E4
:104F8000FB7B03F10103FB73FB7B072BCDD907F1FF
:104F90001407BD4690BD00BF80B483B000AF7860F9
:104FA00041F27843C2F200037A681A6007F10C07F5
:104FB000BD4680BC704700BF80B58CB002AF4FF0DB
:104FC000FF337B614FF0FF33FB744FF0000387F832
:104FD00022304FF0010387F823304FF00003BB74F9
:104FE0004FF000033B734FF0FF337B734FF0100320
:104FF000BB734FF01703FB734FF000033B714FF08F
:1050000000037B714FF00003BB714FF00003FB7195
:1050100040F21050C2F2000044F20001C5F200015B
:105020004FF0080203F088FD40F21050C2F2000079
:1050300003F0F4FD4FF005004FF0050103F0FAFB1B
:1050400040F21050C2F20000FFF7A6FF4FF005003B
:105050004FF0000103F00CFC4FF00003BB844FF055
:105060000003BB8403E0BB8C03F10103BB84BA8C57
:1050700040F2E7339A42F6D94FF005004FF00101B4
:1050800003F0F6FB4FF00003BB8441F27843C2F219
:1050900000031B6818464FF0000103F001FE4FF0BB
:1050A0000003BB8403E0BB8C03F10103BB84BA8C17
:1050B00040F25D139A42F6D941F27843C2F20003FE
:1050C000196807F1130207F112034FF00100009075
:1050D000084611464FF0010200F056FBBB7C002B46
:1050E0001BD04FF0000387F8233041F27843C2F21F
:1050F00000031B6818464FF0000103F025FE4FF037
:105100000003BB8403E0BB8C03F10103BB84BA8CB6
:1051100040F2E7339A42F6D909E097F8223003F1DA
:10512000010387F8223097F82230092BADD941F2DC
:105130007843C2F200031B6818464FF0000103F0E9
:10514000AFFD41F27843C2F20003196807F1130280
:1051500007F112034FF001000090084611464FF08E
:10516000010200F011FB4FF00003FB704FF0FF3322
:10517000BB704FF0000387F8263041F27843C2F24B
:105180000003196807F1020207F103034FF0010061
:105190000090084611464FF0010200F0F5FAFB7846
:1051A00003F02003002B04D0FB7803F00403002B52
:1051B0000FD197F82630632B8CBF00230123DBB27D
:1051C00097F8262002F1010287F82620002BD4D17F
:1051D00000E000BF41F27843C2F200031B681846AA
:1051E0004FF0000103F0B0FD4FF0000387F82630C8
:1051F00008E000F077FB034687F8273097F8273060
:10520000012B0FD097F82630632B8CBF002301238E
:10521000DBB297F8262002F1010287F82620002B46
:10522000E7D100E000BF00F0B7F8034687F822306E
:1052300007F104034FF0780040F27C31C2F2000124
:105240001A464FF0060300F071F94FF00003FB71AE
:1052500007F104034FF0380040F27C31C2F2000144
:105260001A464FF0040300F017F997F82230002B8C
:1052700009D100F00DFA034687F8223097F8223062
:10528000002B03D00CE04FF003031AE000F03EFACD
:10529000034687F8223097F82230002B03D00FE026
:1052A0004FF002030DE007F10C034FF0380040F21D
:1052B0000051C2F200011A464FF0040300F0ECF86E
:1052C000FFE7184607F12807BD4680BD80B588B0C6
:1052D00002AF78600B467B804FF00003FB6041F229
:1052E0007843C2F200031B6818464FF0000103F038
:1052F000D7FC7A68FB6813441B784FEA0342FB68CB
:1053000003F101017B680B441B784FEA032342EA57
:105310000302FB6803F102017B680B441B7842EA3D
:1053200003037B617A694FF6FF739A4202D94FF00B
:1053300001032BE0FB6803F103037A6813443B612C
:1053400041F27843C2F200031A683B6903F101039A
:105350007969A1F104010091104639694FF0010209
:1053600000F046FAFA687B691344FB607A88FB68B0
:105370009A42BED841F27843C2F200031B68184635
:105380004FF0000103F0E0FC4FF00003184607F176
:105390001807BD4680BD00BF80B588B000AF4BF296
:1053A0005803C0F200031B68BB614BF25C03C0F200
:1053B00000031B687B614BF26003C0F200031B68B3
:1053C0003B614BF26403C0F200031B68FB604FF0CB
:1053D00000033B714FF000037B714FF00003BB7182
:1053E0004FF00003FB714FF000033B724FF00003DE
:1053F0007B724FF00003FB7740F23800C2F20000EE
:105400004FF43671FFF762FF0346BB77BB7F002B7B
:1054100002D04FF003033AE04FF0850000F0D2F8DD
:105420000346BB77BB7F002B02D04FF001032EE079
:105430004FF0820000F0C6F80346BB77BB7F002B1D
:105440000ED0BB7F6FEA83636FEA9363DBB21EE02B
:1054500000F048FA0346BB77BB7F022B0ED000E07A
:1054600000BFFB7F632B8CBF00230123DBB2FA7FDD
:1054700002F10102FA77002BEAD100E000BFFB7FC6
:10548000632B02D94FF0010301E04FF000031846EF
:1054900007F12007BD4680BD80B588B002AFB96076
:1054A0007A603B600346FB73BB684FEA1363D8B274
:1054B000BB684FEA1343D9B2BB684FEA1323DAB291
:1054C000BB68DBB297F80FC087F810C07874B97466
:1054D000FA743B7541F27843C2F200031B68184628
:1054E0004FF0000103F0DCFB41F27843C2F200030D
:1054F0001A6807F1100339680091104619464FF0F9
:1055000005027B6800F074F941F27843C2F20003AF
:105510001B6818464FF0000103F016FC4FF0000323
:10552000184607F11807BD4680BD00BF80B588B09A
:1055300002AFB9607A603B600346FB73BB684FEA19
:105540001363D8B2BB684FEA1343D9B2BB684FEAC2
:105550001323DAB2BB68DBB297F80FC087F810C02C
:105560007874B974FA743B7541F27843C2F200035F
:105570001B6818464FF0000103F092FB41F278439C
:10558000C2F200031A683B6803F1020107F110033D
:105590000091104619464FF005027B6800F0F4F8C0
:1055A00041F27843C2F200031B6818464FF0000135
:1055B00003F0CAFB7B6803F10203184607F11807E2
:1055C000BD4680BD80B586B002AF0346FB7141F297
:1055D0007843C2F200031B6818464FF0000103F045
:1055E0005FFB4FF00003BB734FF0FF337B734FF053
:1055F0000003FB7341F27843C2F20003196807F11C
:105600000D0207F10E034FF001000090084611460D
:105610004FF0010200F0B8F8BB7B03F02003002B31
:105620000CD1FB7B632B8CBF00230123DBB2FA7B05
:1056300002F10102FA73002BDCD100E000BFFB7B1A
:10564000632B02D94FF002031DE041F27843C2F20E
:105650000003196807F1070207F10E034FF001007C
:105660000090084611464FF0010200F0C1F841F2E7
:105670007843C2F200031B6818464FF0000103F0A4
:1056800063FB4FF00003184607F11007BD4680BDCD
:1056900080B584B002AF4FF00003BB714FF0FF3311
:1056A0007B714FF00003FB7141F27843C2F20003BB
:1056B000196807F1050207F106034FF00100009099
:1056C000084611464FF0010200F05EF8BB7903F086
:1056D0002003002B0CD1FB79632B8CBF002301230B
:1056E000DBB2FA7902F10102FA71002BDCD100E0A1
:1056F00000BFFB79632B02D94FF0010301E04FF0AB
:105700000003184607F10807BD4680BD80B584B088
:1057100002AF4FF00003BB714FF0FF337B714FF0CE
:105720000003FB7141F27843C2F20003196807F1EC
:10573000050207F106034FF00100009008461146EC
:105740004FF0010200F020F8BB7903F00403002BB6
:105750000CD1FB79632B8CBF00230123DBB2FA79D8
:1057600002F10102FA71002BDCD100E000BFFB79ED
:10577000632B02D94FF0010301E04FF000031846FC
:1057800007F10807BD4680BD80B588B002AFF8605C
:10579000B9607A603B604FF000033B747B689AB25B
:1057A0003B6A99B207F110030091F868B96803F0F9
:1057B00021FB4FF00003FB8211E0FA8A3B6A9A4218
:1057C00009D2FA8A3B681344FA8A07F118010A449D
:1057D00012F8082C1A70FB8A03F10103FB82FA8A83
:1057E00040F2E7339A42E8D907F11807BD4680BD79
:1057F00080B5D2B002AF07F10C0CCCF8000007F175
:105800000800016007F104010A603A4613604FF096
:105810000003A7F83E3111E0B7F83E31B7F83E116A
:1058200007F1080212680A44117807F11002D154F6
:10583000B7F83E3103F10103A7F83E31B7F83E2136
:1058400007F104031B689A42E6D315E0B7F83E312E
:10585000B7F83E1107F104021268C2EB01013A46A3
:1058600012680A44117807F11002D154B7F83E319A
:1058700003F10103A7F83E31B7F83E2107F1040315
:105880001968D7F848310B449A42DFD307F1040373
:105890001B689AB2D7F848319BB213449BB207F108
:1058A0000C0107F110024FF000000090086811464B
:1058B0001A464FF0000303F09DFA4FF00003A7F8DB
:1058C0003E3105E0B7F83E3103F10103A7F83E3160
:1058D000B7F83E2140F2E7339A42F3D907F5A077B3
:1058E000BD4680BD80B582B000AF4FF000033B7075
:1058F0004FF000037B704FF00003BB704FF00003CC
:10590000FB704FF000033B714FF000037B714FF0D1
:105910000003BB714FF00003FB7114E03B464FF0F6
:10592000780044F2B421C4F200011A464FF0040397
:10593000FFF7FCFD3B78E22B17D03B78A22B14D06D
:105940003B78002B11D03B78E42B0ED03B78A42B76
:105950000BD0FB79632B8CBF00230123DBB2FA79D8
:1059600002F10102FA71002BD8D13B7903F03F0319
:10597000BB71BB79184607F10807BD4680BD00BF63
:1059800080B584B000AF78604FF00003FB734FF038
:1059900000033B720CE007F108034FF0780040F27F
:1059A0003851C2F200011A464FF00403FFF7BEFD62
:1059B0003B7A002B0BD1FB7B632B8CBF0023012395
:1059C000DBB2FA7B02F10102FA73002BE3D1BB7A5E
:1059D00003F007034FEA03239AB2FB7A13449AB207
:1059E0007B681A807B681B88C3F100039BB29AB264
:1059F0007B681A807B681B884FEA03534FEA135376
:105A00007A6813807B681B88B3F5006F06D97B68C2
:105A10001B88A3F500639AB27B681A807B681B8899
:105A20004FEA93039AB27B681A8007F11007BD46CC
:105A300080BD00BF80B584B000AF78604FF0000338
:105A40003B724FF00003FB734FF08600FFF7BAFD87
:105A5000FFF748FF0346BB7303E0FFF743FF03462E
:105A6000BB73BB7B022B0BD0FB7B632B8CBF002358
:105A70000123DBB2FA7B02F10102FA73002BECD1B5
:105A80004FF00003FB730CE007F108034FF07800C0
:105A900040F27C31C2F200011A464FF00403FFF7D6
:105AA00045FD3B7A002B0BD1FB7B632B8CBF002386
:105AB0000123DBB2FA7B02F10102FA73002BE3D17E
:105AC0003B7B03F007034FEA03239AB27B7B13442B
:105AD0009AB27B681A807B681B88C3F100039BB273
