S01C000050694C4F545F73625F4D53535F434D335F6170702E7372656318
S113000000000120910100007F0300008103000033
S11300108303000085030000870300000000000044
S11300200000000000000000000000008903000040
S11300308B030000000000008D0300008F0300000C
S11300409103000093030000258800004988000004
S1130050990300009B0300009D0300009F03000020
S1130060A1030000A3030000D5670000F9670000A6
S1130070A9030000AB030000AD030000AF030000C0
S1130080B1030000B3030000B50300000DB9000084
S1130090B9030000BB030000BD030000BF03000060
S11300A0C1030000C3030000C5030000C703000030
S11300B0C9030000CB030000CD030000CF03000000
S11300C0D1030000D3030000353800004938000094
S11300D05D38000071380000853800009138000058
S11300E09D380000A9380000B5380000E70300007F
S11300F0E9030000EB030000ED030000EF03000040
S1130100F1030000F3030000F5030000313F000099
S1130110F9030000893F0000FD030000FF03000015
S113012001040000030400000504000007040000AB
S1130130090400000B0400000D0400000F0400007B
S1130140110400001304000015040000170400004B
S1130150190400001B0400001D0400001F0400001B
S113016021040000230400002504000027040000EB
S1130170290400002B0400002D0400002F040000BB
S113018031040000330400000000000000000000FF
S11301904FF0000BDFF8BE020068DFF8B612096802
S11301A001F0030100F01C00142801D14BF0020BF4
S11301B0002901D04BF0010BBBF1000F05D0A7487B
S11301C0A749DFF8722200F09FF8A64880470BF099
S11301D0020ABAF1000F0CD0DFF86E02DFF86E12DB
S11301E002680B680FB44FF000024FF0FF03026087
S11301F00B609D489D4A9E4B022808D1DFF83E12B1
S11302000A60DFF842120A60DFF836120B60012838
S113021008D1DFF82E120A60DFF82A120A60DFF82C
S11302201E120B609348002809D193489349944ABD
S113023000F032F893489449944A00F02DF8944819
S11302409449954A00F028F894489549DFF8E62146
S113025000F05AF8BBF1000F12D092489249DFF82F
S1130260DA2100F051F80BF0020ABAF1000F07D0BE
S11302700FBC02600B6000BFAFF30080AFF30080DF
S1130280DFF828020FF2030E00474FF000004FF092
S11302900001DFF81CF2FEE72DE9F841884225D081
S11302A0B2EB010200D5FEE740EA010313F00303B9
S11302B002D000F01DF819E04FF00003904612112F
S11302C0F7D09A421CBFF0C8F0C103F10103F8D182
S11302D008F00F08B8F1000F08D004780C7000F192
S11302E0010001F10101B8F10108F6D1BDE8F8817E
S11302F008B54FF0000303780B7000F1010001F121
S11303000101013AF7D108BD884237D000F0030655
S1130310002E14D04FF00405A5EB06044FF0080797
S113032007FB06F8914669FA08F9002C07D080F813
S1130330009069FA07F900F10100013CF5E74FF07C
S113034000060F46091A88460911914614461546B7
S1130350B14206D018BFA0E8340206F10106B1424A
S1130360F8D108F00F08B8F1000F07D002704FEA77
S1130370322200F10100B8F10108F4E77047FEE70A
S1130380FEE7FEE7FEE7FEE7FEE7FEE7FEE7FEE741
S1130390FEE7FEE7FEE7FEE7FEE7FEE7FEE7FEE731
S11303A0FEE7FEE7FEE7FEE7FEE7FEE7FEE7FEE721
S11303B0FEE7FEE7FEE7FEE7FEE7FEE7FEE7FEE711
S11303C0FEE7FEE7FEE7FEE7FEE7FEE7FEE7FEE701
S11303D0FEE7FEE7FEE7FEE7FEE7FEE7FEE7FEE7F1
S11303E0FEE7FEE7FEE7FEE7FEE7FEE7FEE7FEE7E1
S11303F0FEE7FEE7FEE7FEE7FEE7FEE7FEE7FEE7D1
S1130400FEE7FEE7FEE7FEE7FEE7FEE7FEE7FEE7C0
S1130410FEE7FEE7FEE7FEE7FEE7FEE7FEE7FEE7B0
S1130420FEE7FEE7FEE7FEE7FEE7FEE7FEE7FEE7A0
S1130430FEE7FEE7704700000000A2A2A2A200802F
S11304400340088003401080034030800340348020
S113045003403880034018080240000000F00020E8
S1130460000001208DB20000000000000000000028
S11304700100000000000000000000000000000077
S113048090010000C0040000C004000000C300008C
S113049000C300000000002050030020500300208F
S11304A0101600201016002000F00020D5C0000017
S11304B041340000AFF30080AFF30080AFF300805D
S11304C040F25033C2F200031A780AB901201870BE
S11304D0704700BF40F20000C2F2000008B5036894
S11304E02BB140F20003C0F2000303B1984708BDEA
S11304F080B483B000AF7860396044F20003C4F282
S113050000035A6B3B681A6044F20003C4F2000310
S11305101A6B7B681A6007F10C07BD4680BC7047F4
S113052080B400AF45F20003C4F200031B68184610
S1130530BD4680BC704700BF80B582B000AF4FF0AD
S11305400003FB801EE040F25733C2F200031B7825
S113055003F1FF31FA8840F65003C2F200034FEA78
S113056001210A4433F8123045F20000C5F20000BC
S1130570194605F0CDFFFB88FF2B07D0FB8803F15C
S11305800103FB80FB88FF2BDDD900E000BF07F1EE
S11305900807BD4680BD00BF80B500AF40F23C40B7
S11305A0C2F200004FF0A0414FF040024FF00003B0
S11305B009F02EFE40F2CC50C2F2000043F20001DA
S11305C0C5F200014FF06A024FF0000309F020FE6B
S11305D040F2A840C2F2000041F20001C5F200015D
S11305E04FF023024FF0070309F012FE80BD00BF55
S11305F080B586B000AFB96013460246FA73FB714A
S11306004FF00003FB74BB687B61FA7940F2583306
S1130610C2F200031B781344FE2B50DD40F2573323
S1130620C2F200031B7803F10103DAB240F257333C
S1130630C2F200031A70FFF77FFF40F25833C2F290
S113064000034FF000021A7040F25733C2F2000365
S11306501B78042B33D140F25733C2F200034FF01E
S113066000021A702BE040F25733C2F200031B78E9
S1130670184640F25833C2F200031B781A46FB7C3A
S11306801A44F97C7B690B441B78194697F813C00C
S11306907B6963441B784FEA03239BB241EA03035B
S11306A09BB299B240F65003C2F200034FEA002015
S11306B0024423F81210FB7C03F10103FB74FA7C5F
S11306C0FB799A42CFD340F25833C2F200031A782E
S11306D0FB791344DAB240F25833C2F200031A70C1
S11306E007F11807BD4680BD80B485B000AF7860BF
S11306F00B467B804FF000033B734FF000037B738A
S11307004FF00003BB734FF00003FB734FF0000383
S1130710FB733AE03A7BF97B7B680B441B7802EB72
S1130720030148F28103C8F2800383FB01230B44D5
S11307304FEAE3124FEAE173C3EB020213464FEAB6
S11307400323C2EB0303C3EB010213463B737A7B1F
S11307503B7B02EB030148F28103C8F2800383FB75
S113076001230B444FEAE3124FEAE173C3EB0202A5
S113077013464FEA0323C2EB0303C3EB0102134600
S11307807B73FB7B03F10103FB73FB7B7A889A4247
S1130790C0D83A7B7B7B02EB030148F28103C8F2A9
S11307A0800383FB01230B444FEAE3124FEAE17316
S11307B0C3EB020213464FEA0323C2EB0303C3EB6A
S11307C00102D3B26FEA0303BB733A7BBB7B02EB38
S11307D0030148F28103C8F2800383FB01230B4425
S11307E04FEAE3124FEAE173C3EB020213464FEA06
S11307F00323C2EB0303C3EB0102D3B26FEA030387
S11308007B737B7B4FEA03239AB2BB7B42EA0303ED
S11308109BB29BB2184607F11407BD4680BC7047D3
S113082090B58FB000AF40F23C62C2F2000240F2D9
S11308301453C2F200031A604FF000037B864FF09A
S1130840000387F835304CF2F813C0F2000307F1C7
S1130850040C9E46BEE80F00ACE80F00DEF8003042
S1130860ACF8003041F2E032C2F2000241F2D0337F
S1130870C2F2000310461946FFF73AFE07F13001B1
S113088007F12E0207F12C03084611461A4603F01D
S113089039FF0346002B0CBF002301237B8607F19D
S11308A02A0107F1280207F12603084611461A46D1
S11308B004F0B4F80346002B02D04FF0020301E029
S11308C04FF00003798E1A460B4642EA03039BB2AB
S11308D07B8607F11A03184604F012FA0346002B2C
S11308E014BF00230123002B03D04FEA83039BB2E0
S11308F001E04FF00403798E1A460B4642EA0303E3
S11309009BB27B8640F21453C2F200031A6840F291
S11309100403C2F200031B78537440F21453C2F26E
S113092000031B684FF0000242F030029A744FF04B
S1130930000242F07502DA7440F21453C2F200036A
S11309401C68FFF7EDFD034603F0FF024FF00001C2
S113095041EA020222754FEA132202F0FF024FF02D
S1130960000141EA020262754FEA134202F0FF02FB
S11309704FF0000141EA0202A2754FEA13634FF0FF
S1130980000242EA0303E37540F21453C2F2000387
S11309901A6840F27033C2F200031B78937640F277
S11309A01453C2F200031A6841F2E833C2F200039E
S11309B01B681B78137640F21453C2F200031A68C2
S11309C040F26A33C2F200031B78937316E040F2DC
S11309D01453C2F20003196897F8350097F83520CC
S11309E041F2BC03C2F200039A5C00EB0103DA7625
S11309F097F8353003F1010387F8353097F835302F
S1130A000F2BE4D940F21453C2F200031A6840F2E7
S1130A106D33C2F200031B78D37340F21453C2F255
S1130A2000031A6840F26E33C2F200031B78137499
S1130A3040F21453C2F200031B683A8E02F0FF0125
S1130A404FF0000040EA010183F82B104FEA122214
S1130A5092B24FF0000141EA020283F82C2040F2E6
S1130A601453C2F200031B68FA8D02F0FF014FF029
S1130A70000040EA010183F82D104FEA122292B2DD
S1130A804FF0000141EA020283F82E2040F2145391
S1130A90C2F200031B68BA8D02F0FF014FF00000A0
S1130AA040EA010183F82F104FEA122292B24FF06C
S1130AB0000141EA020283F8302040F21453C2F2EA
S1130AC000031B687A8D02F0FF014FF0000040EA3A
S1130AD0010183F831104FEA122292B24FF0000163
S1130AE041EA020283F8322040F21453C2F20003B6
S1130AF01B683A8D02F0FF014FF0000040EA01014B
S1130B0083F833104FEA122292B24FF0000141EA07
S1130B10020283F8342040F21453C2F200031B682B
S1130B20FA8C02F0FF014FF0000040EA010183F863
S1130B3035104FEA122292B24FF0000141EA02024C
S1130B4083F8362040F21453C2F200031B687A8BF8
S1130B5002F0FF014FF0000040EA010183F8371072
S1130B604FEA122292B24FF0000141EA020283F8E6
S1130B70382040F21453C2F200031C6807F1190331
S1130B8040F23C40C2F200004FF040014FF002023C
S1130B9003F02EFC034603F0FF024FF0000141EA8C
S1130BA0020284F839204FEA13239BB24FF000026B
S1130BB042EA030384F83A307B7E4FEAC3039AB2D5
S1130BC07B8E42EA03039BB27B8640F21453C2F24B
S1130BD000031C6807F1190340F23C40C2F2000014
S1130BE04FF040014FF0030203F002FC034603F010
S1130BF0FF024FF0000141EA020284F83B204FEA71
S1130C0013239BB24FF0000242EA030384F83C3002
S1130C107B7E4FEA03139AB27B8E42EA03039BB2B4
S1130C207B8640F21453C2F200031C6807F11903D7
S1130C3040F2A840C2F200004FF040014FF0010220
S1130C4003F0D6FB034603F0FF024FF0000141EA34
S1130C50020284F83D204FEA13239BB24FF00002B6
S1130C6042EA030384F83E3040F21453C2F2000314
S1130C701C6807F1190340F2A840C2F200004FF0CB
S1130C8040014FF0020203F0B3FB034603F0FF02FE
S1130C904FF0000141EA020284F83F204FEA132397
S1130CA09BB24FF0000242EA030384F8403040F262
S1130CB01453C2F200031C6807F1190340F2A84060
S1130CC0C2F200004FF040014FF0030203F090FB2A
S1130CD0034603F0FF024FF0000141EA020284F8E8
S1130CE041204FEA13239BB24FF0000242EA030370
S1130CF084F8423040F21453C2F200031B6841F2FC
S1130D001442C2F20002D26802F0FF014FF0000068
S1130D1040EA010183F851104FEA122101F0FF016A
S1130D204FF0000040EA010183F852104FEA1241EB
S1130D3001F0FF014FF0000040EA010183F8531075
S1130D404FEA12624FF0000141EA020283F8542094
S1130D5040F21453C2F200031B6841F21442C2F27F
S1130D600002926802F0FF014FF0000040EA010126
S1130D7083F84D104FEA122101F0FF014FF00000FB
S1130D8040EA010183F84E104FEA124101F0FF01DD
S1130D904FF0000040EA010183F84F104FEA12625D
S1130DA04FF0000141EA020283F8502040F214534C
S1130DB0C2F200031B6841F20442C2F20002D2688C
S1130DC002F0FF014FF0000040EA010183F86110D6
S1130DD04FEA122101F0FF014FF0000040EA010147
S1130DE083F862104FEA124101F0FF014FF0000056
S1130DF040EA010183F863104FEA12624FF00001E8
S1130E0041EA020283F8642040F21453C2F2000360
S1130E101B6841F20442C2F20002926802F0FF0130
S1130E204FF0000040EA010183F85D104FEA1221FF
S1130E3001F0FF014FF0000040EA010183F85E1069
S1130E404FEA124101F0FF014FF0000040EA0101B6
S1130E5083F85F104FEA12624FF0000141EA020288
S1130E6083F8602040F21453C2F200031B6841F27D
S1130E70F032C2F20002D26802F0FF014FF000002B
S1130E8040EA010183F859104FEA122101F0FF01F1
S1130E904FF0000040EA010183F85A104FEA124172
S1130EA001F0FF014FF0000040EA010183F85B10FC
S1130EB04FEA12624FF0000141EA020283F85C201B
S1130EC040F21453C2F200031B6841F2F032C2F242
S1130ED00002926802F0FF014FF0000040EA0101B5
S1130EE083F855104FEA122101F0FF014FF0000082
S1130EF040EA010183F856104FEA124101F0FF0164
S1130F004FF0000040EA010183F857104FEA1262E3
S1130F104FF0000141EA020283F8582040F21453D2
S1130F20C2F200031C6807F1190340F23C40C2F20C
S1130F3000004FF040014FF0020203F0B9FA0346FB
S1130F4003F0FF024FF0000141EA020284F843205B
S1130F504FEA13239BB24FF0000242EA030384F8E2
S1130F6044307B7E4FEA43139AB27B8E42EA0303FA
S1130F709BB27B8640F21453C2F200031C6807F153
S1130F80190340F23C40C2F200004FF040014FF020
S1130F90030203F08DFA034603F0FF024FF0000151
S1130FA041EA020284F845204FEA13239BB24FF032
S1130FB0000242EA030384F846307B7E4FEA83133F
S1130FC09AB27B8E42EA03039BB27B8640F21453AF
S1130FD0C2F200031C6807F1190340F2A840C2F2F0
S1130FE000004FF040014FF0010203F061FA0346A4
S1130FF003F0FF024FF0000141EA020284F84720A7
S11310004FEA13239BB24FF0000242EA030384F831
S1131010483040F21453C2F200031C6807F119036C
S113102040F2A840C2F200004FF040014FF002022B
S113103003F03EFA034603F0FF024FF0000141EAD9
S1131040020284F849204FEA13239BB24FF00002B6
S113105042EA030384F84A3040F21453C2F2000314
S11310601C6807F1190340F2A840C2F200004FF0D7
S113107040014FF0030203F01BFA034603F0FF02A2
S11310804FF0000141EA020284F84B204FEA132397
S11310909BB24FF0000242EA030384F84C3040F262
S11310A01453C2F200031A6840F25633C2F200032A
S11310B01B7853764FF0000387F8353002F096FF23
S11310C017E040F21453C2F20003196897F8350090
S11310D097F8352041F22843C2F200039A5C00EBF2
S11310E0010383F8662097F8353003F1010387F88C
S11310F0353097F835301F2BE3D940F21453C2F240
S113110000031B684FF0000242F008021A704FF00F
S1131110000242F001025A7040F21453C2F200037A
S1131120186840F25233C2F2000319880B466FEA82
S113113083436FEA93439BB29BB24FEA03231FFAA4
S113114083FC40F25233C2F200031A8813466FEA5A
S113115083436FEA93439BB29BB24FEA13239BB240
S11311604CEA03039BB29BB203F0FF0C4FF0000E5A
S11311704EEA0C0C80F802C04FEA13239BB24FF0E6
S1131180000C4CEA0303C37001F1010399B240F26D
S11311905233C2F20003198002F101039AB240F201
S11311A05233C2F200031A8040F21453C2F2000315
S11311B01A684FF0000313714FF000036FEA030342
S11311C003F077036FEA0303537140F21453C2F23E
S11311D000031B6841F2D032C2F20002D2E90001DE
S11311E0024602F0FF014FF0000040EA010199724B
S11311F04FEA122101F0FF014FF0000040EA010123
S1131200D9724FEA124101F0FF014FF0000040EAA9
S1131210010119734FEA12624FF0000141EA020220
S11312205A7340F21453C2F200031B6841F2E032D5
S1131230C2F20002D2E90001024602F0FF014FF0BF
S1131240000040EA010199714FEA122101F0FF0107
S11312504FF0000040EA0101D9714FEA124101F058
S1131260FF014FF0000040EA010119724FEA1262D7
S11312704FF0000141EA02025A7240F25A33C2F2BC
S113128000031B78142B0ED140F25A33C2F2000330
S11312904FF001021A7040F27633C2F200034FF0AD
S11312A000021A700CE040F25A33C2F200031B78B9
S11312B003F10103DAB240F25A33C2F200031A70A6
S11312C040F25933C2F200031B78002B55D040F290
S11312D06F33C2F200034FF001021A7040F214534C
S11312E0C2F200031A6840F26F33C2F200031B78A3
S11312F082F8653040F21453C2F200031C6840F2D5
S11313003C60C2F200004FF08601FFF7EDF903469E
S113131003F0FF024FF0000141EA020284F8862044
S11313204FEA13239BB24FF0000242EA030384F80E
S1131330873041F21440C2F2000040F23C61C2F234
S1131340000104F08FF90346002B02D04FF0800314
S113135001E04FF00003798E1A460B4642EA03037C
S11313609BB27B8641F21440C2F2000040F23C6121
S1131370C2F2000104F076F93DE040F26F33C2F2AC
S113138000034FF000021A7040F21453C2F200033B
S11313901A6840F26F33C2F200031B7882F865309A
S11313A040F21453C2F200031C6840F23C60C2F2E3
S11313B000004FF08601FFF797F9034603F0FF02A0
S11313C04FF0000141EA020284F886204FEA132319
S11313D09BB24FF0000242EA030384F8873040F2E4
S11313E01453C2F200031B684FF0000019464FF07B
S11313F08802FFF7FDF87B8E184607F13C07BD46CF
S113140090BD00BFB0B582B000AF4FF000033B7198
S11314104FF000037B714FF00003FB8040F23C620D
S1131420C2F2000240F23863C2F200031A6041F2D1
S1131430E032C2F2000241F2D033C2F2000310469D
S11314401946FFF755F840F23863C2F200031B68EF
S11314504FF0000242F008021A704FF0000242F00E
S113146004025A7040F23863C2F20003186840F272
S11314705433C2F2000319880B466FEA83436FEAC0
S113148093439BB29BB24FEA03231FFA83FC40F2BF
S11314905433C2F200031A8813466FEA83436FEA97
S11314A093439BB29BB24FEA13239BB24CEA0303D0
S11314B09BB29BB203F0FF0C4FF0000E4EEA0C0CF3
S11314C080F802C04FEA13239BB24FF0000C4CEAA1
S11314D00303C37001F1010399B240F25433C2F221
S11314E00003198002F101039AB240F25433C2F2AC
S11314F000031A8040F23863C2F200031B684FF005
S113150000021A714FF0000242F041025A7140F297
S11315103863C2F200031B6841F2D032C2F2000207
S1131520D2E90001024602F0FF014FF0000040EA58
S1131530010199724FEA122101F0FF014FF00000FE
S113154040EA0101D9724FEA124101F0FF014FF064
S1131550000040EA010119734FEA12624FF00001E2
S113156041EA02025A7340F23863C2F200031B6874
S113157041F2E032C2F20002D2E90001024602F076
S1131580FF014FF0000040EA010199714FEA122176
S113159001F0FF014FF0000040EA0101D9714FEA68
S11315A0124101F0FF014FF0000040EA01011972FD
S11315B04FEA12624FF0000141EA02025A723AE025
S11315C040F23863C2F200031C683D793A7907F1AE
S11315D0030340F2A840C2F200004FF0230103F0DD
S11315E041F80346194605F1040201F0FF004FEAF1
S11315F0420323444FF0000C4CEA000098714FEA78
S1131600112398B24FEA420323444FF000021146DB
S1131610024641EA0202DA71FB781A463B7902FA81
S113162003F39AB2FB8842EA03039BB2FB803B7943
S113163003F101033B713B79072BC1D94FF0000340
S11316403B7102F0D3FC12E040F23863C2F20003B3
S1131650196838793A7941F22843C2F200039A5C56
S113166000EB0103DA773B7903F101033B713B792A
S11316701F2BE9D940F25933C2F200031B78002B27
S113168033D04FF001037B7140F23863C2F20003A0
S11316901B687A799A7740F23863C2F200031C68B7
S11316A040F23C60C2F200004FF03F01FFF71CF82B
S11316B0034603F0FF024FF0000141EA020284F8FE
S11316C03F204FEA13239BB24FF0000242EA030388
S11316D084F8403041F2F030C2F2000040F23C6144
S11316E0C2F2000103F0BEFF34E04FF000037B714F
S11316F040F23863C2F200031B687A799A7740F2A9
S11317003863C2F200031C6840F23C60C2F200007D
S11317104FF03F01FEF7E8FF034603F0FF024FF0EE
S1131720000141EA020284F83F204FEA13239BB2EE
S11317304FF0000242EA030384F8403040F2386379
S1131740C2F200031B684FF0020019464FF0410239
S1131750FEF74EFFFB88184607F10807BD46B0BDEB
S113176080B500AF41F21440C2F2000040F23C6187
S1131770C2F2000103F0A4FF41F2C840C2F200002B
S113178040F23C61C2F200014FF0880204F0B0FF65
S113179080BD00BF80B483B000AF7860396044F28C
S11317A00003C4F200035A6B3B681A6044F200035E
S11317B0C4F200031A6B7B681A6007F10C07BD467C
S11317C080BC704790B583B000AF4FF00003FB803E
S11317D040F23C62C2F2000241F23813C2F200034A
S11317E01A6041F25000C2F2000041F25411C2F2F8
S11317F0000103F0C5FF03461A4641F28013C2F20A
S113180000031A7041F28013C2F200031B784FEAFE
S11318104303DAB241F28013C2F200031A7041F2B8
S11318205413C2F200031B781A4641F25013C2F259
S113183000031A6041F25013C2F200031B684FEA1E
S1131840032241F25013C2F200031A6041F254130E
S1131850C2F200035B781A4641F25013C2F200034D
S11318601B6842EA030241F25013C2F200031A60F9
S113187041F25013C2F200031B684FEA032241F203
S11318805013C2F200031A6041F25413C2F200036F
S11318909B781A4641F25013C2F200031B6842EAD5
S11318A0030241F25013C2F200031A6041F25000E5
S11318B0C2F2000041F25811C2F2000103F08AFFA3
S11318C003461A4641F28013C2F200031A7041F231
S11318D08013C2F200031B784FEA4303DAB241F2E9
S11318E08013C2F200031A7041F25413C2F20003CF
S11318F01B781A4641F27C13C2F200031A6041F2CB
S11319007C13C2F200031B684FEA032241F27C13EA
S1131910C2F200031A6041F25413C2F200035B786E
S11319201A4641F27C13C2F200031B6842EA030226
S113193041F27C13C2F200031A6041F27C13C2F23A
S113194000031B684FEA032241F27C13C2F2000336
S11319501A6041F25413C2F200039B781A4641F212
S11319607C13C2F200031B6842EA030241F27C13B7
S1131970C2F200031A6041F23C13C2F2000341F2C6
S11319805000C2F20000194603F06AFF41F2381316
S1131990C2F200031A6840F20403C2F200031B7887
S11319A0937341F23813C2F200031B6841F25012E0
S11319B0C2F20002126802F0FF014FF0000040EA98
S11319C00101D9734FEA122101F0FF014FF0000029
S11319D040EA010119744FEA124101F0FF014FF08E
S11319E0000040EA010159744FEA12624FF000010D
S11319F041EA02029A7441F23813C2F200031B68EE
S1131A0041F27C12C2F20002126802F0FF014FF0B0
S1131A10000040EA0101D9744FEA122101F0FF01EC
S1131A204FF0000040EA010119754FEA124101F03C
S1131A30FF014FF0000040EA010159754FEA1262BC
S1131A404FF0000141EA02029A754FF00003FB8057
S1131A502AE041F23813C2F200031A68F988F888C0
S1131A6041F23C13C2F2000333F8100001F1080103
S1131A7000F0FF0C4FEA410313444FF0000E4EEA0E
S1131A800C0C83F807C04FEA102398B24FEA4103C5
S1131A9013444FF000021146024641EA02021A7250
S1131AA0FB8803F10103FB80FB88072BD1D902F0EB
S1131AB09DFA4FF00003FB8013E041F23813C2F2A9
S1131AC000031968F888FA8841F22843C2F2000337
S1131AD09A5C00EB010383F82820FB8803F10103DF
S1131AE0FB80FB881F2BE8D941F2E032C2F20002EE
S1131AF041F2D033C2F2000310461946FFF74AFE02
S1131B0041F23813C2F200031B684FF0000242F0A6
S1131B1008021A704FF0000242F002025A7041F2B9
S1131B203813C2F20003186840F26033C2F20003B3
S1131B3019880B466FEA83436FEA93439BB29BB2C7
S1131B404FEA03231FFA83FC40F26033C2F200031E
S1131B501A8813466FEA83436FEA93439BB29BB29E
S1131B604FEA13239BB24CEA03039BB29BB203F0EC
S1131B70FF0C4FF0000E4EEA0C0C80F802C04FEA46
S1131B8013239BB24FF0000C4CEA0303C37001F122
S1131B90010399B240F26033C2F20003198002F1EA
S1131BA001039AB240F26033C2F200031A8041F298
S1131BB03813C2F200031B684FF000021A714FF091
S1131BC0000242F04A025A7141F23813C2F2000391
S1131BD01B6841F2E032C2F20002D2E9000102467F
S1131BE002F0FF014FF0000040EA010199714FEA51
S1131BF0122101F0FF014FF0000040EA0101D97108
S1131C004FEA124101F0FF014FF0000040EA0101E8
S1131C1019724FEA12624FF0000141EA02025A724D
S1131C2041F23813C2F200031B6841F2D032C2F20F
S1131C300002D2E90001024602F0FF014FF0000069
S1131C4040EA010199724FEA122101F0FF014FF0BD
S1131C50000040EA0101D9724FEA124101F0FF018C
S1131C604FF0000040EA010119734FEA12624FF08D
S1131C70000141EA02025A7340F25933C2F20003EE
S1131C801B78002B3CD040F25C33C2F200034FF0CF
S1131C9001021A7041F23813C2F200031A6840F2CA
S1131CA05C33C2F200031B7882F8273041F2381308
S1131CB0C2F200031C6840F23C60C2F200004FF024
S1131CC04801FEF711FD034603F0FF024FF0000147
S1131CD041EA020284F848204FEA13239BB24FF0F2
S1131CE0000242EA030384F8493041F2A810C2F228
S1131CF0000040F23C61C2F2000103F0B3FC3DE09D
S1131D0040F25C33C2F200034FF000021A7041F259
S1131D103813C2F200031A6840F25C33C2F20003C3
S1131D201B7882F8273041F23813C2F200031C6892
S1131D3040F23C60C2F200004FF04801FEF7D4FCD0
S1131D40034603F0FF024FF0000141EA020284F867
S1131D5048204FEA13239BB24FF0000242EA0303E8
S1131D6084F8493041F23813C2F200031B684FF083
S1131D70030019464FF04A02FEF73AFC41F2801381
S1131D80C2F200031B78184607F10C07BD4690BD4C
S1131D9090B583B000AF4FF00003FB8040F23C628B
S1131DA0C2F2000241F24C13C2F200031A6041F283
S1131DB0E032C2F2000241F2D033C2F20003104614
S1131DC01946FFF7E7FC0CE0FA8841F25C13C2F213
S1131DD000034FF0000143F82210FB8803F10103D4
S1131DE0FB80FB88072BEFD94FF00003FB8041F207
S1131DF00040C2F2000004F067FA41F24C13C2F250
S1131E0000031A6840F20403C2F200031B789373C0
S1131E1041F24C13C2F200031A6841F20043C2F2C9
S1131E2000031B8803F0FF014FF0000040EA0101AA
S1131E3011754FEA13239BB24FF0000141EA0303EB
S1131E40537541F24C13C2F200031A6840F26A332C
S1131E50C2F200031B78D37341F24C13C2F20003A5
S1131E601A6840F26B33C2F200031B78137441F218
S1131E704C13C2F200031A6840F26C33C2F200033E
S1131E801B78537441F24C13C2F200031A6841F2F6
S1131E90EC33C2F200031B8803F0FF014FF0000093
S1131EA040EA010191744FEA13239BB24FF0000101
S1131EB041EA0303D37441F24C13C2F200031C68D9
S1131EC004F0A6FA0346A37541F24C13C2F20003D0
S1131ED01C6804F0B5FA034603F0FF024FF000015A
S1131EE041EA0202E2754FEA132202F0FF024FF0C8
S1131EF0000141EA020222764FEA134202F0FF0295
S1131F004FF0000141EA020262764FEA13634FF098
S1131F10000242EA0303A37641F24C13C2F2000327
S1131F201C6804F0B5FA034603F0FF024FF0000109
S1131F3041EA0202E2764FEA132202F0FF024FF076
S1131F40000141EA020222774FEA134202F0FF0243
S1131F504FF0000141EA020262774FEA13634FF047
S1131F60000242EA0303A37741F24C13C2F20003D6
S1131F701B6840F26432C2F20002126802F0FF01F0
S1131F804FF0000040EA0101D9774FEA122101F035
S1131F90FF014FF0000040EA010183F820104FEAEE
S1131FA0124101F0FF014FF0000040EA010183F803
S1131FB021104FEA12624FF0000141EA020283F855
S1131FC0222041F24C13C2F200031A6840F2683333
S1131FD0C2F200031B7882F8233041F24C13C2F2A0
S1131FE000031C6804F022F9034684F8443043E0FB
S1131FF041F24C13C2F200031B68F888F98841F2DD
S11320005C12C2F2000252F8211000F1080201F041
S1132010FF0C4FEA820018444FF0000E4EEA0C0CFD
S113202080F804C04FEA112000F0FF0C4FEA820050
S113203018444FF0000E4EEA0C0C80F805C04FEA2D
S1132040114000F0FF0C4FEA820018444FF0000EDC
S11320504EEA0C0C80F806C04FEA11604FEA820287
S11320601A444FF000031946034641EA0303D371AF
S1132070FB8803F10103FB8040F26833C2F20003E2
S11320801B78FA889A42B3D34FF00003FB8041F2E5
S11320904C13C2F200031B684FF0000242F0080226
S11320A01A704FF0000242F003025A7041F24C13CE
S11320B0C2F20003186840F25E33C2F200031988CA
S11320C00B466FEA83436FEA93439BB29BB24FEA9A
S11320D003231FFA83FC40F25E33C2F200031A8822
S11320E013466FEA83436FEA93439BB29BB24FEA72
S11320F013239BB24CEA03039BB29BB203F0FF0C85
S11321004FF0000E4EEA0C0C80F802C04FEA132385
S11321109BB24FF0000C4CEA0303C37001F10103BE
S113212099B240F25E33C2F20003198002F1010356
S11321309AB240F25E33C2F200031A8041F24C13A9
S1132140C2F200031B684FF000021A714FF0000244
S113215042F068025A7141F24C13C2F200031B6848
S113216041F2E032C2F20002D2E90001024602F07A
S1132170FF014FF0000040EA010199714FEA12217A
S113218001F0FF014FF0000040EA0101D9714FEA6C
S1132190124101F0FF014FF0000040EA0101197201
S11321A04FEA12624FF0000141EA02025A7241F210
S11321B04C13C2F200031B6841F2D032C2F2000297
S11321C0D2E90001024602F0FF014FF0000040EAAC
S11321D0010199724FEA122101F0FF014FF0000052
S11321E040EA0101D9724FEA124101F0FF014FF0B8
S11321F0000040EA010119734FEA12624FF0000136
S113220041EA02025A7301F0F1FE13E041F24C1369
S1132210C2F200031968F888FA8841F22843C2F22E
S113222000039A5C00EB010383F84620FB8803F16A
S11322300103FB80FB881F2BE8D940F25933C2F21B
S113224000031B78002B3CD040F25B33C2F2000346
S11322504FF001021A7041F24C13C2F200031A68E3
S113226040F25B33C2F200031B7882F8453041F23E
S11322704C13C2F200031C6840F23C60C2F200003E
S11322804FF06601FEF730FA034603F0FF024FF009
S1132290000141EA020284F866204FEA13239BB24C
S11322A04FF0000242EA030384F8673041F204402D
S11322B0C2F2000040F23C61C2F2000103F0D2F924
S11322C03DE040F25B33C2F200034FF000021A70AB
S11322D041F24C13C2F200031A6840F25B33C2F2BB
S11322E000031B7882F8453041F24C13C2F200031C
S11322F01C6840F23C60C2F200004FF06601FEF739
S1132300F3F9034603F0FF024FF0000141EA020231
S113231084F866204FEA13239BB24FF0000242EA8E
S1132320030384F8673041F24C13C2F200031B68C4
S11323304FF0010019464FF06802FEF759F907F112
S11323400C07BD4690BD00BF80B483B000AF034608
S1132350FB714EF20013CEF2000397F907204FEA07
S11323605212F97901F01F014FF0010000FA01F156
S113237043F8221007F10C07BD4680BC704700BF2C
S113238080B483B000AF0346FB714EF20013CEF26B
S1132390000397F907204FEA5212F97901F01F015F
S11323A04FF0010000FA01F102F1200243F822107B
S11323B007F10C07BD4680BC704700BF80B483B0F2
S11323C000AF0346FB714EF20013CEF2000397F9FF
S11323D007204FEA5212F97901F01F014FF0010072
S11323E000FA01F102F1600243F8221007F10C0730
S11323F0BD4680BC704700BF80B483B000AF0346C5
S11324003960FB7197F90730002B10DA4EF6005350
S1132410CEF20003FA7902F00F02A2F104013A6845
S1132420D2B24FEA0212D2B20B441A760DE04EF247
S11324300013CEF2000397F907103A68D2B24FEABC
S11324400212D2B20B4483F8002307F10C07BD46F5
S113245080BC704780B582B000AF0346FB714FF07B
S11324600E00FFF78DFF4FF00F00FFF789FF48F2D2
S11324700003C4F2030348F20002C4F20302926CA4
S113248022F040029A6444F20003C4F200034FF0C5
S113249001025A6540F20003C4F208234FF000021F
S11324A0C3F8002940F20003C4F208234FF00002ED
S11324B0C3F8082940F20003C4F20823FA79C3F8E8
S11324C0042944F20003C4F200034FF001021A612C
S11324D044F20003C4F200034FF001029A624FF089
S11324E00E00FFF76BFF4FF00F00FFF767FF07F1D8
S11324F00807BD4680BD00BF80B400AF40F20003B2
S1132500C4F208234FF00102C3F80029BD4680BC81
S1132510704700BF80B483B000AF7860396044F284
S11325200003C4F200035A6B3B681A6044F20003D0
S1132530C4F200031A6B7B681A6007F10C07BD46EE
S113254080BC704780B483B000AF7860396044F2D7
S11325500003C4F200037A689A6344F20003C4F2ED
S113256000033A68DA6307F10C07BD4680BC704784
S113257080B582B000AF45F20003C4F2000345F217
S11325800002C4F20002526922F003025A6145F2C9
S11325900003C4F200034FF00302DA614FF00000BD
S11325A0FFF70CFF45F20003C4F200031B687B60D5
S11325B045F20003C4F200039A687B689A4208D982
S11325C045F20003C4F200034DF64262CAF6154216
S11325D0DA6007F10807BD4680BD00BF80B400AFD4
S11325E045F20003C4F200034DF64262CAF61542F6
S11325F0DA60BD4680BC704798B500AF41F2E03266
S1132600C2F2000241F2D033C2F20003104619466E
S1132610FFF780FF41F2A413C2F200031B684FF0DE
S1132620000242F008021A704FF0000242F0060263
S11326305A7041F2A413C2F200031A6841F2C4337F
S1132640C2F200031B886FEA83436FEA93439BB291
S11326509BB24FEA032399B241F2C433C2F200039E
S11326601B886FEA83436FEA93439BB29BB24FEAA2
S113267013239BB241EA03039BB29BB203F0FF0115
S11326804FF0000040EA010191704FEA13239BB21E
S11326904FF0000141EA0303D37041F2A413C2F2E4
S11326A000031B684FF000021A714FF0000242F061
S11326B07E025A7141F2A413C2F200031B6841F274
S11326C0D032C2F20002D2E90001024602F0FF0158
S11326D04FF0000040EA010199724FEA122101F023
S11326E0FF014FF0000040EA0101D9724FEA1241A4
S11326F001F0FF014FF0000040EA010119734FEAB5
S113270012624FF0000141EA02025A7341F2A4132B
S1132710C2F200031B6841F2E032C2F20002D2E9C5
S11327200001024602F0FF014FF0000040EA0101FF
S113273099714FEA122101F0FF014FF0000040EAC5
S11327400101D9714FEA124101F0FF014FF000007D
S113275040EA010119724FEA12624FF0000141EAA6
S113276002025A7241F2A413C2F200031C6841F23D
S1132770C010C2F200004FF07C01FDF7B5FF034624
S113278003F0FF024FF0000141EA020284F87C20CA
S11327904FEA13239BB24FF0000242EA030384F88A
S11327A07D3040F25933C2F200031B78002B0AD06B
S11327B041F28C10C2F2000041F2C011C2F20001D9
S11327C002F050FF0BE041F2A413C2F200031B68B5
S11327D04FF0040019464FF07E02FDF709FF41F265
S11327E08813C2F200034FF000021A7041F2C4339E
S11327F0C2F200031B8803F101039AB241F2C4330D
S1132800C2F200031A8098BD80B500AF41F2E032F5
S1132810C2F2000241F2D033C2F20003104619465C
S1132820FFF778FEFDF7FCFF03461A4641F2DC335E
S1132830C2F200031A8041F28813C2F200031B782B
S1132840092B01D9FFF7D8FE41F2A413C2F2000309
S1132850196841F28813C2F200031B781A46134622
S11328604FEA830313444FEA430313440B4403F135
S113287016034FF002021A7041F2A413C2F20003CD
S1132880186841F28813C2F200031B78194641F21A
S1132890E033C2F20003D3E900230B464FEA83037B
S11328A00B444FEA43030B44034403F1080302F0CF
S11328B0FF014FF0000040EA010199724FEA122132
S11328C001F0FF014FF0000040EA0101D9724FEA24
S11328D0124101F0FF014FF0000040EA01011973B9
S11328E04FEA12624FF0000141EA02025A7341F2C8
S11328F0A413C2F20003186841F28813C2F2000361
S11329001B78194641F2D033C2F20003D3E9002305
S11329100B464FEA83030B444FEA43030B4403443F
S113292003F1080302F0FF014FF0000040EA010147
S113293099714FEA122101F0FF014FF0000040EAC3
S11329400101D9714FEA124101F0FF014FF000007B
S113295040EA010119724FEA12624FF0000141EAA4
S113296002025A7241F2A413C2F20003186841F23F
S11329708813C2F200031B781A4641F2DC33C2F218
S11329800003198813464FEA830313444FEA4303B1
S11329901344034403F1100301F0FF024FF000005D
S11329A040EA0202DA714FEA112292B24FF00001BA
S11329B041EA02021A7241F28813C2F200031B7840
S11329C003F10103DAB241F28813C2F200031A7070
S11329D041F22440C2F2000007F072F880BD00BF4B
S11329E080B500AF41F2E032C2F2000241F2D033CE
S11329F0C2F2000310461946FFF78CFDFEF7E2FE13
S1132A0003461A4641F2BA13C2F200031A8041F295
S1132A108813C2F200031B78092B01D9FFF7ECFDE0
S1132A2041F2A413C2F20003196841F28813C2F2FE
S1132A3000031B781A4613464FEA830313444FEAF4
S1132A40430313440B4403F116034FF006021A70B8
S1132A5041F2A413C2F20003186841F28813C2F2CF
S1132A6000031B78194641F2E033C2F20003D3E9B4
S1132A7000230B464FEA83030B444FEA43030B4402
S1132A80034403F1080302F0FF014FF0000040EAA1
S1132A90010199724FEA122101F0FF014FF0000089
S1132AA040EA0101D9724FEA124101F0FF014FF0EF
S1132AB0000040EA010119734FEA12624FF000016D
S1132AC041EA02025A7341F2A413C2F200031868E5
S1132AD041F28813C2F200031B78194641F2D03345
S1132AE0C2F20003D3E900230B464FEA83030B44ED
S1132AF04FEA43030B44034403F1080302F0FF01CC
S1132B004FF0000040EA010199714FEA122101F0EF
S1132B10FF014FF0000040EA0101D9714FEA124170
S1132B2001F0FF014FF0000040EA010119724FEA81
S1132B3012624FF0000141EA02025A7241F2A413F8
S1132B40C2F20003186841F28813C2F200031B7832
S1132B501A4641F2BA13C2F20003198813464FEA27
S1132B60830313444FEA43031344034403F1100360
S1132B7001F0FF024FF0000040EA0202DA714FEA6E
S1132B80112292B24FF0000141EA02021A7241F29C
S1132B908813C2F200031B7803F10103DAB241F295
S1132BA08813C2F200031A7041F2C030C2F200006E
S1132BB006F086FF80BD00BF80B500AF41F2E03271
S1132BC0C2F2000241F2D033C2F2000310461946A9
S1132BD0FFF7A0FCFFF7DCF803461A4641F248432E
S1132BE0C2F200031A8041F28813C2F200031B7878
S1132BF0092B01D9FFF700FD41F2A413C2F200032F
S1132C00196841F28813C2F200031B781A4613466E
S1132C104FEA830313444FEA430313440B4403F181
S1132C2016034FF004021A7041F2A413C2F2000317
S1132C30186841F28813C2F200031B78194641F266
S1132C40E033C2F20003D3E900230B464FEA8303C7
S1132C500B444FEA43030B44034403F1080302F01B
S1132C60FF014FF0000040EA010199724FEA12217E
S1132C7001F0FF014FF0000040EA0101D9724FEA70
S1132C80124101F0FF014FF0000040EA0101197305
S1132C904FEA12624FF0000141EA02025A7341F214
S1132CA0A413C2F20003186841F28813C2F20003AD
S1132CB01B78194641F2D033C2F20003D3E9002352
S1132CC00B464FEA83030B444FEA43030B4403448C
S1132CD003F1080302F0FF014FF0000040EA010194
S1132CE099714FEA122101F0FF014FF0000040EA10
S1132CF00101D9714FEA124101F0FF014FF00000C8
S1132D0040EA010119724FEA12624FF0000141EAF0
S1132D1002025A7241F2A413C2F20003186841F28B
S1132D208813C2F200031B781A4641F24843C2F2E8
S1132D300003198813464FEA830313444FEA4303FD
S1132D401344034403F1100301F0FF024FF00000A9
S1132D5040EA0202DA714FEA112292B24FF0000106
S1132D6041EA02021A7241F28813C2F200031B788C
S1132D7003F10103DAB241F28813C2F200031A70BC
S1132D8041F29C10C2F2000006F09AFE80BD00BF22
S1132D9080B500AF41F2E032C2F2000241F2D0331A
S1132DA0C2F2000310461946FFF7B4FBFEF72AFBF4
S1132DB003461A4641F2A013C2F200031A8041F2FC
S1132DC08813C2F200031B78092B01D9FFF714FC06
S1132DD041F2A413C2F20003196841F28813C2F24B
S1132DE000031B781A4613464FEA830313444FEA41
S1132DF0430313440B4403F116034FF001021A700A
S1132E0041F2A413C2F20003186841F28813C2F21B
S1132E1000031B78194641F2E033C2F20003D3E900
S1132E2000230B464FEA83030B444FEA43030B444E
S1132E30034403F1080302F0FF014FF0000040EAED
S1132E40010199724FEA122101F0FF014FF00000D5
S1132E5040EA0101D9724FEA124101F0FF014FF03B
S1132E60000040EA010119734FEA12624FF00001B9
S1132E7041EA02025A7341F2A413C2F20003186831
S1132E8041F28813C2F200031B78194641F2D03391
S1132E90C2F20003D3E900230B464FEA83030B4439
S1132EA04FEA43030B44034403F1080302F0FF0118
S1132EB04FF0000040EA010199714FEA122101F03C
S1132EC0FF014FF0000040EA0101D9714FEA1241BD
S1132ED001F0FF014FF0000040EA010119724FEACE
S1132EE012624FF0000141EA02025A7241F2A41345
S1132EF0C2F20003186841F28813C2F200031B787F
S1132F001A4641F2A013C2F20003198813464FEA8D
S1132F10830313444FEA43031344034403F11003AC
S1132F2001F0FF024FF0000040EA0202DA714FEABA
S1132F30112292B24FF0000141EA02021A7241F2E8
S1132F408813C2F200031B7803F10103DAB241F2E1
S1132F508813C2F200031A7041F2C830C2F20000B2
S1132F6006F0AEFD80BD00BF80B500AFFEF7F8FBF4
S1132F7041F21443C2F200039A6841F21443C2F2CC
S1132F800003DB689A4208D240F25933C2F20003CC
S1132F901B78002B01D1FEF7E3FB41F2D830C2F2DB
S1132FA0000006F08DFD80BD80B582B002AF43F60F
S1132FB03813009341F22440C2F2000046F20001AB
S1132FC0C5F200014FF000024FF0090306F0B6FC11
S1132FD041F22440C2F2000006F054FD4FF02600F6
S1132FE0FFF7B2F94FF026004FF0FE01FFF704FAA5
S1132FF045F68C33009341F29C10C2F2000047F274
S11330000001C5F200014FF000024FF0090306F081
S113301095FC41F29C10C2F2000006F033FD4FF023
S11330202700FFF791F94FF027004FF0FE01FFF75B
S1133030E3F947F27023009341F2C830C2F2000072
S113304048F20001C5F200014FF000024FF00903FD
S113305006F074FC41F2C830C2F2000006F012FD22
S11330604FF02800FFF770F94FF028004FF0FE01F1
S1133070FFF7C2F947F66003C0F20403009341F27C
S1133080D830C2F2000049F20001C5F200014FF04D
S113309000024FF0090306F051FC41F2D830C2F2AD
S11330A0000006F0EFFC4FF02900FFF74DF94FF058
S11330B029004FF0FE01FFF79FF943F63813009300
S11330C041F2C030C2F200004AF20001C5F2000130
S11330D04FF000024FF0090306F030FC41F2C0301B
S11330E0C2F2000006F0CEFC4FF02A00FFF72CF9E4
S11330F04FF02A004FF0FE01FFF77EF941F2244021
S1133100C2F2000006F082FC41F29C10C2F2000000
S113311006F07CFC41F2C830C2F2000006F076FCF6
S113312041F2D830C2F2000006F070FC41F2C03027
S1133130C2F2000006F06AFCBD4680BD80B500AF57
S11331404FF02700FFF71CF980BD00BF80B500AF2A
S11331504FF02700FFF7F8F880BD00BF80B582B0BC
S113316000AF78600B46FB707A6841F2E833C2F234
S113317000031A6041F2E833C2F200031A68FB78D4
S11331801046194600F09CFB0346002B26D041F262
S1133190E833C2F200031B68184600F00DFCFB780C
S11331A0002B0DD140F26D33C2F200031B7803F102
S11331B00103DAB240F26D33C2F200031A702BE05D
S11331C040F26B33C2F200031B7803F10103DAB25D
S11331D040F26B33C2F200031A701DE0FB78002B3F
S11331E00DD140F26E33C2F200031B7803F10103E8
S11331F0DAB240F26E33C2F200031A700CE040F20D
S11332006C33C2F200031B7803F10103DAB240F21B
S11332106C33C2F200031A7007F10807BD4680BD83
S113322080B500AF43F60923C0F200034FF000005D
S11332304FF002011A4600F061FB43F61D23C0F271
S113324000034FF001004FF003011A4600F056FB53
S113325043F63543C0F200034FF002004FF0030180
S11332601A4600F04BFB43F66153C0F200034FF0E3
S113327003004FF006011A4600F040FB43F6616379
S1133280C0F200034FF004004FF010011A4600F0A2
S113329035FB80BD80B500AF4FF00100FFF7DAF8D1
S11332A04FF0FF304FF0FF31FFF74CF9FFF724F9EF
S11332B080BD00BF90B583B000AF40F23C62C2F263
S11332C0000241F2BC13C2F200031A6041F2BC13C3
S11332D0C2F200031A6840F27433C2F200031B788E
S11332E0D37341F2BC13C2F200031A6840F277337D
S11332F0C2F200031B78137441F2BC13C2F2000340
S11333001A6840F27533C2F200031B78537441F219
S1133310BC13C2F200031B684FF0000242F0080223
S11333201A704FF0000242F005025A7041F2BC13C9
S1133330C2F200031A684FF000036FEA83636FEA76
S1133340936393704FF00003D37041F2BC13C2F245
S113335000031B684FF000021A714FF0000242F0A4
S113336034025A7141F2BC13C2F200031B684FF0DD
S113337000029A714FF00002DA714FF000021A72E3
S11333804FF000025A7241F2BC13C2F200031B68F0
S11333904FF000029A724FF00002DA724FF000020E
S11333A01A734FF000025A734FF00003FB7100F0E0
S11333B01DFE12E041F2BC13C2F200031968F87951
S11333C0FA7941F22843C2F200039A5C00EB01034C
S11333D09A74FB7903F10103FB71FB791F2BE9D983
S11333E041F2BC13C2F200031C6840F23C60C2F21A
S11333F000004FF03201FDF777F9034603F0FF02B6
S11334004FF0000141EA020284F832204FEA13230C
S11334109BB24FF0000242EA030384F8333041F2D6
S1133420BC13C2F200031B684FF0060019464FF0AC
S11334303402FDF7DDF807F10C07BD4690BD00BF6F
S113344080B58CB002AFFFF793F8FFF7C7F8FDF72C
S1133450A3F806F077F94FF000004FF0050106F0ED
S1133460C7F94FF002004FF0050106F0C1F94FF023
S113347006004FF0050106F0BBF94FF000004FF0D5
S1133480010106F0D3F94FF002004FF0010106F0FC
S1133490CDF94FF006004FF0010106F0C7F94FF0E7
S11334A0000003F059FD41F28C50C2F2000004F018
S11334B069FB4FF00803009341F28C50C2F2000004
S11334C04FF000014FF000024FF0080304F0A4FC99
S11334D041F20850C2F2000004F054FB4FF008031C
S11334E0009341F20850C2F200004FF000014FF087
S11334F000024FF4007304F08FFC41F21440C2F256
S113350000004FF00A0141F60A22C0F24F0202F015
S113351091F841F20440C2F2000040F2D231C0F20C
S113352057014CF65262C0F2570202F083F841F29E
S1133530F030C2F2000046F27E41C0F2590145F675
S1133540FE12C0F27A0202F075F841F2A810C2F23B
S113355000004FF42F714FF4487202F06BF841F2FF
S11335608C10C2F2000041F66E21C0F24F0140F20D
S11335706E32C0F2570202F05DF84FF000033B7365
S11335804FF000037B734FF00003BB7340F208035A
S1133590C2F200031A6807F10C03104619464FF0F3
S11335A003024FF0000305F061F941F2C012C2F2C8
S11335B0000241F2A413C2F200031A6041F288131C
S11335C0C2F200034FF000021A7041F2C433C2F297
S11335D000034FF001021A80FFF75CFE4FF0000376
S11335E07B7441F25000C2F2000002F097F840F2FE
S11335F0A840C2F200004FF0230100F0BBFF0346D5
S11336001A4640F27433C2F200031B7842EA030301
S1133610DAB240F27433C2F200031A7040F2743327
S1133620C2F200031B784FEA4303DAB240F2743368
S1133630C2F200031A7041F25000C2F200004FF0CF
S1133640230100F097FF03461A4640F27433C2F296
S113365000031B7842EA0303DAB240F27433C2F285
S113366000031A7040F27433C2F200031B784FEA6D
S11336704303DAB240F27433C2F200031A7001F069
S11336809FFB03461A4640F27433C2F200031B78D0
S113369042EA0303DAB240F27433C2F200031A704E
S11336A040F27433C2F200031B784FEA4313DAB2D8
S11336B040F27433C2F200031A7000F0B7FC034600
S11336C01A4640F27433C2F200031B7842EA030341
S11336D0DAB240F27433C2F200031A7002F010F945
S11336E003461A4640F27733C2F200031A7002F01E
S11336F09DFD03467B7440F27533C2F200031A78D1
S11337007B7C42EA0303DAB240F27533C2F200036F
S11337101A7040F27533C2F200031B784FEA430378
S1133720DAB240F27533C2F200031A7040F23C4040
S1133730C2F200004FF0400100F01CFE03461A469E
S113374040F27533C2F200031B7842EA0303DAB293
S113375040F27533C2F200031A7040F27533C2F2BC
S113376000031B784FEA4303DAB240F27533C2F226
S113377000031A7040F2A840C2F200004FF040016A
S113378000F0F8FD4FF00003FB75FFF749FD41F22F
S1133790C840C2F200004FF416514FF0030202F089
S11337A065FF4FF02600FEF709FE4FF02700FEF7F5
S11337B005FEFFF7F9FB4FF0FF33FB6145F6FF43CE
S11337C0CEF61E633B624FF000037B62FFF772FD8F
S11337D002E000BF00E000BF4FF0860002F096FB5D
S11337E0FFF7ACFC41F2EC30C2F2000002F0B6FD8F
S11337F0FFF7ACFC40F25933C2F200031B78012BF3
S1133800E7D145F20C00C5F2000002F083FE034646
S11338107B8241F2B813C2F200031B887A8A9A426F
S1133820D9D940F25933C2F200034FF000021A70A2
S1133830D2E700BF80B500AF40F23C40C2F20000C6
S113384006F00CFF80BD00BF80B500AF40F2A84079
S1133850C2F2000006F002FF80BD00BF80B500AFD9
S113386041F25000C2F2000006F0F8FE80BD00BF35
S113387080B500AF40F2CC50C2F2000006F0EEFE7C
S113388080BD00BF80B500AFFEF7BEFF80BD00BFA6
S113389080B500AFFFF790F980BD00BF80B500AFE1
S11338A0FFF776FA80BD00BF80B500AFFFF75CFB81
S11338B080BD00BF80B500AFFFF792F880BD00BFA8
S11338C080B483B000AF78600B46FB707B681B78D4
S11338D003F1FF33002B08DB7B681B7803F1FF3314
S11338E0052B02DC4FF0010301E04FF00003184602
S11338F007F10C07BD4680BC704700BF80B483B09D
S113390000AF0B463A600246FA71BB80F97941F286
S11339104C42C2F200020B464FEAC303C1EB03035D
S11339201344FA791A70F97941F24C42C2F2000256
S11339300B464FEAC303C1EB030313443A794FF038
S1133940000141EA02025A707A794FF0000141EA1B
S113395002029A70F8793A6841F24C41C2F20001CD
S113396003464FEAC303C0EB03030B4402F0FF0119
S11339704FF0000040EA0101D9704FEA122101F032
S1133980FF014FF0000040EA010119714FEA1241B2
S113399001F0FF014FF0000040EA010159714FEAC4
S11339A012624FF0000141EA02029A7107F10C071A
S11339B0BD4680BC704700BF80B582B000AF786060
S11339C07B681B7803F1FF3141F24C42C2F20002E2
S11339D00B464FEAC303C1EB03031344DA781979A6
S11339E04FEA012141EA020259794FEA014141EAD1
S11339F002029B794FEA036343EA0203786898471B
S1133A0007F10807BD4680BD80B485B000AF78607B
S1133A1007F11407BD4680BC704700BF80B586B06F
S1133A2002AF78607B689A784CF6CD43CCF6CC43F1
S1133A30A3FB02134FEAD303DBB247F2702202FB6B
S1133A4003F3FB607B689B78002B00F0A5807B6808
S1133A505B78002B1CD1FB68009341F22440C2F236
S1133A60000046F20001C5F200014FF000024FF0E1
S1133A70090305F063FF41F22440C2F2000006F09E
S1133A8001F841F22440C2F2000005F0BFFFBBE0A0
S1133A907B685B78012B1CD1FB68009341F29C107E
S1133AA0C2F2000047F20001C5F200014FF000022B
S1133AB04FF0090305F042FF41F29C10C2F20000EE
S1133AC005F0E0FF41F29C10C2F2000005F09EFFF9
S1133AD09AE07B685B78022B1CD1FB68009341F26F
S1133AE0C830C2F2000048F20001C5F200014FF0F4
S1133AF000024FF0090305F021FF41F2C830C2F281
S1133B00000005F0BFFF41F2C830C2F2000005F02A
S1133B107DFF79E07B685B78052B1CD1FB68009303
S1133B2041F2D830C2F2000049F20001C5F20001AE
S1133B304FF000024FF0090305F000FF41F2D830C6
S1133B40C2F2000005F09EFF41F2D830C2F200003C
S1133B5005F05CFF58E07B685B78032B53D1FB686E
S1133B60009341F2C030C2F200004AF20001C5F2F3
S1133B7000014FF000024FF0090305F0DFFE41F2AF
S1133B80C030C2F2000005F07DFF41F2C030C2F245
S1133B90000005F03BFF37E07B685B78002B06D123
S1133BA041F22440C2F2000005F04EFF2CE07B6895
S1133BB05B78012B06D141F29C10C2F2000005F0A3
S1133BC043FF21E07B685B78022B06D141F2C830C9
S1133BD0C2F2000005F038FF16E07B685B78052B25
S1133BE006D141F2D830C2F2000005F02DFF0BE0FF
S1133BF07B685B78032B07D141F2C030C2F200002E
S1133C0005F022FF00E000BF07F11007BD4680BDAC
S1133C1080B483B000AF786003E07B6803F1FF33C6
S1133C207B607B68002BF8D107F10C07BD4680BC94
S1133C30704700BF80B584B000AF786040F20403E1
S1133C40C2F200031B78002B43D141F28C50C2F224
S1133C5000004FF0000104F087F941F28C53C2F2E6
S1133C6000031A6841F28C53C2F200031B681B68FC
S1133C7043F08063136043F68000C0F20100FFF755
S1133C80C7FF4FF000004FF4805103F08BFD034653
S1133C90FB7343F68000C0F20100FFF7B9FFFB7B22
S1133CA0002B0DD040F26933C2F200031B7843F0BD
S1133CB00103DAB240F26933C2F200031A704BE036
S1133CC04FF001004FF4805103F06CFD0346BB73C9
S1133CD042E041F28C50C2F200004FF0000104F0C7
S1133CE043F941F28C53C2F200031A6841F28C5337
S1133CF0C2F200031B681B6843F08063136043F641
S1133D008000C0F20100FFF783FF4FF000004FF482
S1133D10805103F047FD0346FB7343F68000C0F275
S1133D200100FFF775FFFB7B002B0DD040F26933D8
S1133D30C2F200031B7843F00103DAB240F26933A4
S1133D40C2F200031A7007E04FF001004FF48051F3
S1133D5003F028FD0346BB7307F11007BD4680BD81
S1133D6080B584B000AF78607B689B784FEA0362CB
S1133D707B68DB784FEA034342EA03027B681B79E2
S1133D804FEA032342EA03027B685B7942EA0303B6
S1133D901A4640F26433C2F200031A607B685A7810
S1133DA040F26833C2F200031A7040F26433C2F284
S1133DB000031A6807F108034FF0780011461A4609
S1133DC04FF0060302F056F8BB7A4FEA0362FB7A1F
S1133DD04FEA034342EA03023B7B4FEA032342EAEE
S1133DE003027B7B42EA03031A4641F25C13C2F2EC
S1133DF000031A6040F26433C2F200031B6803F14B
S1133E00040240F26433C2F200031A6040F26433E5
S1133E10C2F200031A6807F108034FF07800114654
S1133E201A464FF0060302F025F8BB7A4FEA036204
S1133E30FB7A4FEA034342EA03023B7B4FEA032344
S1133E4042EA03027B7B42EA03031A4641F25C1313
S1133E50C2F200035A6007F11007BD4680BD00BFDF
S1133E6080B485B000AF78604FF00003FB730DE0C1
S1133E70FA7BF97B7B680B44597841F2BC03C2F2AC
S1133E8000039954FB7B03F10103FB73FB7B0F2BB2
S1133E90EED907F11407BD4680BC704780B483B0E7
S1133EA000AF0346FB714EF20013CEF2000397F904
S1133EB007204FEA5212F97901F01F014FF0010077
S1133EC000FA01F143F8221007F10C07BD4680BC4B
S1133ED0704700BF80B483B000AF03463960FB7104
S1133EE097F90730002B10DA4EF60053CEF2000398
S1133EF0FA7902F00F02A2F104013A68D2B24FEA51
S1133F000212D2B20B441A760DE04EF20013CEF236
S1133F10000397F907103A68D2B24FEA0212D2B2FC
S1133F200B4483F8002307F10C07BD4680BC70479F
S1133F3080B584B000AF4FF000037B814FF00103E4
S1133F403B814FF0FF03BB8045F20C00C5F200003B
S1133F5002F0E0FA0346BB8145F21000C5F200000E
S1133F6002F0D8FA0346FB8140F25933C2F200034F
S1133F704FF001021A704FF0010005F0BFFC07F189
S1133F801007BD4680BD00BF80B58AB000AF4FF0BA
S1133F90000387F8273040F27833C2F200031B781D
S1133FA003F10103DAB240F27833C2F200031A706B
S1133FB040F27833C2F200031B78052B03D14FF093
S1133FC003033B7102E04FF001033B7107F104036B
S1133FD018464FF00001FFF7C1F84FF0030005F059
S1133FE08DFC07F12807BD4680BD00BF90B583B0A6
S1133FF000AF4FF00003FB7111E0FC794CF20C00B0
S1134000C5F2000002F09EFA03461A4641F2284324
S1134010C2F200031A55FB7903F10103FB71FB792A
S11340201F2BEAD907F10C07BD4690BD80B584B0BB
S113403000AF4FF001004FF0420105F0D9FB4FF003
S1134040010005F02BFC4FF03300FFF727FF4FF082
S113405033004FF0FF01FFF73DFF4FF003004FF037
S1134060620105F0C5FB4FF0030005F017FC4FF0AB
S11340703500FFF713FF4FF035004FF0FD01FFF758
S113408029FF4FF00003BB804FF000037B8145F212
S11340901400C5F200004FF0260102F051FA45F277
S11340A01800C5F200004FF00F0102F049FA4BF27C
S11340B01000C5F200004FF0070102F041FA45F28A
S11340C00800C5F2000002F03DFA0346BB73BB7B57
S11340D0AB2B07D0FB7B43F00103FB73FB7B4FEA65
S11340E04303FB73FB7B4FEA4303FB734BF2080070
S11340F0C5F2000002F026FA0346BB73BB7BAB2B70
S113410007D0FB7B43F00103FB73FB7B4FEA4303C4
S1134110FB73FB7B4FEA4303FB734CF20800C5F2CD
S1134120000002F00FFA0346BB73BB7BAB2B07D036
S1134130FB7B43F00103FB73FB7B4FEA4303FB73FD
S1134140FB7B4FEA4303FB7345F20C00C5F200000E
S113415002F0E0F90346BB81BB89002B07D0FB7B4F
S113416043F00103FB73FB7B4FEA4303FB73FB7BCD
S11341704FEA4303FB7345F21000C5F2000002F05E
S1134180C9F903463B813B89022B07D0FB7B43F0F3
S11341900103FB73FB7B4FEA4303FB73FB7B4FEA97
S11341A04303FB734BF20C00C5F2000002F0CAF9A2
S11341B00346BB804CF20C00C5F2000002F0C2F9C9
S11341C00346BB80FB7B184607F11007BD4680BD44
S11341D080B586B002AFF8607A600A46FA72FB7066
S11341E041F27C43C2F200034FF000021A702FE048
S11341F0FB78FA7A4FF000010091F86811467A686A
S113420006F07CF840F23C40C2F200004FF000019E
S113421006F0F0F903461A4641F28013C2F2000395
S11342201A7041F28013C2F200031B78002B02D1F2
S11342304FF0000318E041F27C43C2F200031B7804
S113424003F10103DAB241F27C43C2F200031A70B3
S113425041F27C43C2F200031B78092BC8D941F216
S11342607C43C2F200031B78184607F11007BD46D1
S113427080BD00BF80B586B002AFF8607A600A46A0
S1134280FA72FB7041F27C43C2F200034FF0000269
S11342901A702FE0FB78FA7A4FF000010091F86869
S11342A011467A6806F09CF840F23C40C2F20000E5
S11342B04FF0000106F09EF903461A4641F28013BE
S11342C0C2F200031A7041F28013C2F200031B7899
S11342D0002B02D14FF0000318E041F27C43C2F2FC
S11342E000031B7803F10103DAB241F27C43C2F20A
S11342F000031A7041F27C43C2F200031B78092BBD
S1134300C8D941F27C43C2F200031B78184607F176
S11343101007BD4680BD00BF80B584B000AFF86013
S11343207B600B46FB721346BB72FA7A07F10A03F1
S1134330F86811461A464FF00103FFF749FF034698
S1134340092B02D94FF001030FE0FB7AF8681946F4
S11343507A684FF00203FFF78DFF0346092B02D959
S11343604FF0010301E04FF00003184607F1100776
S1134370BD4680BD80B582B000AF78600B46FB704F
S113438041F27443C2F2000347F207021A8041F279
S11343907D43C2F200034FF000021A70FB78786884
S11343A0194641F27D42C2F200024FF00103FFF7C9
S11343B00FFF0346092B02D94FF0010313E041F22A
S11343C07443C2F20003FA78786811461A464FF033
S11343D00203FFF7FDFE0346092B02D94FF0010348
S11343E001E04FF00003184607F10807BD4680BD01
S11343F080B584B000AFF8607B600B46FB72134657
S1134400BB7241F27843C2F200034FF000021A700B
S113441041F27843C2F200034FF000025A7041F2B5
S11344207A43C2F200034FF000021A80BB7A4FEACB
S11344304303DBB2FA7AF86811461A4641F278432C
S1134440C2F20003FFF768FF0346002B1AD141F2C2
S11344507843C2F200031B784FEA03239AB241F275
S11344607843C2F200035B7842EA03039BB29AB238
S113447041F27A43C2F200031A807B684FF00002D3
S11344801A700AE07B684FF001021A7041F27A4315
S1134490C2F200034FF000021A8041F27A43C2F2E2
S11344A000031B88184607F11007BD4680BD00BFF6
S11344B080B584B000AFF8607B600B46FB72134696
S11344C0BB7241F27843C2F200034FF000021A704B
S11344D041F27843C2F200034FF000025A7041F2F5
S11344E07A43C2F200034FF000021A80BB7A4FEA0B
S11344F04303DBB203F1FF33DBB2FA7AF868114607
S11345001A4641F27843C2F20003FFF705FF03465F
S1134510002B1AD141F27843C2F200031B784FEA10
S113452003239AB241F27843C2F200035B7842EA71
S113453003039BB29AB241F27A43C2F200031A8097
S11345407B684FF000021A700AE07B684FF00102AA
S11345501A7041F27A43C2F200034FF000021A804B
S113456041F27A43C2F200031B88184607F1100790
S1134570BD4680BD80B588B002AF78600B46FB7045
S11345804FF00003BB754FF00003FB754CF20C2297
S1134590C0F2000207F1100312681146198003F1FA
S11345A002034FEA12421A704FF004033B734FF0B8
S11345B000037B734FF00003BB7349E0BB7D1A46D5
S11345C04FEA42021344DBB203F10503DBB23B744E
S11345D0BB7D1A464FEA42021344DBB203F10403E3
S11345E0DBB23B73FA7807F110034FF0000100913E
S11345F0786811461A464FF0030305F07FFE786889
S11346004FF0000105F0F6FF03467B75FA7807F1D9
S11346100C034FF000010091786811461A464FF0E0
S1134620030305F06BFE78684FF0000105F0E2FF2C
S113463003467B757A7DBB7D02FA03F3DAB2FB7D18
S113464042EA0303DBB2FB75BB7D03F10103BB75D7
S1134650BB7D032BB2D9FB7D184607F11807BD4675
S113466080BD00BF80B58CB004AFF8607B600B46A2
S1134670FB721346BB72BB7A3B753B7D43F0080368
S1134680DBB23B753B7D4FEA0313DBB23B75FA7A31
S113469007F1140307F1180100914FF00201019191
S11346A04FF000010291F86811461A464FF00103D9
S11346B005F008FFF8684FF0000105F09BFF034682
S11346C07B777B7F002B04D07B684FF001021A704C
S11346D012E03B7E4FEA03239AB27B7E42EA030355
S11346E09BB2FB83FB8B4FEA03534FEA1353FB83C9
S11346F07B684FF000021A70FB8B184607F1200705
S1134700BD4680BD80B592B004AFF860B9607A60F0
S11347104CF21423C0F200031B88BB864FF028031D
S113472087F830304FF02A0387F82C304FF02C03F1
S113473087F828304FF0290387F824304FF02B03F3
S113474087F820304FF02D033B774FF0000387F8B4
S1134750363007F1340307F1180200924FF00102DA
S113476001924FF00002029240F2CC50C2F20000DB
S11347704FF06A011A464FF0020305F0A3FE40F21F
S1134780CC50C2F200004FF0000105F033FF0346A5
S113479087F8373097F8362097F83730134487F87E
S11347A0363007F1280307F1180200924FF0010296
S11347B001924FF00002029240F2CC50C2F200008B
S11347C04FF06A011A464FF0010305F07BFE40F2F8
S11347D0CC50C2F200004FF0000105F00BFF03467D
S11347E087F8373097F8362097F83730134487F82E
S11347F0363007F11C0307F1140200924FF0010256
S113480001924FF00002029240F2CC50C2F200003A
S11348104FF06A011A464FF0010305F053FE40F2CF
S1134820CC50C2F200004FF0000105F0E3FE034655
S113483087F8373097F8362097F83730134487F8DD
S113484036303B7D4FEA03239AB23B7E42EA0303B0
S11348509BB29AB27B681A807B681B88B3F5004FC1
S113486006D97B681B886FEA03039AB27B681A80B7
S113487007F12C0307F1180200924FF00102019294
S11348804FF00002029240F2CC50C2F200004FF00E
S11348906A011A464FF0010305F014FE40F2CC50B1
S11348A0C2F200004FF0000105F0A4FE034687F8B1
S11348B0373097F8362097F83730134487F8363076
S11348C007F1200307F1140200924FF00102019254
S11348D04FF00002029240F2CC50C2F200004FF0BE
S11348E06A011A464FF0010305F0ECFD40F2CC508A
S11348F0C2F200004FF0000105F07CFE034687F889
S1134900373097F8362097F83730134487F8363025
S11349103B7D4FEA03239AB23B7E42EA03039BB2F8
S11349209AB2BB681A80BB681B88B3F5004F06D9DE
S1134930BB681B886FEA03039AB2BB681A8007F14D
S1134940300307F1180200924FF0010201924FF078
S11349500002029240F2CC50C2F200004FF06A0111
S11349601A464FF0010305F0ADFD40F2CC50C2F2FF
S113497000004FF0000105F03DFE034687F8373094
S113498097F8362097F83730134487F8363007F114
S1134990240307F1140200924FF0010201924FF038
S11349A00002029240F2CC50C2F200004FF06A01C1
S11349B01A464FF0010305F085FD40F2CC50C2F2D7
S11349C000004FF0000105F015FE034687F837306C
S11349D097F8362097F83730134487F836303B7D04
S11349E04FEA03239AB23B7E42EA03039BB29AB294
S11349F0FB681A80FB681B88B3F5004F06D9FB6877
S1134A001B886FEA03039AB2FB681A8097F8373061
S1134A10184607F13807BD4680BD00BF80B592B087
S1134A2004AFF860B9607A604CF21023C0F200035E
S1134A301B883B864FF0180387F82C304FF01A037D
S1134A4087F828304FF01C0387F824304FF01903FF
S1134A5087F820304FF01B033B774FF01D033B7664
S1134A604FF06A0387F835304FF0000387F836308B
S1134A7097F8352007F1300307F1140100914FF046
S1134A80010101914FF00001029140F2CC50C2F2B9
S1134A90000011461A464FF0020305F013FD40F2E0
S1134AA0CC50C2F200004FF0000105F0A3FD034614
S1134AB087F8373097F8362097F83730134487F85B
S1134AC0363097F8352007F1240307F114010091DB
S1134AD04FF0010101914FF00001029140F2CC50DE
S1134AE0C2F2000011461A464FF0010305F0EAFC39
S1134AF040F2CC50C2F200004FF0000105F07AFD04
S1134B00034687F8373097F8362097F83730134440
S1134B1087F8363097F8352007F1180307F11001AC
S1134B2000914FF0010101914FF00001029140F218
S1134B30CC50C2F2000011461A464FF0010305F0B2
S1134B40C1FC40F2CC50C2F200004FF0000105F06D
S1134B5051FD034687F8373097F8362097F83730F9
S1134B60134487F836303B7C4FEA03239AB23B7DEB
S1134B7042EA03039BB29AB2FB681A8097F8352085
S1134B8007F1280307F1140100914FF0010101918D
S1134B904FF00001029140F2CC50C2F200001146E5
S1134BA01A464FF0010305F08DFC40F2CC50C2F2DE
S1134BB000004FF0000105F01DFD034687F8373073
S1134BC097F8362097F83730134487F8363097F83B
S1134BD0352007F11C0307F1100100914FF001018A
S1134BE001914FF00001029140F2CC50C2F200005A
S1134BF011461A464FF0010305F064FC40F2CC5014
S1134C00C2F200004FF0000105F0F4FC034687F8FF
S1134C10373097F8362097F83730134487F8363012
S1134C203B7C4FEA03239AB23B7D42EA03039BB2E7
S1134C309AB2BB681A8097F8352007F12C0307F164
S1134C40140100914FF0010101914FF00001029114
S1134C5040F2CC50C2F2000011461A464FF0010354
S1134C6005F030FC40F2CC50C2F200004FF00001DD
S1134C7005F0C0FC034687F8373097F8362097F8DC
S1134C803730134487F8363097F8352007F120037E
S1134C9007F1100100914FF0010101914FF0000163
S1134CA0029140F2CC50C2F2000011461A464FF075
S1134CB0010305F007FC40F2CC50C2F200004FF0B3
S1134CC0000105F097FC034687F8373097F8362043
S1134CD097F83730134487F836303B7C4FEA032388
S1134CE09AB23B7D42EA03039BB29AB27B681A8074
S1134CF097F83730184607F13807BD4680BD00BF26
S1134D0080B58AB004AF78604FF015033B754FF05F
S1134D1016033B744FF06A03BB75BA7D07F11403A5
S1134D2007F10C0100914FF0010101914FF00001D6
S1134D30029140F2CC50C2F2000011461A464FF0E4
S1134D40010305F0BFFB40F2CC50C2F200004FF06B
S1134D50000105F04FFC0346FB75BA7D07F1100313
S1134D6007F1080100914FF0010101914FF000019A
S1134D70029140F2CC50C2F2000011461A464FF0A4
S1134D80010305F09FFB40F2CC50C2F200004FF04B
S1134D90000105F02FFC0346FB753B7B1A463B7A6A
S1134DA04FEA03239BB242EA03039BB29AB27B68A5
S1134DB01A804FF00003184607F11807BD4680BD5E
S1134DC080B586B002AF41F27E43C2F200034FF0D9
S1134DD000021A704FF00A004FF0010104F026FDA2
S1134DE04FF000033B714FF000037B714FF0000361
S1134DF0BB714FF00003FB714FF000033B724FF0A7
S1134E000003FB604FF00003FB600BE041F208502D
S1134E10C2F200004FF0FF0103F072F9FB6803F1E6
S1134E200103FB60FB68092BF0D941F20850C2F280
S1134E3000004FF0000103F097F807F104034FF06E
S1134E400102009241F20850C2F2000040F20C014B
S1134E50C2F200014FF0070203F0B2F9FB6803F15C
S1134E600103FB603B79012B06D03B79012B04D075
S1134E70FB68FE2BE1D900E000BF4FF00003FB60AC
S1134E8041F20850C2F200004FF0FF0103F038F97C
S1134E9041F20850C2F200004FF0FF0103F030F974
S1134EA007F104034FF00502009241F20850C2F2E8
S1134EB0000040F21401C2F200014FF0070203F0B7
S1134EC07FF941F20850C2F200004FF0FF0103F0F5
S1134ED017F941F20850C2F200004FF0FF0103F04D
S1134EE00FF9FB6803F10103FB603B7AAA2B10D195
S1134EF0FB79012B0DD1BB79002B0AD17B79002BD7
S1134F0007D141F27E43C2F200034FF001021A704E
S1134F1002E0FB68FE2BB3D9FB68FE2B0AD941F2F1
S1134F200850C2F200004FF0000103F0A1F84FF066
S1134F3001037EE14FF000033B714FF000037B71EE
S1134F404FF00003BB714FF00003FB714FF00003FF
S1134F503B724FF00003FB6041F27E43C2F2000358
S1134F604FF000021A7041F20850C2F200004FF0F4
S1134F70FF0103F0C5F841F20850C2F200004FF0FF
S1134F80FF0103F0BDF807F104034FF0050200929E
S1134F9041F20850C2F2000040F21C01C2F20001CA
S1134FA04FF0070203F00CF941F20850C2F200007E
S1134FB04FF0FF0103F0A4F841F20850C2F20000E0
S1134FC04FF0FF0103F09CF8FB6803F10103FB6061
S1134FD0FB79802B0AD1BB79FF2B07D141F27E43A9
S1134FE0C2F200034FF001021A7002E0FB68FE2BCC
S1134FF0B9D9FB68FE2B0AD941F20850C2F200006D
S11350004FF0000103F034F84FF0010311E14FF0C9
S113501000033B714FF000037B714FF00003BB7141
S11350204FF00003FB714FF000033B724FF000039D
S1135030FB6041F27E43C2F200034FF000021A709B
S113504041F20850C2F200004FF0FF0103F058F89B
S113505041F20850C2F200004FF0FF0103F050F893
S113506007F104034FF00102009241F20850C2F22A
S1135070000040F22401C2F200014FF0070203F0E5
S11350809FF841F20850C2F200004FF0FF0103F014
S113509037F807F104034FF00102009241F208507F
S11350A0C2F2000040F22C01C2F200014FF00702EC
S11350B003F086F841F20850C2F200004FF0FF01FD
S11350C003F01EF841F20850C2F200004FF0FF0155
S11350D003F016F8FB6803F10103FB603B79002B36
S11350E007D141F27E43C2F200034FF001021A706D
S11350F004E0FA6840F6F5139A42A1D941F27E43DE
S1135100C2F200031B78002B0AD141F20850C2F20C
S113511000004FF0000102F0ABFF4FF0010388E004
S11351204FF000033B714FF000037B714FF000031D
S1135130BB714FF00003FB714FF000033B724FF063
S11351400003FB6041F27E43C2F200034FF0000211
S11351501A7041F20850C2F200004FF0FF0102F051
S1135160CFFF41F20850C2F200004FF0FF0102F0FD
S1135170C7FF07F104034FF00502009241F2085003
S1135180C2F2000040F21C01C2F200014FF007021B
S113519003F016F841F20850C2F200004FF0FF018C
S11351A002F0AEFF41F20850C2F200004FF0FF01DE
S11351B002F0A6FFFB6803F10103FB60FB79802B7F
S11351C00AD1BB79FF2B07D141F27E43C2F200031F
S11351D04FF001021A7002E0FB68FE2BB9D9FB689C
S11351E0FE2B0AD941F20850C2F200004FF0000130
S11351F002F03EFF4FF001031BE041F27E43C2F296
S113520000031B78012B0AD141F20850C2F20000BE
S11352104FF0000102F02CFF4FF0000309E041F2CF
S11352200850C2F200004FF0000102F021FF4FF0DD
S11352300103184607F11007BD4680BD80B58CB048
S113524002AF786039607B684FEA1363D8B27B6839
S11352504FEA1343D9B27B684FEA1323DAB27B686F
S1135260DBB24FF0580C87F818C07876B976FA7626
S11352703B774FF0FF337B774FF0FF33BB774FF033
S113528000033B744FF000037B744FF00003BB74C6
S11352904FF00003FB744FF000033B754FF0000325
S11352A0FB776FF00103FB734FF000033B624FF099
S11352B000037B6241F20850C2F200004FF0FF018C
S11352C002F01EFF41F20850C2F200004FF000014C
S11352D002F04AFE41F20850C2F200004FF0FF0112
S11352E002F00EFF07F1180207F110034FF001015D
S11352F0009141F20850C2F2000011464FF007023B
S113530002F05EFF41F20850C2F200004FF0FF01CC
S113531002F0F6FE3B6A03F101033B623B7C002B87
S113532077D107F10F0207F110034FF0010100914B
S113533041F20850C2F2000011464FF0010202F09F
S11353403FFF07F110034FF00002009241F20850B2
S1135350C2F2000039684FF4007202F031FF17E026
S113536041F20850C2F200004FF0FF0102F0C8FE03
S11353700346DBB23B743B7C03F01F03052B03D1D4
S11353804FF00103FB7706E07B6A03F101037B62C4
S11353907B6A632BE4D9FB7F012B3FD14FF00003E1
S11353A0FB774FF000037B622FE041F20850C2F21A
S11353B000004FF0FF0102F0A3FE0346DBB23B7492
S11353C03B7C002B1DD04FF00103FB7741F20850CA
S11353D0C2F200004FF0FF0102F092FE41F20850C9
S11353E0C2F200004FF0000102F042FE41F2085008
S11353F0C2F200004FF0FF0102F082FE4FF0000302
S113540035E07B6A03F101037B627B6A632BCCD9B1
S113541005E03B6AFE2B7FF64DAF00E000BF3B6A20
S1135420FE2B12D941F20850C2F200004FF00001E5
S113543002F01EFE41F20850C2F200004FF0FF01DC
S113544002F05EFE4FF0010311E041F20850C2F297
S113545000004FF0000102F00BFE41F20850C2F2CE
S113546000004FF0FF0102F04BFE4FF0010318461D
S113547007F12807BD4680BD80B58CB002AF7860C7
S113548039607B684FEA1363D8B27B684FEA1343F1
S1135490D9B27B684FEA1323DAB27B68DBB24FF0F0
S11354A0510C87F818C07876B976FA763B774FF0C6
S11354B0FF337B774FF0FF33BB774FF000033B7430
S11354C04FF000037B744FF00003BB744FF00003F4
S11354D0FB744FF000033B754FF00003FB774FF074
S11354E0FF33FB734FF000033B624FF00003FB8478
S11354F041F20850C2F200004FF0FF0102F000FE3A
S113550041F20850C2F200004FF0000102F02CFDFD
S113551041F20850C2F200004FF0FF0102F0F0FD2A
S113552007F1180207F110034FF00101009141F255
S11355300850C2F2000011464FF0070202F040FE8C
S113554056E041F20850C2F200004FF0FF0102F0B1
S1135550D7FD0346DBB23B74FB8C03F10103FB84F0
S11355603B7CFE2B44D141F20850C2F200004FF0C4
S1135570FF0102F0C5FD07F10F034FF40072009222
S113558041F20850C2F2000019464FF000023B6895
S113559002F016FE41F20850C2F200004FF0FF0183
S11355A002F0AEFD41F20850C2F200004FF0FF01DC
S11355B002F0A6FD4FF00103FB7741F20850C2F25E
S11355C000004FF0FF0102F09BFD41F20850C2F2CF
S11355D000004FF0000102F04BFD41F20850C2F20E
S11355E000004FF0FF0102F08BFD4FF000031CE0C0
S11355F0FB8CF92BA5D93B6A03F101033B623B6A9F
S1135600632B7FF675AF41F20850C2F200004FF0F1
S1135610000102F02DFD41F20850C2F200004FF0EB
S1135620FF0102F06DFD4FF00103184607F1280752
S1135630BD4680BD80B485B000AFF860B9607A60C3
S1135640FB68BA681A60FB687A685A60FB68BA68D3
S11356509A60FB68BA68DA6007F11407BD4680BC3B
S1135660704700BF80B582B000AF786039607B6856
S1135670DA687B685B689A4205D27B68DA687B6883
S11356801B689A4202D24FF0020313E07B68DB6886
S113569018463968FFF7D2FD0346002B08D17B6812
S11356A0DB6803F101027B68DA604FF0000301E07C
S11356B04FF00103184607F10807BD4680BD00BF3F
S11356C080B582B000AF786039607B689A687B6887
S11356D0DB689A4205D27B689A687B681B689A42A9
S11356E002D24FF0020313E07B689B6818463968C6
S11356F0FFF7C2FE0346002B08D17B689B6803F1C9
S113570001027B689A604FF0000301E04FF001034F
S1135710184607F10807BD4680BD00BF80B582B0BA
S113572000AF78604FF006004FF0050104F060F818
S11357304FF006004FF0010104F078F8786842F267
S11357400001C5F200014FF010024FF0000304F015
S11357505FFD78684FF0000104F04CFF03461A46E1
S113576041F28013C2F200031A7041F28013C2F2B4
S113577000031B78184607F10807BD4680BD00BF2B
S113578080B584B002AF7860396040F23403C2F26D
S113579000031B784FF00002009278684FF032014A
S11357A03A6804F01DFE78684FF0000104F022FF0F
S11357B003461A4641F28013C2F200031A7041F202
S11357C08013C2F200031B78184607F10807BD4690
S11357D080BD00BF80B586B002AF786039604FF0FD
S11357E00103FB734FF001033B73FB7B07F10C02D6
S11357F04FF00101009178684FF0320104F07EFD12
S113580078684FF0000104F0F5FE03461A4641F2B1
S11358108013C2F200031A7040F23403C2F2000390
S11358201B784FF00002009278684FF032013A681A
S113583004F0D6FD78684FF0000104F0DBFE034667
S11358401A4641F28013C2F200031A7041F2801327
S1135850C2F200031B78184607F11007BD4680BD4D
S113586090B585B000AF786039604FF00003FB73EA
S11358702EE0FA7B3B6802EB0304FB7B41F2500011
S1135880C2F200004FF023011A4641F27E43C2F2F5
S11358900003FEF7E7FE0346DBB2237041F27F43C9
S11358A0C2F200031B784FEA4303DAB241F27E43AB
S11358B0C2F200031B7842EA0303DBB2DAB241F21C
S11358C07F43C2F200031A70FB7B03F10103FB73F5
S11358D0FB7B072BCDD907F11407BD4690BD00BF54
S11358E080B483B000AF786041F28043C2F2000319
S11358F07A681A6007F10C07BD4680BC704700BF88
S113590080B58CB002AF4FF0FF337B614FF0FF33B3
S1135910FB744FF0000387F822304FF0010387F83F
S113592023304FF00003BB744FF000033B734FF080
S1135930FF337B734FF01003BB734FF01703FB73FC
S11359404FF000033B714FF000037B714FF00003F5
S1135950BB714FF00003FB7140F21850C2F200001B
S113596044F20001C5F200014FF0080204F0C2F84D
S113597040F21850C2F2000004F02EF94FF0050076
S11359804FF0050103F034FF40F21850C2F200005A
S1135990FFF7A6FF4FF005004FF0000103F046FFAC
S11359A04FF00003BB844FF00003BB8403E0BB8CC7
S11359B003F10103BB84BA8C40F2E7339A42F6D96F
S11359C04FF005004FF0010103F030FF4FF00003EA
S11359D0BB8441F28043C2F200031B6818464FF0B7
S11359E0000104F03BF94FF00003BB8403E0BB8CDF
S11359F003F10103BB84BA8C40F25D139A42F6D9D9
S1135A0041F28043C2F20003196807F1130207F15F
S1135A1012034FF001000090084611464FF00102B6
S1135A2000F056FBBB7C002B1BD04FF0000387F823
S1135A30233041F28043C2F200031B6818464FF042
S1135A40000104F05FF94FF00003BB8403E0BB8C5A
S1135A5003F10103BB84BA8C40F2E7339A42F6D9CE
S1135A6009E097F8223003F1010387F8223097F810
S1135A702230092BADD941F28043C2F200031B68E6
S1135A8018464FF0000104F0E9F841F28043C2F2F5
S1135A900003196807F1130207F112034FF0010024
S1135AA00090084611464FF0010200F011FB4FF040
S1135AB00003FB704FF0FF33BB704FF0000387F817
S1135AC0263041F28043C2F20003196807F1020252
S1135AD007F103034FF001000090084611464FF010
S1135AE0010200F0F5FAFB7803F02003002B04D048
S1135AF0FB7803F00403002B0FD197F82630632BB7
S1135B008CBF00230123DBB297F8262002F10102A7
S1135B1087F82620002BD4D100E000BF41F2804357
S1135B20C2F200031B6818464FF0000104F0EAF8C3
S1135B304FF0000387F8263008E000F077FB0346B7
S1135B4087F8273097F82730012B0FD097F82630A5
S1135B50632B8CBF00230123DBB297F8262002F1CC
S1135B60010287F82620002BE7D100E000BF00F0F7
S1135B70B7F8034687F8223007F104034FF07800A2
S1135B8040F27C31C2F200011A464FF0060300F0E5
S1135B9071F94FF00003FB7107F104034FF0380073
S1135BA040F27C31C2F200011A464FF0040300F0C7
S1135BB017F997F82230002B09D100F00DFA0346AB
S1135BC087F8223097F82230002B03D00CE04FF0F6
S1135BD003031AE000F03EFA034687F8223097F8F0
S1135BE02230002B03D00FE04FF002030DE007F149
S1135BF00C034FF0380040F20051C2F200011A4683
S1135C004FF0040300F0ECF8FFE7184607F128070B
S1135C10BD4680BD80B588B002AF78600B467B80FE
S1135C204FF00003FB6041F28043C2F200031B68A3
S1135C3018464FF0000104F011F87A68FB68134429
S1135C401B784FEA0342FB6803F101017B680B44B4
S1135C501B784FEA032342EA0302FB6803F10201C3
S1135C607B680B441B7842EA03037B617A694FF635
S1135C70FF739A4202D94FF001032BE0FB6803F152
S1135C8003037A6813443B6141F28043C2F2000388
S1135C901A683B6903F101037969A1F104010091D8
S1135CA0104639694FF0010200F046FAFA687B6940
S1135CB01344FB607A88FB689A42BED841F2804361
S1135CC0C2F200031B6818464FF0000104F01AF8F2
S1135CD04FF00003184607F11807BD4680BD00BF0A
