:1000000000000120910100007F0300008103000037
:100010008303000085030000870300000000000048
:100020000000000000000000000000008903000044
:100030008B030000000000008D0300008F03000010
:1000400091030000930300003D7100006171000006
:10005000990300009B0300009D0300009F03000024
:10006000A1030000A3030000ED50000011510000A7
:10007000A9030000AB030000AD030000AF030000C4
:10008000B1030000B3030000B5030000C1930000FA
:10009000B9030000BB030000BD030000BF03000064
:1000A000C1030000C3030000C5030000C703000034
:1000B000C9030000CB030000CD030000CF03000004
:1000C000D1030000D303000095230000A923000002
:1000D000BD230000D1230000E5230000F123000030
:1000E000FD2300000924000015240000E7030000A0
:1000F000E9030000EB030000ED030000EF03000044
:10010000F1030000F3030000F5030000F5280000F0
:10011000F90300004D290000FD030000FF0300006B
:1001200001040000030400000504000007040000AF
:10013000090400000B0400000D0400000F0400007F
:10014000110400001304000015040000170400004F
:10015000190400001B0400001D0400001F0400001F
:1001600021040000230400002504000027040000EF
:10017000290400002B0400002D0400002F040000BF
:100180003104000033040000000000000000000003
:100190004FF0000BDFF8BE020068DFF8B612096806
:1001A00001F0030100F01C00142801D14BF0020BF8
:1001B000002901D04BF0010BBBF1000F05D0A7487F
:1001C000A749DFF8722200F09FF8A64880470BF09D
:1001D000020ABAF1000F0CD0DFF86E02DFF86E12DF
:1001E00002680B680FB44FF000024FF0FF0302608B
:1001F0000B609D489D4A9E4B022808D1DFF83E12B5
:100200000A60DFF842120A60DFF836120B6001283C
:1002100008D1DFF82E120A60DFF82A120A60DFF830
:100220001E120B609348002809D193489349944AC1
:1002300000F032F893489449944A00F02DF894481D
:100240009449954A00F028F894489549DFF8E6214A
:1002500000F05AF8BBF1000F12D092489249DFF833
:10026000DA2100F051F80BF0020ABAF1000F07D0C2
:100270000FBC02600B6000BFAFF30080AFF30080E3
:10028000DFF828020FF2030E00474FF000004FF096
:100290000001DFF81CF2FEE72DE9F841884225D085
:1002A000B2EB010200D5FEE740EA010313F00303BD
:1002B00002D000F01DF819E04FF000039046121133
:1002C000F7D09A421CBFF0C8F0C103F10103F8D186
:1002D00008F00F08B8F1000F08D004780C7000F196
:1002E000010001F10101B8F10108F6D1BDE8F88182
:1002F00008B54FF0000303780B7000F1010001F125
:100300000101013AF7D108BD884237D000F0030659
:10031000002E14D04FF00405A5EB06044FF008079B
:1003200007FB06F8914669FA08F9002C07D080F817
:10033000009069FA07F900F10100013CF5E74FF080
:1003400000060F46091A88460911914614461546BB
:10035000B14206D018BFA0E8340206F10106B1424E
:10036000F8D108F00F08B8F1000F07D002704FEA7B
:10037000322200F10100B8F10108F4E77047FEE70E
:10038000FEE7FEE7FEE7FEE7FEE7FEE7FEE7FEE745
:10039000FEE7FEE7FEE7FEE7FEE7FEE7FEE7FEE735
:1003A000FEE7FEE7FEE7FEE7FEE7FEE7FEE7FEE725
:1003B000FEE7FEE7FEE7FEE7FEE7FEE7FEE7FEE715
:1003C000FEE7FEE7FEE7FEE7FEE7FEE7FEE7FEE705
:1003D000FEE7FEE7FEE7FEE7FEE7FEE7FEE7FEE7F5
:1003E000FEE7FEE7FEE7FEE7FEE7FEE7FEE7FEE7E5
:1003F000FEE7FEE7FEE7FEE7FEE7FEE7FEE7FEE7D5
:10040000FEE7FEE7FEE7FEE7FEE7FEE7FEE7FEE7C4
:10041000FEE7FEE7FEE7FEE7FEE7FEE7FEE7FEE7B4
:10042000FEE7FEE7FEE7FEE7FEE7FEE7FEE7FEE7A4
:10043000FEE7FEE7704700000000A2A2A2A2008033
:100440000340088003401080034030800340348024
:1004500003403880034018080240000000F00020EC
:1004600000000120418D000000000000000000009D
:10047000010000000000000000000000000000007B
:1004800090010000C0040000C0040000B09D000006
:10049000B09D000000000020500300205003002009
:1004A000E0150020E015002000F00020899B0000EE
:1004B000E9200000AFF30080AFF30080AFF30080CD
:1004C00040F25033C2F200031A780AB901201870C2
:1004D000704700BF40F20000C2F2000008B5036898
:1004E0002BB140F20003C0F2000303B1984708BDEE
:1004F00080B400AF45F20003C4F200031B68184645
:10050000BD4680BC704700BF80B500AF40F23040B0
:10051000C2F200004FF0A0414FF040024FF0000344
:1005200007F0D0FB40F2C050C2F2000043F20001DD
:10053000C5F200014FF06A024FF0000307F0C2FB62
:1005400040F29C40C2F2000041F20001C5F20001FD
:100550004FF021024FF0000307F0B4FB80BD00BF55
:1005600080B485B000AF78600B467B804FF000030D
:100570003B734FF000037B734FF00003BB734FF0EE
:100580000003FB734FF00003FB733AE03A7BF97B07
:100590007B680B441B7802EB030148F28103C8F22D
:1005A000800383FB01230B444FEAE3124FEAE1731C
:1005B000C3EB020213464FEA0323C2EB0303C3EB70
:1005C000010213463B737A7B3B7B02EB030148F24B
:1005D0008103C8F2800383FB01230B444FEAE3123B
:1005E0004FEAE173C3EB020213464FEA0323C2EB67
:1005F0000303C3EB010213467B73FB7B03F101038F
:10060000FB73FB7B7A889A42C0D83A7B7B7B02EBF8
:10061000030148F28103C8F2800383FB01230B44EA
:100620004FEAE3124FEAE173C3EB020213464FEACB
:100630000323C2EB0303C3EB0102D3B26FEA03034C
:10064000BB733A7BBB7B02EB030148F28103C8F228
:10065000800383FB01230B444FEAE3124FEAE1736B
:10066000C3EB020213464FEA0323C2EB0303C3EBBF
:100670000102D3B26FEA03037B737B7B4FEA032350
:100680009AB2BB7B42EA03039BB29BB2184607F1C6
:100690001407BD4680BC704790B58FB000AF40F2E4
:1006A0003062C2F2000240F20853C2F200031A6044
:1006B0004FF000037B864FF0000387F8353049F692
:1006C000AC43C0F2000307F1040C9E46BEE80F00E5
:1006D000ACE80F00DEF80030ACF8003007F1300174
:1006E00007F12E0207F12C03084611461A4602F0C4
:1006F000D7FC0346002B0CBF002301237B8607F1A8
:100700002A0107F1280207F12603084611461A4676
:1007100002F052FE0346002B02D04FF0020301E02C
:100720004FF00003798E1A460B4642EA03039BB250
:100730007B8607F11A03184602F0B0FF0346002B30
:1007400014BF00230123002B03D04FEA83039BB285
:1007500001E04FF00403798E1A460B4642EA030388
:100760009BB27B8640F20853C2F200031A6840F243
:100770006133C2F200031B78537440F20853C2F293
:1007800000031A684FF0000343F0500393744FF0D6
:1007900000036FEA030303F03C036FEA0303D3741F
:1007A00040F20853C2F200031C68FFF7A1FE0346A3
:1007B00003F0FF024FF0000141EA020222754FEA06
:1007C000132202F0FF024FF0000141EA02026275BB
:1007D0004FEA134202F0FF024FF0000141EA020229
:1007E000A2754FEA13634FF0000242EA0303E37578
:1007F00040F20853C2F200031A6840F26C33C2F2AE
:1008000000031B78937640F20853C2F200031A6883
:1008100041F2B833C2F200031B681B78137640F232
:100820000853C2F200031A6840F26333C2F20003B5
:100830001B78937316E040F20853C2F20003196864
:1008400097F8350097F8352041F2B003C2F2000363
:100850009A5C00EB0103DA7697F8353003F1010377
:1008600087F8353097F835300F2BE4D940F208532C
:10087000C2F200031A6840F26633C2F200031B782A
:10088000D37340F20853C2F200031A6840F2673390
:10089000C2F200031B78137440F20853C2F2000343
:1008A0001B683A8E02F0FF014FF0000040EA0101A0
:1008B00083F82B104FEA122292B24FF0000141EA66
:1008C000020283F82C2040F20853C2F200031B6896
:1008D000FA8D02F0FF014FF0000040EA010183F8B9
:1008E0002D104FEA122292B24FF0000141EA0202AB
:1008F00083F82E2040F20853C2F200031B68BA8D21
:1009000002F0FF014FF0000040EA010183F82F10D0
:100910004FEA122292B24FF0000141EA020283F83C
:10092000302040F20853C2F200031B687A8D02F0B7
:10093000FF014FF0000040EA010183F831104FEA57
:10094000122292B24FF0000141EA020283F83220F3
:1009500040F20853C2F200031B683A8D02F0FF0117
:100960004FF0000040EA010183F833104FEA1222F1
:1009700092B24FF0000141EA020283F8342040F2C3
:100980000853C2F200031B68FA8C02F0FF014FF01B
:10099000000040EA010183F835104FEA122292B2BA
:1009A0004FF0000141EA020283F8362040F208537A
:1009B000C2F200031B687A8B02F0FF014FF00000C7
:1009C00040EA010183F837104FEA122292B24FF049
:1009D000000141EA020283F8382040F20853C2F2D3
:1009E00000031C6807F119034FF040004FF00201AB
:1009F0001A4602F0CFF9034603F0FF024FF0000160
:100A000041EA020284F839204FEA13239BB24FF0E7
:100A1000000242EA030384F83A307B7E4FEAC303C4
:100A20009AB27B8E42EA03039BB27B8640F2085364
:100A3000C2F200031C6807F119034FF040004FF0A9
:100A400003011A4602F0A6F9034603F0FF024FF035
:100A5000000141EA020284F83B204FEA13239BB2D3
:100A60004FF0000242EA030384F83C307B7E4FEAF9
:100A700003139AB27B8E42EA03039BB27B8640F259
:100A80000853C2F200031B6841F2E432C2F20002D2
:100A9000D26802F0FF014FF0000040EA010183F844
:100AA00045104FEA122101F0FF014FF0000040EA2B
:100AB000010183F846104FEA124101F0FF014FF0A7
:100AC000000040EA010183F847104FEA12624FF03C
:100AD000000141EA020283F8482040F20853C2F2C2
:100AE00000031B6841F2E432C2F20002926802F095
:100AF000FF014FF0000040EA010183F841104FEA86
:100B0000122101F0FF014FF0000040EA010183F8DB
:100B100042104FEA124101F0FF014FF0000040EA9D
:100B2000010183F843104FEA12624FF0000141EADD
:100B3000020283F8442040F20853C2F200031B680B
:100B400041F2D432C2F20002D26802F0FF014FF04B
:100B5000000040EA010183F855104FEA122101F02C
:100B6000FF014FF0000040EA010183F856104FEA00
:100B7000124101F0FF014FF0000040EA010183F84B
:100B800057104FEA12624FF0000141EA020283F867
:100B9000582040F20853C2F200031B6841F2D432DD
:100BA000C2F20002926802F0FF014FF0000040EA3A
:100BB000010183F851104FEA122101F0FF014FF0BB
:100BC000000040EA010183F852104FEA124101F09F
:100BD000FF014FF0000040EA010183F853104FEA93
:100BE00012624FF0000141EA020283F8542040F201
:100BF0000853C2F200031B6841F2C032C2F2000285
:100C0000D26802F0FF014FF0000040EA010183F8D2
:100C10004D104FEA122101F0FF014FF0000040EAB1
:100C2000010183F84E104FEA124101F0FF014FF02D
:100C3000000040EA010183F84F104FEA12624FF0C2
:100C4000000141EA020283F8502040F20853C2F248
:100C500000031B6841F2C032C2F20002926802F047
:100C6000FF014FF0000040EA010183F849104FEA0C
:100C7000122101F0FF014FF0000040EA010183F86A
:100C80004A104FEA124101F0FF014FF0000040EA24
:100C9000010183F84B104FEA12624FF0000141EA64
:100CA000020283F84C2040F20853C2F200031C6891
:100CB00007F119034FF040004FF002011A4602F00D
:100CC000C7F8034603F0FF024FF0000141EA0202B9
:100CD00084F83D204FEA13239BB24FF0000242EA12
:100CE000030384F83E307B7E4FEA43139AB27B8E37
:100CF00042EA03039BB27B8640F20853C2F2000330
:100D00001C6807F119034FF040004FF003011A4629
:100D100002F09EF8034603F0FF024FF0000141EAA3
:100D2000020284F83F204FEA13239BB24FF00002E7
:100D300042EA030384F840307B7E4FEA83139AB281
:100D40007B8E42EA03039BB27B8641F2F830C2F20B
:100D5000000001F047FE17E040F20853C2F2000322
:100D6000196897F8350097F8352041F2F833C2F248
:100D700000039A5C00EB010383F85A2097F83530A2
:100D800003F1010387F8353097F835301F2BE3D98D
:100D900040F20853C2F200031B684FF0000242F019
:100DA00008021A704FF0000242F001025A7040F23D
:100DB0000853C2F20003186840F25233C2F2000333
:100DC00019880B466FEA83436FEA93439BB29BB249
:100DD0004FEA03231FFA83FC40F25233C2F20003AE
:100DE0001A8813466FEA83436FEA93439BB29BB220
:100DF0004FEA13239BB24CEA03039BB29BB203F06E
:100E0000FF0C4FF0000E4EEA0C0C80F802C04FEAC7
:100E100013239BB24FF0000C4CEA0303C37001F1A3
:100E2000010399B240F25233C2F20003198002F179
:100E300001039AB240F25233C2F200031A8040F228
:100E40000853C2F200031B684FF000021A714FF002
:100E5000000242F07C025A7140F20853C2F20003D1
:100E60001B684FF000029A714FF00002DA714FF0E8
:100E700000021A724FF000025A7240F20853C2F296
:100E800000031B684FF000029A724FF00002DA7202
:100E90004FF000021A734FF000025A7340F25433BD
:100EA000C2F200031B78002B5CD040F26833C2F220
:100EB00000034FF001021A7040F20853C2F200031F
:100EC0001A6840F26833C2F200031B7882F8593086
:100ED00040F20853C2F200031C6840F23060C2F2D4
:100EE00000004FF07A01FFF73BFB034603F0FF02DF
:100EF0004FF0000141EA020284F87A204FEA1323FE
:100F00009BB24FF0000242EA030384F87B3041F2C7
:100F1000E430C2F2000040F23061C2F2000103F09E
:100F20006FF80346002B02D04FF0800301E04FF032
:100F30000003798E1A460B4642EA03039BB27B8676
:100F400041F2E430C2F2000040F23061C2F200012E
:100F500003F056F840F25433C2F200034FF000029F
:100F60001A701EE040F26833C2F200034FF0000234
:100F70001A7040F20853C2F200031A6840F2683354
:100F8000C2F200031B7882F8593041F29440C2F259
:100F9000000040F23061C2F200014FF07C0204F028
:100FA00033F807F13C07BD4690BD00BFB0B582B035
:100FB00000AF4FF000037B714FF00003FB7140F274
:100FC0003062C2F2000240F22C63C2F200031A60E7
:100FD0002EE040F22C63C2F200031C687D79BB79DD
:100FE0007A7940F29C40C2F200004FF0210102F0F9
:100FF00007F80346194605F1040201F0FF004FEA25
:10100000420323444FF0000C4CEA000098714FEA71
:10101000112398B24FEA420323444FF000021146D5
:10102000024641EA0202DA717B7903F101037B7126
:101030007B79072BCDD940F25433C2F200031B78E1
:10104000002B14D04FF00103FB7141F2C030C2F20B
:10105000000040F23061C2F2000102F0D1FF40F224
:101060005433C2F200034FF000021A700EE04FF04A
:101070000003FB7141F29440C2F2000040F2306183
:10108000C2F200014FF07C0203F0BEFF07F1080737
:10109000BD46B0BD80B500AF41F2E430C2F2000001
:1010A00040F23061C2F2000102F0D8FF41F29440F8
:1010B000C2F2000040F23061C2F200014FF07C0247
:1010C00003F0A2FF80BD00BF90B583B000AF4FF02A
:1010D0000003FB8040F23062C2F2000241F22C13A6
:1010E000C2F200031A6041F24400C2F2000041F271
:1010F0004811C2F2000103F011F803461A4641F20A
:101100007413C2F200031A7041F27413C2F20003A6
:101110001B784FEA4303DAB241F27413C2F20003C0
:101120001A7041F24813C2F200031B781A4641F2CA
:101130004413C2F200031A6041F24413C2F20003E6
:101140001B684FEA032241F24413C2F200031A6003
:1011500041F24813C2F200035B781A4641F244138D
:10116000C2F200031B6842EA030241F24413C2F2D6
:1011700000031A6041F24413C2F200031B684FEAF5
:10118000032241F24413C2F200031A6041F24813F1
:10119000C2F200039B781A4641F24413C2F20003E4
:1011A0001B6842EA030241F24413C2F200031A60D0
:1011B00041F24400C2F2000041F24C11C2F20001BF
:1011C00002F0D6FF03461A4641F27413C2F200033E
:1011D0001A7041F27413C2F200031B784FEA430302
:1011E000DAB241F27413C2F200031A7041F24813EA
:1011F000C2F200031B781A4641F27013C2F20003D8
:101200001A6041F27013C2F200031B684FEA032216
:1012100041F27013C2F200031A6041F24813C2F2A5
:1012200000035B781A4641F27013C2F200031B6898
:1012300042EA030241F27013C2F200031A6041F263
:101240007013C2F200031B684FEA032241F27013CD
:10125000C2F200031A6041F24813C2F200039B7805
:101260001A4641F27013C2F200031B6842EA0302FD
:1012700041F27013C2F200031A6041F23013C2F25D
:10128000000341F24400C2F20000194602F0B6FF2A
:1012900041F22C13C2F200031A6840F26133C2F229
:1012A00000031B78937341F22C13C2F200031B68F6
:1012B00041F24412C2F20002126802F0FF014FF044
:1012C000000040EA0101D9734FEA122101F0FF0149
:1012D0004FF0000040EA010119744FEA124101F099
:1012E000FF014FF0000040EA010159744FEA126219
:1012F0004FF0000141EA02029A7441F22C13C2F24B
:1013000000031B6841F27012C2F20002126802F080
:10131000FF014FF0000040EA0101D9744FEA1221A9
:1013200001F0FF014FF0000040EA010119754FEA9A
:10133000124101F0FF014FF0000040EA0101597530
:101340004FEA12624FF0000141EA02029A754FF033
:101350000003FB802AE041F22C13C2F200031A685A
:10136000F988F88841F23013C2F2000333F8100014
:1013700001F1080100F0FF0C4FEA410313444FF064
:10138000000E4EEA0C0C83F807C04FEA102398B207
:101390004FEA410313444FF000021146024641EA6E
:1013A00002021A72FB8803F10103FB80FB88072B02
:1013B000D1D94FF00003FB8041F22C13C2F200039D
:1013C0001B684FF0000242F008021A704FF0000252
:1013D00042F002025A7041F22C13C2F20003186864
:1013E00040F25A33C2F2000319880B466FEA834376
:1013F0006FEA93439BB29BB24FEA03231FFA83FC2D
:1014000040F25A33C2F200031A8813466FEA83434C
:101410006FEA93439BB29BB24FEA13239BB24CEA11
:1014200003039BB29BB203F0FF0C4FF0000E4EEA99
:101430000C0C80F802C04FEA13239BB24FF0000C53
:101440004CEA0303C37001F1010399B240F25A332D
:10145000C2F20003198002F101039AB240F25A333A
:10146000C2F200031A8041F22C13C2F200031B687F
:101470004FF000021A714FF0000242F04A025A7116
:1014800041F22C13C2F200031B684FF000029A7164
:101490004FF00002DA714FF000021A724FF00002B2
:1014A0005A7241F22C13C2F200031B684FF0000283
:1014B0009A724FF00002DA724FF000021A734FF086
:1014C00000025A7340F25433C2F200031B78002B1F
:1014D0003DD040F25633C2F200034FF001021A70C1
:1014E00041F22C13C2F200031A6840F25633C2F2E2
:1014F00000031B7882F8273041F22C13C2F200035C
:101500001C6840F23060C2F200004FF04801FFF763
:1015100027F803469BB203F0FF024FF0000141EAB7
:10152000020284F848204FEA13239BB24FF00002D6
:1015300042EA030384F8493041F28410C2F2000009
:1015400040F23061C2F2000102F05AFD3EE040F28A
:101550005633C2F200034FF000021A7041F22C130E
:10156000C2F200031A6840F25633C2F200031B783D
:1015700082F8273041F22C13C2F200031C6840F2BB
:101580003060C2F200004FF04801FEF7E9FF034669
:101590009BB203F0FF024FF0000141EA020284F81F
:1015A00048204FEA13239BB24FF0000242EA0303A4
:1015B00084F8493041F29440C2F2000040F23061B8
:1015C000C2F200014FF04A0203F01EFD41F2741313
:1015D000C2F200031B78184607F10C07BD4690BD08
:1015E00090B583B000AF4FF00003FB8040F2306253
:1015F000C2F2000241F24013C2F200031A600CE092
:10160000FA8841F25013C2F200034FF0000143F890
:101610002210FB8803F10103FB80FB88072BEFD925
:101620004FF00003FB8041F2D030C2F2000003F023
:10163000D7FA41F24013C2F200031A6840F2613354
:10164000C2F200031B78937341F24013C2F200030D
:101650001A6841F2D033C2F200031B8803F0FF0185
:101660004FF0000040EA010111754FEA13239BB2CD
:101670004FF0000141EA0303537541F24013C2F2F7
:1016800000031A6840F26333C2F200031B78D3737D
:1016900041F24013C2F200031A6840F26433C2F20E
:1016A00000031B78137441F24013C2F200031A685E
:1016B00040F26533C2F200031B78537441F24013C9
:1016C000C2F200031A6841F2BC33C2F200031B8865
:1016D00003F0FF014FF0000040EA010191744FEA6E
:1016E00013239BB24FF0000141EA0303D37441F28C
:1016F0004013C2F200031C6803F016FB0346A375F7
:1017000041F24013C2F200031C6803F025FB0346BC
:1017100003F0FF024FF0000141EA0202E2754FEAD6
:10172000132202F0FF024FF0000141EA020222768A
:101730004FEA134202F0FF024FF0000141EA0202B9
:1017400062764FEA13634FF0000242EA0303A37686
:1017500041F24013C2F200031C6803F025FB03466C
:1017600003F0FF024FF0000141EA0202E2764FEA85
:10177000132202F0FF024FF0000141EA0202227739
:101780004FEA134202F0FF024FF0000141EA020269
:1017900062774FEA13634FF0000242EA0303A37734
:1017A00041F24013C2F200031B6840F25C32C2F205
:1017B0000002126802F0FF014FF0000040EA010150
:1017C000D9774FEA122101F0FF014FF0000040EA03
:1017D000010183F820104FEA124101F0FF014FF0A0
:1017E000000040EA010183F821104FEA12624FF035
:1017F000000141EA020283F8222041F24013C2F2C2
:1018000000031A6840F26033C2F200031B7882F8CA
:10181000233041F24013C2F200031C6803F096F932
:10182000034684F8443043E041F24013C2F200031F
:101830001B68F888F98841F25012C2F2000252F88F
:10184000211000F1080201F0FF0C4FEA8200184459
:101850004FF0000E4EEA0C0C80F804C04FEA112045
:1018600000F0FF0C4FEA820018444FF0000E4EEAE1
:101870000C0C80F805C04FEA114000F0FF0C4FEA55
:10188000820018444FF0000E4EEA0C0C80F806C09F
:101890004FEA11604FEA82021A444FF000031946E2
:1018A000034641EA0303D371FB8803F10103FB8084
:1018B00040F26033C2F200031B78FA889A42B3D335
:1018C00041F24013C2F200031B684FF0000242F0E5
:1018D00008021A704FF0000242F003025A7041F2FF
:1018E0004013C2F20003186840F25833C2F20003FA
:1018F00019880B466FEA83436FEA93439BB29BB20E
:101900004FEA03231FFA83FC40F25833C2F200036C
:101910001A8813466FEA83436FEA93439BB29BB2E4
:101920004FEA13239BB24CEA03039BB29BB203F032
:10193000FF0C4FF0000E4EEA0C0C80F802C04FEA8C
:1019400013239BB24FF0000C4CEA0303C37001F168
:10195000010399B240F25833C2F20003198002F138
:1019600001039AB240F25833C2F200031A8041F2E6
:101970004013C2F200031B684FF000021A714FF0CF
:10198000000242F068025A7141F24013C2F20003B1
:101990001B684FF000029A714FF00002DA714FF0AD
:1019A00000021A724FF000025A7241F24013C2F262
:1019B00000031B684FF000029A724FF00002DA72C7
:1019C0004FF000021A734FF000025A7340F2543382
:1019D000C2F200031B78002B44D040F25533C2F210
:1019E00000034FF001021A7041F24013C2F20003EB
:1019F0001A6840F25533C2F200031B7882F8453072
:101A000041F24013C2F200031C6840F23060C2F29F
:101A100000004FF06601FEF7A3FD03469BB203F002
:101A2000FF024FF0000141EA020284F866204FEA0B
:101A300013239BB24FF0000242EA030384F867309D
:101A400041F2D430C2F2000040F23061C2F2000133
:101A500002F0D6FA40F25433C2F200034FF0000213
:101A60001A703EE040F25533C2F200034FF000021C
:101A70001A7041F24013C2F200031A6840F2553363
:101A8000C2F200031B7882F8453041F24013C2F2E3
:101A900000031C6840F23060C2F200004FF06601A3
:101AA000FEF75EFD03469BB203F0FF024FF000011C
:101AB00041EA020284F866204FEA13239BB24FF0FA
:101AC000000242EA030384F8673041F29440C2F214
:101AD000000040F23061C2F200014FF0680203F0F2
:101AE00093FA07F10C07BD4690BD00BF80B483B0E8
:101AF00000AF0346FB714EF20013CEF2000397F9DC
:101B000007204FEA5212F97901F01F014FF001004E
:101B100000FA01F143F8221007F10C07BD4680BC22
:101B2000704700BF80B483B000AF0346FB714EF234
:101B30000013CEF2000397F907204FEA5212F97909
:101B400001F01F014FF0010000FA01F102F1200243
:101B500043F8221007F10C07BD4680BC704700BF58
:101B600080B483B000AF0346FB714EF20013CEF297
:101B7000000397F907204FEA5212F97901F01F018B
:101B80004FF0010000FA01F102F1600243F8221067
:101B900007F10C07BD4680BC704700BF80B483B01E
:101BA00000AF03463960FB7197F90730002B10DA5C
:101BB0004EF60053CEF20003FA7902F00F02A2F1C2
:101BC00004013A68D2B24FEA0212D2B20B441A763A
:101BD0000DE04EF20013CEF2000397F907103A68B9
:101BE000D2B24FEA0212D2B20B4483F8002307F1BB
:101BF0000C07BD4680BC704780B582B000AF03467D
:101C0000FB714FF00E00FFF78DFF48F20003C4F2A6
:101C1000030348F20002C4F20302926C22F0400275
:101C20009A6444F20003C4F200034FF000025A65C4
:101C300040F20003C4F208234FF00002C3F88021F1
:101C400040F20003C4F208234FF00002C3F88821D9
:101C500040F20003C4F20823FA79C3F8842144F265
:101C60000003C4F200034FF001021A614FF00E00AE
:101C7000FFF776FF07F10807BD4680BD80B400AFCF
:101C800040F20003C4F208234FF00102C3F88021A0
:101C9000BD4680BC704700BF80B483B000AF7860A1
:101CA00044F20003C4F200037A685A6007F10C079B
:101CB000BD4680BC704700BF80B483B000AF786081
:101CC000396044F20003C4F200035A6B3B681A60A7
:101CD00044F20003C4F200031A6B7B681A6007F138
:101CE0000C07BD4680BC704780B582B000AF45F29E
:101CF0000003C4F2000345F20002C4F2000252697C
:101D000022F003025A6145F20003C4F200034FF0CF
:101D10000302DA614FF00000FFF722FF45F20003F3
:101D2000C4F200031B687B6045F20003C4F20003A9
:101D30009A687B689A4208D945F20003C4F200030E
:101D40004DF64262CAF61542DA6007F10807BD4651
:101D500080BD00BF80B400AF45F20003C4F20003B1
:101D60004DF64262CAF61542DA60BD4680BC704745
:101D700080B500AF41F2B032C2F2000241F2A033AE
:101D8000C2F2000310461946FFF796FFFEF784FCE7
:101D900041F2F430C2F2000005F0ECFB80BD00BF60
:101DA00080B582B000AFFFF78FF90346FB7141F2B7
:101DB0009830C2F2000005F0DDFB07F10807BD46D0
:101DC00080BD00BF80B582B000AFFFF709FC0346BD
:101DD000FB8041F27C10C2F2000005F0CBFB07F162
:101DE0000807BD4680BD00BF80B500AFFFF7DEF835
:101DF00041F29C30C2F2000005F0BCFB80BD00BF88
:101E000080B500AFFFF746F941F2E433C2F20003B8
:101E10009A6841F2E433C2F20003DB689A4208D2C6
:101E200040F25433C2F200031B78002B01D1FFF7BC
:101E300031F941F2A830C2F2000005F09BFB80BDF1
:101E400080B582B002AF4BF6BC63009341F2F43030
:101E5000C2F2000046F20001C5F200014FF000029C
:101E60004FF0090305F0E2FA41F2F430C2F200004B
:101E700005F062FB4FF02600FFF738FE4FF026001A
:101E80004FF0FE01FFF78AFE47F67853C0F20103D8
:101E9000009341F27C10C2F2000047F20001C5F24B
:101EA00000014FF000024FF0090305F0BFFA41F2C4
:101EB0007C10C2F2000005F03FFB4FF02700FFF757
:101EC00015FE4FF027004FF0FE01FFF767FE43F6C7
:101ED0003443C0F20203009341F29C30C2F200008E
:101EE00048F20001C5F200014FF000024FF0090373
:101EF00005F09CFA41F29C30C2F2000005F01CFB98
:101F00004FF02800FFF7F2FD4FF028004FF0FE01E0
:101F1000FFF744FE47F25833C0F20703009341F243
:101F2000A830C2F2000049F20001C5F200014FF0F2
:101F300000024FF0090305F079FA41F2A830C2F22D
:101F4000000005F0F9FA4FF02900FFF7CFFD4FF040
:101F500029004FF0FE01FFF721FE47F67853C0F24B
:101F60000103009341F29830C2F200004AF20001EE
:101F7000C5F200014FF000024FF0090305F056FAD8
:101F800041F29830C2F2000005F0D6FA4FF02A0074
:101F9000FFF7ACFD4FF02A004FF0FE01FFF7FEFD0A
:101FA00041F2F430C2F2000005F0A8FABD4680BD4F
:101FB00080B582B000AF78600B46FB707A6841F262
:101FC000B833C2F200031A6041F2B833C2F2000320
:101FD0001A68FB781046194600F040FA0346002BB9
:101FE00026D041F2B833C2F200031B68184600F055
:101FF000A1FAFB78002B0DD140F26633C2F2000348
:102000001B7803F10103DAB240F26633C2F2000337
:102010001A702BE040F26433C2F200031B7803F124
:102020000103DAB240F26433C2F200031A701DE019
:10203000FB78002B0DD140F26733C2F200031B780E
:1020400003F10103DAB240F26733C2F200031A70FF
:102050000CE040F26533C2F200031B7803F1010388
:10206000DAB240F26533C2F200031A7007F10807D2
:10207000BD4680BD80B500AF42F28553C0F200037B
:102080004FF000004FF002011A4600F0F5F942F25D
:102090009953C0F200034FF001004FF003011A46BC
:1020A00000F0EAF942F28D63C0F200034FF0020043
:1020B0004FF003011A4600F0DFF942F22573C0F237
:1020C00000034FF003004FF006011A4600F0D4F968
:1020D00042F62503C0F200034FF004004FF0100158
:1020E0001A4600F0C9F980BD80B5ADF5056D02AFA7
:1020F000FFF7FAFDFFF72EFEFEF706FA41F2E43095
:10210000C2F200004FF00A0141F60A22C0F24F026B
:1021100001F05EFF41F2D430C2F2000040F2D23151
:10212000C0F257014CF65262C0F2570201F050FF64
:1021300041F2C030C2F2000046F27E41C0F25901C5
:1021400045F6FE12C0F27A0201F042FF41F284101D
:10215000C2F200004FF42F714FF4487201F038FFC3
:1021600041F29812C2F2000241F28013C2F200035F
:102170001A6041F27813C2F200034FF000021A70A5
:1021800040F29C40C2F200004FF0210100F0C0FE7E
:1021900041F24400C2F2000001F08EFF41F244001F
:1021A000C2F200004FF0210100F0B2FE4FF0000338
:1021B00087F812384FF00103A7F81A3807F5C06303
:1021C00003F104034FF000021A804FF0000387F878
:1021D0002F384FF0000003F04BFB41F25850C2F291
:1021E000000004F05BF94FF00803009341F25850EF
:1021F000C2F200004FF000014FF000024FF0080360
:1022000004F096FA05F016F84FF000004FF00501C3
:1022100005F066F84FF00A004FF0050105F060F890
:102220004FF000004FF0010105F078F84FF00A037D
:10223000C7F8303807F50273A3F104034FF0210209
:102240001A7007F50273A3F104034FF020025A70CD
:1022500007F50273A3F104034FF01902DA7007F5D2
:102260000273A3F104034FF018021A7141F2D44033
:10227000C2F2000004F012F94FF00803009341F29B
:10228000D440C2F200004FF000014FF000024FF4C2
:10229000007304F04DFA01F061FA034687F837380D
:1022A00040F23043C2F20003DBB2184600F036FDC4
:1022B000FFF7E0FE45F20800C5F2000002F0B6FDAF
:1022C0000346A7F81C3800F0C3FB0346A7F81E38E6
:1022D00001F0E4FF02F03AFC034687F8273841F2A8
:1022E0009440C2F200004FF416514FF0030202F086
:1022F00049FE4FF02600FFF733FC4FF02700FFF7B1
:102300002FFCFFF79DFD4FF0FF33C7F83C3849F62F
:10231000FF23CEF23223C7F840384FF00003C7F84E
:1023200044384FF00000FFF767FCD7F83C08FFF790
:10233000B3FCFFF7A3FC02E000BF00E000BF4FF0DA
:10234000860002F073FA41F2BC30C2F2000002F0E3
:1023500091FC40F25433C2F200031B78012BEBD105
:1023600045F20C00C5F2000002F060FD0346A7F83C
:10237000223841F29413C2F200031B88B7F82228D6
:102380009A42DBD940F25433C2F200034FF000020C
:102390001A70D4E780B500AF40F23040C2F20000BE
:1023A00005F0B6FE80BD00BF80B500AF40F29C4096
:1023B000C2F2000005F0ACFE80BD00BF80B500AFEA
:1023C00041F24400C2F2000005F0A2FE80BD00BF51
:1023D00080B500AF40F2C050C2F2000005F098FE98
:1023E00080BD00BF80B500AFFFF7C2FC80BD00BF5D
:1023F00080B500AFFFF7E6FC80BD00BF80B500AF41
:10240000FFF7F2FC80BD00BF80B500AFFFF7F8FC1E
:1024100080BD00BF80B500AFFFF7C2FC80BD00BF2C
:1024200080B483B000AF0346FB714EF20013CEF2CE
:10243000000397F907204FEA5212F97901F01F01C2
:102440004FF0010000FA01F102F1200243F82210DE
:1024500007F10C07BD4680BC704700BF80B483B055
:1024600000AF78600B46FB704FF00103184607F190
:102470000C07BD4680BC704780B483B000AF0B46EC
:102480003A600246FA71BB80F97941F21842C2F211
:1024900000020B464FEAC303C1EB03031344FA796E
:1024A0001A70F97941F21842C2F200020B464FEA63
:1024B000C303C1EB030313443A794FF0000141EA2F
:1024C00002025A707A794FF0000141EA02029A70D2
:1024D000F8793A6841F21841C2F2000103464FEA26
:1024E000C303C0EB03030B4402F0FF014FF00000F5
:1024F00040EA0101D9704FEA122101F0FF014FF0CB
:10250000000040EA010119714FEA124101F0FF0198
:102510004FF0000040EA010159714FEA12624FF09A
:10252000000141EA02029A7107F10C07BD4680BC26
:10253000704700BF80B582B000AF78607B681B78C1
:1025400003F1FF3141F21842C2F200020B464FEA9A
:10255000C303C1EB03031344DA7819794FEA01216D
:1025600041EA020259794FEA014141EA02029B79AC
:102570004FEA036343EA02037868984707F10807C4
:10258000BD4680BD80B485B000AF786007F1140708
:10259000BD4680BC704700BF80B586B002AF786092
:1025A0007B689B784BF6BC6202FB03F3FB607B68A5
:1025B0009B78002B41D07B685B78002B1CD1FB689B
:1025C000009341F2F430C2F2000046F20001C5F27D
:1025D00000014FF000024FF0090304F027FF41F221
:1025E000F430C2F2000004F0A7FF41F2F430C2F26E
:1025F000000004F083FF33E07B685B78012B2ED171
:10260000FB68009341F27C10C2F2000047F2000127
:10261000C5F200014FF000024FF0090304F006FF7D
:1026200041F27C10C2F2000004F086FF41F27C10FF
:10263000C2F2000004F062FF12E07B685B78002BBE
:1026400004D14FF02600FFF7EBFE09E07B685B78D2
:10265000012B05D14FF02700FFF7E2FE00E000BF9D
:1026600007F11007BD4680BD80B483B000AF78602D
:1026700003E07B6803F1FF337B607B68002BF8D1BC
:1026800007F10C07BD4680BC704700BF80B584B021
:1026900000AF786041F25850C2F200004FF00001E4
:1026A00004F0EEF841F25853C2F200031A6841F206
:1026B0005853C2F200031B681B6843F08063136029
:1026C00043F68000C0F20100FFF7CEFF4FF000009C
:1026D0004FF4805103F0F2FC0346FB7343F6800095
:1026E000C0F20100FFF7C0FFFB7B002B0DD040F2D2
:1026F0006233C2F200031B7843F00103DAB240F206
:102700006233C2F200031A7007E04FF001004FF489
:10271000805103F0D3FC0346BB7307F11007BD469D
:1027200080BD00BF80B584B000AF78607B689B78C7
:102730004FEA03627B68DB784FEA034342EA030215
:102740007B681B794FEA032342EA03027B685B79CB
:1027500042EA03031A4640F25C33C2F200031A60F5
:102760007B685A7840F26033C2F200031A7040F27C
:102770005C33C2F200031A6807F108034FF07800D7
:1027800011461A464FF0060302F004F8BB7A4FEAEE
:102790000362FB7A4FEA034342EA03023B7B4FEAC0
:1027A000032342EA03027B7B42EA03031A4641F217
:1027B0005013C2F200031A6040F25C33C2F200030D
:1027C0001B6803F1040240F25C33C2F200031A609A
:1027D00040F25C33C2F200031A6807F108034FF0BD
:1027E000780011461A464FF0060301F0D3FFBB7A7A
:1027F0004FEA0362FB7A4FEA034342EA03023B7B60
:102800004FEA032342EA03027B7B42EA03031A46B0
:1028100041F25013C2F200035A6007F11007BD469F
:1028200080BD00BF80B485B000AF78604FF000037A
:10283000FB730DE0FA7BF97B7B680B44597841F21E
:10284000B003C2F200039954FB7B03F10103FB7355
:10285000FB7B0F2BEED907F11407BD4680BC7047F8
:1028600080B483B000AF0346FB714EF20013CEF28A
:10287000000397F907204FEA5212F97901F01F017E
:102880004FF0010000FA01F143F8221007F10C07A4
:10289000BD4680BC704700BF80B483B000AF034624
:1028A0003960FB7197F90730002B10DA4EF60053B0
:1028B000CEF20003FA7902F00F02A2F104013A68A5
:1028C000D2B24FEA0212D2B20B441A760DE04EF2A7
:1028D0000013CEF2000397F907103A68D2B24FEA1C
:1028E0000212D2B20B4483F8002307F10C07BD4655
:1028F00080BC704780B584B000AF4FF000037B818F
:102900004FF001033B814FF0FF03BB8045F20C0009
:10291000C5F2000002F08AFA0346BB8145F21000BE
:10292000C5F2000002F082FA0346FB8140F2543304
:10293000C2F200034FF001021A704FF0010004F0E0
:1029400055FD07F11007BD4680BD00BF90B58BB0A7
:1029500000AF4FF0000387F8273015E097F82740C5
:102960004BF20C00C5F2000002F078FA03461A465A
:1029700007F1280101EB040303F8242C97F8273012
:1029800003F1010387F8273097F827301F2BE5D98B
:1029900015E097F827404BF20C00C5F2000002F05A
:1029A0005DFA03461A4607F1280101EB040303F818
:1029B000242C97F8273003F1010387F8273097F884
:1029C00027301F2BE5D907F1040318464FF000010B
:1029D000FFF7EEFA4FF0030004F008FD07F12C07B3
:1029E000BD4690BD90B585B000AF78604FF0000354
:1029F000FB730FE0FA7B7B6802EB03044CF20C00E4
:102A0000C5F2000002F02AFA03462370FB7B03F1B3
:102A10000103FB73FB7B1F2BECD94FF00003FB730F
:102A20000FE0FA7B7B6802EB03044CF20C00C5F26A
:102A3000000002F013FA03462370FB7B03F101034D
:102A4000FB73FB7B1F2BECD907F11407BD4690BD30
:102A500080B582B000AF4FF000004FF0050104F0E8
:102A60003FFC4FF008004FF0050104F039FC4FF037
:102A700000004FF0010104F051FC4FF001004FF055
:102A8000420104F02DFC4FF0010004F07FFC4FF0F8
:102A90003300FFF7E5FE4FF033004FF0FF01FFF783
:102AA000FBFE4FF003004FF0620104F019FC4FF001
:102AB000030004F06BFC4FF03500FFF7D1FE4FF040
:102AC00035004FF0FD01FFF7E7FE4FF000033B80BC
:102AD0004FF00003BB8045F21400C5F200004FF038
:102AE0000A0102F0B9F945F21800C5F200004FF0F2
:102AF000190102F0B1F945F21000C5F2000002F030
:102B000095F903467B8045F22000C5F200004FF0A6
:102B1000200102F0A1F94BF20800C5F2000002F01A
:102B20009DF90346FB714BF20800C5F2000002F06C
:102B300095F90346FB714BF21000C5F200004FF00F
:102B4000070102F089F94BF20C00C5F2000002F017
:102B500085F903463B804CF20C00C5F2000002F000
:102B60007DF903463B807B88184607F10807BD4680
:102B700080BD00BF80B586B002AFB9601346024683
:102B8000FA73FB7141F24843C2F200034FF00002B6
:102B90001A7032E0FB79FA7B4FF00001009140F2AD
:102BA0003040C2F200001146BA6805F001F940F267
:102BB0003040C2F200004FF0000105F075FA034604
:102BC0001A4641F27413C2F200031A7041F27413F0
:102BD000C2F200031B78002B02D14FF0000318E073
:102BE00041F24843C2F200031B7803F10103DAB259
:102BF00041F24843C2F200031A7041F24843C2F264
:102C000000031B78092BC5D941F24843C2F20003E7
:102C10001B78184607F11007BD4680BD80B586B009
:102C200002AFB96013460246FA73FB7141F24843A2
:102C3000C2F200034FF000021A7032E0FB79FA7B17
:102C40004FF00001009140F23040C2F20000114606
:102C5000BA6805F01FF940F23040C2F200004FF0B0
:102C6000000105F021FA03461A4641F27413C2F23C
:102C700000031A7041F27413C2F200031B78002B98
:102C800002D14FF0000318E041F24843C2F20003C2
:102C90001B7803F10103DAB241F24843C2F20003A8
:102CA0001A7041F24843C2F200031B78092BC5D9C0
:102CB00041F24843C2F200031B78184607F110079F
:102CC000BD4680BD80B582B000AF0B463A6002467B
:102CD000FA71BB71FA7907F10603104619464FF0F5
:102CE0000102FFF747FF0346092B02D94FF001030A
:102CF0000EE0FB79184639684FF00202FFF78EFFAD
:102D00000346092B02D94FF0010301E04FF0000305
:102D1000184607F10807BD4680BD00BF80B582B0E8
:102D200000AF0346FB7141F24043C2F2000347F299
:102D300007021A8041F24943C2F200034FF0000239
:102D40001A70FB79184641F24941C2F200014FF076
:102D50000102FFF70FFF0346092B02D94FF00103D1
:102D600012E041F24043C2F20003FA7910461946DC
:102D70004FF00202FFF7FEFE0346092B02D94FF087
:102D8000010301E04FF00003184607F10807BD46B4
:102D900080BD00BF80B582B000AF0B463A600246EE
:102DA000FA71BB7141F24443C2F200034FF00002DA
:102DB0001A7041F24443C2F200034FF000025A700D
:102DC00041F24643C2F200034FF000021A80BB7981
:102DD0004FEA4303DBB2FA791046194641F2444206
:102DE000C2F20002FFF76EFF0346002B1AD141F238
:102DF0004443C2F200031B784FEA03239AB241F224
:102E00004443C2F200035B7842EA03039BB29AB2E6
:102E100041F24643C2F200031A803B684FF00002C1
:102E20001A700AE03B684FF001021A7041F2464303
:102E3000C2F200034FF000021A8041F24643C2F290
:102E400000031B88184607F10807BD4680BD00BF78
:102E500080B582B000AF0B463A600246FA71BB7192
:102E600041F24443C2F200034FF000021A7041F2F3
:102E70004443C2F200034FF000025A7041F246434D
:102E8000C2F200034FF000021A80BB794FEA4303FD
:102E9000DBB203F1FF33DBB2FA791046194641F297
:102EA0004442C2F20002FFF70DFF0346002B1AD185
:102EB00041F24443C2F200031B784FEA03239AB263
:102EC00041F24443C2F200035B7842EA03039BB23F
:102ED0009AB241F24643C2F200031A803B684FF0B7
:102EE00000021A700AE03B684FF001021A7041F2CA
:102EF0004643C2F200034FF000021A8041F24643FB
:102F0000C2F200031B88184607F10807BD4680BDC2
:102F100080B588B002AF78600B46FB704FF00003BD
:102F2000BB754FF00003FB7549F6C042C0F20002CA
:102F300007F1100312681146198003F102034FEAEA
:102F400012421A704FF004033B734FF000037B737F
:102F50004FF00003BB7349E0BB7D1A464FEA4202C3
:102F60001344DBB203F10503DBB23B74BB7D1A46AD
:102F70004FEA42021344DBB203F10403DBB23B73BA
:102F8000FA7807F110034FF00001009178681146BC
:102F90001A464FF0030304F00BFF78684FF000016E
:102FA00005F082F803467B75FA7807F10C034FF0C1
:102FB00000010091786811461A464FF0030304F0AF
:102FC000F7FE78684FF0000105F06EF803467B7558
:102FD0007A7DBB7D02FA03F3DAB2FB7D42EA03039A
:102FE000DBB2FB75BB7D03F10103BB75BB7D032B1E
:102FF000B2D9FB7D184607F11807BD4680BD00BF5A
:1030000080B58CB004AFF8607B600B46FB72134652
:10301000BB72BB7A3B753B7D43F00803DBB23B756B
:103020003B7D4FEA0313DBB23B75FA7A07F11403D9
:1030300007F1180100914FF0020101914FF00001DA
:103040000291F86811461A464FF0010304F094FF0C
:10305000F8684FF0000105F027F803467B777B7F87
:10306000002B04D07B684FF001021A7012E03B7E07
:103070004FEA03239AB27B7E42EA03039BB2FB83AF
:10308000FB8B4FEA03534FEA1353FB837B684FF0EC
:1030900000021A70FB8B184607F12007BD4680BD61
:1030A00080B592B004AFF860B9607A6049F6C84361
:1030B000C0F200031B88BB864FF0280387F830302E
:1030C0004FF02A0387F82C304FF02C0387F8283074
:1030D0004FF0290387F824304FF02B0387F8203076
:1030E0004FF02D033B774FF0000387F8363007F1A0
:1030F000340307F1180200924FF0010201924FF0E1
:103100000002029240F2C050C2F200004FF06A0189
:103110001A464FF0020304F02FFF40F2C050C2F2F3
:1031200000004FF0000104F0BFFF034687F837307E
:1031300097F8362097F83730134487F8363007F180
:10314000280307F1180200924FF0010201924FF09C
:103150000002029240F2C050C2F200004FF06A0139
:103160001A464FF0010304F007FF40F2C050C2F2CC
:1031700000004FF0000104F097FF034687F8373056
:1031800097F8362097F83730134487F8363007F130
:103190001C0307F1140200924FF0010201924FF05C
:1031A0000002029240F2C050C2F200004FF06A01E9
:1031B0001A464FF0010304F0DFFE40F2C050C2F2A5
:1031C00000004FF0000104F06FFF034687F837302E
:1031D00097F8362097F83730134487F836303B7D20
:1031E0004FEA03239AB23B7E42EA03039BB29AB2B0
:1031F0007B681A807B681B88B3F5004F06D97B6813
:103200001B886FEA03039AB27B681A8007F12C03CC
:1032100007F1180200924FF0010201924FF00002F4
:10322000029240F2C050C2F200004FF06A011A460A
:103230004FF0010304F0A0FE40F2C050C2F20000C3
:103240004FF0000104F030FF034687F8373097F85D
:10325000362097F83730134487F8363007F12003CB
:1032600007F1140200924FF0010201924FF00002A8
:10327000029240F2C050C2F200004FF06A011A46BA
:103280004FF0010304F078FE40F2C050C2F200009B
:103290004FF0000104F008FF034687F8373097F835
:1032A000362097F83730134487F836303B7D4FEAA5
:1032B00003239AB23B7E42EA03039BB29AB2BB68F5
:1032C0001A80BB681B88B3F5004F06D9BB681B8802
:1032D0006FEA03039AB2BB681A8007F1300307F163
:1032E000180200924FF0010201924FF00002029288
:1032F00040F2C050C2F200004FF06A011A464FF08F
:10330000010304F039FE40F2C050C2F200004FF059
:10331000000104F0C9FE034687F8373097F83620DD
:1033200097F83730134487F8363007F1240307F154
:10333000140200924FF0010201924FF0000202923B
:1033400040F2C050C2F200004FF06A011A464FF03E
:10335000010304F011FE40F2C050C2F200004FF031
:10336000000104F0A1FE034687F8373097F83620B5
:1033700097F83730134487F836303B7D4FEA032304
:103380009AB23B7E42EA03039BB29AB2FB681A8070
:10339000FB681B88B3F5004F06D9FB681B886FEAF2
:1033A00003039AB2FB681A8097F83730184607F182
:1033B0003807BD4680BD00BF80B592B004AFF8604D
:1033C000B9607A6049F6C443C0F200031B883B86AB
:1033D0004FF0180387F82C304FF01A0387F8283085
:1033E0004FF01C0387F824304FF0190387F8203082
:1033F0004FF01B033B774FF01D033B764FF06A0302
:1034000087F835304FF0000387F8363097F83520CD
:1034100007F1300307F1140100914FF00101019110
:103420004FF00001029140F2C050C2F2000011467C
:103430001A464FF0020304F09FFD40F2C050C2F262
:1034400000004FF0000104F02FFE034687F83730EC
:1034500097F8362097F83730134487F8363097F8C6
:10346000352007F1240307F1140100914FF0010109
:1034700001914FF00001029140F2C050C2F20000F1
:1034800011461A464FF0010304F076FD40F2C05099
:10349000C2F200004FF0000104F006FE034687F878
:1034A000373097F8362097F83730134487F836309E
:1034B00097F8352007F1180307F1100100914FF03C
:1034C000010101914FF00001029140F2C050C2F29F
:1034D000000011461A464FF0010304F04DFD40F282
:1034E000C050C2F200004FF0000104F0DDFD0346C1
:1034F00087F8373097F8362097F83730134487F835
:1035000036303B7C4FEA03239AB23B7D42EA030309
:103510009BB29AB2FB681A8097F8352007F128030E
:1035200007F1140100914FF0010101914FF00001EA
:10353000029140F2C050C2F2000011461A464FF00C
:10354000010304F019FD40F2C050C2F200004FF038
:10355000000104F0A9FD034687F8373097F83620BC
:1035600097F83730134487F8363097F8352007F14D
:103570001C0307F1100100914FF0010101914FF080
:103580000001029140F2C050C2F2000011461A46FA
:103590004FF0010304F0F0FC40F2C050C2F2000012
:1035A0004FF0000104F080FD034687F8373097F8AC
:1035B000362097F83730134487F836303B7C4FEA93
:1035C00003239AB23B7D42EA03039BB29AB2BB68E3
:1035D0001A8097F8352007F12C0307F114010091A8
:1035E0004FF0010101914FF00001029140F2C050F3
:1035F000C2F2000011461A464FF0010304F0BCFC71
:1036000040F2C050C2F200004FF0000104F04CFD47
:10361000034687F8373097F8362097F83730134449
:1036200087F8363097F8352007F1200307F11001AD
:1036300000914FF0010101914FF00001029140F221
:10364000C050C2F2000011461A464FF0010304F0C8
:1036500093FC40F2C050C2F200004FF0000104F0B1
:1036600023FD034687F8373097F8362097F8373030
:10367000134487F836303B7C4FEA03239AB23B7DF4
:1036800042EA03039BB29AB27B681A8097F83730FC
:10369000184607F13807BD4680BD00BF80B58AB027
:1036A00004AF78604FF015033B754FF016033B7481
:1036B0004FF06A03BB75BA7D07F1140307F10C01E3
:1036C00000914FF0010101914FF00001029140F291
:1036D000C050C2F2000011461A464FF0010304F038
:1036E0004BFC40F2C050C2F200004FF0000104F069
:1036F000DBFC0346FB75BA7D07F1100307F10801F7
:1037000000914FF0010101914FF00001029140F250
:10371000C050C2F2000011461A464FF0010304F0F7
:103720002BFC40F2C050C2F200004FF0000104F048
:10373000BBFC0346FB753B7B1A463B7A4FEA0323EF
:103740009BB242EA03039BB29AB27B681A804FF0A5
:103750000003184607F11807BD4680BD80B586B046
:1037600002AF41F24A43C2F200034FF000021A7066
:103770004FF00A004FF0010103F0D0FD4FF00003BD
:103780003B714FF000037B714FF00003BB714FF0B2
:103790000003FB714FF000033B724FF00003FB602E
:1037A0004FF00003FB600BE041F2D440C2F2000096
:1037B0004FF0FF0103F030F9FB6803F10103FB60F8
:1037C000FB68092BF0D941F2D440C2F200004FF05F
:1037D000000103F055F807F104034FF001020092D5
:1037E00041F2D440C2F2000040F20401C2F20001F2
:1037F0004FF0070203F070F9FB6803F10103FB606F
:103800003B79012B06D03B79012B04D0FB68FE2BC2
:10381000E1D900E000BF4FF00003FB6041F2D4406B
:10382000C2F200004FF0FF0103F0F6F841F2D4407D
:10383000C2F200004FF0FF0103F0EEF807F10403BD
:103840004FF00502009241F2D440C2F2000040F273
:103850000C01C2F200014FF0070203F03DF941F202
:10386000D440C2F200004FF0FF0103F0D5F841F25E
:10387000D440C2F200004FF0FF0103F0CDF8FB6826
:1038800003F10103FB603B7AAA2B10D1FB79012BDA
:103890000DD1BB79002B0AD17B79002B07D141F2E6
:1038A0004A43C2F200034FF001021A7002E0FB68C3
:1038B000FE2BB3D9FB68FE2B0AD941F2D440C2F2E9
:1038C00000004FF0000103F05FF84FF001037EE1CC
:1038D0004FF000033B714FF000037B714FF000038A
:1038E000BB714FF00003FB714FF000033B724FF0D0
:1038F0000003FB6041F24A43C2F200034FF00002B2
:103900001A7041F2D440C2F200004FF0FF0103F000
:1039100083F841F2D440C2F200004FF0FF0103F0FF
:103920007BF807F104034FF00502009241F2D44006
:10393000C2F2000040F21401C2F200014FF007028F
:1039400003F0CAF841F2D440C2F200004FF0FF0188
:1039500003F062F841F2D440C2F200004FF0FF01E0
:1039600003F05AF8FB6803F10103FB60FB79802B3D
:103970000AD1BB79FF2B07D141F24A43C2F20003BF
:103980004FF001021A7002E0FB68FE2BB9D9FB6808
:10399000FE2B0AD941F2D440C2F200004FF00001E0
:1039A00002F0F2FF4FF0010311E14FF000033B7111
:1039B0004FF000037B714FF00003BB714FF0000329
:1039C000FB714FF000033B724FF00003FB6041F2CC
:1039D0004A43C2F200034FF000021A7041F2D44091
:1039E000C2F200004FF0FF0103F016F841F2D4409C
:1039F000C2F200004FF0FF0103F00EF807F10403DC
:103A00004FF00102009241F2D440C2F2000040F2B5
:103A10001C01C2F200014FF0070203F05DF841F211
:103A2000D440C2F200004FF0FF0102F0F5FF07F1B1
:103A300004034FF00102009241F2D440C2F20000B0
:103A400040F22401C2F200014FF0070203F044F8F3
:103A500041F2D440C2F200004FF0FF0102F0DCFF5F
:103A600041F2D440C2F200004FF0FF0102F0D4FF57
:103A7000FB6803F10103FB603B79002B07D141F2A6
:103A80004A43C2F200034FF001021A7004E0FA68E0
:103A900040F6F5139A42A1D941F24A43C2F200031B
:103AA0001B78002B0AD141F2D440C2F200004FF043
:103AB000000102F069FF4FF0010388E04FF00003BE
:103AC0003B714FF000037B714FF00003BB714FF06F
:103AD0000003FB714FF000033B724FF00003FB60EB
:103AE00041F24A43C2F200034FF000021A7041F261
:103AF000D440C2F200004FF0FF0102F08DFF41F20E
:103B0000D440C2F200004FF0FF0102F085FF07F140
:103B100004034FF00502009241F2D440C2F20000CB
:103B200040F21401C2F200014FF0070202F0D4FF8C
:103B300041F2D440C2F200004FF0FF0102F06CFFEE
:103B400041F2D440C2F200004FF0FF0102F064FFE6
:103B5000FB6803F10103FB60FB79802B0AD1BB7981
:103B6000FF2B07D141F24A43C2F200034FF001029A
:103B70001A7002E0FB68FE2BB9D9FB68FE2B0AD94C
:103B800041F2D440C2F200004FF0000102F0FCFE0E
:103B90004FF001031BE041F24A43C2F200031B78DD
:103BA000012B0AD141F2D440C2F200004FF00001D3
:103BB00002F0EAFE4FF0000309E041F2D440C2F205
:103BC00000004FF0000102F0DFFE4FF00103184645
:103BD00007F11007BD4680BD80B58CB002AF78609C
:103BE00039607B684FEA1363D8B27B684FEA1343AE
:103BF000D9B27B684FEA1323DAB27B68DBB24FF0AD
:103C0000580C87F818C07876B976FA763B774FF07B
:103C1000FF337B774FF0FF33BB774FF000033B74EC
:103C20004FF000037B744FF00003BB744FF00003B0
:103C3000FB744FF000033B754FF00003FB776FF010
:103C40000103FB734FF000033B624FF000037B6204
:103C500041F2D440C2F200004FF0FF0102F0DCFE5E
:103C600041F2D440C2F200004FF0000102F008FE21
:103C700041F2D440C2F200004FF0FF0102F0CCFE4E
:103C800007F1180207F110034FF00101009141F212
:103C9000D440C2F2000011464FF0070202F01CFFB0
:103CA00041F2D440C2F200004FF0FF0102F0B4FE36
:103CB0003B6A03F101033B623B7C002B77D107F1A8
:103CC0000F0207F110034FF00101009141F2D440BF
:103CD000C2F2000011464FF0010202F0FDFE07F1B2
:103CE00010034FF00002009241F2D440C2F20000F3
:103CF00039684FF4007202F0EFFE17E041F2D44051
:103D0000C2F200004FF0FF0102F086FE0346DBB274
:103D10003B743B7C03F01F03052B03D14FF00103E1
:103D2000FB7706E07B6A03F101037B627B6A632B0E
:103D3000E4D9FB7F012B3FD14FF00003FB774FF01D
:103D400000037B622FE041F2D440C2F200004FF04A
:103D5000FF0102F061FE0346DBB23B743B7C002BAB
:103D60001DD04FF00103FB7741F2D440C2F20000B6
:103D70004FF0FF0102F050FE41F2D440C2F20000C9
:103D80004FF0000102F000FE41F2D440C2F2000008
:103D90004FF0FF0102F040FE4FF0000335E07B6A78
:103DA00003F101037B627B6A632BCCD905E03B6A9C
:103DB000FE2B7FF64DAF00E000BF3B6AFE2B12D911
:103DC00041F2D440C2F200004FF0000102F0DCFDED
:103DD00041F2D440C2F200004FF0FF0102F01CFE9D
:103DE0004FF0010311E041F2D440C2F200004FF065
:103DF000000102F0C9FD41F2D440C2F200004FF0D0
:103E0000FF0102F009FE4FF00103184607F12807F1
:103E1000BD4680BD80B58CB002AF786039607B68EC
:103E20004FEA1363D8B27B684FEA1343D9B27B6879
:103E30004FEA1323DAB27B68DBB24FF0510C87F8FC
:103E400018C07876B976FA763B774FF0FF337B77F8
:103E50004FF0FF33BB774FF000033B744FF000038C
:103E60007B744FF00003BB744FF00003FB744FF002
:103E700000033B754FF00003FB774FF0FF33FB73FC
:103E80004FF000033B624FF00003FB8441F2D4404B
:103E9000C2F200004FF0FF0102F0BEFD41F2D4403B
:103EA000C2F200004FF0000102F0EAFC41F2D440FF
:103EB000C2F200004FF0FF0102F0AEFD07F1180260
:103EC00007F110034FF00101009141F2D440C2F21A
:103ED000000011464FF0070202F0FEFD56E041F2ED
:103EE000D440C2F200004FF0FF0102F095FD0346FE
:103EF000DBB23B74FB8C03F10103FB843B7CFE2BA8
:103F000044D141F2D440C2F200004FF0FF0102F070
:103F100083FD07F10F034FF40072009241F2D44089
:103F2000C2F2000019464FF000023B6802F0D4FDD7
:103F300041F2D440C2F200004FF0FF0102F06CFDEC
:103F400041F2D440C2F200004FF0FF0102F064FDE4
:103F50004FF00103FB7741F2D440C2F200004FF072
:103F6000FF0102F059FD41F2D440C2F200004FF0CF
:103F7000000102F009FD41F2D440C2F200004FF00E
:103F8000FF0102F049FD4FF000031CE0FB8CF92B10
:103F9000A5D93B6A03F101033B623B6A632B7FF6C1
:103FA00075AF41F2D440C2F200004FF0000102F0C0
:103FB000EBFC41F2D440C2F200004FF0FF0102F0EE
:103FC0002BFD4FF00103184607F12807BD4680BDC1
:103FD00080B485B000AFF860B9607A60FB68BA68F9
:103FE0001A60FB687A685A60FB68BA689A60FB6876
:103FF000BA68DA6007F11407BD4680BC704700BF9D
:1040000080B582B000AF786039607B68DA687B6821
:104010005B689A4205D27B68DA687B681B689A42C3
:1040200002D24FF0020313E07B68DB681846396860
:10403000FFF7D2FD0346002B08D17B68DB6803F154
:1040400001027B68DA604FF0000301E04FF00103EA
:10405000184607F10807BD4680BD00BF80B582B095
:1040600000AF786039607B689A687B68DB689A4249
:1040700005D27B689A687B681B689A4202D24FF02F
:10408000020313E07B689B6818463968FFF7C2FE9D
:104090000346002B08D17B689B6803F101027B6813
:1040A0009A604FF0000301E04FF00103184607F15A
:1040B0000807BD4680BD00BF80B582B000AF786004
:1040C0004FF006004FF0050103F00AF94FF006002B
:1040D0004FF0010103F022F9786842F20001C5F2C5
:1040E00000014FF010024FF0000303F0EBFD786881
:1040F0004FF0000103F0D8FF03461A4641F2741353
:10410000C2F200031A7041F27413C2F200031B786A
:10411000184607F10807BD4680BD00BF80B584B0D2
:1041200002AF7860396040F22C03C2F200031B78C2
:104130004FF00002009278684FF032013A6803F0C5
:10414000A9FE78684FF0000103F0AEFF03461A465F
:1041500041F27413C2F200031A7041F27413C2F2F6
:1041600000031B78184607F10807BD4680BD00BF55
:1041700080B586B002AF786039604FF00103FB7301
:104180004FF001033B73FB7B07F10C024FF0010181
:10419000009178684FF0320103F00AFE78684FF022
:1041A000000103F081FF03461A4641F27413C2F284
:1041B00000031A7040F22C03C2F200031B784FF088
:1041C0000002009278684FF032013A6803F062FE14
:1041D00078684FF0000103F067FF03461A4641F28A
:1041E0007413C2F200031A7041F27413C2F2000396
:1041F0001B78184607F11007BD4680BD90B585B005
:1042000000AF786039604FF00003FB732EE0FA7B5B
:104210003B6802EB0304FB7B41F24400C2F2000066
:104220004FF021011A4641F24A43C2F20003FEF761
:10423000E7FE0346DBB2237041F24B43C2F20003B8
:104240001B784FEA4303DAB241F24A43C2F2000359
:104250001B7842EA0303DBB2DAB241F24B43C2F20B
:1042600000031A70FB7B03F10103FB73FB7B072B3D
:10427000CDD907F11407BD4690BD00BF80B483B00F
:1042800000AF786041F24C43C2F200037A681A60D2
:1042900007F10C07BD4680BC704700BF80B58AB0EF
:1042A00002AF4FF0FF33FB604FF0FF33FB724FF074
:1042B0000003BB764FF00103FB764FF00003BB72A7
:1042C0004FF000033B714FF0FF337B714FF0100351
:1042D000BB714FF01703FB7140F20C50C2F20000AB
:1042E00044F20001C5F200014FF0080203F05CF94E
:1042F00040F20C50C2F2000003F0C8F94FF0050084
:104300004FF0050102F0ECFF40F20C50C2F2000049
:10431000FFF7B4FF4FF005004FF0000102F0FEFF81
:104320004FF00003BB834FF00003BB8303E0BB8B64
:1043300003F10103BB83BA8B40F2E7339A42F6D90B
:104340004FF005004FF0010102F0E8FF4FF00003CD
:10435000BB8341F24C43C2F200031B6818464FF086
:10436000000103F0D5F94FF00003BB8303E0BB8BE2
:1043700003F10103BB83BA8B40F25D139A42F6D975
:1043800041F24C43C2F20003196807F10B0207F136
:104390000A034FF001000090084611464FF0010259
:1043A00000F026FBBB7A002B1AD04FF00003FB76FF
:1043B00041F24C43C2F200031B6818464FF0000163
:1043C00003F0FAF94FF00003BB8303E0BB8B03F16A
:1043D0000103BB83BA8B40F2E7339A42F6D906E079
:1043E000BB7E03F10103BB76BB7E092BB1D941F241
:1043F0004C43C2F200031B6818464FF0000103F063
:1044000087F941F24C43C2F20003196807F10B022D
:1044100007F10A034FF001000090084611464FF0E3
:10442000010200F0E5FA4FF00003FB704FF0FF339C
:10443000BB704FF00003BB7741F24C43C2F2000364
:10444000196807F1020207F103034FF00100009021
:10445000084611464FF0010200F0CAFAFB7803F05B
:104460002003002B04D0FB7803F00403002B0CD1B5
:10447000BB7F632B8CBF00230123DBB2BA7F02F129
:104480000102BA77002BD7D100E000BF41F24C43C4
:10449000C2F200031B6818464FF0000103F08CF9CC
:1044A0004FF00003BB7706E000F050FB0346FB77BC
:1044B000FB7F012B0CD0BB7F632B8CBF0023012320
:1044C000DBB2BA7F02F10102BA77002BECD100E037
:1044D00000BF00F095F80346BB76BB7E002B07D1EA
:1044E00000F00AFA0346BB76BB7E002B03D00AE03D
:1044F0004FF0030318E000F03DFA0346BB76BB7EA5
:10450000002B03D00FE04FF002030DE007F104038E
:104510004FF0380040F20051C2F200011A464FF04D
:10452000040300F0EDF8FFE7184607F12007BD4649
:1045300080BD00BF80B588B002AF78600B467B803D
:104540004FF00003FB6041F24C43C2F200031B68D2
:1045500018464FF0000103F0DBF87A68FB6813445B
:104560001B784FEA0342FB6803F101017B680B44AF
:104570001B784FEA032342EA0302FB6803F10201BE
:104580007B680B441B7842EA03037B617A694FF630
:10459000FF739A4202D94FF001032BE0FB6803F14D
:1045A00003037A6813443B6141F24C43C2F20003B7
:1045B0001A683B6903F101037969A1F104010091D3
:1045C000104639694FF0010200F046FAFA687B693B
:1045D0001344FB607A88FB689A42BED841F24C4390
:1045E000C2F200031B6818464FF0000103F0E4F824
:1045F0004FF00003184607F11807BD4680BD00BF05
:1046000080B588B000AF49F6CC43C0F200031B6808
:10461000BB6149F6D043C0F200031B687B6149F6D9
:10462000D443C0F200031B683B6149F6D843C0F293
:1046300000031B68FB604FF000033B714FF0000369
:104640007B714FF00003BB714FF00003FB714FF023
:1046500000033B724FF000037B724FF00003FB77C7
:1046600040F23000C2F200004FF43671FFF762FFF3
:104670000346BB77BB7F002B02D04FF003033AE029
:104680004FF0850000F0D2F80346BB77BB7F002BCC
:1046900002D04FF001032EE04FF0820000F0C6F888
:1046A0000346BB77BB7F002B0ED0BB7F6FEA8363D3
:1046B0006FEA9363DBB21EE000F048FA0346BB7773
:1046C000BB7F022B0ED000E000BFFB7F632B8CBFB3
:1046D00000230123DBB2FA7F02F10102FA77002BFB
:1046E000EAD100E000BFFB7F632B02D94FF001034A
:1046F00001E04FF00003184607F12007BD4680BDDA
:1047000080B588B002AFB9607A603B600346FB7346
:10471000BB684FEA1363D8B2BB684FEA1343D9B200
:10472000BB684FEA1323DAB2BB68DBB297F80FC05D
:1047300087F810C07874B974FA743B7541F24C4331
:10474000C2F200031B6818464FF0000102F0E0FFC0
:1047500041F24C43C2F200031A6807F110033968B2
:104760000091104619464FF005027B6800F074F97D
:1047700041F24C43C2F200031B6818464FF000019F
:1047800003F01AF84FF00003184607F11807BD466A
:1047900080BD00BF80B588B002AFB9607A603B6071
:1047A0000346FB73BB684FEA1363D8B2BB684FEA9A
:1047B0001343D9B2BB684FEA1323DAB2BB68DBB24A
:1047C00097F80FC087F810C07874B974FA743B7505
:1047D00041F24C43C2F200031B6818464FF000013F
:1047E00002F096FF41F24C43C2F200031A683B68A4
:1047F00003F1020107F110030091104619464FF032
:1048000005027B6800F0F4F841F24C43C2F2000369
:104810001B6818464FF0000102F0CEFF7B6803F1E1
:104820000203184607F11807BD4680BD80B586B063
:1048300002AF0346FB7141F24C43C2F200031B6816
:1048400018464FF0000102F063FF4FF00003BB7306
:104850004FF0FF337B734FF00003FB7341F24C4387
:10486000C2F20003196807F10D0207F10E034FF0C1
:1048700001000090084611464FF0010200F0B8F820
:10488000BB7B03F02003002B0CD1FB7B632B8CBF85
:1048900000230123DBB2FA7B02F10102FA73002B41
:1048A000DCD100E000BFFB7B632B02D94FF0020399
:1048B0001DE041F24C43C2F20003196807F1070200
:1048C00007F10E034FF001000090084611464FF02B
:1048D000010200F0C1F841F24C43C2F200031B6830
:1048E00018464FF0000102F067FF4FF00003184632
:1048F00007F11007BD4680BD80B584B002AF4FF010
:104900000003BB714FF0FF337B714FF00003FB716D
:1049100041F24C43C2F20003196807F1050207F1A6
:1049200006034FF001000090084611464FF00102C7
:1049300000F05EF8BB7903F02003002B0CD1FB796B
:10494000632B8CBF00230123DBB2FA7902F1010251
:10495000FA71002BDCD100E000BFFB79632B02D998
:104960004FF0010301E04FF00003184607F108077C
:10497000BD4680BD80B584B002AF4FF00003BB716F
:104980004FF0FF337B714FF00003FB7141F24C435A
:10499000C2F20003196807F1050207F106034FF0A0
:1049A00001000090084611464FF0010200F020F887
:1049B000BB7903F00403002B0CD1FB79632B8CBF74
:1049C00000230123DBB2FA7902F10102FA71002B14
:1049D000DCD100E000BFFB79632B02D94FF001036B
:1049E00001E04FF00003184607F10807BD4680BDFF
:1049F00080B588B002AFF860B9607A603B604FF074
:104A000000033B747B689AB23B6A99B207F11003CA
:104A10000091F868B96802F025FF4FF00003FB82AF
:104A200011E0FA8A3B6A9A4209D2FA8A3B68134437
:104A3000FA8A07F118010A4412F8082C1A70FB8A46
:104A400003F10103FB82FA8A40F2E7339A42E8D984
:104A500007F11807BD4680BD80B5D2B002AF07F19F
:104A60000C0CCCF8000007F10800016007F104010C
:104A70000A603A4613604FF00003A7F83E3111E098
:104A8000B7F83E31B7F83E1107F1080212680A4440
:104A9000117807F11002D154B7F83E3103F1010348
:104AA000A7F83E31B7F83E2107F104031B689A428C
:104AB000E6D315E0B7F83E31B7F83E1107F104022E
:104AC0001268C2EB01013A4612680A44117807F1F4
:104AD0001002D154B7F83E3103F10103A7F83E317B
:104AE000B7F83E2107F104031968D7F848310B44A1
:104AF0009A42DFD307F104031B689AB2D7F8483112
:104B00009BB213449BB207F10C0107F110024FF066
:104B100000000090086811461A464FF0000302F0AA
:104B2000A1FE4FF00003A7F83E3105E0B7F83E3193
:104B300003F10103A7F83E31B7F83E2140F2E73315
:104B40009A42F3D907F5A077BD4680BD80B582B003
:104B500000AF4FF000033B704FF000037B704FF04D
:104B60000003BB704FF00003FB704FF000033B717C
:104B70004FF000037B714FF00003BB714FF0000357
:104B8000FB7111E03B464FF0780044F2B421C4F2CF
:104B900000011A464FF00403FFF7FCFD3B78E22BBF
:104BA00014D03B78A22B11D03B78E42B0ED03B786D
:104BB000A42B0BD0FB79632B8CBF00230123DBB22A
:104BC000FA7902F10102FA71002BDBD13B7903F093
:104BD0003F03BB71BB79184607F10807BD4680BD8E
:104BE00080B584B000AF78604FF000033B720CE0FA
:104BF00007F108034FF0780040F23851C2F200018B
:104C00001A464FF00403FFF7C5FD3B7A002BEFD0A7
:104C1000BB7A03F007034FEA03239AB2FB7A1344EB
:104C20009AB27B681A807B681B88C3F100039BB231
:104C30009AB27B681A807B681B884FEA03534FEA5D
:104C400013537A6813807B681B88B3F5006F06D90D
:104C50007B681B88A3F500639AB27B681A807B6827
:104C60001B884FEA93039AB27B681A8007F11007FA
:104C7000BD4680BD80B584B000AF78604FF00003C2
:104C80003B724FF08600FFF7D1FDFFF75FFF034651
:104C9000FB7303E0FFF75AFF0346FB73FB7B022B1A
:104CA000F8D10CE007F108034FF0780040F27C31B6
:104CB000C2F200011A464FF00403FFF76BFD3B7A86
:104CC000002BEFD03B7B03F007034FEA03239AB29C
:104CD0007B7B13449AB27B681A807B681B88C3F184
:104CE00000039BB29AB27B681A807B681B884FEAEC
:104CF00003534FEA13537A6813807B681B88B3F51C
:104D0000006F06D97B681B88A3F500639AB27B68A5
:104D10001A807B681B884FEA93039AB27B681A80DB
:104D200007F11007BD4680BD80B582B000AF3B469D
:104D30004FF0780040F20451C2F200011A464FF0E1
:104D40000403FFF727FDFB78FB71FB79184607F199
:104D50000807BD4680BD00BF80B584B000AF07F135
:104D600004034FF0780040F21451C2F200011A46D9
:104D70004FF00403FFF70EFDBB794FEA0362FB79A6
:104D80004FEA034342EA03023B7A4FEA032342EA33
:104D900003027B7A42EA0303FB60FB68184607F1D3
:104DA0001007BD4680BD00BF80B584B000AF07F1DD
:104DB00004034FF0780040F2EC21C2F200011A46E1
:104DC0004FF00403FFF7E6FCBB794FEA0362FB797F
:104DD0004FEA034342EA03023B7A4FEA032342EAE3
:104DE00003027B7A42EA0303FB60FB68184607F183
:104DF0001007BD4680BD00BF016070470068704766
:104E00000EB503FA01F303EA020301686FEA020236
:104E100001EA020141EA030101600EBD006800EAF7
:104E2000020020FA01F07047018070470088704747
:104E30000EB503FA01F303EA020301886FEA0202E6
:104E400001EA020141EA030101800EBD008800EA87
:104E5000020020FA01F07047017070470078704737
:104E60000EB503FA01F303EA020301786FEA0202C6
:104E700001EA020141EA030101700EBD007800EA77
:104E8000020020FA01F0704780B483B000AF0346FF
:104E9000FB714EF20013CEF2000397F907204FEAA0
:104EA0005212F97901F01F014FF0010000FA01F1EF
:104EB00002F1600243F8221007F10C07BD4680BCE6
:104EC000704700BF80B483B000AF78600B46FB70C2
:104ED0007B6803F070427B6823F07F4323F4700308
:104EE0004FEA43131A44FB784FEA8303134403F158
:104EF00000734FF001021A6007F10C07BD4680BC39
:104F0000704700BF80B483B000AF78600B46FB7081
:104F10007B6803F070427B6823F07F4323F47003C7
:104F20004FEA43131A44FB784FEA8303134403F117
:104F300000734FF000021A6007F10C07BD4680BCF9
:104F4000704700BF80B483B000AF78600B46FB7041
:104F50007B6803F070427B6823F07F4323F4700387
:104F60004FEA43131A44FB784FEA8303134403F1D7
:104F700000731B68DBB2184607F10C07BD4680BC06
:104F8000704700BF80B584B000AFF860B9601346C9
:104F9000FB71FA6841F29443C2F200039A4207D0CF
:104FA000FA6841F25443C2F200039A4200D000BEB4
:104FB000FB79F868B9681A4600F088F9FB681B6845
:104FC00003F1300318464FF00301FFF79BFFFB6826
:104FD0001B6803F1340318464FF00201FFF792FFFC
:104FE000FB681B6803F1380318464FF00001FFF718
:104FF00089FFFA6845F26573C0F20003536207F156
:105000001007BD4680BD00BF80B489B000AFF86016
:10501000B9607A604FF000033B61FA6841F2944353
:10502000C2F200039A4207D0FA6841F25443C2F236
:1050300000039A4200D000BEBB68002B00D100BE26
:105040007B68002B00D100BEFA6841F29443C2F2A3
:1050500000039A4206D0FA6841F25443C2F20003B8
:105060009A423DD1BB68002B3AD07B68002B37D0E9
:10507000FB681B681B7DFB76FB685A7BFB7E42EA64
:105080000303DAB2FB685A73FB7E03F02003002BA4
:1050900023D04FF01003FB617B680F2B01D87B6896
:1050A000FB614FF000037B610EE0FB681B68B96891
:1050B0003A690A4412781A703B6903F101033B61B3
:1050C0007B6903F101037B617A69FB699A42ECD346
:1050D0007A687B69C3EB02037B607B68002BC7D1D6
:1050E00007F12407BD4680BC704700BF684620F02A
:1050F00007018D4689B500AF41F29440C2F200002D
:1051000000F01AFABD46BDE889408546704700BFE9
:10511000684620F007018D4689B500AF41F2544042
:10512000C2F2000000F008FABD46BDE8894085469D
:10513000704700BF80B588B000AF786039607A688A
:1051400041F29443C2F200039A4207D07A6841F2D6
:105150005443C2F200039A4200D000BE7A6841F282
:105160009443C2F200039A4207D07A6841F2544352
:10517000C2F200039A4240F0A4807B683A689A60C9
:1051800003F0F2FD7A6841F29443C2F200039A42BE
:1051900006D140F22C33C2F200031B68FB6105E02C
:1051A00040F23033C2F200031B68FB61FB694FEA37
:1051B000C3023B68B2FBF3F37B617B694FEA5303A5
:1051C0003B613B694FEA9313FB60FB684FEA831333
:1051D0003A69C3EB0203BB61FB684FEAC3137A6908
:1051E000C3EB0202BB694FEA4303C3EB0203BA6994
:1051F0001344BB61FA684FF6FF739A4200D900BEB0
:10520000FA684FF6FF739A425BD8FB68012B31D9DD
:105210007B681B6803F10C0318464FF00701FFF78A
:1052200051FE7B681B68FA684FEA1222D2B21A71EB
:105230007B681B68FA68D2B21A707B681B6803F13E
:105240000C0318464FF00701FFF75CFE7B681B68F4
:1052500003F1300318464FF00701FFF733FEBB6937
:10526000FF2B00D900BE7B681B68BA69D2B283F8F5
:105270003C2026E07B681B6803F10C0318464FF0C6
:105280000701FFF71FFE7B681B68FA684FEA1222CE
:10529000D2B21A717B681B68FA68D2B21A707B6846
:1052A0001B6803F10C0318464FF00701FFF72AFEB5
:1052B0007B681B6803F1300318464FF00701FFF7C6
:1052C00021FE07F12007BD4680BD00BF80B584B038
:1052D00000AFF860B9601346FB71FA6841F294437D
:1052E000C2F200039A4207D0FA6841F25443C2F274
:1052F00000039A4200D000BEFA6841F29443C2F221
:1053000000039A4224D1FB684FF080421A60FB6888
:105310004FF00A021A7148F20003C4F2030348F284
:105320000002C4F20302926C42F080029A644FF0D1
:105330000A00FFF7A9FD48F20003C4F2030348F294
:105340000002C4F20302926C22F080029A6425E00B
:10535000FA6840F20003C4F201031360FB684FF0E7
:105360000B021A7148F20003C4F2030348F2000270
:10537000C4F20302926C42F480729A644FF00B0004
:10538000FFF782FD48F20003C4F2030348F2000273
:10539000C4F20302926C22F480729A64FB681B6868
:1053A0004FF000021A71FB681B684FF000021A727E
:1053B000FB681B6803F1080318464FF00101FFF773
:1053C00081FDFB681B6803F1080318464FF00201DA
:1053D000FFF778FDFB681B6803F1080318464FF0E0
:1053E0000001FFF76FFDFB681B6803F1100318460F
:1053F0004FF00401FFF786FDFB681B6803F1100303
:1054000018464FF00501FFF77DFDFB681B6803F1AF
:10541000340318464FF00101FFF774FDFB681B6869
:1054200003F1340318464FF00001FFF76BFDFB68F2
:105430001B6803F1380318464FF00101FFF762FDC6
:10544000FB681B6803F1300318464FF00501FFF7B6
:1054500059FDFB681B6803F1300318464FF0060145
:10546000FFF750FDFB681B6803F1300318464FF04F
:105470000701FFF747FDFB681B6803F13803184677
:105480004FF00301FFF73EFDFB681B684FF0000281
:1054900083F84420FB681B684FF0000283F8482023
:1054A000FB681B684FF0000283F84C20F868B9686D
:1054B000FFF740FEFB681B68FA791A73FB68BA684D
:1054C0009A60FB68FA791A73FB684FF000025A6120
:1054D000FB684FF000021A61FB684FF000029A610E
:1054E000FB684FF000021A62FB684FF000025A623C
:1054F000FB684FF00002DA61FB684FF000029A622D
:10550000FB684FF00002DA62FB684FF000021A639A
:10551000FB684FF000025A63FB684FF000029A6389
:10552000FB684FF00002DA63FB684FF000025A7329
:1055300007F11007BD4680BD80B584B000AF78602C
:105540007A6841F29443C2F200039A4207D07A6823
:1055500041F25443C2F200039A4200D000BE7A687E
:1055600041F29443C2F200039A4207D07A6841F2B2
:105570005443C2F200039A4240F0EF807B681B68FC
:105580001B7ADBB203F00F03FB73FB7B0C2B00F2E7
:10559000D78001A252F823F0CD55000041570000FA
:1055A000EB55000045560000095600004157000029
:1055B00027560000415700004157000041570000A6
:1055C0004157000041570000095600007B689B6A64
:1055D000002B00D100BE7B689B6A002B00F0B280DC
:1055E0007B689B6A78689847B7E07B685B6A002BAA
:1055F00000D100BE7B685B6A002B00F0A5807B6851
:105600005B6A78689847A8E07B681B6A002B00D12A
:1056100000BE7B681B6A002B00F098807B681B6AC9
:105620007868984799E07B68DB69002B00D100BE61
:105630007B68DB69002B00F08B807B68DB69786816
:1056400098478AE07B681B6803F1280318464FF0EF
:105650000001FFF777FC0346002B0CD07B68DB6A68
:10566000002B00D100BE7B68DB6A002B03D07B6877
:10567000DB6A786898477B681B6803F12803184643
:105680004FF00101FFF75EFC0346002B0CD07B6856
:105690001B6B002B00D100BE7B681B6B002B03D063
:1056A0007B681B6B786898477B681B6803F128034D
:1056B00018464FF00201FFF745FC0346002B0CD0C3
:1056C0007B685B6B002B00D100BE7B685B6B002BA3
:1056D00003D07B685B6B786898477B681B6803F135
:1056E000280318464FF00301FFF72CFC0346002B5C
:1056F0000CD07B689B6B002B00D100BE7B689B6B42
:10570000002B03D07B689B6B786898477B681B688D
:1057100003F1280318464FF00401FFF713FC03467A
:10572000002B17D07B68DB6B002B00D100BE7B68A1
:10573000DB6B002B10D07B68DB6B786898470CE044
:1057400000BE0AE000BF08E000BF06E000BF04E0C2
:1057500000BF02E000BF00E000BF07F11007BD4638
:1057600080BD00BF80B586B000AF78607A6841F236
:105770009443C2F200039A4207D07A6841F254433C
:10578000C2F200039A4200D000BE7B681B69002B66
:1057900000D100BE7B685B69002B00D100BE7A6837
:1057A00041F29443C2F200039A4206D07A6841F271
:1057B0005443C2F200039A4255D17B681B69002B07
:1057C00051D07B685B69002B4DD07B681B681B7DCB
:1057D000FB727B685A7BFB7A42EA0303DAB27B688E
:1057E0005A73FB7A03F02003002B29D04FF01003EB
:1057F0003B617B685A697B689B69C3EB02037B61F1
:105800007B690F2B01D87B693B614FF00003FB6084
:1058100012E07B681B687A6811697A6892690A44A9
:1058200012781A707B689B6903F101027B689A61A8
:10583000FB6803F10103FB60FA683B699A42E8D315
:105840007B689A697B685B699A420CD17B684FF0F0
:1058500000025A617B681B6803F1040318464FF08D
:105860000101FFF74FFB07F11807BD4680BD00BFE0
:1058700080B582B000AF786040F27433C2F20003AA
:105880007A681A6040F27233C2F200034FF00002ED
:105890001A8040F27033C2F200034FF000021A7017
:1058A00048F20003C4F20303D3F8982040F27C339B
:1058B000C2F200031A6045F6D500C0F2000040F2C3
:1058C0007831C2F2000103F007FC07F10807BD467A
:1058D00080BD00BF80B586B000AF0346FB71FB7989
:1058E000E02B2BD141F28833FB6048F20003C4F275
:1058F0000303D3F8983003F480533B61FB6803F152
:10590000FF33FB603B69002B02D1FB68002BECD11D
:1059100040F27433C2F200031B68002B68D040F2DF
:105920007433C2F200031A6840F27833C2F2000303
:105930005B78F9790846194690475CE0FB79E12BE2
:105940002DD141F28833BB6048F20003C4F2030357
:10595000D3F8983003F480537B61BB6803F1FF33C5
:10596000BB607B69002B02D0BB68002BECD100F040
:105970007BFA40F27433C2F200031B68002B39D06B
:1059800040F27433C2F200031A6840F27833C2F274
:1059900000035B78F9790846194690472BE0FB79BC
:1059A000F12B0FD0FB795BB2002B02DAFB799F2B36
:1059B00008D9FB79A02B05D0FB79B02B1BD9FB793B
:1059C000B72B18D840F27433C2F200031B68002BC7
:1059D00011D040F27433C2F200031A6840F27833F7
:1059E000C2F200035B78F97908461946904702E055
:1059F00000BF00E000BF07F11807BD4680BD00BF33
:105A000080B485B000AF03463960FB71FB79062B8B
:105A10004CD801A252F823F0355A0000495A000030
:105A20005D5A0000AD5A0000715A0000855A00000E
:105A3000995A000040F20833C2F20003FB603B6851
:105A40004FF004021A7038E040F20C33C2F2000347
:105A5000FB603B684FF003021A702EE040F21033F7
:105A6000C2F20003FB603B684FF005021A7024E0AD
:105A700040F21833C2F20003FB603B684FF00302B0
:105A80001A701AE040F21C33C2F20003FB603B685C
:105A90004FF002021A7010E040F22033C2F200030D
:105AA000FB603B684FF002021A7006E03B684FF063
:105AB00000021A704FF00003FB60FB68184607F104
:105AC0001407BD4680BC704780B588B000AF48F26F
:105AD0000003C4F20303D3F898307B604FF0000357
