:1000000000000120910100007F0300008103000037
:100010008303000085030000870300000000000048
:100020000000000000000000000000008903000044
:100030008B030000000000008D0300008F03000010
:1000400091030000930300001D4B0000414B000092
:10005000990300009B0300009D0300009F03000024
:10006000A1030000A3030000DD3D0000013E0000ED
:10007000A9030000AB030000AD030000AF030000C4
:10008000B1030000B3030000B5030000D963000012
:10009000B9030000BB030000BD030000BF03000064
:1000A000C1030000C3030000C5030000C703000034
:1000B000C9030000CB030000CD030000CF03000004
:1000C000D1030000D30300003D2D0000512D00009E
:1000D000652D0000792D00008D2D0000992D000068
:1000E000A52D0000B12D0000BD2D0000E70300008C
:1000F000E9030000EB030000ED030000EF03000044
:10010000F1030000F3030000F5030000552E00008A
:10011000F9030000AD2E0000FD030000FF03000006
:1001200001040000030400000504000007040000AF
:10013000090400000B0400000D0400000F0400007F
:10014000110400001304000015040000170400004F
:10015000190400001B0400001D0400001F0400001F
:1001600021040000230400002504000027040000EF
:10017000290400002B0400002D0400002F040000BF
:100180003104000033040000000000000000000003
:100190004FF0000BDFF8BE020068DFF8B612096806
:1001A00001F0030100F01C00142801D14BF0020BF8
:1001B000002901D04BF0010BBBF1000F05D0A7487F
:1001C000A749DFF8722200F09FF8A64880470BF09D
:1001D000020ABAF1000F0CD0DFF86E02DFF86E12DF
:1001E00002680B680FB44FF000024FF0FF0302608B
:1001F0000B609D489D4A9E4B022808D1DFF83E12B5
:100200000A60DFF842120A60DFF836120B6001283C
:1002100008D1DFF82E120A60DFF82A120A60DFF830
:100220001E120B609348002809D193489349944AC1
:1002300000F032F893489449944A00F02DF894481D
:100240009449954A00F028F894489549DFF8E6214A
:1002500000F05AF8BBF1000F12D092489249DFF833
:10026000DA2100F051F80BF0020ABAF1000F07D0C2
:100270000FBC02600B6000BFAFF30080AFF30080E3
:10028000DFF828020FF2030E00474FF000004FF096
:100290000001DFF81CF2FEE72DE9F841884225D085
:1002A000B2EB010200D5FEE740EA010313F00303BD
:1002B00002D000F01DF819E04FF000039046121133
:1002C000F7D09A421CBFF0C8F0C103F10103F8D186
:1002D00008F00F08B8F1000F08D004780C7000F196
:1002E000010001F10101B8F10108F6D1BDE8F88182
:1002F00008B54FF0000303780B7000F1010001F125
:100300000101013AF7D108BD884237D000F0030659
:10031000002E14D04FF00405A5EB06044FF008079B
:1003200007FB06F8914669FA08F9002C07D080F817
:10033000009069FA07F900F10100013CF5E74FF080
:1003400000060F46091A88460911914614461546BB
:10035000B14206D018BFA0E8340206F10106B1424E
:10036000F8D108F00F08B8F1000F07D002704FEA7B
:10037000322200F10100B8F10108F4E77047FEE70E
:10038000FEE7FEE7FEE7FEE7FEE7FEE7FEE7FEE745
:10039000FEE7FEE7FEE7FEE7FEE7FEE7FEE7FEE735
:1003A000FEE7FEE7FEE7FEE7FEE7FEE7FEE7FEE725
:1003B000FEE7FEE7FEE7FEE7FEE7FEE7FEE7FEE715
:1003C000FEE7FEE7FEE7FEE7FEE7FEE7FEE7FEE705
:1003D000FEE7FEE7FEE7FEE7FEE7FEE7FEE7FEE7F5
:1003E000FEE7FEE7FEE7FEE7FEE7FEE7FEE7FEE7E5
:1003F000FEE7FEE7FEE7FEE7FEE7FEE7FEE7FEE7D5
:10040000FEE7FEE7FEE7FEE7FEE7FEE7FEE7FEE7C4
:10041000FEE7FEE7FEE7FEE7FEE7FEE7FEE7FEE7B4
:10042000FEE7FEE7FEE7FEE7FEE7FEE7FEE7FEE7A4
:10043000FEE7FEE7704700000000A2A2A2A2008033
:100440000340088003401080034030800340348024
:1004500003403880034018080240000000F00020EC
:1004600000000120ED62000000000000000000001C
:10047000010000000000000000000000000000007B
:1004800090010000C0040000C0040000806C000067
:10049000806C0000000000201000002010000020F0
:1004A000B0120020B012002000F00020516B0000BC
:1004B000ED2C0000AFF30080AFF30080AFF30080BD
:1004C00040F21003C2F200031A780AB90120187032
:1004D000704700BF40F20000C2F2000008B5036898
:1004E0002BB140F20003C0F2000303B1984708BDEE
:1004F00080B483B000AF7860396044F20003C4F286
:1005000000035A6B3B681A6044F20003C4F2000314
:100510001A6B7B681A6007F10C07BD4680BC7047F8
:1005200080B400AF45F20003C4F200031B68184614
:10053000BD4680BC704700BF80B582B000AF4FF0B1
:100540000003FB801EE040F21703C2F200031B7899
:1005500003F1FF31FA8840F2E843C2F200034FEAA8
:1005600001210A4433F8123045F20000C5F20000C0
:10057000194603F071FBFB88FF2B07D0FB8803F1C2
:100580000103FB80FB88FF2BDDD900E000BF07F1F2
:100590000807BD4680BD00BF80B586B000AFB9601A
:1005A00013460246FA73FB714FF00003FB74BB68FD
:1005B0007B61FA7940F21803C2F200031B781344FE
:1005C000FE2B50DD40F21703C2F200031B7803F14B
:1005D0000103DAB240F21703C2F200031A70FFF708
:1005E000ABFF40F21803C2F200034FF000021A7092
:1005F00040F21703C2F200031B78042B33D140F200
:100600001703C2F200034FF000021A702BE040F211
:100610001703C2F200031B78184640F21803C2F217
:1006200000031B781A46FB7C1A44F97C7B690B4457
:100630001B78194697F813C07B6963441B784FEA0F
:1006400003239BB241EA03039BB299B240F2E84311
:10065000C2F200034FEA0020024423F81210FB7C90
:1006600003F10103FB74FA7CFB799A42CFD340F289
:100670001803C2F200031A78FB791344DAB240F28D
:100680001803C2F200031A7007F11807BD4680BDB7
:1006900080B485B000AF78600B467B804FF00003DC
:1006A0003B734FF000037B734FF00003BB734FF0BD
:1006B0000003FB734FF00003FB733AE03A7BF97BD6
:1006C0007B680B441B7802EB030148F28103C8F2FC
:1006D000800383FB01230B444FEAE3124FEAE173EB
:1006E000C3EB020213464FEA0323C2EB0303C3EB3F
:1006F000010213463B737A7B3B7B02EB030148F21A
:100700008103C8F2800383FB01230B444FEAE31209
:100710004FEAE173C3EB020213464FEA0323C2EB35
:100720000303C3EB010213467B73FB7B03F101035D
:10073000FB73FB7B7A889A42C0D83A7B7B7B02EBC7
:10074000030148F28103C8F2800383FB01230B44B9
:100750004FEAE3124FEAE173C3EB020213464FEA9A
:100760000323C2EB0303C3EB0102D3B26FEA03031B
:10077000BB733A7BBB7B02EB030148F28103C8F2F7
:10078000800383FB01230B444FEAE3124FEAE1733A
:10079000C3EB020213464FEA0323C2EB0303C3EB8E
:1007A0000102D3B26FEA03037B737B7B4FEA03231F
:1007B0009AB2BB7B42EA03039BB29BB2184607F195
:1007C0001407BD4680BC704790B58DB000AF40F2B5
:1007D000D422C2F2000240F2AC13C2F200031A604B
:1007E0004FF000037B854FF0000387F82D3046F66D
:1007F000A033C0F20003BC469E46BEE80F00ACE842
:100800000F00DEF80030ACF8003041F27802C2F29E
:10081000000241F26803C2F2000310461946FFF7D6
:1008200067FE40F2AC13C2F200031A6840F2040300
:10083000C2F200031B78537440F2AC13C2F20003FF
:100840001A684FF0000343F0500393744FF0000315
:100850006FEA030303F03C036FEA0303D37440F22F
:10086000AC13C2F200031C68FFF75AFE034603F004
:10087000FF024FF0000141EA020222754FEA132203
:1008800002F0FF024FF0000141EA020262754FEAF6
:10089000134202F0FF024FF0000141EA0202A2758A
:1008A0004FEA13634FF0000242EA0303E37540F29C
:1008B000AC13C2F200031A6840F23003C2F2000324
:1008C0001B78937640F2AC13C2F200031A6841F22F
:1008D0008003C2F200031B681B78137640F2AC134E
:1008E000C2F200031A6840F22903C2F200031B7827
:1008F000937316E040F2AC13C2F20003196897F844
:100900002D0097F82D2040F65453C2F200039A5C54
:1009100000EB0103DA7697F82D3003F1010387F835
:100920002D3097F82D300F2BE4D940F2AC13C2F2E2
:1009300000031A6840F22C03C2F200031B78D37341
:1009400040F2AC13C2F200031A6840F22D03C2F267
:1009500000031B78137440F2AC13C2F200031B684F
:100960003A7F4FF0000141EA020283F82B207A7FA0
:100970004FF0000141EA020283F82C2040F2AC1350
:10098000C2F200031B68BA7F4FF0000141EA020285
:1009900083F82D20FA7F4FF0000141EA020283F82C
:1009A0002E2040F2AC13C2F200031B6897F82020FF
:1009B0004FF0000141EA020283F82F2097F821202E
:1009C0004FF0000141EA020283F8302040F2AC13FC
:1009D000C2F200031B6897F822204FF0000141EAA1
:1009E000020283F8312097F823204FF0000141EAFA
:1009F000020283F8322040F2AC13C2F200031B68FB
:100A000097F824204FF0000141EA020283F83320D6
:100A100097F825204FF0000141EA020283F83420C4
:100A200040F2AC13C2F200031B6897F826204FF087
:100A3000000141EA020283F8352097F827204FF0A1
:100A4000000141EA020283F8362040F2AC13C2F200
:100A500000031B6897F828204FF0000141EA0202CA
:100A600083F8372097F829204FF0000141EA02026D
:100A700083F8382040F2AC13C2F200031C6807F17F
:100A8000130340F2D400C2F200004FF040014FF0D7
:100A9000020202F02FFB034603F0FF024FF00001B9
:100AA00041EA020284F839204FEA13239BB24FF047
:100AB000000242EA030384F83A30FB7C4FEAC303A6
:100AC0009AB27B8D42EA03039BB27B8540F2AC1362
:100AD000C2F200031C6807F1130340F2D400C2F213
:100AE00000004FF040014FF0030202F003FB034609
:100AF00003F0FF024FF0000141EA020284F83B20BC
:100B00004FEA13239BB24FF0000242EA030384F83A
:100B10003C30FB7C4FEA03139AB27B8D42EA03031D
:100B20009BB27B8540F2AC13C2F200031C6807F154
:100B3000130340F24010C2F200004FF040014FF0AA
:100B4000010202F0D7FA034603F0FF024FF0000162
:100B500041EA020284F83D204FEA13239BB24FF092
:100B6000000242EA030384F83E3040F2AC13C2F2C2
:100B700000031C6807F1130340F24010C2F20000AA
:100B80004FF040014FF0020202F0B4FA034603F0C6
:100B9000FF024FF0000141EA020284F83F204FEAD1
:100BA00013239BB24FF0000242EA030384F8403063
:100BB00040F2AC13C2F200031C6807F1130340F2C9
:100BC0004010C2F200004FF040014FF0030202F06B
:100BD00091FA034603F0FF024FF0000141EA0202DE
:100BE00084F841204FEA13239BB24FF0000242EAFF
:100BF000030384F8423040F2AC13C2F200031B68D6
:100C000041F2AC02C2F20002D26802F0FF014FF0E2
:100C1000000040EA010183F851104FEA122101F06F
:100C2000FF014FF0000040EA010183F852104FEA43
:100C3000124101F0FF014FF0000040EA010183F88A
:100C400053104FEA12624FF0000141EA020283F8AA
:100C5000542040F2AC13C2F200031B6841F2AC0214
:100C6000C2F20002926802F0FF014FF0000040EA79
:100C7000010183F84D104FEA122101F0FF014FF0FE
:100C8000000040EA010183F84E104FEA124101F0E2
:100C9000FF014FF0000040EA010183F84F104FEAD6
:100CA00012624FF0000141EA020283F8502040F244
:100CB000AC13C2F200031B6841F29C02C2F20002B4
:100CC000D26802F0FF014FF0000040EA010183F812
:100CD00061104FEA122101F0FF014FF0000040EADD
:100CE000010183F862104FEA124101F0FF014FF059
:100CF000000040EA010183F863104FEA12624FF0EE
:100D0000000141EA020283F8642040F2AC13C2F20F
:100D100000031B6841F29C02C2F20002926802F0DA
:100D2000FF014FF0000040EA010183F85D104FEA37
:100D3000122101F0FF014FF0000040EA010183F8A9
:100D40005E104FEA124101F0FF014FF0000040EA4F
:100D5000010183F85F104FEA12624FF0000141EA8F
:100D6000020283F8602040F2AC13C2F200031B6859
:100D700041F28802C2F20002D26802F0FF014FF095
:100D8000000040EA010183F859104FEA122101F0F6
:100D9000FF014FF0000040EA010183F85A104FEACA
:100DA000124101F0FF014FF0000040EA010183F819
:100DB0005B104FEA12624FF0000141EA020283F831
:100DC0005C2040F2AC13C2F200031B6841F28802BF
:100DD000C2F20002926802F0FF014FF0000040EA08
:100DE000010183F855104FEA122101F0FF014FF085
:100DF000000040EA010183F856104FEA124101F069
:100E0000FF014FF0000040EA010183F857104FEA5C
:100E100012624FF0000141EA020283F8582040F2CA
:100E2000AC13C2F200031C6807F1130340F2D400B4
:100E3000C2F200004FF040014FF0020202F0BAF996
:100E4000034603F0FF024FF0000141EA020284F87A
:100E500043204FEA13239BB24FF0000242EA030300
:100E600084F84430FB7C4FEA43139AB27B8D42EA0C
:100E700003039BB27B8540F2AC13C2F200031C68F3
:100E800007F1130340F2D400C2F200004FF040011A
:100E90004FF0030202F08EF9034603F0FF024FF019
:100EA000000141EA020284F845204FEA13239BB275
:100EB0004FF0000242EA030384F84630FB7C4FEA1D
:100EC00083139AB27B8D42EA03039BB27B8540F287
:100ED000AC13C2F200031C6807F1130340F2401088
:100EE000C2F200004FF040014FF0010202F062F93F
:100EF000034603F0FF024FF0000141EA020284F8CA
:100F000047204FEA13239BB24FF0000242EA03034B
:100F100084F8483040F2AC13C2F200031C6807F1B9
:100F2000130340F24010C2F200004FF040014FF0B6
:100F3000020202F03FF9034603F0FF024FF0000106
:100F400041EA020284F849204FEA13239BB24FF092
:100F5000000242EA030384F84A3040F2AC13C2F2C2
:100F600000031C6807F1130340F24010C2F20000B6
:100F70004FF040014FF0030202F01CF9034603F06A
:100F8000FF024FF0000141EA020284F84B204FEAD1
:100F900013239BB24FF0000242EA030384F84C3063
:100FA00040F2AC13C2F200031A6840F21603C2F218
:100FB00000031B7853764FF0000387F82D3001F0C3
:100FC000A7FF17E040F2AC13C2F20003196897F8CC
:100FD0002D0097F82D2041F2C003C2F200039A5C65
:100FE00000EB010383F8662097F82D3003F101032D
:100FF00087F82D3097F82D301F2BE3D940F2AC1332
:10100000C2F200031B684FF0000242F008021A709F
:101010004FF0000242F001025A7040F2AC13C2F2EB
:101020000003186840F21203C2F2000319880B464D
:101030006FEA83436FEA93439BB29BB24FEA032369
:101040001FFA83FC40F21203C2F200031A8813460F
:101050006FEA83436FEA93439BB29BB24FEA132339
:101060009BB24CEA03039BB29BB203F0FF0C4FF020
:10107000000E4EEA0C0C80F802C04FEA13239BB21C
:101080004FF0000C4CEA0303C37001F1010399B265
:1010900040F21203C2F20003198002F101039AB276
:1010A00040F21203C2F200031A8040F2AC13C2F203
:1010B00000031A684FF0000313714FF000036FEA4A
:1010C000030303F077036FEA0303537140F2AC1399
:1010D000C2F200031B6841F26802C2F20002D2E9C8
:1010E0000001024602F0FF014FF0000040EA01015A
:1010F00099724FEA122101F0FF014FF0000040EA1F
:101100000101D9724FEA124101F0FF014FF00000D6
:1011100040EA010119734FEA12624FF0000141EAFF
:1011200002025A7340F2AC13C2F200031B6841F290
:101130007802C2F20002D2E90001024602F0FF0189
:101140004FF0000040EA010199714FEA122101F0CD
:10115000FF014FF0000040EA0101D9714FEA12414E
:1011600001F0FF014FF0000040EA010119724FEA5F
:1011700012624FF0000141EA02025A7240F21A0371
:10118000C2F200031B78142B0ED140F21A03C2F2F4
:1011900000034FF001021A7040F23403C2F2000360
:1011A0004FF000021A700CE040F21A03C2F2000382
:1011B0001B7803F10103DAB240F21A03C2F2000312
:1011C0001A7040F21903C2F200031B78002B55D0AD
:1011D00040F22E03C2F200034FF001021A7040F2F7
:1011E000AC13C2F200031A6840F22E03C2F20003ED
:1011F0001B7882F8653040F2AC13C2F200031C6821
:1012000040F2D420C2F200004FF08601FFF740FA0E
:10121000034603F0FF024FF0000141EA020284F8A6
:1012200086204FEA13239BB24FF0000242EA0303E9
:1012300084F8873041F2AC00C2F2000040F2D421C1
:10124000C2F2000102F064FA0346002B02D04FF014
:10125000800301E04FF00003798D1A460B4642EA05
:1012600003039BB27B8541F2AC00C2F2000040F266
:10127000D421C2F2000102F04BFA3DE040F22E030D
:10128000C2F200034FF000021A7040F2AC13C2F237
:1012900000031A6840F22E03C2F200031B7882F8A2
:1012A000653040F2AC13C2F200031C6840F2D42057
:1012B000C2F200004FF08601FFF7EAF9034603F09F
:1012C000FF024FF0000141EA020284F886204FEA53
:1012D00013239BB24FF0000242EA030384F88730E5
:1012E00040F2AC13C2F200031B684FF00000194635
:1012F0004FF08802FFF750F97B8D184607F134074D
:10130000BD4690BDB0B582B000AF4FF000033B7159
:101310004FF000037B714FF00003FB8040F2D422BA
:10132000C2F2000240F2D023C2F200031A6041F27E
:101330007802C2F2000241F26803C2F200031046D2
:101340001946FFF7D5F840F2D023C2F200031B681C
:101350004FF0000242F008021A704FF0000242F013
:1013600004025A7040F2D023C2F20003186840F21F
:101370001403C2F2000319880B466FEA83436FEA35
:1013800093439BB29BB24FEA03231FFA83FC40F2C4
:101390001403C2F200031A8813466FEA83436FEA0C
:1013A00093439BB29BB24FEA13239BB24CEA0303D5
:1013B0009BB29BB203F0FF0C4FF0000E4EEA0C0CF8
:1013C00080F802C04FEA13239BB24FF0000C4CEAA6
:1013D0000303C37001F1010399B240F21403C2F296
:1013E0000003198002F101039AB240F21403C2F221
:1013F00000031A8040F2D023C2F200031B684FF0B2
:1014000000021A714FF0000242F041025A7140F29C
:10141000D023C2F200031B6841F26802C2F200024C
:10142000D2E90001024602F0FF014FF0000040EA5D
:10143000010199724FEA122101F0FF014FF0000003
:1014400040EA0101D9724FEA124101F0FF014FF069
:10145000000040EA010119734FEA12624FF00001E7
:1014600041EA02025A7340F2D023C2F200031B6821
:1014700041F27802C2F20002D2E90001024602F013
:10148000FF014FF0000040EA010199714FEA12217B
:1014900001F0FF014FF0000040EA0101D9714FEA6D
:1014A000124101F0FF014FF0000040EA0101197202
:1014B0004FEA12624FF0000141EA02025A723AE02A
:1014C00040F2D023C2F200031C683D793A7907F15B
:1014D000030340F24010C2F200004FF0230101F07C
:1014E000CBFE0346194605F1040201F0FF004FEA66
:1014F000420323444FF0000C4CEA000098714FEA7D
:10150000112398B24FEA420323444FF000021146E0
:10151000024641EA0202DA71FB781A463B7902FA86
:1015200003F39AB2FB8842EA03039BB2FB803B7948
:1015300003F101033B713B79072BC1D94FF0000345
:101540003B7101F0E5FC12E040F2D023C2F200034F
:10155000196838793A7941F2C003C2F200039A5C03
:1015600000EB0103DA773B7903F101033B713B792F
:101570001F2BE9D940F21903C2F200031B78002B9C
:1015800033D04FF001037B7140F2D023C2F200034D
:101590001B687A799A7740F2D023C2F200031C6864
:1015A00040F2D420C2F200004FF03F01FFF770F884
:1015B000034603F0FF024FF0000141EA020284F803
:1015C0003F204FEA13239BB24FF0000242EA03038D
:1015D00084F8403041F28800C2F2000040F2D42189
:1015E000C2F2000102F094F834E04FF000037B7186
:1015F00040F2D023C2F200031B687A799A7740F256
:10160000D023C2F200031C6840F2D420C2F20000D2
:101610004FF03F01FFF73CF8034603F0FF024FF0A5
:10162000000141EA020284F83F204FEA13239BB2F3
:101630004FF0000242EA030384F8403040F2D02326
:10164000C2F200031B684FF0020019464FF041023E
:10165000FEF7A2FFFB88184607F10807BD46B0BD9C
:1016600080B500AF41F2AC00C2F2000040F2D421DC
:10167000C2F2000102F07AF841F26010C2F20000FA
:1016800040F2D421C2F200014FF0880202F034FB94
:1016900080BD00BF80B483B000AF7860396044F291
:1016A0000003C4F200035A6B3B681A6044F2000363
:1016B000C4F200031A6B7B681A6007F10C07BD4681
:1016C00080BC704790B583B000AF4FF00003FB8043
:1016D00040F2D422C2F2000240F6D053C2F200031C
:1016E0001A6040F6E840C2F2000040F6EC51C2F247
:1016F000000102F069F803461A4640F61863C2F288
:1017000000031A7040F61863C2F200031B784FEA18
:101710004303DAB240F61863C2F200031A7040F6CF
:10172000EC53C2F200031B781A4640F6E853C2F2AB
:1017300000031A6040F6E853C2F200031B684FEA48
:10174000032240F6E853C2F200031A6040F6EC535D
:10175000C2F200035B781A4640F6E853C2F2000377
:101760001B6842EA030240F6E853C2F200031A6023
:1017700040F6E853C2F200031B684FEA032240F62A
:10178000E853C2F200031A6040F6EC53C2F20003C1
:101790009B781A4640F6E853C2F200031B6842EAFF
:1017A000030240F6E853C2F200031A6040F6E84034
:1017B000C2F2000040F6F051C2F2000102F02EF831
:1017C00003461A4640F61863C2F200031A7040F648
:1017D0001863C2F200031B784FEA4303DAB240F603
:1017E0001863C2F200031A7040F6EC53C2F2000311
:1017F0001B781A4640F61463C2F200031A6040F6E2
:101800001463C2F200031B684FEA032240F614631C
:10181000C2F200031A6040F6EC53C2F200035B7898
:101820001A4640F61463C2F200031B6842EA030240
:1018300040F61463C2F200031A6040F61463C2F269
:1018400000031B684FEA032240F61463C2F2000350
:101850001A6040F6EC53C2F200039B781A4640F639
:101860001463C2F200031B6842EA030240F61463E9
:10187000C2F200031A6040F6D453C2F2000340F6ED
:10188000E840C2F20000194602F00EF840F6D053CC
:10189000C2F200031A6840F20403C2F200031B788C
:1018A000937340F6D053C2F200031B6840F6E8522F
:1018B000C2F20002126802F0FF014FF0000040EA9D
:1018C0000101D9734FEA122101F0FF014FF000002E
:1018D00040EA010119744FEA124101F0FF014FF093
:1018E000000040EA010159744FEA12624FF0000112
:1018F00041EA02029A7440F6D053C2F200031B6818
:1019000040F61462C2F20002126802F0FF014FF0CA
:10191000000040EA0101D9744FEA122101F0FF01F1
:101920004FF0000040EA010119754FEA124101F041
:10193000FF014FF0000040EA010159754FEA1262C1
:101940004FF0000141EA02029A754FF00003FB805C
:101950002AE040F6D053C2F200031A68F988F888EA
:1019600040F6D453C2F2000333F8100001F108012D
:1019700000F0FF0C4FEA410313444FF0000E4EEA13
:101980000C0C83F807C04FEA102398B24FEA4103CA
:1019900013444FF000021146024641EA02021A7255
:1019A000FB8803F10103FB80FB88072BD1D901F0F1
:1019B000AFFA4FF00003FB8013E040F6D053C2F2C1
:1019C00000031968F888FA8841F2C003C2F20003E4
:1019D0009A5C00EB010383F82820FB8803F10103E4
:1019E000FB80FB881F2BE8D941F27802C2F200028B
:1019F00041F26803C2F2000310461946FFF74AFE9F
:101A000040F6D053C2F200031B684FF0000242F0D0
:101A100008021A704FF0000242F002025A7040F6BB
:101A2000D053C2F20003186840F22003C2F2000350
:101A300019880B466FEA83436FEA93439BB29BB2CC
:101A40004FEA03231FFA83FC40F22003C2F2000393
:101A50001A8813466FEA83436FEA93439BB29BB2A3
:101A60004FEA13239BB24CEA03039BB29BB203F0F1
:101A7000FF0C4FF0000E4EEA0C0C80F802C04FEA4B
:101A800013239BB24FF0000C4CEA0303C37001F127
:101A9000010399B240F22003C2F20003198002F15F
:101AA00001039AB240F22003C2F200031A8040F60A
:101AB000D053C2F200031B684FF000021A714FF0BE
:101AC000000242F04A025A7140F6D053C2F20003BB
:101AD0001B6841F27802C2F20002D2E9000102461C
:101AE00002F0FF014FF0000040EA010199714FEA56
:101AF000122101F0FF014FF0000040EA0101D9710D
:101B00004FEA124101F0FF014FF0000040EA0101ED
:101B100019724FEA12624FF0000141EA02025A7252
:101B200040F6D053C2F200031B6841F26802C2F2D1
:101B30000002D2E90001024602F0FF014FF000006E
:101B400040EA010199724FEA122101F0FF014FF0C2
:101B5000000040EA0101D9724FEA124101F0FF0191
:101B60004FF0000040EA010119734FEA12624FF092
:101B7000000141EA02025A7340F21903C2F2000363
:101B80001B78002B3CD040F21C03C2F200034FF044
:101B900001021A7040F6D053C2F200031A6840F2F4
:101BA0001C03C2F200031B7882F8273040F6D053A2
:101BB000C2F200031C6840F2D420C2F200004FF0D1
:101BC0004801FEF765FD034603F0FF024FF00001F8
:101BD00041EA020284F848204FEA13239BB24FF0F7
:101BE000000242EA030384F8493040F64060C2F242
:101BF000000040F2D421C2F2000101F089FD3DE075
:101C000040F21C03C2F200034FF000021A7040F6CB
:101C1000D053C2F200031A6840F21C03C2F2000360
:101C20001B7882F8273040F6D053C2F200031C68BC
:101C300040F2D420C2F200004FF04801FEF728FD28
:101C4000034603F0FF024FF0000141EA020284F86C
:101C500048204FEA13239BB24FF0000242EA0303ED
:101C600084F8493040F6D053C2F200031B684FF0AD
:101C7000030019464FF04A02FEF78EFC40F6186347
:101C8000C2F200031B78184607F10C07BD4690BD51
:101C900090B583B000AF4FF00003FB8040F2D42238
:101CA000C2F2000240F6E453C2F200031A6041F2AD
:101CB0007802C2F2000241F26803C2F20003104649
:101CC0001946FFF7E7FC0CE0FA8840F6F453C2F23D
:101CD00000034FF0000143F82210FB8803F10103D9
:101CE000FB80FB88072BEFD94FF00003FB8041F20C
:101CF0009800C2F2000001F0E5FE40F6E453C2F2A3
:101D000000031A6840F20403C2F200031B789373C5
:101D100040F6E453C2F200031A6841F29803C2F29B
:101D200000031B8803F0FF014FF0000040EA0101AF
:101D300011754FEA13239BB24FF0000141EA0303F0
:101D4000537540F6E453C2F200031A6840F22903C7
:101D5000C2F200031B78D37340F6E453C2F20003CF
:101D60001A6840F22A03C2F200031B78137440F68B
:101D7000E453C2F200031A6840F22B03C2F20003DC
:101D80001B78537440F6E453C2F200031A6841F220
:101D90008403C2F200031B8803F0FF014FF0000030
:101DA00040EA010191744FEA13239BB24FF0000106
:101DB00041EA0303D37440F6E453C2F200031C6803
:101DC00001F0CAFE0346A37540F6E453C2F20003D5
:101DD0001C6801F0D9FE034603F0FF024FF000013A
:101DE00041EA0202E2754FEA132202F0FF024FF0CD
:101DF000000141EA020222764FEA134202F0FF029A
:101E00004FF0000141EA020262764FEA13634FF09D
:101E1000000242EA0303A37640F6E453C2F2000351
:101E20001C6801F0D9FE034603F0FF024FF00001E9
:101E300041EA0202E2764FEA132202F0FF024FF07B
:101E4000000141EA020222774FEA134202F0FF0248
:101E50004FF0000141EA020262774FEA13634FF04C
:101E6000000242EA0303A37740F6E453C2F2000300
:101E70001B6840F22402C2F20002126802F0FF0165
:101E80004FF0000040EA0101D9774FEA122101F03A
:101E9000FF014FF0000040EA010183F820104FEAF3
:101EA000124101F0FF014FF0000040EA010183F808
:101EB00021104FEA12624FF0000141EA020283F85A
:101EC000222040F6E453C2F200031A6840F22803CD
:101ED000C2F200031B7882F8233040F6E453C2F2CA
:101EE00000031C6801F0A0FD034684F8443043E081
:101EF00040F6E453C2F200031B68F888F98840F604
:101F0000F452C2F2000252F8211000F1080201F06E
:101F1000FF0C4FEA820018444FF0000E4EEA0C0C02
:101F200080F804C04FEA112000F0FF0C4FEA820055
:101F300018444FF0000E4EEA0C0C80F805C04FEA32
:101F4000114000F0FF0C4FEA820018444FF0000EE1
:101F50004EEA0C0C80F806C04FEA11604FEA82028C
:101F60001A444FF000031946034641EA0303D371B4
:101F7000FB8803F10103FB8040F22803C2F2000357
:101F80001B78FA889A42B3D34FF00003FB8040F6E7
:101F9000E453C2F200031B684FF0000242F0080253
:101FA0001A704FF0000242F003025A7040F6E453F8
:101FB000C2F20003186840F21E03C2F2000319883F
:101FC0000B466FEA83436FEA93439BB29BB24FEA9F
:101FD00003231FFA83FC40F21E03C2F200031A8897
:101FE00013466FEA83436FEA93439BB29BB24FEA77
:101FF00013239BB24CEA03039BB29BB203F0FF0C8A
:102000004FF0000E4EEA0C0C80F802C04FEA13238A
:102010009BB24FF0000C4CEA0303C37001F10103C3
:1020200099B240F21E03C2F20003198002F10103CB
:102030009AB240F21E03C2F200031A8040F6E45343
:10204000C2F200031B684FF000021A714FF0000249
:1020500042F068025A7140F6E453C2F200031B6872
:1020600041F27802C2F20002D2E90001024602F017
:10207000FF014FF0000040EA010199714FEA12217F
:1020800001F0FF014FF0000040EA0101D9714FEA71
:10209000124101F0FF014FF0000040EA0101197206
:1020A0004FEA12624FF0000141EA02025A7240F612
:1020B000E453C2F200031B6841F26802C2F200025C
:1020C000D2E90001024602F0FF014FF0000040EAB1
:1020D000010199724FEA122101F0FF014FF0000057
:1020E00040EA0101D9724FEA124101F0FF014FF0BD
:1020F000000040EA010119734FEA12624FF000013B
:1021000041EA02025A7300F003FF13E040F6E45381
:10211000C2F200031968F888FA8841F2C003C2F2DB
:1021200000039A5C00EB010383F84620FB8803F16F
:102130000103FB80FB881F2BE8D940F21903C2F290
:1021400000031B78002B3CD040F21B03C2F20003BB
:102150004FF001021A7040F6E453C2F200031A680D
:1021600040F21B03C2F200031B7882F8453040F6B0
:10217000E453C2F200031C6840F2D420C2F2000013
:102180004FF06601FEF784FA034603F0FF024FF0BA
:10219000000141EA020284F866204FEA13239BB251
:1021A0004FF0000242EA030384F8673041F29C00DA
:1021B000C2F2000040F2D421C2F2000101F0A8FAFC
:1021C0003DE040F21B03C2F200034FF000021A7020
:1021D00040F6E453C2F200031A6840F21B03C2F255
:1021E00000031B7882F8453040F6E453C2F2000346
:1021F0001C6840F2D420C2F200004FF06601FEF7E6
:1022000047FA034603F0FF024FF0000141EA0202E1
:1022100084F866204FEA13239BB24FF0000242EA93
:10222000030384F8673040F6E453C2F200031B68EE
:102230004FF0010019464FF06802FEF7ADF907F1C3
:102240000C07BD4690BD00BF80B483B000AF78607E
:10225000396044F20003C4F200035A6B3B681A6011
:1022600044F20003C4F200031A6B7B681A6007F1A2
:102270000C07BD4680BC704798B500AF41F27802AC
:10228000C2F2000241F26803C2F20003104619468E
:10229000FFF7DAFF40F63C63C2F200031B684FF021
:1022A000000242F008021A704FF0000242F00602EB
:1022B0005A7040F63C63C2F200031A6841F25C03B4
:1022C000C2F200031B886FEA83436FEA93439BB219
:1022D0009BB24FEA032399B241F25C03C2F20003BE
:1022E0001B886FEA83436FEA93439BB29BB24FEA2A
:1022F00013239BB241EA03039BB29BB203F0FF019D
:102300004FF0000040EA010191704FEA13239BB2A5
:102310004FF0000141EA0303D37040F63C63C2F280
:1023200000031B684FF000021A714FF0000242F0E8
:102330007E025A7140F63C63C2F200031B6841F210
:102340006802C2F20002D2E90001024602F0FF0177
:102350004FF0000040EA010199724FEA122101F0AA
:10236000FF014FF0000040EA0101D9724FEA12412B
:1023700001F0FF014FF0000040EA010119734FEA3C
:1023800012624FF0000141EA02025A7340F63C63C8
:10239000C2F200031B6841F27802C2F20002D2E9E5
:1023A0000001024602F0FF014FF0000040EA010187
:1023B00099714FEA122101F0FF014FF0000040EA4D
:1023C0000101D9714FEA124101F0FF014FF0000005
:1023D00040EA010119724FEA12624FF0000141EA2E
:1023E00002025A7240F63C63C2F200031C6840F6D7
:1023F0005860C2F200004FF07C01FEF749F9034635
:1024000003F0FF024FF0000141EA020284F87C2051
:102410004FEA13239BB24FF0000242EA030384F811
:102420007D3040F21903C2F200031B78002B0AD062
:1024300040F62460C2F2000040F65861C2F200018A
:1024400001F066F90BE040F63C63C2F200031B6842
:102450004FF0040019464FF07E02FEF79DF840F65B
:102460002063C2F200034FF000021A7041F25C03D5
:10247000C2F200031B8803F101039AB241F25C032C
:10248000C2F200031A8098BD80B500AF41F2780215
:10249000C2F2000241F26803C2F20003104619467C
:1024A000FFF7D2FEFEF790F903461A4641F2740395
:1024B000C2F200031A8040F62063C2F200031B78C8
:1024C000092B01D9FFF7D8FE40F63C63C2F20003A6
:1024D000196840F62063C2F200031B781A461346BF
:1024E0004FEA830313444FEA430313440B4403F1BD
:1024F00016034FF002021A7040F63C63C2F200036A
:10250000186840F62063C2F200031B78194641F2B6
:102510007803C2F20003D3E900230B464FEA83039A
:102520000B444FEA43030B44034403F1080302F056
:10253000FF014FF0000040EA010199724FEA1221B9
:1025400001F0FF014FF0000040EA0101D9724FEAAB
:10255000124101F0FF014FF0000040EA0101197340
:102560004FEA12624FF0000141EA02025A7340F64C
:102570003C63C2F20003186840F62063C2F2000315
:102580001B78194641F26803C2F20003D3E9002325
:102590000B464FEA83030B444FEA43030B440344C7
:1025A00003F1080302F0FF014FF0000040EA0101CF
:1025B00099714FEA122101F0FF014FF0000040EA4B
:1025C0000101D9714FEA124101F0FF014FF0000003
:1025D00040EA010119724FEA12624FF0000141EA2C
:1025E00002025A7240F63C63C2F20003186840F6D9
:1025F0002063C2F200031B781A4641F27403C2F250
:102600000003198813464FEA830313444FEA430338
:102610001344034403F1100301F0FF024FF00000E4
:1026200040EA0202DA714FEA112292B24FF0000141
:1026300041EA02021A7240F62063C2F200031B78DC
:1026400003F10103DAB240F62063C2F200031A700C
:1026500041F2BC00C2F2000002F08CFB80BD00BF62
:1026600080B500AF41F27802C2F2000241F2680385
:10267000C2F2000310461946FFF7E6FDFFF722F805
:1026800003461A4640F65263C2F200031A8040F62F
:102690002063C2F200031B78092B01D9FFF7ECFD80
:1026A00040F63C63C2F20003196840F62063C2F2B0
:1026B00000031B781A4613464FEA830313444FEA7C
:1026C000430313440B4403F116034FF006021A7040
:1026D00040F63C63C2F20003186840F62063C2F281
:1026E00000031B78194641F27803C2F20003D3E9D4
:1026F00000230B464FEA83030B444FEA43030B448A
:10270000034403F1080302F0FF014FF0000040EA28
:10271000010199724FEA122101F0FF014FF0000010
:1027200040EA0101D9724FEA124101F0FF014FF076
:10273000000040EA010119734FEA12624FF00001F4
:1027400041EA02025A7340F63C63C2F20003186881
:1027500040F62063C2F200031B78194641F2680379
:10276000C2F20003D3E900230B464FEA83030B4474
:102770004FEA43030B44034403F1080302F0FF0153
:102780004FF0000040EA010199714FEA122101F077
:10279000FF014FF0000040EA0101D9714FEA1241F8
:1027A00001F0FF014FF0000040EA010119724FEA09
:1027B00012624FF0000141EA02025A7240F63C6395
:1027C000C2F20003186840F62063C2F200031B78CF
:1027D0001A4640F65263C2F20003198813464FEAC4
:1027E000830313444FEA43031344034403F11003E8
:1027F00001F0FF024FF0000040EA0202DA714FEAF6
:10280000112292B24FF0000141EA02021A7240F620
:102810002063C2F200031B7803F10103DAB240F631
:102820002063C2F200031A7041F25800C2F20000A5
:1028300002F0A0FA80BD00BF80B500AF41F278027F
:10284000C2F2000241F26803C2F2000310461946C8
:10285000FFF7FAFCFFF71CFA03461A4641F2E003C1
:10286000C2F200031A8040F62063C2F200031B7814
:10287000092B01D9FFF700FD40F63C63C2F20003CB
:10288000196840F62063C2F200031B781A4613460B
:102890004FEA830313444FEA430313440B4403F109
:1028A00016034FF004021A7040F63C63C2F20003B4
:1028B000186840F62063C2F200031B78194641F203
:1028C0007803C2F20003D3E900230B464FEA8303E7
:1028D0000B444FEA43030B44034403F1080302F0A3
:1028E000FF014FF0000040EA010199724FEA122106
:1028F00001F0FF014FF0000040EA0101D9724FEAF8
:10290000124101F0FF014FF0000040EA010119738C
:102910004FEA12624FF0000141EA02025A7340F698
:102920003C63C2F20003186840F62063C2F2000361
:102930001B78194641F26803C2F20003D3E9002371
:102940000B464FEA83030B444FEA43030B44034413
:1029500003F1080302F0FF014FF0000040EA01011B
:1029600099714FEA122101F0FF014FF0000040EA97
:102970000101D9714FEA124101F0FF014FF000004F
:1029800040EA010119724FEA12624FF0000141EA78
:1029900002025A7240F63C63C2F20003186840F625
:1029A0002063C2F200031B781A4641F2E003C2F230
:1029B0000003198813464FEA830313444FEA430385
:1029C0001344034403F1100301F0FF024FF0000031
:1029D00040EA0202DA714FEA112292B24FF000018E
:1029E00041EA02021A7240F62063C2F200031B7829
:1029F00003F10103DAB240F62063C2F200031A7059
:102A000040F63460C2F2000002F0B4F980BD00BFAD
:102A100080B500AF41F27802C2F2000241F26803D1
:102A2000C2F2000310461946FFF70EFCFEF76AFCDF
:102A300003461A4640F63863C2F200031A8040F695
:102A40002063C2F200031B78092B01D9FFF714FCA5
:102A500040F63C63C2F20003196840F62063C2F2FC
:102A600000031B781A4613464FEA830313444FEAC8
:102A7000430313440B4403F116034FF001021A7091
:102A800040F63C63C2F20003186840F62063C2F2CD
:102A900000031B78194641F27803C2F20003D3E920
:102AA00000230B464FEA83030B444FEA43030B44D6
:102AB000034403F1080302F0FF014FF0000040EA75
:102AC000010199724FEA122101F0FF014FF000005D
:102AD00040EA0101D9724FEA124101F0FF014FF0C3
:102AE000000040EA010119734FEA12624FF0000141
:102AF00041EA02025A7340F63C63C2F200031868CE
:102B000040F62063C2F200031B78194641F26803C5
:102B1000C2F20003D3E900230B464FEA83030B44C0
:102B20004FEA43030B44034403F1080302F0FF019F
:102B30004FF0000040EA010199714FEA122101F0C3
:102B4000FF014FF0000040EA0101D9714FEA124144
:102B500001F0FF014FF0000040EA010119724FEA55
:102B600012624FF0000141EA02025A7240F63C63E1
:102B7000C2F20003186840F62063C2F200031B781B
:102B80001A4640F63863C2F20003198813464FEA2A
:102B9000830313444FEA43031344034403F1100334
:102BA00001F0FF024FF0000040EA0202DA714FEA42
:102BB000112292B24FF0000141EA02021A7240F66D
:102BC0002063C2F200031B7803F10103DAB240F67E
:102BD0002063C2F200031A7041F26000C2F20000EA
:102BE00002F0C8F880BD00BF80B500AFFEF738FD29
:102BF00041F2AC03C2F200039A6841F2AC03C2F2A4
:102C00000003DB689A4208D240F21903C2F20003C3
:102C10001B78002B01D1FEF723FD41F27000C2F2B8
:102C2000000002F0A7F880BD80B582B000AF7860E8
:102C30000B46FB707A6841F28003C2F200031A600F
:102C400041F28003C2F200031A68FB78104619466D
:102C500000F0BAF80346002B26D041F28003C2F2FE
:102C600000031B68184600F0CDF8FB78002B0DD14F
:102C700040F22C03C2F200031B7803F10103DAB225
:102C800040F22C03C2F200031A702BE040F22A0338
:102C9000C2F200031B7803F10103DAB240F22A0307
:102CA000C2F200031A701DE0FB78002B0DD140F238
:102CB0002D03C2F200031B7803F10103DAB240F2E4
:102CC0002D03C2F200031A700CE040F22B03C2F293
:102CD00000031B7803F10103DAB240F22B03C2F2C6
:102CE00000031A7007F10807BD4680BD80B58AB0A1
:102CF00000AF01F073FF4FF002004FF0050101F04B
:102D0000C3FF4FF002004FF0010101F0DBFF4FF075
:102D1000000387F8273005E097F8273003F1010317
:102D200087F8273097F82730312BF5D94FF002007C
:102D30004FF0000101F0C6FFE3E700BF80B500AF30
:102D400040F2D400C2F2000002F0B8FC80BD00BF27
:102D500080B500AF40F24010C2F2000002F0AEFCBD
:102D600080BD00BF80B500AF40F6E840C2F2000071
:102D700002F0A4FC80BD00BF80B500AF40F264202B
:102D8000C2F2000002F09AFC80BD00BF80B500AF27
:102D9000FFF77AFB80BD00BF80B500AFFFF74CFDA9
:102DA00080BD00BF80B500AFFFF732FE80BD00BF21
:102DB00080B500AFFFF718FF80BD00BF80B500AF42
:102DC000FFF74EFC80BD00BF80B483B000AF7860D9
:102DD0000B46FB707B681B7803F1FF33002B08DB8D
:102DE0007B681B7803F1FF33052B02DC4FF00103F6
:102DF00001E04FF00003184607F10C07BD4680BC08
:102E0000704700BF80B582B000AF78607B681B78E8
:102E100003F1FF3141F2E402C2F200020B464FEA35
:102E2000C303C1EB03031344DA7819794FEA012194
:102E300041EA020259794FEA014141EA02029B79D3
:102E40004FEA036343EA02037868984707F10807EB
:102E5000BD4680BD80B584B000AF4FF000037B81DC
:102E60004FF001033B814FF0FF03BB8045F20C00A4
:102E7000C5F2000000F0F2FE0346BB8145F21000EF
:102E8000C5F2000000F0EAFE0346FB8140F21903A0
:102E9000C2F200034FF001021A704FF0010001F07E
:102EA00049FF07F11007BD4680BD00BF80B58AB05D
:102EB00000AF4FF0000387F8273040F23503C2F22D
:102EC00000031B7803F10103DAB240F23503C2F2CA
:102ED00000031A7040F23503C2F200031B78052B81
:102EE00003D14FF003033B7102E04FF001033B714C
:102EF00007F1040318464FF00001FFF795FE4FF06D
:102F0000030001F017FF07F12807BD4680BD00BF91
:102F100090B583B000AF4FF00003FB7111E0FC7976
:102F20004CF20C00C5F2000000F0B0FE03461A4659
:102F300041F2C003C2F200031A55FB7903F1010309
:102F4000FB71FB791F2BEAD907F10C07BD4690BD39
:102F500080B586B002AFF8607A600A46FA72FB70FC
:102F600041F21413C2F200034FF000021A702FE076
:102F7000FB78FA7A4FF000010091F86811467A6800
:102F800002F0ECF940F2D400C2F200004FF0000170
:102F900002F060FB03461A4640F61863C2F20003D3
:102FA0001A7040F61863C2F200031B78002B02D19E
:102FB0004FF0000318E041F21413C2F200031B7833
:102FC00003F10103DAB241F21413C2F200031A70E2
:102FD00041F21413C2F200031B78092BC8D941F245
:102FE0001413C2F200031B78184607F11007BD4600
:102FF00080BD00BF80B586B002AFF8607A600A4637
:10300000FA72FB7041F21413C2F200034FF0000297
:103010001A702FE0FB78FA7A4FF000010091F868FF
:1030200011467A6802F00CFA40F2D400C2F20000B5
:103030004FF0000102F00EFB03461A4640F61863FB
:10304000C2F200031A7040F61863C2F200031B7844
:10305000002B02D14FF0000318E041F21413C2F22A
:1030600000031B7803F10103DAB241F21413C2F238
:1030700000031A7041F21413C2F200031B78092BEB
:10308000C8D941F21413C2F200031B78184607F1A5
:103090001007BD4680BD00BF80B584B000AFF860AA
:1030A0007B600B46FB721346BB72FA7A07F10A0388
:1030B000F86811461A464FF00103FFF749FF03462F
:1030C000092B02D94FF001030FE0FB7AF86819468B
:1030D0007A684FF00203FFF78DFF0346092B02D9F0
:1030E0004FF0010301E04FF00003184607F110070D
:1030F000BD4680BD80B584B000AFF8607B600B46F4
:10310000FB721346BB7241F21013C2F200034FF080
:1031100000021A7041F21013C2F200034FF00002D5
:103120005A7041F21213C2F200034FF000021A80EB
:10313000BB7A4FEA4303DBB2FA7AF86811461A46C3
:1031400041F21013C2F20003FFF7A6FF0346002B63
:103150001AD141F21013C2F200031B784FEA032385
:103160009AB241F21013C2F200035B7842EA030301
:103170009BB29AB241F21213C2F200031A807B682A
:103180004FF000021A700AE07B684FF001021A70DB
:1031900041F21213C2F200034FF000021A8041F212
:1031A0001213C2F200031B88184607F11007BD4630
:1031B00080BD00BF80B584B000AFF8607B600B4677
:1031C000FB721346BB7241F21013C2F200034FF0C0
:1031D00000021A7041F21013C2F200034FF0000215
:1031E0005A7041F21213C2F200034FF000021A802B
:1031F000BB7A4FEA4303DBB203F1FF33DBB2FA7A67
:10320000F86811461A4641F21013C2F20003FFF7A4
:1032100043FF0346002B1AD141F21013C2F2000300
:103220001B784FEA03239AB241F21013C2F2000353
:103230005B7842EA03039BB29AB241F21213C2F2E4
:1032400000031A807B684FF000021A700AE07B6866
:103250004FF001021A7041F21213C2F200034FF054
:1032600000021A8041F21213C2F200031B881846B2
:1032700007F11007BD4680BD80B58CB004AFF86083
:103280007B600B46FB721346BB72BB7A3B753B7D82
:1032900043F00803DBB23B753B7D4FEA0313DBB21F
:1032A0003B75FA7A07F1140307F1180100914FF00A
:1032B000020101914FF000010291F86811461A468F
:1032C0004FF0010302F02EF9F8684FF0000102F010
:1032D000C1F903467B777B7F002B04D07B684FF0DE
:1032E00001021A7012E03B7E4FEA03239AB27B7E02
:1032F00042EA03039BB2FB83FB8B4FEA03534FEA83
:103300001353FB837B684FF000021A70FB8B184647
:1033100007F12007BD4680BD80B58CB002AF786054
:1033200039607B684FEA1363D8B27B684FEA134376
:10333000D9B27B684FEA1323DAB27B68DBB24FF075
:10334000580C87F818C07876B976FA763B774FF044
:10335000FF337B774FF0FF33BB774FF000033B74B5
:103360004FF000037B744FF00003BB744FF0000379
:10337000FB744FF000033B754FF00003FB776FF0D9
:103380000103FB734FF000033B624FF000037B62CD
:1033900041F2A010C2F200004FF0FF0101F02CF842
:1033A00041F2A010C2F200004FF0000100F058FFFF
:1033B00041F2A010C2F200004FF0FF0101F01CF832
:1033C00007F1180207F110034FF00101009141F2DB
:1033D000A010C2F2000011464FF0070201F06CF895
:1033E00041F2A010C2F200004FF0FF0101F004F81A
:1033F0003B6A03F101033B623B7C002B77D107F171
:103400000F0207F110034FF00101009141F2A010EB
:10341000C2F2000011464FF0010201F04DF807F131
:1034200010034FF00002009241F2A010C2F200001F
:1034300039684FF4007201F03FF817E041F2A01034
:10344000C2F200004FF0FF0100F0D6FF0346DBB2EE
:103450003B743B7C03F01F03052B03D14FF00103AA
:10346000FB7706E07B6A03F101037B627B6A632BD7
:10347000E4D9FB7F012B3FD14FF00003FB774FF0E6
:1034800000037B622FE041F2A010C2F200004FF077
:10349000FF0100F0B1FF0346DBB23B743B7C002B25
:1034A0001DD04FF00103FB7741F2A010C2F20000E3
:1034B0004FF0FF0100F0A0FF41F2A010C2F20000A7
:1034C0004FF0000100F050FF41F2A010C2F20000E6
:1034D0004FF0FF0100F090FF4FF0000335E07B6AF2
:1034E00003F101037B627B6A632BCCD905E03B6A65
:1034F000FE2B7FF64DAF00E000BF3B6AFE2B12D9DA
:1035000041F2A010C2F200004FF0000100F02CFFC9
:1035100041F2A010C2F200004FF0FF0100F06CFF7A
:103520004FF0010311E041F2A010C2F200004FF091
:10353000000100F019FF41F2A010C2F200004FF0AC
:10354000FF0100F059FF4FF00103184607F128076B
:10355000BD4680BD80B58CB002AF786039607B68B5
:103560004FEA1363D8B27B684FEA1343D9B27B6842
:103570004FEA1323DAB27B68DBB24FF0510C87F8C5
:1035800018C07876B976FA763B774FF0FF337B77C1
:103590004FF0FF33BB774FF000033B744FF0000355
:1035A0007B744FF00003BB744FF00003FB744FF0CB
:1035B00000033B754FF00003FB774FF0FF33FB73C5
:1035C0004FF000033B624FF00003FB8441F2A01078
:1035D000C2F200004FF0FF0100F00EFF41F2A01018
:1035E000C2F200004FF0000100F03AFE41F2A010DC
:1035F000C2F200004FF0FF0100F0FEFE07F11802DA
:1036000007F110034FF00101009141F2A010C2F246
:10361000000011464FF0070200F04EFF56E041F265
:10362000A010C2F200004FF0FF0100F0E5FE0346DB
:10363000DBB23B74FB8C03F10103FB843B7CFE2B70
:1036400044D141F2A010C2F200004FF0FF0100F09F
:10365000D3FE07F10F034FF40072009241F2A01065
:10366000C2F2000019464FF000023B6800F024FF50
:1036700041F2A010C2F200004FF0FF0100F0BCFECA
:1036800041F2A010C2F200004FF0FF0100F0B4FEC2
:103690004FF00103FB7741F2A010C2F200004FF09F
:1036A000FF0100F0A9FE41F2A010C2F200004FF0AD
:1036B000000100F059FE41F2A010C2F200004FF0EC
:1036C000FF0100F099FE4FF000031CE0FB8CF92B8A
:1036D000A5D93B6A03F101033B623B6A632B7FF68A
:1036E00075AF41F2A010C2F200004FF0000100F0EF
:1036F0003BFE41F2A010C2F200004FF0FF0100F0CB
:103700007BFE4FF00103184607F12807BD4680BD38
:1037100080B582B000AF786039607B68DA687B681A
:103720005B689A4205D27B68DA687B681B689A42BC
:1037300002D24FF0020313E07B68DB681846396859
:10374000FFF7EAFD0346002B08D17B68DB6803F135
:1037500001027B68DA604FF0000301E04FF00103E3
:10376000184607F10807BD4680BD00BF80B582B08E
:1037700000AF786039607B689A687B68DB689A4242
:1037800005D27B689A687B681B689A4202D24FF028
:10379000020313E07B689B6818463968FFF7DAFE7E
:1037A0000346002B08D17B689B6803F101027B680C
:1037B0009A604FF0000301E04FF00103184607F153
:1037C0000807BD4680BD00BF80B584B002AF7860F9
:1037D000396040F20503C2F200031B784FF000028B
:1037E000009278684FF032013A6801F029FE78685B
:1037F0004FF0000101F02EFF03461A4640F6186311
:10380000C2F200031A7040F61863C2F200031B787C
:10381000184607F10807BD4680BD00BF80B586B0D9
:1038200002AF786039604FF00103FB734FF0010382
:103830003B73FB7B07F10C024FF0010100917868AC
:103840004FF0320101F08AFD78684FF0000101F07D
:1038500001FF03461A4640F61863C2F200031A70CD
:1038600040F20503C2F200031B784FF00002009201
:1038700078684FF032013A6801F0E2FD78684FF065
:10388000000101F0E7FE03461A4640F61863C2F253
:1038900000031A7040F61863C2F200031B78184642
:1038A00007F11007BD4680BD90B585B000AF7860C8
:1038B00039604FF00003FB732EE0FA7B3B6802EBAC
:1038C0000304FB7B40F6E840C2F200004FF0230106
:1038D0001A4641F21613C2F20003FFF7CDFC03466D
:1038E000DBB2237041F21713C2F200031B784FEAD8
:1038F0004303DAB241F21613C2F200031B7842EA24
:103900000303DBB2DAB241F21713C2F200031A70FA
:10391000FB7B03F10103FB73FB7B072BCDD907F185
:103920001407BD4690BD00BF80B588B002AFB96036
:103930007A603B600346FB73BB684FEA1363D8B2FF
:10394000BB684FEA1343D9B2BB684FEA1323DAB21C
:10395000BB68DBB297F80FC087F810C07874B974F1
:10396000FA743B7541F21813C2F200031B68184643
:103970004FF0000101F018FA41F21813C2F20003EF
:103980001A683B6803F1020107F110030091104629
:1039900019464FF005027B6800F012F841F2181347
:1039A000C2F200031B6818464FF0000101F050FA04
:1039B0007B6803F10203184607F11807BD4680BD76
:1039C00080B588B002AFF860B9607A603B604FF0B4
:1039D00000033B747B689AB23B6A99B207F110030B
:1039E0000091F868B96801F089FA4FF00003FB8292
:1039F00011E0FA8A3B6A9A4209D2FA8A3B68134478
:103A0000FA8A07F118010A4412F8082C1A70FB8A86
:103A100003F10103FB82FA8A40F2E7339A42E8D9C4
:103A200007F11807BD4680BD80B582B000AF4FF0EA
:103A300000033B704FF000037B704FF00003BB703E
:103A40004FF00003FB704FF000033B714FF0000399
:103A50007B714FF00003BB714FF00003FB7114E06A
:103A60003B464FF0780044F2B421C4F200011A46FC
:103A70004FF00403FFF758FF3B78E22B17D03B7859
:103A8000A22B14D03B78002B11D03B78E42B0ED026
:103A90003B78A42B0BD0FB79632B8CBF0023012335
:103AA000DBB2FA7902F10102FA71002BD8D13B792D
:103AB00003F03F03BB71BB79184607F10807BD4609
:103AC00080BD00BF80B584B000AF78604FF00003C8
:103AD0003B720CE007F108034FF0780040F23851D8
:103AE000C2F200011A464FF00403FFF71DFF3B7AB4
:103AF000002BEFD0BB7A03F007034FEA03239AB2FF
:103B0000FB7A13449AB27B681A807B681B88C3F1E6
:103B100000039BB29AB27B681A807B681B884FEACD
:103B200003534FEA13537A6813807B681B88B3F5FD
:103B3000006F06D97B681B88A3F500639AB27B6887
:103B40001A807B681B884FEA93039AB27B681A80BD
:103B500007F11007BD4680BD80B582B000AF3B467F
:103B60004FF0780040F20451C2F200011A464FF0C3
:103B70000403FFF7D9FEFB78FB71FB79184607F1C8
:103B80000807BD4680BD00BF80B584B000AF07F117
:103B900004034FF0780040F21451C2F200011A46BB
:103BA0004FF00403FFF7C0FEBB794FEA0362FB79D5
:103BB0004FEA034342EA03023B7A4FEA032342EA15
:103BC00003027B7A42EA0303FB60FB68184607F1B5
:103BD0001007BD4680BD00BF80B584B000AF07F1BF
:103BE00004034FF0780040F2EC21C2F200011A46C3
:103BF0004FF00403FFF798FEBB794FEA0362FB79AD
:103C00004FEA034342EA03023B7A4FEA032342EAC4
:103C100003027B7A42EA0303FB60FB68184607F164
:103C20001007BD4680BD00BF016070470068704747
:103C30000EB503FA01F303EA020301686FEA020218
:103C400001EA020141EA030101600EBD006800EAD9
:103C5000020020FA01F07047018070470088704729
:103C60000EB503FA01F303EA020301886FEA0202C8
:103C700001EA020141EA030101800EBD008800EA69
:103C8000020020FA01F07047017070470078704719
:103C90000EB503FA01F303EA020301786FEA0202A8
:103CA00001EA020141EA030101700EBD007800EA59
:103CB000020020FA01F0704780B483B000AF786052
:103CC0000B46FB707B6803F070427B6823F07F43F8
:103CD00023F470034FEA43131A44FB784FEA83033B
:103CE000134403F100731B68DBB2184607F10C079D
:103CF000BD4680BC704700BF80B489B000AFF8609B
:103D0000B9607A604FF000033B61FA6841F26013DA
:103D1000C2F200039A4207D0FA6841F22013C2F2BD
:103D200000039A4200D000BEBB68002B00D100BE49
:103D30007B68002B00D100BEFA6841F26013C2F22A
:103D400000039A4206D0FA6841F22013C2F200033F
:103D50009A423DD1BB68002B3AD07B68002B37D00C
:103D6000FB681B681B7DFB76FB685A7BFB7E42EA87
:103D70000303DAB2FB685A73FB7E03F02003002BC7
:103D800023D04FF01003FB617B680F2B01D87B68B9
:103D9000FB614FF000037B610EE0FB681B68B968B4
:103DA0003A690A4412781A703B6903F101033B61D6
:103DB0007B6903F101037B617A69FB699A42ECD369
:103DC0007A687B69C3EB02037B607B68002BC7D1F9
:103DD00007F12407BD4680BC704700BF684620F04D
:103DE00007018D4689B500AF41F26010C2F20000B4
:103DF00000F018F8BD46BDE889408546704700BF11
:103E0000684620F007018D4689B500AF41F22010C9
:103E1000C2F2000000F006F8BD46BDE889408546C4
:103E2000704700BF80B584B000AF78607A6841F217
:103E30006013C2F200039A4207D07A6841F220135D
:103E4000C2F200039A4200D000BE7A6841F26013C9
:103E5000C2F200039A4207D07A6841F22013C2F2FC
:103E600000039A4240F0EF807B681B681B7ADBB24C
:103E700003F00F03FB73FB7B0C2B00F2D78001A236
:103E800052F823F0B93E00002D400000D73E00005C
:103E9000313F0000F53E00002D400000133F0000C0
:103EA0002D4000002D4000002D4000002D4000005E
:103EB0002D400000F53E00007B689B6A002B00D17E
:103EC00000BE7B689B6A002B00F0B2807B689B6A17
:103ED00078689847B7E07B685B6A002B00D100BE2A
:103EE0007B685B6A002B00F0A5807B685B6A786862
:103EF0009847A8E07B681B6A002B00D100BE7B6856
:103F00001B6A002B00F098807B681B6A78689847D2
:103F100099E07B68DB69002B00D100BE7B68DB6920
:103F2000002B00F08B807B68DB69786898478AE01B
:103F30007B681B6803F1280318464FF00001FFF768
:103F4000BBFE0346002B0CD07B68DB6A002B00D144
:103F500000BE7B68DB6A002B03D07B68DB6A786875
:103F600098477B681B6803F1280318464FF001014E
:103F7000FFF7A2FE0346002B0CD07B681B6B002BC7
:103F800000D100BE7B681B6B002B03D07B681B6BD2
:103F9000786898477B681B6803F1280318464FF040
:103FA0000201FFF789FE0346002B0CD07B685B6B98
:103FB000002B00D100BE7B685B6B002B03D07B68BD
:103FC0005B6B786898477B681B6803F12803184689
:103FD0004FF00301FFF770FE0346002B0CD07B6807
:103FE0009B6B002B00D100BE7B689B6B002B03D02A
:103FF0007B689B6B786898477B681B6803F1280394
:1040000018464FF00401FFF757FE0346002B17D068
:104010007B68DB6B002B00D100BE7B68DB6B002B69
:1040200010D07B68DB6B786898470CE000BE0AE034
:1040300000BF08E000BF06E000BF04E000BF02E0F0
:1040400000BF00E000BF07F11007BD4680BD00BF04
:1040500080B483B000AF0346FB714EF20013CEF282
:10406000000397F907204FEA5212F97901F01F0176
:104070004FF0010000FA01F143F8221007F10C079C
:10408000BD4680BC704700BF80B483B000AF03461C
:10409000FB714EF20013CEF2000397F907204FEAAE
:1040A0005212F97901F01F014FF0010000FA01F1FD
:1040B00002F1200243F8221007F10C07BD4680BC34
:1040C000704700BF80B483B000AF0346FB714EF26F
:1040D0000013CEF2000397F907204FEA5212F97944
:1040E00001F01F014FF0010000FA01F102F160023E
:1040F00043F8221007F10C07BD4680BC704700BF93
:1041000080B58AB000AF78607B681B681B68FB6075
:104110007B681B689B693B617B681B685B687B6194
:104120007B681B689B6ABB617B681B681B6BFB61C0
:104130007B681B685B6B3B627B681B68DB697B622F
:104140007A6841F22423C2F200039A422ED17A689F
:1041500041F20003C4F2000313607B684FF00202D7
:104160001A7148F20003C4F2030348F20002C4F2D9
:104170000302926C42F400729A644FF00200FFF75F
:10418000A1FF48F20003C4F2030348F20002C4F2A4
:104190000302926C22F400729A647B681B687A684E
:1041A0001268126822F000421A602DE07A6841F22B
:1041B0000003C4F2010313607B684FF003021A711D
:1041C00048F20003C4F2030348F20002C4F20302FF
:1041D000926C42F480629A644FF00300FFF772FF22
:1041E00048F20003C4F2030348F20002C4F20302DF
:1041F000926C22F480629A647B681B687A68126809
:10420000126822F000421A60FB6823F00103FB6091
:104210007B681B68FA681A607B681B683A699A6158
:104220007B681B687A695A607B681B687A681268C9
:10423000126842F001021A607B681B68BA699A62D0
:104240007B681B68FA691A637B681B683A6A5A6361
:104250007B681B687A6ADA6107F12807BD4680BD72
:1042600080B584B000AF78600B46FB707A6841F28D
:104270002423C2F200039A4207D07A6841F2A013C5
:10428000C2F200039A4200D000BE7B681B681B6824
:1042900003F00203002B00D100BEFB787A6803F123
:1042A00006034FEAC30313445B68B3F1FF3F00D139
:1042B00000BE7B681B795BB21846FFF7E5FE7B68A2
:1042C0001B689B6803F00403FB60FB68002B02D0B3
:1042D0007868FFF715FF7B681B687A6812681268B8
:1042E00022F001021A607B681A68FB78796803F192
:1042F00006034FEAC3030B445B6813607B681A68CC
:10430000FB78796803F106034FEAC3030B445B7A39
:1043100093617B681A68FB78796803F106034FEABA
:10432000C3030B441B7A53607B681B687A6812686E
:10433000126842F001021A607B681B687A68126892
:10434000D169FA784FF0010000FA02F241EA020264
:10435000DA617B681B795BB21846FFF779FE07F1DB
:104360001007BD4680BD00BF80B584B000AF786047
:104370000B46FB707A6841F22423C2F200039A4292
:1043800007D07A6841F2A013C2F200039A4200D02B
:1043900000BE7B681B681B6803F00203002B00D182
:1043A00000BE7B681B795BB21846FFF76DFE7B6829
:1043B0001B689B6803F00403FB60FB68002B02D0C2
:1043C0007868FFF79DFE7B681B687A681268D16980
:1043D000FA784FF0010000FA02F26FEA020201EAF5
:1043E0000202DA617B681B795BB21846FFF730FE88
:1043F00007F11007BD4680BD80B485B000AF78607E
:1044000039607A6841F22423C2F200039A4207D04D
:104410007A6841F2A013C2F200039A4200D000BEB3
:104420007B681B681B6803F00203002B00D100BEF1
:104430007B681A687B681B68196840F2FF03CFF637
:10444000007301EA030343F4807313607B681B6805
:104450007A681268D26A42F00C02DA627B681B68E2
:104460003A685A617B681B689B6803F00103FB6034
:1044700005E07B681B689B6803F00103FB60FB6839
:10448000002BF6D07B681B689B6803F00203BB60BF
:1044900005E07B681B689B6803F00203BB60BB6898
:1044A000002BF6D07B681B681B69184607F11407C0
:1044B000BD4680BC704700BF80B58EB000AFF860CD
:1044C000B9603B601346FB804FF000037B834FF0E5
:1044D0000003FB84FA6841F22423C2F200039A42EB
:1044E00007D0FA6841F2A013C2F200039A4200D04A
:1044F00000BEFB681B681B6803F00203002B00D1A1
:1045000000BEFA88B7F840301344FB86FB8E002BC0
:1045100003D14FF001033B6201E0FB8E3B62FB687D
:104520001B68FA681268D26A42F00C02DA62FB6811
:104530001B689B6803F00403FB62FB6A002B02D03C
:10454000F868FFF7DDFDFB681B68FA6812681268FF
:1045500022F001021A60FB681968FB681B681B687F
:1045600040F2FF02CFF6007203EA02023B6A4FEA12
:1045700003204FF60073C0F2FF0300EA030342EA90
:1045800003030B60FB681B684FF008025A60FB686E
:104590001B68FA681268126842F001021A60FB6830
:1045A0001B689B6803F040033B6309E0FB681B68E2
:1045B0001B697B61FB681B689B6803F040033B63DE
:1045C0003B6B002BF2D04FF00003BB834FF0000396
:1045D000FB83BA8BFB889A420FD2FB681B68B98BAE
:1045E000BA680A4412785A61BB8B03F10103BB839A
:1045F000FB8C03F10103FB846AE0BA8BFB8E9A42C9
:1046000066D2FB681B684FF000025A61BB8B03F156
:104610000103BB83FB8C03F10103FB8458E0FB68BF
:104620001B689B6803F040033B633B6B002B1ED170
:10463000FB681B681B697B617A8BFB889A420ED3EF
:10464000FA8BB7F840309A4205D2FA8B3B68134494
:104650007A69D2B21A70FB8B03F10103FB837B8B67
:1046600003F101037B83FB8C03F1FF33FB84FB68C5
:104670001B689B6803F48073BB62BB6A002B27D165
:10468000FB8C032B24D8BA8BFB889A420FD2FB6891
:104690001B68B98BBA680A4412785A61BB8B03F164
:1046A0000103BB83FB8C03F10103FB8410E0BA8B95
:1046B000FB8E9A420CD2FB681B684FF000025A61D5
:1046C000BB8B03F10103BB83FB8C03F10103FB8470
:1046D0007A8BFB8E9A42A2D307F13807BD4680BD84
:1046E00080B485B000AF78604FF00003FB600EE04F
:1046F0007B681B687A6891687A6812690A44127844
:104700005A617B681B6903F101027B681A617B684F
:104710001B689B6803F48073002B05D17B681A69C2
:104720007B68DB689A42E3D37B681A697B68DB6845
:104730009A421CD30EE07B681B687A6851697A68DC
:10474000D2690A4412785A617B68DB6903F101027D
:104750007B68DA617B681B689B6803F48073002BBD
:1047600005D17B68DA697B689B699A42E3D37B68F1
:104770005B6A002B1FD07B681A697B68DB689A42F2
:1047800019D37B68DA697B689B699A4213D308E086
:104790007B681B684FF000025A61FB6803F101035C
:1047A000FB607B681B689B6803F48073002B02D15D
:1047B000FB681F2BECD907F11407BD4680BC70477E
:1047C00080B584B000AF78607B6893F88030022BAE
:1047D00015D10CE07B681B681B69FB607B685B6F15
:1047E000002B04D07B685B6FFA68104698477B68A3
:1047F0001B689B6803F04003002BEBD032E07B6822
:1048000093F88030012B25D117E07B681B681B696A
:10481000FB607B681A6B7B68DB6A9A4207D27B6815
:104820009A6A7B681B6B1344FA68D2B21A707B6871
:104830001B6B03F101027B681A637B681B689B6832
:1048400003F04003002BE0D00CE07B681B681B6981
:10485000FB6000E000BF7B681B689B6803F04003BF
:10486000002BF2D007F11007BD4680BD80B586B0A1
:1048700000AF78607B681B6803F120033B617A68B6
:1048800041F22423C2F200039A4207D07A6841F22F
:10489000A013C2F200039A4200D000BE3B691B681D
:1048A00003F00203002B52D07B6893F88030022B78
:1048B00015D10CE07B681B681B69FB607B685B6F34
:1048C000002B04D07B685B6FFA68104698477B68C2
:1048D0001B689B6803F04003002BEBD032E07B6841
:1048E00093F88030012B25D117E07B681B681B698A
:1048F000FB607B681A6B7B68DB6A9A4207D27B6835
:104900009A6A7B681B6B1344FA68D2B21A707B6890
:104910001B6B03F101027B681A637B681B689B6851
:1049200003F04003002BE0D00CE07B681B681B69A0
:10493000FB6000E000BF7B681B689B6803F04003DE
:10494000002BF2D07B681B684FF00202DA603B69F3
:104950001B6803F00103DBB2002B12D07B6893F8D5
:104960008030022B05D17B681B687A68926F5A6190
:1049700002E07868FFF7B4FE7B681B684FF0010225
:10498000DA603B691B6803F01003002B23D07868C2
:10499000FFF716FF7B681B6A002B0BD07B681B6A36
:1049A0007A68916A7A68126B084611469847786867
:1049B000FFF796FE7B684FF001025A627B681B6826
:1049C0007A681268926A22F010029A627B681B6809
:1049D0004FF01002DA603B691B6803F00403002B00
:1049E0000FD07B681B687A681268D26A42F00402B2
:1049F000DA627868FFF784FB7B681B684FF004027B
:104A0000DA603B691B6803F00803002B31D07B6838
:104A10001B687A681268D26A42F00802DA627B6820
:104A200093F88030022B13D17B681A687B681B686F
:104A3000196840F2FF03CFF6007301EA030343F461
:104A4000807313607B681B687A68926F5A610BE011
:104A50007B6893F88030012B06D17B684FF0000211
:104A60001A617868FFF73CFE7B681B684FF008020C
:104A7000DA603B691B6803F02003002B49D078689B
:104A8000FFF79EFE7B681B6B7B617B681B6A002BBC
:104A90001CD07B684FF000025A627B684FF0000226
:104AA0005A617B684FF000029A617B684FF0000208
:104AB000DA617B681B684FF01002DA607B681B6864
:104AC0007A681268926A42F010029A627B684FF02C
:104AD00000021A617B681B687A681268D26A42F029
:104AE0000C02DA627868FFF7FBFD7B684FF000028A
:104AF0001A637B68DB6F002B06D07B68DB6F7A68FC
:104B0000926A1046796998477B681B684FF02002CB
:104B1000DA6007F11807BD4680BD00BF684620F087
:104B200007018D4689B500AF41F22420C2F2000092
:104B3000FFF79CFEBD46BDE889408546704700BF33
:104B4000684620F007018D4689B500AF41F2A010FC
:104B5000C2F20000FFF78AFEBD46BDE889408546E7
:104B6000704700BF80B483B000AF0346FB714EF2C4
:104B70000013CEF2000397F907204FEA5212F97999
:104B800001F01F014FF0010000FA01F102F12002D3
:104B900043F8221007F10C07BD4680BC704700BFE8
:104BA00080B483B000AF0346FB714EF20013CEF227
:104BB000000397F907204FEA5212F97901F01F011B
:104BC0004FF0010000FA01F102F1600243F82210F7
:104BD00007F10C07BD4680BC704700BF80B582B0AE
:104BE00000AF48F20003C4F2030348F20002C4F22B
:104BF0000302926C42F480129A6448F20003C4F2F9
:104C0000030348F20002C4F20302926C42F0F07215
:104C10009A644FF000037B6017E07A6846F63443ED
:104C2000C0F200039B5C5BB21846FFF79BFF7A68FB
:104C300046F63443C0F200039B5C5BB21846FFF7B4
:104C4000AFFF7B6803F101037B607B681F2BE4D916
:104C500048F20003C4F2030348F20002C4F2030264
:104C6000926C22F0F0729A6448F20003C4F20303DB
:104C700048F20002C4F20302926C22F480129A6499
:104C800007F10807BD4680BD80B485B000AF03467C
:104C90003960FB71FB79FB60FB681F2B00D900BEFC
:104CA000FB681F2B08D8FA6846F6B433C0F200033D
:104CB00053F822303A681A6007F11407BD4680BCE9
:104CC000704700BF80B485B000AF02460B46FA7152
:104CD000BB71FB79FB60FB681F2B00D900BEFB6832
:104CE0001F2B22D843F20003C4F20103D3F888300B
:104CF000BB60FB684FF0010202FA03F36FEA0303A3
:104D0000BA6802EA0303BB60BB7903F00102FB68E7
:104D100002FA03F3BA6842EA0303BB6043F20003FA
:104D2000C4F20103BA68C3F8882007F11407BD462E
:104D300080BC704780B485B000AF0346FB71FB793F
:104D4000FB60FB681F2B00D900BEFB681F2B0AD835
:104D500043F20003C4F20103FA684FF0010101FAC3
:104D600002F2C3F88020BFF34F8F07F11407BD464E
:104D700080BC704780B582B000AF786040F23803E5
:104D8000C2F200031B687A689A4200D100BE7B68B9
:104D90001B6803F1100318464FF00101FEF744FFB2
:104DA00007F10807BD4680BD80B584B000AF7860CC
:104DB0000B46FB704FF00003FB737B68002B00D1A8
:104DC00000BEFB78072B00D900BE7B68002B3AD0D1
:104DD000FB78072B37D87B681B6818464FF001011A
:104DE0004FF00202FEF762FF0346002B2BD07B68D8
:104DF0001B6803F1200318464FF004014FF0100226
:104E0000FEF754FF0346012B02D1786800F076FAD2
:104E10007B681B6803F124031846FEF737FF03463F
:104E20001A46FB784FF0010101FA03F3DBB242EAC4
:104E30000303FB737B681B6803F12402FB7B1046B2
:104E40001946FEF721FF07F11007BD4680BD00BFE0
:104E500080B584B000AF78600B46FB704FF0000364
:104E6000FB737B68002B00D100BEFB78072B00D9B9
:104E700000BE7B68002B3DD0FB78072B3AD87B68BF
:104E80001B6818464FF001014FF00202FEF70EFFBB
:104E90000346002B2ED07B681B6803F120031846C5
:104EA0004FF004014FF01002FEF700FF0346012B04
:104EB00002D1786800F022FA7B681B6803F12403B2
:104EC0001846FEF7E3FE03461A46FB784FF0010151
:104ED00001FA03F3DBB26FEA0303DBB202EA030376
:104EE000FB737B681B6803F12402FB7B10461946A9
:104EF000FEF7CAFE07F11007BD4680BD90B589B028
:104F000000AFF860B9603B601346FB804FF00003D0
:104F10007B614FF000033B834FF000037B834FF036
:104F20000003BB834FF00003FB83FB68002B00D121
:104F300000BEFB68002B00F0DD81FB681B68184693
:104F40004FF001014FF00202FEF7B0FE0346002BC6
:104F500000F0D081FA883B8E1344002B00F0CA8108
:104F6000FA883B8E134403F1FF337B61FB681B68B7
:104F700003F11C0318464FF00301FEF785FEFB68A2
:104F80001B6803F1200318464FF004014FF0100294
:104F9000FEF78CFE0346012B02D1F86800F0AEF953
:104FA000FB681B6818464FF000014FF001024FF0FC
:104FB0000003FEF76DFE21E07A8BFB889A420CD24B
:104FC000FB681B6803F10C02798BBB680B441B78F0
:104FD00010461946FEF728FE08E0FB681B6803F13F
:104FE0000C0318464FF00001FEF71EFEFB8B03F189
:104FF0000103FB837B8B03F101037B837A8B7B694A
:105000009A4205D2FB68B3F844307A8B9A42D3D3E4
:105010007A8B7B699A4227D1FB68B3F844307A8B4C
:105020009A4221D27A8BFB889A420CD2FB681B6889
:1050300003F12802798BBB680B441B781046194694
:10504000FEF7F2FD08E0FB681B6803F12803184631
:105050004FF00001FEF7E8FDFB8B03F10103FB833A
:105060007B8B03F101037B83FB681B6818464FF0C1
:1050700000014FF001024FF00103FEF709FE47E087
:10508000FB68B3F84430FA8B9A4224D27A8B7B695E
:105090009A420CD1FB681B6803F12802798BBB682C
:1050A0000B441B7810461946FEF7BEFD0BE0FB686B
:1050B0001B6803F10C02798BBB680B441B7810460C
:1050C0001946FEF7B1FD7B8B03F101037B83FB8B5C
:1050D00003F10103FB83FB681B6803F120031846FF
:1050E0004FF002014FF00402FEF7E0FD0346002BF3
:1050F0000ED1FB681B6803F108031846FEF796FD06
:105100003B8B03F101033B83FB8B03F1FF33FB83F9
:105110007A8BFB889A42B3D337E0FB68B3F844300C
:10512000FA8B9A4214D27A8B7B699A4210D2FB682E
:105130001B6803F10C0318464FF00001FEF774FDE5
:105140007B8B03F101037B83FB8B03F10103FB8367
:10515000FB681B6803F1200318464FF002014FF073
:105160000402FEF7A3FD0346002B0ED1FB681B686B
:1051700003F108031846FEF759FD3B8B03F10103C9
:105180003B83FB8B03F1FF33FB833A8BFB889A4213
:10519000C3D33EE0FB68B3F84430FA8B9A4210D296
:1051A000FB681B6803F10C0318464FF00001FEF783
:1051B0003BFD7B8B03F101037B83FB8B03F101033D
:1051C000FB83FB681B6803F1200318464FF00201C4
:1051D0004FF00402FEF76AFD0346002B19D1BA8B8B
:1051E0003B6802EB0304FB681B6803F108031846E5
:1051F000FEF71CFD0346DBB22370BB8B03F10103FA
:10520000BB833B8B03F101033B83FB8B03F1FF3338
:10521000FB837A8B7B699A42BCD33EE0FB68B3F890
:105220004430FA8B9A4210D2FB681B6803F12803C2
:1052300018464FF00001FEF7F7FC7B8B03F10103EA
:105240007B83FB8B03F10103FB83FB681B6803F18A
:10525000200318464FF002014FF00402FEF726FD2E
:105260000346002B19D1BA8B3B6802EB0304FB68A1
:105270001B6803F108031846FEF7D8FC0346DBB2AF
:105280002370BB8B03F10103BB833B8B03F1010351
:105290003B83FB8B03F1FF33FB837A8B7B699A4261
:1052A000BCD023E0FB681B6803F1200318464FF0D5
:1052B00002014FF00402FEF7F9FC0346002B15D162
:1052C000BA8B3B6802EB0304FB681B6803F108031D
:1052D0001846FEF7ABFC0346DBB22370BB8B03F131
:1052E0000103BB833B8B03F101033B833A8B7B6957
:1052F0009A42D7D907F12407BD4690BD80B582B048
:1053000000AF78607B681B6818464FF000014FF0D3
:1053100001024FF00003FEF7BBFC7B681B6803F142
:105320001C0318464FF00301FEF7AEFC7B681B68B8
:1053300003F1040318464FF0FF01FEF7A5FC7B685C
:105340001B6818464FF000014FF001024FF00103B7
:10535000FEF79EFC07F10807BD4680BD80B586B00C
:1053600000AFF8607A600A46FA727B8001F02CF890
:1053700003467B61FB681B7B002B03D1FB684FF06E
:1053800001021A73FB684FF0010283F86A20FB7A6E
:105390004FEA4302FB689A60FB684FF000025A62D2
:1053A000FB687A689A617A88FB68DA61FB684FF07B
:1053B00000021A62FB684FF0010283F83420FB6898
:1053C00097F820201A75FB6893F85430DBB2012B54
:1053D00005D1FB684FF0010283F869200AE0FB6801
:1053E0001B6818464FF005014FF020024FF00103F3
:1053F000FEF74EFCFB6893F86830012B0AD1FB687E
:105400001B6818464FF003014FF008024FF00003ED
:10541000FEF73EFCFB681B6803F104031846FEF729
:1054200035FC0346FB74FB7CDBB2FB74F86800F0D0
:10543000C9FE786900F0CCFF07F11807BD4680BDB2
:1054400080B586B000AFF8607A600A46FA727B8059
:1054500000F0BAFF03467B61FB681B7B002B03D186
:10546000FB684FF002021A73FB684FF0020283F8E8
:105470006A20FB7A4FEA4302FB689A60FB684FF0B0
:1054800001025A62FB687A689A627A88FB68DA627B
:10549000FB684FF000021A63FB684FF0010283F8CB
:1054A0003420FB6897F820201A75FB6893F8543075
:1054B000DBB2012B05D1FB684FF0010283F86920B4
:1054C0000AE0FB681B6818464FF005014FF0200208
:1054D0004FF00103FEF7DCFBFB6893F86830012B0B
:1054E0000AD1FB681B6818464FF003014FF0080211
:1054F0004FF00003FEF7CCFBFB681B6803F10403CD
:105500001846FEF7C3FB0346FB74FB7CDBB2FB745F
:10551000F86800F057FE786900F05AFF07F11807A5
:10552000BD4680BD80B586B000AFF8607A600A469F
:10553000FA727B807B88002B00D100BE7B68002B39
:1055400000D100BEBB8C002B00D100BE3B6A002BFB
:1055500000D100BEFB684FF0020283F83420BB8C00
:10556000002B72D07B88002B6FD000F02DFF0346FC
:105570007B61FB681B7B002B03D1FB684FF00302B0
:105580001A73FB684FF0030283F86A20FB7A4FEA34
:105590004302FB689A60FB684FF000025A62FB68A6
:1055A0007A689A617A88FB68DA61FB684FF00002DA
:1055B0001A62FB683A6A9A62BA8CFB68DA62FB6824
:1055C0004FF000021A63FB684FF0010283F83420A9
:1055D000FB6897F828201A75FB6893F85430DBB203
:1055E000012B05D1FB684FF0010283F869200AE026
:1055F000FB681B6818464FF005014FF020024FF082
:105600000103FEF745FBFB6893F86830012B0AD1D4
:10561000FB681B6818464FF003014FF008024FF07B
:105620000003FEF735FBFB681B6803F10403184613
:10563000FEF72CFB0346FB74FB7CDBB2FB74F868C3
:1056400000F0C0FD786900F0C3FE07F11807BD4601
:1056500080BD00BF80B584B000AF7860396000F0D5
:10566000B3FE0346FB607B683A689A63F86800F013
:10567000AFFE7B6893F83430FB72FB7A012BF8D0D5
:10568000FB7A184607F11007BD4680BD80B582B091
:1056900000AF78607B6893F86030002B0AD07B689D
:1056A0001B6818464FF002014FF004024FF001034F
:1056B000FEF7EEFA07F10807BD4680BDB0B584B02D
:1056C00000AF78604FF00103BB737B681B6803F188
:1056D00004031846FEF7DAFA0346FB72FB7ADBB2E4
:1056E000A3F10803D82B00F2E38401A252F823F0BF
:1056F000555A0000B1600000B1600000B1600000C8
:10570000B1600000B1600000B1600000B160000055
:10571000555A0000B1600000B1600000B1600000A7
:10572000B1600000B1600000B1600000B160000035
:105730002B5B0000B1600000B1600000B1600000B0
:10574000B1600000B1600000B1600000B160000015
:10575000FB5A0000B1600000B1600000B1600000C1
:10576000B1600000B1600000B1600000B1600000F5
:105770002B5B0000B1600000B1600000B160000070
:10578000B1600000B1600000B1600000B1600000D5
:10579000DB5B0000B1600000B1600000B1600000A0
:1057A000B1600000B1600000B1600000B1600000B5
:1057B000E35A0000B1600000B1600000B160000079
:1057C000B1600000B1600000B1600000B160000095
:1057D0000B5C0000B1600000B1600000B16000002F
:1057E000B1600000B1600000B1600000B160000075
:1057F0008B5C0000B1600000B1600000B16000008F
:10580000B1600000B1600000B1600000B160000054
:10581000BB5C0000B1600000B1600000B16000003E
:10582000B1600000B1600000B1600000B160000034
:105830000B5D0000B1600000B1600000B1600000CD
:10584000B1600000B1600000B1600000B160000014
:10585000D55D0000B1600000B1600000B1600000E3
:10586000B1600000B1600000B1600000B1600000F4
:10587000CB5D0000B1600000B1600000B1600000CD
:10588000B1600000B1600000B1600000B1600000D4
:10589000D55D0000B1600000B1600000B1600000A3
:1058A000B1600000B1600000B1600000B1600000B4
:1058B000CB5D0000B1600000B1600000B16000008D
:1058C000B1600000B1600000B1600000B160000094
:1058D000315E0000B1600000B1600000B160000006
:1058E000B1600000B1600000B1600000B160000074
:1058F0007F5D0000B1600000B1600000B160000099
:10590000B1600000B1600000B1600000B160000053
:10591000315E0000B1600000B1600000B1600000C5
:10592000B1600000B1600000B1600000B160000033
:105930007F5D0000B1600000B1600000B160000058
:10594000B1600000B1600000B1600000B160000013
:10595000A35E0000B1600000B1600000B160000013
:10596000B1600000B1600000B1600000B1600000F3
:10597000955F0000B1600000B1600000B160000000
:10598000B1600000B1600000B1600000B1600000D3
:10599000955F0000B1600000B1600000B1600000E0
:1059A000B1600000B1600000B1600000B1600000B3
:1059B000955F0000B1600000B1600000B1600000C0
:1059C000B1600000B1600000B1600000B160000093
:1059D0005F600000B1600000B1600000B1600000D5
:1059E000B1600000B1600000B1600000B160000073
:1059F0005F600000B1600000B1600000B1600000B5
:105A0000B1600000B1600000B1600000B160000052
:105A1000B1600000B1600000B1600000B160000042
:105A2000B1600000B1600000B1600000B160000032
:105A3000675F0000B1600000B1600000B16000006D
:105A4000B1600000B1600000B1600000B160000012
:105A5000056100007B681B6818464FF005014FF098
:105A600020024FF00003FEF713F97B681B6803F177
:105A700008027B689B6810461946FEF705F97B68AB
:105A80001B6803F108027B685B6A10464FF0000157
:105A90004FF00102FEF7FCF87B685B6A002B04D133
:105AA0007B684FF000021A6203E07B684FF000024F
:105AB0001A637B6893F86930002B04D07B684FF041
:105AC000000283F869207B681A7B7B6893F86A3050
:105AD0009A4200F019837B6893F86A207B681A73F6
