:020000042000DA
:1000000000000120910100207F03002081030020D7
:1000100083030020850300208703002000000000E8
:100020000000000000000000000000008903002024
:100030008B030020000000008D0300208F030020B0
:10004000910300209303002099840020BD840020A8
:10005000990300209B0300209D0300209F030020A4
:10006000A1030020A3030020496400206D64002048
:10007000A9030020AB030020AD030020AF03002044
:10008000B1030020B3030020B503002081B5002098
:10009000B9030020BB030020BD030020BF030020E4
:1000A000C1030020C3030020C5030020C7030020B4
:1000B000C9030020CB030020CD030020CF03002084
:1000C000D1030020D3030020313400204534002028
:1000D000593400206D340020813400208D340020FC
:1000E00099340020A5340020B1340020E70300201B
:1000F000E9030020EB030020ED030020EF030020C4
:10010000F1030020F3030020F5030020C93B002089
:10011000F9030020213C0020FD030020FF03002004
:10012000010400200304002005040020070400202F
:10013000090400200B0400200D0400200F040020FF
:1001400011040020130400201504002017040020CF
:10015000190400201B0400201D0400201F0400209F
:10016000210400202304002025040020270400206F
:10017000290400202B0400202D0400202F0400203F
:1001800031040020330400200000000000000000C3
:100190004FF0000BDFF8BE020068DFF8B612096806
:1001A00001F0030100F01C00142801D14BF0020BF8
:1001B000002901D04BF0010BBBF1000F05D0A7487F
:1001C000A749DFF8722200F09FF8A64880470BF09D
:1001D000020ABAF1000F0CD0DFF86E02DFF86E12DF
:1001E00002680B680FB44FF000024FF0FF0302608B
:1001F0000B609D489D4A9E4B022808D1DFF83E12B5
:100200000A60DFF842120A60DFF836120B6001283C
:1002100008D1DFF82E120A60DFF82A120A60DFF830
:100220001E120B609348002809D193489349944AC1
:1002300000F032F893489449944A00F02DF894481D
:100240009449954A00F028F894489549DFF8E6214A
:1002500000F05AF8BBF1000F12D092489249DFF833
:10026000DA2100F051F80BF0020ABAF1000F07D0C2
:100270000FBC02600B6000BFAFF30080AFF30080E3
:10028000DFF828020FF2030E00474FF000004FF096
:100290000001DFF81CF2FEE72DE9F841884225D085
:1002A000B2EB010200D5FEE740EA010313F00303BD
:1002B00002D000F01DF819E04FF000039046121133
:1002C000F7D09A421CBFF0C8F0C103F10103F8D186
:1002D00008F00F08B8F1000F08D004780C7000F196
:1002E000010001F10101B8F10108F6D1BDE8F88182
:1002F00008B54FF0000303780B7000F1010001F125
:100300000101013AF7D108BD884237D000F0030659
:10031000002E14D04FF00405A5EB06044FF008079B
:1003200007FB06F8914669FA08F9002C07D080F817
:10033000009069FA07F900F10100013CF5E74FF080
:1003400000060F46091A88460911914614461546BB
:10035000B14206D018BFA0E8340206F10106B1424E
:10036000F8D108F00F08B8F1000F07D002704FEA7B
:10037000322200F10100B8F10108F4E77047FEE70E
:10038000FEE7FEE7FEE7FEE7FEE7FEE7FEE7FEE745
:10039000FEE7FEE7FEE7FEE7FEE7FEE7FEE7FEE735
:1003A000FEE7FEE7FEE7FEE7FEE7FEE7FEE7FEE725
:1003B000FEE7FEE7FEE7FEE7FEE7FEE7FEE7FEE715
:1003C000FEE7FEE7FEE7FEE7FEE7FEE7FEE7FEE705
:1003D000FEE7FEE7FEE7FEE7FEE7FEE7FEE7FEE7F5
:1003E000FEE7FEE7FEE7FEE7FEE7FEE7FEE7FEE7E5
:1003F000FEE7FEE7FEE7FEE7FEE7FEE7FEE7FEE7D5
:10040000FEE7FEE7FEE7FEE7FEE7FEE7FEE7FEE7C4
:10041000FEE7FEE7FEE7FEE7FEE7FEE7FEE7FEE7B4
:10042000FEE7FEE7FEE7FEE7FEE7FEE7FEE7FEE7A4
:10043000FEE7FEE7704700000000A2A2A2A2008033
:100440000340088003401080034030800340348024
:1004500003403880034018080240000000F00020EC
:100460000000012001AF002000000000000000009B
:10047000010000000000000000000020000000203B
:1004800090010020C0040020C004002080BF002094
:1004900080BF002080BF0020D0C20020D0C200203A
:1004A00090D5002090D5002000F0002049BD00200C
:1004B0005D300020AFF30080AFF30080AFF3008029
:1004C0004CF2D023C2F200031A780AB90120187046
:1004D000704700BF4BF68070C2F2000008B5036899
:1004E0002BB140F20003C0F2000303B1984708BDEE
:1004F00080B483B000AF7860396044F20003C4F286
:1005000000035A6B3B681A6044F20003C4F2000314
:100510001A6B7B681A6007F10C07BD4680BC7047F8
:1005200080B400AF45F20003C4F200031B68184614
:10053000BD4680BC704700BF80B582B000AF4FF0B1
:100540000003FB801EE04CF2D723C2F200031B78AD
:1005500003F1FF31FA884CF2CC73C2F200034FEA88
:1005600001210A4433F8123045F20000C5F20000C0
:10057000194605F007FEFB88FF2B07D0FB8803F127
:100580000103FB80FB88FF2BDDD900E000BF07F1F2
:100590000807BD4680BD00BF80B500AF4CF2B83043
:1005A000C2F200004FF0A0414FF040024FF00003B4
:1005B00009F068FC4CF24850C2F2000043F200011E
:1005C000C5F200014FF06A024FF0000309F05AFC37
:1005D0004CF22440C2F2000041F20001C5F20001D9
:1005E0004FF021024FF0000309F04CFC80BD00BF2A
:1005F00080B586B000AFB96013460246FA73FB714E
:100600004FF00003FB74BB687B61FA794CF2D8238E
:10061000C2F200031B781344FE2B50DD4CF2D723AB
:10062000C2F200031B7803F10103DAB24CF2D723C4
:10063000C2F200031A70FFF77FFF4CF2D823C2F218
:1006400000034FF000021A704CF2D723C2F20003ED
:100650001B78042B33D14CF2D723C2F200034FF0A6
:1006600000021A702BE04CF2D723C2F200031B7871
:1006700018464CF2D823C2F200031B781A46FB7CC2
:100680001A44F97C7B690B441B78194697F813C010
:100690007B6963441B784FEA03239BB241EA03035F
:1006A0009BB299B24CF2CC73C2F200034FEA002025
:1006B000024423F81210FB7C03F10103FB74FA7C63
:1006C000FB799A42CFD34CF2D823C2F200031A78B6
:1006D000FB791344DAB24CF2D823C2F200031A7049
:1006E00007F11807BD4680BD80B485B000AF7860C3
:1006F0000B467B804FF000033B734FF000037B738E
:100700004FF00003BB734FF00003FB734FF0000387
:10071000FB733AE03A7BF97B7B680B441B7802EB76
:10072000030148F28103C8F2800383FB01230B44D9
:100730004FEAE3124FEAE173C3EB020213464FEABA
:100740000323C2EB0303C3EB010213463B737A7B23
:100750003B7B02EB030148F28103C8F2800383FB79
:1007600001230B444FEAE3124FEAE173C3EB0202A9
:1007700013464FEA0323C2EB0303C3EB0102134604
:100780007B73FB7B03F10103FB73FB7B7A889A424B
:10079000C0D83A7B7B7B02EB030148F28103C8F2AD
:1007A000800383FB01230B444FEAE3124FEAE1731A
:1007B000C3EB020213464FEA0323C2EB0303C3EB6E
:1007C0000102D3B26FEA0303BB733A7BBB7B02EB3C
:1007D000030148F28103C8F2800383FB01230B4429
:1007E0004FEAE3124FEAE173C3EB020213464FEA0A
:1007F0000323C2EB0303C3EB0102D3B26FEA03038B
:100800007B737B7B4FEA03239AB2BB7B42EA0303F1
:100810009BB29BB2184607F11407BD4680BC7047D7
:1008200090B58FB000AF4CF2B852C2F200024CF259
:100830009043C2F200031A604FF000037B864FF032
:10084000000387F835304BF66C63C2F2000307F102
:10085000040C9E46BEE80F00ACE80F00DEF8003046
:10086000ACF800304DF25832C2F200024DF248337B
:10087000C2F2000310461946FFF73AFE07F13001B5
:1008800007F12E0207F12C03084611461A4603F021
:10089000B1FD0346002B0CBF002301237B8607F12B
:1008A0002A0107F1280207F12603084611461A46D5
:1008B00003F02CFF0346002B02D04FF0020301E0AF
:1008C0004FF00003798E1A460B4642EA03039BB2AF
:1008D0007B8607F11A03184604F08AF80346002BBA
:1008E00014BF00230123002B03D04FEA83039BB2E4
:1008F00001E04FF00403798E1A460B4642EA0303E7
:100900009BB27B864CF29043C2F200031A684BF60E
:100910008473C2F200031B7853744CF29043C2F20A
:1009200000031A684FF0000343F0500393744FF034
:1009300000036FEA030303F03C036FEA0303D3747D
:100940004CF29043C2F200031C68FFF7E9FD034636
:1009500003F0FF024FF0000141EA020222754FEA64
:10096000132202F0FF024FF0000141EA0202627519
:100970004FEA134202F0FF024FF0000141EA020287
:10098000A2754FEA13634FF0000242EA0303E375D6
:100990004CF29043C2F200031A684CF2EC23C2F20C
:1009A00000031B7893764CF29043C2F200031A685E
:1009B0004DF26033C2F200031B681B7813764CF2D1
:1009C0009043C2F200031A684CF2E623C2F200031D
:1009D0001B78937316E04CF29043C2F2000319683F
:1009E00097F8350097F835204DF23803C2F200032E
:1009F0009A5C00EB0103DA7697F8353003F10103D6
:100A000087F8353097F835300F2BE4D94CF2904306
:100A1000C2F200031A684CF2E923C2F200031B7809
:100A2000D3734CF29043C2F200031A684CF2EA23EB
:100A3000C2F200031B7813744CF29043C2F200031D
:100A40001B683A8E02F0FF014FF0000040EA0101FE
:100A500083F82B104FEA122292B24FF0000141EAC4
:100A6000020283F82C204CF29043C2F200031B6870
:100A7000FA8D02F0FF014FF0000040EA010183F817
:100A80002D104FEA122292B24FF0000141EA020209
:100A900083F82E204CF29043C2F200031B68BA8DFB
:100AA00002F0FF014FF0000040EA010183F82F102F
:100AB0004FEA122292B24FF0000141EA020283F89B
:100AC00030204CF29043C2F200031B687A8D02F092
:100AD000FF014FF0000040EA010183F831104FEAB6
:100AE000122292B24FF0000141EA020283F8322052
:100AF0004CF29043C2F200031B683A8D02F0FF01F2
:100B00004FF0000040EA010183F833104FEA12224F
:100B100092B24FF0000141EA020283F834204CF215
:100B20009043C2F200031B68FA8C02F0FF014FF001
:100B3000000040EA010183F835104FEA122292B218
:100B40004FF0000141EA020283F836204CF2904354
:100B5000C2F200031B687A8B02F0FF014FF0000025
:100B600040EA010183F837104FEA122292B24FF0A7
:100B7000000141EA020283F838204CF29043C2F2AD
:100B800000031C6807F119034FF040004FF0020109
:100B90001A4603F0A9FA034603F0FF024FF00001E2
:100BA00041EA020284F839204FEA13239BB24FF046
:100BB000000242EA030384F83A307B7E4FEAC30323
:100BC0009AB27B8E42EA03039BB27B864CF290433F
:100BD000C2F200031C6807F119034FF040004FF008
:100BE00003011A4603F080FA034603F0FF024FF0B8
:100BF000000141EA020284F83B204FEA13239BB232
:100C00004FF0000242EA030384F83C307B7E4FEA57
:100C100003139AB27B8E42EA03039BB27B864CF2AB
:100C20009043C2F200031B684DF28C32C2F2000204
:100C3000D26802F0FF014FF0000040EA010183F8A2
:100C400045104FEA122101F0FF014FF0000040EA89
:100C5000010183F846104FEA124101F0FF014FF005
:100C6000000040EA010183F847104FEA12624FF09A
:100C7000000141EA020283F848204CF29043C2F29C
:100C800000031B684DF28C32C2F20002926802F03F
:100C9000FF014FF0000040EA010183F841104FEAE4
:100CA000122101F0FF014FF0000040EA010183F83A
:100CB00042104FEA124101F0FF014FF0000040EAFC
:100CC000010183F843104FEA12624FF0000141EA3C
:100CD000020283F844204CF29043C2F200031B68E6
:100CE0004DF27C32C2F20002D26802F0FF014FF0F6
:100CF000000040EA010183F855104FEA122101F08B
:100D0000FF014FF0000040EA010183F856104FEA5E
:100D1000124101F0FF014FF0000040EA010183F8A9
:100D200057104FEA12624FF0000141EA020283F8C5
:100D300058204CF29043C2F200031B684DF27C3203
:100D4000C2F20002926802F0FF014FF0000040EA98
:100D5000010183F851104FEA122101F0FF014FF019
:100D6000000040EA010183F852104FEA124101F0FD
:100D7000FF014FF0000040EA010183F853104FEAF1
:100D800012624FF0000141EA020283F854204CF253
:100D90009043C2F200031B684DF26832C2F20002B7
:100DA000D26802F0FF014FF0000040EA010183F831
:100DB0004D104FEA122101F0FF014FF0000040EA10
:100DC000010183F84E104FEA124101F0FF014FF08C
:100DD000000040EA010183F84F104FEA12624FF021
:100DE000000141EA020283F850204CF29043C2F223
:100DF00000031B684DF26832C2F20002926802F0F2
:100E0000FF014FF0000040EA010183F849104FEA6A
:100E1000122101F0FF014FF0000040EA010183F8C8
:100E20004A104FEA124101F0FF014FF0000040EA82
:100E3000010183F84B104FEA12624FF0000141EAC2
:100E4000020283F84C204CF29043C2F200031C686B
:100E500007F119034FF040004FF002011A4603F06A
:100E6000A1F9034603F0FF024FF0000141EA02023C
:100E700084F83D204FEA13239BB24FF0000242EA70
:100E8000030384F83E307B7E4FEA43139AB27B8E95
:100E900042EA03039BB27B864CF29043C2F200030A
:100EA0001C6807F119034FF040004FF003011A4688
:100EB00003F078F9034603F0FF024FF0000141EA26
:100EC000020284F83F204FEA13239BB24FF0000246
:100ED00042EA030384F840307B7E4FEA83139AB2E0
:100EE0007B8E42EA03039BB27B864CF29043C2F2B4
:100EF00000031A684CF2D623C2F200031B78537623
:100F00004DF2A030C2F2000002F0D6FE17E04CF223
:100F10009043C2F20003196897F8350097F835201E
:100F20004DF2A033C2F200039A5C00EB010383F898
:100F30005A2097F8353003F1010387F8353097F8D8
:100F400035301F2BE3D94CF29043C2F200031B68EB
:100F50004FF0000242F008021A704FF0000242F017
:100F600001025A704CF29043C2F2000318684CF22E
:100F7000D223C2F2000319880B466FEA83436FEA5B
:100F800093439BB29BB24FEA03231FFA83FC4CF2BC
:100F9000D223C2F200031A8813466FEA83436FEA32
:100FA00093439BB29BB24FEA13239BB24CEA0303D9
:100FB0009BB29BB203F0FF0C4FF0000E4EEA0C0CFC
:100FC00080F802C04FEA13239BB24FF0000C4CEAAA
:100FD0000303C37001F1010399B24CF2D223C2F2B0
:100FE0000003198002F101039AB24CF2D223C2F23B
:100FF00000031A804CF29043C2F200031B684FF0CA
:1010000000021A714FF0000242F07C025A714CF259
:101010009043C2F200031B684DF24832C2F2000254
:10102000D2E90001024602F0FF014FF0000040EA61
:10103000010199724FEA122101F0FF014FF0000007
:1010400040EA0101D9724FEA124101F0FF014FF06D
:10105000000040EA010119734FEA12624FF00001EB
:1010600041EA02025A734CF29043C2F200031B6839
:101070004DF25832C2F20002D2E90001024602F0FB
:10108000FF014FF0000040EA010199714FEA12217F
:1010900001F0FF014FF0000040EA0101D9714FEA71
:1010A000124101F0FF014FF0000040EA0101197206
:1010B0004FEA12624FF0000141EA02025A724CF20A
:1010C000D923C2F200031B78002B55D04CF2EB233E
:1010D000C2F200034FF001021A704CF29043C2F2C8
:1010E00000031A684CF2EB23C2F200031B7882F86B
:1010F00059304CF29043C2F200031C684CF2B850D5
:10110000C2F200004FF07A01FFF7EEFA034603F057
:10111000FF024FF0000141EA020284F87A204FEA10
:1011200013239BB24FF0000242EA030384F87B30A2
:101130004DF28C30C2F200004CF2B851C2F2000104
:1011400004F008F90346002B02D04FF0800301E0C1
:101150004FF00003798E1A460B4642EA03039BB216
:101160007B864DF28C30C2F200004CF2B851C2F2D4
:10117000000104F0EFF83DE04CF2EB23C2F2000373
:101180004FF000021A704CF29043C2F200031A684A
:101190004CF2EB23C2F200031B7882F859304CF278
:1011A0009043C2F200031C684CF2B850C2F2000037
:1011B0004FF07A01FFF798FA034603F0FF024FF071
:1011C000000141EA020284F87A204FEA13239BB21D
:1011D0004FF0000242EA030384F87B304DF24040B6
:1011E000C2F200004CF2B851C2F200014FF07C0292
:1011F00005F0B8F87B8E184607F13C07BD4690BD58
:10120000B0B582B000AF4FF000033B714FF0000368
:101210007B714FF00003FB804CF2B852C2F2000227
:101220004CF2B453C2F200031A604DF25832C2F2CB
:1012300000024DF24833C2F2000310461946FFF790
:1012400057F94CF2B453C2F200031B684FF000028E
:1012500042F008021A704FF0000242F004025A7085
:101260004CF2B453C2F2000318684CF2D423C2F219
:10127000000319880B466FEA83436FEA93439BB2DE
:101280009BB24FEA03231FFA83FC4CF2D423C2F231
:1012900000031A8813466FEA83436FEA93439BB2B5
:1012A0009BB24FEA13239BB24CEA03039BB29BB25F
:1012B00003F0FF0C4FF0000E4EEA0C0C80F802C059
:1012C0004FEA13239BB24FF0000C4CEA0303C370A8
:1012D00001F1010399B24CF2D423C2F20003198048
:1012E00002F101039AB24CF2D423C2F200031A8035
:1012F0004CF2B453C2F200031B684FF000021A71A3
:101300004FF0000242F041025A714CF2B453C2F263
:1013100000031B684DF24832C2F20002D2E900011C
:10132000024602F0FF014FF0000040EA010199720D
:101330004FEA122101F0FF014FF0000040EA0101E5
:10134000D9724FEA124101F0FF014FF0000040EA6C
:10135000010119734FEA12624FF0000141EA0202E3
:101360005A734CF2B453C2F200031B684DF2583268
:10137000C2F20002D2E90001024602F0FF014FF082
:10138000000040EA010199714FEA122101F0FF01CA
:101390004FF0000040EA0101D9714FEA124101F01B
:1013A000FF014FF0000040EA010119724FEA12629A
:1013B0004FF0000141EA02025A723AE04CF2B45393
:1013C000C2F200031C683D793A7907F103034CF23D
:1013D0002440C2F200004FF0210102F0BBFF03469F
:1013E000194605F1040201F0FF004FEA42032344CD
:1013F0004FF0000C4CEA000098714FEA112398B2AC
:101400004FEA420323444FF000021146024641EAEC
:101410000202DA71FB781A463B7902FA03F39AB2B8
:10142000FB8842EA03039BB2FB803B7903F1010393
:101430003B713B79072BC1D94DF2A030C2F20000BD
:1014400002F03AFC12E04CF2B453C2F20003196805
:1014500038793A794DF2A033C2F200039A5C00EB7E
:101460000103DA773B7903F101033B713B791F2BD1
:10147000E9D94CF2D923C2F200031B78002B33D0F8
:101480004FF001037B714CF2B453C2F200031B68AE
:101490007A799A774CF2B453C2F200031C684CF28A
:1014A000B850C2F200004FF03F01FFF71DF90346AC
:1014B00003F0FF024FF0000141EA020284F83F20EE
:1014C0004FEA13239BB24FF0000242EA030384F871
:1014D00040304DF26830C2F200004CF2B851C2F216
:1014E000000103F037FF34E04FF000037B714CF252
:1014F000B453C2F200031B687A799A774CF2B45362
:10150000C2F200031C684CF2B850C2F200004FF067
:101510003F01FFF7E9F8034603F0FF024FF0000137
:1015200041EA020284F83F204FEA13239BB24FF0B6
:10153000000242EA030384F840304CF2B453C2F292
:1015400000031B684FF0020019464FF04102FFF7FD
:101550004FF8FB88184607F10807BD46B0BD00BF2D
:1015600080B500AF4DF28C30C2F200004CF2B851A1
:10157000C2F2000103F01CFF4DF24040C2F2000035
:101580004CF2B851C2F200014FF07C0204F0EAFEC6
:1015900080BD00BF90B583B000AF4FF00003FB806B
:1015A0004CF2B852C2F200024DF2B403C2F2000390
:1015B0001A604CF6CC70C2F200004DF2D001C2F2BB
:1015C000000103F055FF03461A464DF2FC03C2F238
:1015D00000031A704DF2FC03C2F200031B784FEABD
:1015E0004303DAB24DF2FC03C2F200031A704DF26B
:1015F000D003C2F200031B781A464DF2CC03C2F2AC
:1016000000031A604DF2CC03C2F200031B684FEADC
:1016100003224DF2CC03C2F200031A604DF2D00354
:10162000C2F200035B781A464DF2CC03C2F200030B
:101630001B6842EA03024DF2CC03C2F200031A60B7
:101640004DF2CC03C2F200031B684FEA03224DF2B5
:10165000CC03C2F200031A604DF2D003C2F20003C1
:101660009B781A464DF2CC03C2F200031B6842EA93
:1016700003024DF2CC03C2F200031A604CF6CC70A8
:10168000C2F200004DF2D401C2F2000103F01AFFD1
:1016900003461A464DF2FC03C2F200031A704DF2E3
:1016A000FC03C2F200031B784FEA4303DAB24DF2A7
:1016B000FC03C2F200031A704DF2D003C2F2000321
:1016C0001B781A464DF2F803C2F200031A604DF27D
:1016D000F803C2F200031B684FEA03224DF2F8033D
:1016E000C2F200031A604DF2D003C2F200035B782D
:1016F0001A464DF2F803C2F200031B6842EA0302E5
:101700004DF2F803C2F200031A604DF2F803C2F280
:1017100000031B684FEA03224DF2F803C2F20003F4
:101720001A604DF2D003C2F200039B781A464DF2C4
:10173000F803C2F200031B6842EA03024DF2F80309
:10174000C2F200031A604DF2B803C2F200034CF675
:10175000CC70C2F20000194603F0FAFE4DF2B40359
:10176000C2F200031A684BF68473C2F200031B78BE
:1017700093734DF2B403C2F200031B684DF2CC0226
:10178000C2F20002126802F0FF014FF0000040EACE
:101790000101D9734FEA122101F0FF014FF000005F
:1017A00040EA010119744FEA124101F0FF014FF0C4
:1017B000000040EA010159744FEA12624FF0000143
:1017C00041EA02029A744DF2B403C2F200031B68AC
:1017D0004DF2F802C2F20002126802F0FF014FF06F
:1017E000000040EA0101D9744FEA122101F0FF0123
:1017F0004FF0000040EA010119754FEA124101F073
:10180000FF014FF0000040EA010159754FEA1262F2
:101810004FF0000141EA02029A754FF00003FB808D
:101820002AE04DF2B403C2F200031A68F988F8887E
:101830004DF2B803C2F2000333F8100001F10801C1
:1018400000F0FF0C4FEA410313444FF0000E4EEA44
:101850000C0C83F807C04FEA102398B24FEA4103FB
:1018600013444FF000021146024641EA02021A7286
:10187000FB8803F10103FB80FB88072BD1D94FF0D4
:101880000003FB804DF2B403C2F200031B684FF06B
:10189000000242F008021A704FF0000242F0020209
:1018A0005A704DF2B403C2F2000318684CF2DE2302
:1018B000C2F2000319880B466FEA83436FEA934331
:1018C0009BB29BB24FEA03231FFA83FC4CF2DE2348
:1018D000C2F200031A8813466FEA83436FEA934308
:1018E0009BB29BB24FEA13239BB24CEA03039BB219
:1018F0009BB203F0FF0C4FF0000E4EEA0C0C80F888
:1019000002C04FEA13239BB24FF0000C4CEA0303D2
:10191000C37001F1010399B24CF2DE23C2F200035D
:10192000198002F101039AB24CF2DE23C2F20003E5
:101930001A804DF2B403C2F200031B684FF000029C
:101940001A714FF0000242F04A025A714DF2B4038C
:10195000C2F200031B684FF000029A714FF00002C0
:10196000DA714FF000021A724FF000025A724DF213
:10197000B403C2F200031B684FF000029A724FF0EA
:101980000002DA724FF000021A734FF000025A732D
:101990004CF2D923C2F200031B78002B3CD04CF24E
:1019A000DB23C2F200034FF001021A704DF2B403C0
:1019B000C2F200031A684CF2DB23C2F200031B7868
:1019C00082F827304DF2B403C2F200031C684CF2D7
:1019D000B850C2F200004FF04801FEF785FE034602
:1019E00003F0FF024FF0000141EA020284F84820B0
:1019F0004FEA13239BB24FF0000242EA030384F83C
:101A000049304DF22010C2F200004CF2B851C2F23F
:101A1000000103F09FFC3DE04CF2DB23C2F2000327
:101A20004FF000021A704DF2B403C2F200031A68BC
:101A30004CF2DB23C2F200031B7882F827304DF210
:101A4000B403C2F200031C684CF2B850C2F20000AA
:101A50004FF04801FEF748FE034603F0FF024FF047
:101A6000000141EA020284F848204FEA13239BB2A6
:101A70004FF0000242EA030384F849304DF240403F
:101A8000C2F200004CF2B851C2F200014FF04A021B
:101A900004F068FC4DF2FC03C2F200031B78184608
:101AA00007F10C07BD4690BD90B583B000AF4FF075
:101AB0000003FB804CF2B852C2F200024DF2C803A0
:101AC000C2F200031A600CE0FA884DF2D803C2F2A9
:101AD00000034FF0000143F82210FB8803F10103DB
:101AE000FB80FB88072BEFD94FF00003FB804DF202
:101AF0007830C2F2000004F021FA4DF2C803C2F2BD
:101B000000031A684BF68473C2F200031B789373C8
:101B10004DF2C803C2F200031A684DF27833C2F2E4
:101B200000031B8803F0FF014FF0000040EA0101B1
:101B300011754FEA13239BB24FF0000141EA0303F2
:101B400053754DF2C803C2F200031A684CF2E62343
:101B5000C2F200031B78D3734DF2C803C2F2000334
:101B60001A684CF2E723C2F200031B7813744DF29B
:101B7000C803C2F200031A684CF2E823C2F2000361
:101B80001B7853744DF2C803C2F200031A684DF279
:101B90006433C2F200031B8803F0FF014FF0000022
:101BA00040EA010191744FEA13239BB24FF0000108
:101BB00041EA0303D3744DF2C803C2F200031C6868
:101BC00004F060FA0346A3754DF2C803C2F20003A5
:101BD0001C6804F06FFA034603F0FF024FF00001A7
:101BE00041EA0202E2754FEA132202F0FF024FF0CF
:101BF000000141EA020222764FEA134202F0FF029C
:101C00004FF0000141EA020262764FEA13634FF09F
:101C1000000242EA0303A3764DF2C803C2F20003B6
:101C20001C6804F06FFA034603F0FF024FF0000156
:101C300041EA0202E2764FEA132202F0FF024FF07D
:101C4000000141EA020222774FEA134202F0FF024A
:101C50004FF0000141EA020262774FEA13634FF04E
:101C6000000242EA0303A3774DF2C803C2F2000365
:101C70001B684CF2E022C2F20002126802F0FF017F
:101C80004FF0000040EA0101D9774FEA122101F03C
:101C9000FF014FF0000040EA010183F820104FEAF5
:101CA000124101F0FF014FF0000040EA010183F80A
:101CB00021104FEA12624FF0000141EA020283F85C
:101CC00022204DF2C803C2F200031A684CF2E4234A
:101CD000C2F200031B7882F823304DF2C803C2F22F
:101CE00000031C6804F0DCF8034684F8443043E049
:101CF0004DF2C803C2F200031B68F888F9884DF260
:101D0000D802C2F2000252F8211000F1080201F0DC
:101D1000FF0C4FEA820018444FF0000E4EEA0C0C04
:101D200080F804C04FEA112000F0FF0C4FEA820057
:101D300018444FF0000E4EEA0C0C80F805C04FEA34
:101D4000114000F0FF0C4FEA820018444FF0000EE3
:101D50004EEA0C0C80F806C04FEA11604FEA82028E
:101D60001A444FF000031946034641EA0303D371B6
:101D7000FB8803F10103FB804CF2E423C2F2000371
:101D80001B78FA889A42B3D34DF2C803C2F200031B
:101D90001B684FF0000242F008021A704FF0000278
:101DA00042F003025A704DF2C803C2F200031868F1
:101DB0004CF2DC23C2F2000319880B466FEA83431E
:101DC0006FEA93439BB29BB24FEA03231FFA83FC53
:101DD0004CF2DC23C2F200031A8813466FEA8343F5
:101DE0006FEA93439BB29BB24FEA13239BB24CEA38
:101DF00003039BB29BB203F0FF0C4FF0000E4EEAC0
:101E00000C0C80F802C04FEA13239BB24FF0000C79
:101E10004CEA0303C37001F1010399B24CF2DC23D5
:101E2000C2F20003198002F101039AB24CF2DC23E2
:101E3000C2F200031A804DF2C803C2F200031B680D
:101E40004FF000021A714FF0000242F068025A711E
:101E50004DF2C803C2F200031B684FF000029A71F2
:101E60004FF00002DA714FF000021A724FF00002D8
:101E70005A724DF2C803C2F200031B684FF0000211
:101E80009A724FF00002DA724FF000021A734FF0AC
:101E900000025A734CF2D923C2F200031B78002BC4
:101EA0003CD04CF2DA23C2F200034FF001021A7068
:101EB0004DF2C803C2F200031A684CF2DA23C2F2F0
:101EC00000031B7882F845304DF2C803C2F20003CC
:101ED0001C684CF2B850C2F200004FF06601FEF7E9
:101EE00003FC034603F0FF024FF0000141EA020247
:101EF00084F866204FEA13239BB24FF0000242EAB7
:101F0000030384F867304DF27C30C2F200004CF2DB
:101F1000B851C2F2000103F01DFA3DE04CF2DA23A1
:101F2000C2F200034FF000021A704DF2C803C2F271
:101F300000031A684CF2DA23C2F200031B7882F81D
:101F400045304DF2C803C2F200031C684CF2B85091
:101F5000C2F200004FF06601FEF7C6FB034603F035
:101F6000FF024FF0000141EA020284F866204FEAC6
:101F700013239BB24FF0000242EA030384F8673058
:101F80004DF24040C2F200004CF2B851C2F20001E2
:101F90004FF0680204F0E6F907F10C07BD4690BD6A
:101FA00080B483B000AF0346FB714EF20013CEF253
:101FB000000397F907204FEA5212F97901F01F0147
:101FC0004FF0010000FA01F143F8221007F10C076D
:101FD000BD4680BC704700BF80B483B000AF0346ED
:101FE000FB714EF20013CEF2000397F907204FEA7F
:101FF0005212F97901F01F014FF0010000FA01F1CE
:1020000002F1200243F8221007F10C07BD4680BC04
:10201000704700BF80B483B000AF0346FB714EF23F
:102020000013CEF2000397F907204FEA5212F97914
:1020300001F01F014FF0010000FA01F102F160020E
:1020400043F8221007F10C07BD4680BC704700BF63
:1020500080B483B000AF03463960FB7197F9073055
:10206000002B10DA4EF60053CEF20003FA7902F09C
:102070000F02A2F104013A68D2B24FEA0212D2B2C0
:102080000B441A760DE04EF20013CEF2000397F9DE
:1020900007103A68D2B24FEA0212D2B20B4483F868
:1020A000002307F10C07BD4680BC704780B582B0A5
:1020B00000AF0346FB714FF00E00FFF78DFF4FF0AE
:1020C0000F00FFF789FF48F20003C4F2030348F250
:1020D0000002C4F20302926C22F040029A6444F2BD
:1020E0000003C4F200034FF001025A6540F20003FE
:1020F000C4F208234FF00002C3F8002940F20003A5
:10210000C4F208234FF00002C3F8082940F200038C
:10211000C4F20823FA79C3F8042944F20003C4F294
:1021200000034FF001021A6144F20003C4F20003FD
:102130004FF001029A624FF00E00FFF76BFF4FF075
:102140000F00FFF767FF07F10807BD4680BD00BF1E
:1021500080B400AF40F20003C4F208234FF0010244
:10216000C3F80029BD4680BC704700BF80B483B06F
:1021700000AF7860396044F20003C4F200035A6B88
:102180003B681A6044F20003C4F200031A6B7B68D8
:102190001A6007F10C07BD4680BC704780B483B05D
:1021A00000AF7860396044F20003C4F200037A683B
:1021B0009A6344F20003C4F200033A68DA6307F159
:1021C0000C07BD4680BC704780B582B000AF45F2B9
:1021D0000003C4F2000345F20002C4F20002526997
:1021E00022F003025A6145F20003C4F200034FF0EB
:1021F0000302DA614FF00000FFF70CFF45F2000325
:10220000C4F200031B687B6045F20003C4F20003C4
:102210009A687B689A4208D945F20003C4F2000329
:102220004DF64262CAF61542DA6007F10807BD466C
:1022300080BD00BF80B400AF45F20003C4F20003CC
:102240004DF64262CAF61542DA60BD4680BC704760
:1022500098B500AF4DF25832C2F200024DF2483349
:10226000C2F2000310461946FFF780FF4DF21C131F
:10227000C2F200031B684FF0000242F008021A701D
:102280004FF0000242F006025A704DF21C13C2F2E7
:1022900000031A684DF23C33C2F200031B886FEA58
:1022A00083436FEA93439BB29BB24FEA032399B2F5
:1022B0004DF23C33C2F200031B886FEA83436FEA9E
:1022C00093439BB29BB24FEA13239BB241EA0303B1
:1022D0009BB29BB203F0FF014FF0000040EA010106
:1022E00091704FEA13239BB24FF0000141EA0303C0
:1022F000D3704DF21C13C2F200031B684FF00002B2
:102300001A714FF0000242F07E025A714DF21C1316
:10231000C2F200031B684DF24832C2F20002D2E959
:102320000001024602F0FF014FF0000040EA010107
:1023300099724FEA122101F0FF014FF0000040EACC
:102340000101D9724FEA124101F0FF014FF0000084
:1023500040EA010119734FEA12624FF0000141EAAD
:1023600002025A734DF21C13C2F200031B684DF2B5
:102370005832C2F20002D2E90001024602F0FF0127
:102380004FF0000040EA010199714FEA122101F07B
:10239000FF014FF0000040EA0101D9714FEA1241FC
:1023A00001F0FF014FF0000040EA010119724FEA0D
:1023B00012624FF0000141EA02025A724DF21C1300
:1023C000C2F200031C684DF23810C2F200004FF058
:1023D0007C01FEF789F9034603F0FF024FF000018C
:1023E00041EA020284F87C204FEA13239BB24FF0AB
:1023F000000242EA030384F87D304CF2D923C2F292
:1024000000031B78002B0AD04DF20410C2F200002A
:102410004DF23811C2F2000102F09CFF0BE04DF2C8
:102420004040C2F200004DF23811C2F200014FF0FC
:102430007E0203F097FF4DF20013C2F200034FF04B
:1024400000021A704DF23C33C2F200031B8803F104
:1024500001039AB24DF23C33C2F200031A8098BDD8
:1024600080B500AF4DF25832C2F200024DF248334F
:10247000C2F2000310461946FFF778FEFEF7D0F9C6
:1024800003461A464DF25433C2F200031A804DF24D
:102490000013C2F200031B78092B01D9FFF7D8FE05
:1024A0004DF21C13C2F2000319684DF20013C2F280
:1024B00000031B781A4613464FEA830313444FEA7E
:1024C000430313440B4403F116034FF002021A7046
:1024D0004DF21C13C2F2000318684DF20013C2F251
:1024E00000031B7819464DF25833C2F20003D3E9BA
:1024F00000230B464FEA83030B444FEA43030B448C
:10250000034403F1080302F0FF014FF0000040EA2A
:10251000010199724FEA122101F0FF014FF0000012
:1025200040EA0101D9724FEA124101F0FF014FF078
:10253000000040EA010119734FEA12624FF00001F6
:1025400041EA02025A734DF21C13C2F200031868EA
:102550004DF20013C2F200031B7819464DF24833C6
:10256000C2F20003D3E900230B464FEA83030B4476
:102570004FEA43030B44034403F1080302F0FF0155
:102580004FF0000040EA010199714FEA122101F079
:10259000FF014FF0000040EA0101D9714FEA1241FA
:1025A00001F0FF014FF0000040EA010119724FEA0B
:1025B00012624FF0000141EA02025A724DF21C13FE
:1025C000C2F2000318684DF20013C2F200031B7838
:1025D0001A464DF25433C2F20003198813464FEAEB
:1025E000830313444FEA43031344034403F11003EA
:1025F00001F0FF024FF0000040EA0202DA714FEAF8
:10260000112292B24FF0000141EA02021A724DF219
:102610000013C2F200031B7803F10103DAB24DF29A
:102620000013C2F200031A704DF29C30C2F2000097
:1026300007F080F880BD00BF80B500AF4DF2583282
:10264000C2F200024DF24833C2F2000310461946AE
:10265000FFF78CFDFEF79EFF03461A464DF232133C
:10266000C2F200031A804DF20013C2F200031B787D
:10267000092B01D9FFF7ECFD4DF21C13C2F2000348
:1026800019684DF20013C2F200031B781A46134674
:102690004FEA830313444FEA430313440B4403F10B
:1026A00016034FF006021A704DF21C13C2F200031B
:1026B00018684DF20013C2F200031B7819464DF260
:1026C0005833C2F20003D3E900230B464FEA8303D9
:1026D0000B444FEA43030B44034403F1080302F0A5
:1026E000FF014FF0000040EA010199724FEA122108
:1026F00001F0FF014FF0000040EA0101D9724FEAFA
:10270000124101F0FF014FF0000040EA010119738E
:102710004FEA12624FF0000141EA02025A734DF291
:102720001C13C2F2000318684DF20013C2F200033A
:102730001B7819464DF24833C2F20003D3E9002357
:102740000B464FEA83030B444FEA43030B44034415
:1027500003F1080302F0FF014FF0000040EA01011D
:1027600099714FEA122101F0FF014FF0000040EA99
:102770000101D9714FEA124101F0FF014FF0000051
:1027800040EA010119724FEA12624FF0000141EA7A
:1027900002025A724DF21C13C2F2000318684DF285
:1027A0000013C2F200031B781A464DF23213C2F234
:1027B0000003198813464FEA830313444FEA430387
:1027C0001344034403F1100301F0FF024FF0000033
:1027D00040EA0202DA714FEA112292B24FF0000190
:1027E00041EA02021A724DF20013C2F200031B7892
:1027F00003F10103DAB24DF20013C2F200031A70C2
:102800004DF23830C2F2000006F094FF80BD00BFE8
:1028100080B500AF4DF25832C2F200024DF248339B
:10282000C2F2000310461946FFF7A0FCFFF73CF97F
:1028300003461A464DF2C033C2F200031A804DF22D
:102840000013C2F200031B78092B01D9FFF700FD2A
:102850004DF21C13C2F2000319684DF20013C2F2CC
:1028600000031B781A4613464FEA830313444FEACA
:10287000430313440B4403F116034FF004021A7090
:102880004DF21C13C2F2000318684DF20013C2F29D
:1028900000031B7819464DF25833C2F20003D3E906
:1028A00000230B464FEA83030B444FEA43030B44D8
:1028B000034403F1080302F0FF014FF0000040EA77
:1028C000010199724FEA122101F0FF014FF000005F
:1028D00040EA0101D9724FEA124101F0FF014FF0C5
:1028E000000040EA010119734FEA12624FF0000143
:1028F00041EA02025A734DF21C13C2F20003186837
:102900004DF20013C2F200031B7819464DF2483312
:10291000C2F20003D3E900230B464FEA83030B44C2
:102920004FEA43030B44034403F1080302F0FF01A1
:102930004FF0000040EA010199714FEA122101F0C5
:10294000FF014FF0000040EA0101D9714FEA124146
:1029500001F0FF014FF0000040EA010119724FEA57
:1029600012624FF0000141EA02025A724DF21C134A
:10297000C2F2000318684DF20013C2F200031B7884
:102980001A464DF2C033C2F20003198813464FEACB
:10299000830313444FEA43031344034403F1100336
:1029A00001F0FF024FF0000040EA0202DA714FEA44
:1029B000112292B24FF0000141EA02021A724DF266
:1029C0000013C2F200031B7803F10103DAB24DF2E7
:1029D0000013C2F200031A704DF21410C2F200008C
:1029E00006F0A8FE80BD00BF80B500AF4DF25832A2
:1029F000C2F200024DF24833C2F2000310461946FB
:102A0000FFF7B4FBFEF7FCFB03461A464DF2181322
:102A1000C2F200031A804DF20013C2F200031B78C9
:102A2000092B01D9FFF714FC4DF21C13C2F200036D
:102A300019684DF20013C2F200031B781A461346C0
:102A40004FEA830313444FEA430313440B4403F157
:102A500016034FF001021A704DF21C13C2F200036C
:102A600018684DF20013C2F200031B7819464DF2AC
:102A70005833C2F20003D3E900230B464FEA830325
:102A80000B444FEA43030B44034403F1080302F0F1
:102A9000FF014FF0000040EA010199724FEA122154
:102AA00001F0FF014FF0000040EA0101D9724FEA46
:102AB000124101F0FF014FF0000040EA01011973DB
:102AC0004FEA12624FF0000141EA02025A734DF2DE
:102AD0001C13C2F2000318684DF20013C2F2000387
:102AE0001B7819464DF24833C2F20003D3E90023A4
:102AF0000B464FEA83030B444FEA43030B44034462
:102B000003F1080302F0FF014FF0000040EA010169
:102B100099714FEA122101F0FF014FF0000040EAE5
:102B20000101D9714FEA124101F0FF014FF000009D
:102B300040EA010119724FEA12624FF0000141EAC6
:102B400002025A724DF21C13C2F2000318684DF2D1
:102B50000013C2F200031B781A464DF21813C2F29A
:102B60000003198813464FEA830313444FEA4303D3
:102B70001344034403F1100301F0FF024FF000007F
:102B800040EA0202DA714FEA112292B24FF00001DC
:102B900041EA02021A724DF20013C2F200031B78DE
:102BA00003F10103DAB24DF20013C2F200031A700E
:102BB0004DF24030C2F2000006F0BCFD80BD00BF07
:102BC00080B500AFFEF7CCFC4DF28C33C2F20003AF
:102BD0009A684DF28C33C2F20003DB689A4208D245
:102BE0004CF2D923C2F200031B78002B01D1FEF76F
:102BF000B7FC4DF25030C2F2000006F09BFD80BDE4
:102C000080B582B002AF45F65E7300934DF29C3002
:102C1000C2F2000046F20001C5F200014FF00002CE
:102C20004FF0090306F0C4FC4DF29C30C2F20000E4
:102C300006F062FD4FF02600FFF7B2F94FF02600D4
:102C40004FF0FE01FFF704FA49F6960300934DF2A8
:102C50001410C2F2000047F20001C5F200014FF06B
:102C600000024FF0090306F0A3FC4DF21410C2F26B
:102C7000000006F041FD4FF02700FFF791F94FF0FB
:102C800027004FF0FE01FFF7E3F94BF6BC6300931A
:102C90004DF24030C2F2000048F20001C5F20001DE
:102CA0004FF000024FF0090306F082FC4DF2403075
:102CB000C2F2000006F020FD4FF02800FFF770F987
:102CC0004FF028004FF0FE01FFF7C2F947F25833EA
:102CD000C0F2070300934DF25030C2F2000049F2F7
:102CE0000001C5F200014FF000024FF0090306F0A9
:102CF0005FFC4DF25030C2F2000006F0FDFC4FF0D8
:102D00002900FFF74DF94FF029004FF0FE01FFF7C2
:102D10009FF945F65E7300934DF23830C2F2000021
:102D20004AF20001C5F200014FF000024FF0090322
:102D300006F03EFC4DF23830C2F2000006F0DCFC3A
:102D40004FF02A00FFF72CF94FF02A004FF0FE0158
:102D5000FFF77EF94DF29C30C2F2000006F090FCC5
:102D60004DF21410C2F2000006F08AFCBD4680BD90
:102D700080B582B000AF78600B46FB707A684DF288
:102D80006033C2F200031A604DF26033C2F20003F6
:102D90001A68FB781046194600F090FB0346002B9A
:102DA00026D04DF26033C2F200031B68184600F0D3
:102DB00001FCFB78002B0DD14CF2E923C2F2000399
:102DC0001B7803F10103DAB24CF2E923C2F20003EB
:102DD0001A702BE04CF2E723C2F200031B7803F1D8
:102DE0000103DAB24CF2E723C2F200031A701DE0CD
:102DF000FB78002B0DD14CF2EA23C2F200031B78C2
:102E000003F10103DAB24CF2EA23C2F200031A70B2
:102E10000CE04CF2E823C2F200031B7803F101033B
:102E2000DAB24CF2E823C2F200031A7007F1080785
:102E3000BD4680BD80B500AF43F20563C2F200031A
:102E40004FF000004FF002011A4600F055FB43F22C
:102E50001963C2F200034FF001004FF003011A465C
:102E600000F04AFB43F63103C2F200034FF00200C8
:102E70004FF003011A4600F03FFB43F6F913C2F28C
:102E800000034FF003004FF006011A4600F034FB38
:102E900043F6F923C2F200034FF004004FF0100193
:102EA0001A4600F029FB80BD80B500AF4FF001004D
:102EB000FFF7FCF84FF0FF304FF0FF31FFF76EF9EE
:102EC000FFF746F980BD00BF90B583B000AF4CF26C
:102ED000B852C2F200024DF23413C2F200031A607B
:102EE0004DF23413C2F200031A684CF2F023C2F21E
:102EF00000031B78D3734DF23413C2F200031A6837
:102F00004CF2F223C2F200031B7813744DF2341317
:102F1000C2F200031A684CF2F123C2F200031B78DC
:102F200053744DF23413C2F200031B684FF00002D9
:102F300042F008021A704FF0000242F005025A7087
:102F40004DF23413C2F200031A684FF000036FEA27
:102F500083636FEA936393704FF00003D3704DF275
:102F60003413C2F200031B684FF000021A714FF0D5
:102F7000000242F034025A714DF23413C2F20003DF
:102F80001B684FF000029A714FF00002DA714FF0A7
:102F900000021A724FF000025A724DF23413C2F25C
:102FA00000031B684FF000029A724FF00002DA72C1
:102FB0004FF000021A734FF000025A734FF00003F3
:102FC000FB714DF2A030C2F2000000F075FE12E07D
:102FD0004DF23413C2F200031968F879FA794DF210
:102FE000A033C2F200039A5C00EB01039A74FB79F0
:102FF00003F10103FB71FB791F2BE9D94DF2341367
:10300000C2F200031C684CF2B850C2F200004FF04C
:103010003201FDF769FB034603F0FF024FF00001A8
:1030200041EA020284F832204FEA13239BB24FF0A8
:10303000000242EA030384F833304DF24040C2F20A
:1030400000004CF2B851C2F200014FF0340203F01C
:1030500089F907F10C07BD4690BD00BF80B58CB063
:1030600002AFFFF7B1F8FFF7E5F8FDF795FA06F0C4
:10307000A3F94FF000004FF0050106F0F3F94FF00F
:1030800002004FF0050106F0EDF94FF006004FF099
:10309000050106F0E7F94FF000004FF0010106F0DE
:1030A000FFF94FF002004FF0010106F0F9F94FF07F
:1030B00006004FF0010106F0F3F94FF0000003F0B5
:1030C00085FD4DF20450C2F2000004F095FB4FF074
:1030D000080300934DF20450C2F200004FF00001CB
:1030E0004FF000024FF0080304F0D0FC4DF2804096
:1030F000C2F2000004F080FB4FF0080300934DF291
:103100008040C2F200004FF000014FF000024FF487
:10311000007304F0BBFC4DF28C30C2F200004FF0A3
:103120000A0141F60A22C0F24F0202F0FBF84DF20A
:103130007C30C2F2000040F2D231C0F257014CF6AE
:103140005262C0F2570202F0EDF84DF26830C2F25E
:10315000000046F27E41C0F2590145F6FE12C0F26F
:103160007A0202F0DFF84DF22010C2F200004FF4B4
:103170002F714FF4487202F0D5F84DF20410C2F2EC
:10318000000041F66E21C0F24F0140F26E32C0F2F3
:10319000570202F0C7F84FF000033B734FF00003F3
:1031A0007B734FF00003BB734BF68873C2F20003CE
:1031B0001A6807F10C03104619464FF003024FF04E
:1031C000000305F08DF94DF23812C2F200024DF203
:1031D0001C13C2F200031A604DF20013C2F2000386
:1031E0004FF000021A704DF23C33C2F200034FF070
:1031F00001021A80FFF758FE4FF000037B744CF673
:10320000CC70C2F2000002F001F94CF22440C2F28C
:1032100000004FF0210101F025F803461A464CF258
:10322000F023C2F200031B7842EA0303DAB24CF245
:10323000F023C2F200031A704CF2F023C2F2000332
:103240001B784FEA4303DAB24CF2F023C2F20003D8
:103250001A704CF6CC70C2F200004FF0210101F060
:1032600001F803461A464CF2F023C2F200031B7821
:1032700042EA0303DAB24CF2F023C2F200031A70FE
:103280004CF2F023C2F200031B784FEA4303DAB298
:103290004CF2F023C2F200031A7001F009FC03465D
:1032A0001A464CF2F023C2F200031B7842EA0303F1
:1032B000DAB24CF2F023C2F200031A704CF2F0239F
:1032C000C2F200031B784FEA4313DAB24CF2F02348
:1032D000C2F200031A7000F025FD03461A464CF2B4
:1032E000F023C2F200031B7842EA0303DAB24CF285
:1032F000F023C2F200031A7002F07AF903461A466C
:103300004CF2F223C2F200031A7002F0C9FD034628
:103310007B744CF2F123C2F200031A787B7C42EA00
:103320000303DAB24CF2F123C2F200031A704CF23A
:10333000F123C2F200031B784FEA4303DAB24CF2E6
:10334000F123C2F200031A704FF0400000F090FE2B
:1033500003461A464CF2F123C2F200031B7842EAFC
:103360000303DAB24CF2F123C2F200031A704CF2FA
:10337000F123C2F200031B784FEA4303DAB24CF2A6
:10338000F123C2F200031A704FF00003FB75FFF740
:1033900051FD4DF24040C2F200004FF416514FF083
:1033A000030202F09DFF4FF02600FEF733FE4FF0C0
:1033B0002700FEF72FFEFFF723FC4FF0FF33FB61E2
:1033C00049F6FF23CEF232233B624FF000037B62CB
:1033D000FFF77AFD02E000BF00E000BF4FF086007B
:1033E00002F0CEFB4DF26430C2F2000002F0F0FDBC
:1033F0004CF2D923C2F200031B78012BEBD145F22A
:103400000C00C5F2000002F0BFFE03467B824DF2C5
:103410003013C2F200031B887A8A9A42DDD94CF23B
:10342000D923C2F200034FF000021A70D6E700BFA2
:1034300080B500AF4CF2B830C2F2000006F048FF91
:1034400080BD00BF80B500AF4CF22440C2F2000046
:1034500006F03EFF80BD00BF80B500AF4CF6CC70DB
:10346000C2F2000006F034FF80BD00BF80B500AF9F
:103470004CF24850C2F2000006F02AFF80BD00BFA7
:1034800080B500AFFEF7ECFF80BD00BF80B500AF98
:10349000FFF7BEF980BD00BF80B500AFFFF7A4FA0B
:1034A00080BD00BF80B500AFFFF78AFB80BD00BFC5
:1034B00080B500AFFFF7C0F880BD00BF80B483B017
:1034C00000AF78600B46FB707B681B7803F1FF331D
:1034D000002B08DB7B681B7803F1FF33052B02DC34
:1034E0004FF0010301E04FF00003184607F10C070D
:1034F000BD4680BC704700BF80B483B000AF0B46B0
:103500003A600246FA71BB80F9794DF2C432C2F2D8
:1035100000020B464FEAC303C1EB03031344FA79DD
:103520001A70F9794DF2C432C2F200020B464FEA2A
:10353000C303C1EB030313443A794FF0000141EA9E
:1035400002025A707A794FF0000141EA02029A7041
:10355000F8793A684DF2C431C2F2000103464FEAED
:10356000C303C0EB03030B4402F0FF014FF0000064
:1035700040EA0101D9704FEA122101F0FF014FF03A
:10358000000040EA010119714FEA124101F0FF0108
:103590004FF0000040EA010159714FEA12624FF00A
:1035A000000141EA02029A7107F10C07BD4680BC96
:1035B000704700BF80B582B000AF78607B681B7831
:1035C00003F1FF314DF2C432C2F200020B464FEA62
:1035D000C303C1EB03031344DA7819794FEA0121DD
:1035E00041EA020259794FEA014141EA02029B791C
:1035F0004FEA036343EA02037868984707F1080734
:10360000BD4680BD80B485B000AF786007F1140777
:10361000BD4680BC704700BF80B586B002AF786001
:103620007B689A784CF6CD43CCF6CC43A3FB0213CF
:103630004FEAD303DBB24BF6BC6202FB03F3FB6041
:103640007B689B78002B00F0A5807B685B78002B63
:103650001CD1FB6800934DF29C30C2F2000046F290
:103660000001C5F200014FF000024FF0090305F020
:103670009FFF4DF29C30C2F2000006F03DF84DF283
:103680009C30C2F2000005F0FBFFBBE07B685B787A
:10369000012B1CD1FB6800934DF21410C2F2000004
:1036A00047F20001C5F200014FF000024FF009039C
:1036B00005F07EFF4DF21410C2F2000006F01CF877
:1036C0004DF21410C2F2000005F0DAFF9AE07B68B8
:1036D0005B78022B1CD1FB6800934DF24030C2F2A4
:1036E000000048F20001C5F200014FF000024FF067
:1036F000090305F05DFF4DF24030C2F2000005F015
:10370000FBFF4DF24030C2F2000005F0B9FF79E056
:103710007B685B78052B1CD1FB6800934DF2503021
:10372000C2F2000049F20001C5F200014FF00002B0
:103730004FF0090305F03CFF4DF25030C2F200009B
:1037400005F0DAFF4DF25030C2F2000005F098FFAC
:1037500058E07B685B78032B53D1FB6800934DF2F4
:103760003830C2F200004AF20001C5F200014FF009
:1037700000024FF0090305F01BFF4DF23830C2F292
:10378000000005F0B9FF4DF23830C2F2000005F03C
:1037900077FF37E07B685B78002B06D14DF29C30D9
:1037A000C2F2000005F08AFF2CE07B685B78012BF9
:1037B00006D14DF21410C2F2000005F07FFF21E0A7
:1037C0007B685B78022B06D14DF24030C2F20000DC
:1037D00005F074FF16E07B685B78052B06D14DF28F
:1037E0005030C2F2000005F069FF0BE07B685B78A7
:1037F000032B07D14DF23830C2F2000005F05EFF16
:1038000000E000BF07F11007BD4680BD80B483B063
:1038100000AF786003E07B6803F1FF337B607B6877
:10382000002BF8D107F10C07BD4680BC704700BFE4
:1038300080B584B000AF78607B685B78072B07D0D9
:103840007B685B78142B03D07B685B78212B22D1BB
:103850004BF68873C2F200031A687B6803F1010318
:10386000104619464FF001024FF0000304F038FEF5
:103870007B685A784CF2D623C2F200031A704BF6DA
:103880008873C2F200031B6803F101024BF68873D0
:10389000C2F200031A604BF68C73C2F200031B687D
:1038A0001B78072B40F0A4804BF68C73C2F2000308
:1038B0001B6803F101031B78142B40F099804BF631
:1038C0008C73C2F200031B6803F102031B78212BE7
:1038D00040F08E804BF68473C2F200031B78002BFD
:1038E00043D14DF20450C2F200004FF0000104F049
:1038F00075F94DF20453C2F200031A684DF20453F5
:10390000C2F200031B681B6843F08063136043F638
:103910008000C0F20100FFF779FF4FF000004FF484
:10392000805103F079FD0346FB7343F68000C0F23B
:103930000100FFF76BFFFB7B002B0DD04CF2E52362
:10394000C2F200031B7843F00103DAB24CF2E52324
:10395000C2F200031A704BE04FF001004FF48051A7
:1039600003F05AFD0346BB7342E04DF20450C2F22D
:1039700000004FF0000104F031F94DF20453C2F29F
:1039800000031A684DF20453C2F200031B681B685F
:1039900043F08063136043F68000C0F20100FFF73C
:1039A00035FF4FF000004FF4805103F035FD034622
:1039B000FB7343F68000C0F20100FFF727FFFB7B9B
:1039C000002B0DD04CF2E523C2F200031B7843F02C
:1039D0000103DAB24CF2E523C2F200031A7007E0E9
:1039E0004FF001004FF4805103F016FD0346BB7306
:1039F00007F11007BD4680BD80B584B000AF786088
:103A00007B689B784FEA03627B68DB784FEA03436D
:103A100042EA03027B681B794FEA032342EA03026E
:103A20007B685B7942EA03031A464CF2E023C2F258
:103A300000031A607B685A784CF2E423C2F2000358
:103A40001A704CF2E023C2F200031A6807F108036F
:103A50004FF0780011461A464FF0060302F044F882
:103A6000BB7A4FEA0362FB7A4FEA034342EA03025E
:103A70003B7B4FEA032342EA03027B7B42EA0303D8
:103A80001A464DF2D803C2F200031A604CF2E0234A
:103A9000C2F200031B6803F104024CF2E023C2F2FD
:103AA00000031A604CF2E023C2F200031A6807F127
:103AB00008034FF0780011461A464FF0060302F053
:103AC00013F8BB7A4FEA0362FB7A4FEA034342EAF8
:103AD00003023B7B4FEA032342EA03027B7B42EA79
:103AE00003031A464DF2D803C2F200035A6007F1ED
:103AF0001007BD4680BD00BF80B485B000AF7860C0
:103B00004FF00003FB730DE0FA7BF97B7B680B44FD
:103B100059784DF23803C2F200039954FB7B03F14C
:103B20000103FB73FB7B0F2BEED907F11407BD4696
:103B300080BC704780B483B000AF0346FB714EF287
:103B40000013CEF2000397F907204FEA5212F979D9
:103B500001F01F014FF0010000FA01F143F82210BB
:103B600007F10C07BD4680BC704700BF80B483B02E
:103B700000AF03463960FB7197F90730002B10DA6C
:103B80004EF60053CEF20003FA7902F00F02A2F1D2
:103B900004013A68D2B24FEA0212D2B20B441A764A
:103BA0000DE04EF20013CEF2000397F907103A68C9
:103BB000D2B24FEA0212D2B20B4483F8002307F1CB
:103BC0000C07BD4680BC704780B584B000AF4FF095
:103BD00000037B814FF001033B814FF0FF03BB806B
:103BE00045F20C00C5F2000002F0CEFA0346BB819C
:103BF00045F21000C5F2000002F0C6FA0346FB8150
:103C00004CF2D923C2F200034FF001021A704FF0B8
:103C1000010005F0ADFC07F11007BD4680BD00BFF7
:103C200090B58BB000AF4FF0000387F8273015E058
:103C300097F827404BF20C00C5F2000002F0BCFAE6
:103C400003461A4607F1280101EB040303F8242C6C
:103C500097F8273003F1010387F8273097F82730CA
:103C60001F2BE5D915E097F827404BF20C00C5F261
:103C7000000002F0A1FA03461A4607F1280101EB01
:103C8000040303F8242C97F8273003F1010387F885
:103C9000273097F827301F2BE5D907F10403184682
:103CA0004FF00001FFF764F84FF0030005F060FCEF
:103CB00007F12C07BD4690BD90B585B000AF786088
:103CC0004FF00003FB730FE0FA7B7B6802EB030409
:103CD0004CF20C00C5F2000002F06EFA03462370AD
:103CE000FB7B03F10103FB73FB7B1F2BECD94FF034
:103CF0000003FB730FE0FA7B7B6802EB03044CF2DA
:103D00000C00C5F2000002F057FA03462370FB7B5B
:103D100003F10103FB73FB7B1F2BECD907F11407A5
:103D2000BD4690BD80B584B000AF4FF001004FF0AC
:103D3000420105F097FB4FF0010005F0E9FB4FF061
:103D40003300FFF7F7FE4FF033004FF0FF01FFF7AE
:103D50000DFF4FF003004FF0620105F083FB4FF0C1
:103D6000030005F0D5FB4FF03500FFF7E3FE4FF001
:103D700035004FF0FD01FFF7F9FE4FF00003BB8067
:103D80004FF000037B8145F21400C5F200004FF0B4
:103D90000A0102F00FFA45F21800C5F200004FF0D8
:103DA000190102F007FA4BF21000C5F200004FF0C3
:103DB000070102F0FFF945F20800C5F2000002F029
:103DC000FBF90346BB73BB7BAB2B07D0FB7B43F0FC
:103DD0000103FB73FB7B4FEA4303FB73FB7B4FEA5F
:103DE0004303FB734BF20800C5F2000002F0E4F954
:103DF0000346BB73BB7BAB2B07D0FB7B43F00103BC
:103E0000FB73FB7B4FEA4303FB73FB7B4FEA4303EC
:103E1000FB734CF20800C5F2000002F0CDF9034636
:103E2000BB73BB7BAB2B07D0FB7B43F00103FB7366
:103E3000FB7B4FEA4303FB73FB7B4FEA4303FB73BC
:103E400045F20C00C5F2000002F09EF90346BB816A
:103E5000BB89002B07D0FB7B43F00103FB73FB7B8B
:103E60004FEA4303FB73FB7B4FEA4303FB7345F2CB
:103E70001000C5F2000002F087F903463B813B8940
:103E8000022B07D0FB7B43F00103FB73FB7B4FEA64
:103E90004303FB73FB7B4FEA4303FB734BF20C00C2
:103EA000C5F2000002F088F90346BB804CF20C001A
:103EB000C5F2000002F080F90346BB80FB7B184688
:103EC00007F11007BD4680BD80B586B002AFB9606E
:103ED00013460246FA73FB714DF2F433C2F200034B
:103EE0004FF000021A7032E0FB79FA7B4FF00001CC
:103EF00000914CF2B830C2F200001146BA6806F0E8
:103F000037F84CF2B830C2F200004FF0000106F072
:103F1000ABF903461A464DF2FC03C2F200031A70D5
:103F20004DF2FC03C2F200031B78002B02D14FF0CC
:103F3000000318E04DF2F433C2F200031B7803F1E2
:103F40000103DAB24DF2F433C2F200031A704DF2FB
:103F5000F433C2F200031B78092BC5D94DF2F433B8
:103F6000C2F200031B78184607F11007BD4680BD5A
:103F700080B586B002AFB96013460246FA73FB7192
:103F80004DF2F433C2F200034FF000021A7032E037
:103F9000FB79FA7B4FF0000100914CF2B830C2F28D
:103FA00000001146BA6806F055F84CF2B830C2F27B
:103FB00000004FF0000106F057F903461A464DF293
:103FC000FC03C2F200031A704DF2FC03C2F20003BC
:103FD0001B78002B02D14FF0000318E04DF2F433B0
:103FE000C2F200031B7803F10103DAB24DF2F4339D
:103FF000C2F200031A704DF2F433C2F200031B78D0
:10400000092BC5D94DF2F433C2F200031B781846D0
:1040100007F11007BD4680BD80B582B000AF0B46EA
:104020003A600246FA71BB71FA7907F1060310464D
:1040300019464FF00102FFF747FF0346092B02D94B
:104040004FF001030EE0FB79184639684FF0020289
:10405000FFF78EFF0346092B02D94FF0010301E061
:104060004FF00003184607F10807BD4680BD00BFAA
:1040700080B582B000AF0346FB714DF2EC33C2F263
:10408000000347F207021A804DF2F533C2F2000333
:104090004FF000021A70FB7918464DF2F531C2F26A
:1040A00000014FF00102FFF70FFF0346092B02D971
:1040B0004FF0010312E04DF2EC33C2F20003FA7943
:1040C000104619464FF00202FFF7FEFE0346092B89
:1040D00002D94FF0010301E04FF00003184607F149
:1040E0000807BD4680BD00BF80B582B000AF0B465B
:1040F0003A600246FA71BB714DF2F033C2F200032E
:104100004FF000021A704DF2F033C2F200034FF08C
:1041100000025A704DF2F233C2F200034FF0000277
:104120001A80BB794FEA4303DBB2FA79104619468D
:104130004DF2F032C2F20002FFF76EFF0346002B91
:104140001AD14DF2F033C2F200031B784FEA032379
:104150009AB24DF2F033C2F200035B7842EA0303F5
:104160009BB29AB24DF2F233C2F200031A803B685E
:104170004FF000021A700AE03B684FF001021A701B
:104180004DF2F233C2F200034FF000021A804DF2FA
:10419000F233C2F200031B88184607F10807BD4638
:1041A00080BD00BF80B582B000AF0B463A600246CA
:1041B000FA71BB714DF2F033C2F200034FF000020E
:1041C0001A704DF2F033C2F200034FF000025A7041
:1041D0004DF2F233C2F200034FF000021A80BB79B5
:1041E0004FEA4303DBB203F1FF33DBB2FA79104647
:1041F00019464DF2F032C2F20002FFF70DFF0346FE
:10420000002B1AD14DF2F033C2F200031B784FEAB3
:1042100003239AB24DF2F033C2F200035B7842EA14
:1042200003039BB29AB24DF2F233C2F200031A803A
:104230003B684FF000021A700AE03B684FF0010241
:104240001A704DF2F233C2F200034FF000021A80EE
:104250004DF2F233C2F200031B88184607F108073B
:10426000BD4680BD80B588B002AF78600B46FB705C
:104270004FF00003BB754FF00003FB754BF68062F7
:10428000C2F2000207F1100312681146198003F10F
:1042900002034FEA12421A704FF004033B734FF0CF
:1042A00000037B734FF00003BB7349E0BB7D1A46EC
:1042B0004FEA42021344DBB203F10503DBB23B7465
:1042C000BB7D1A464FEA42021344DBB203F10403FA
:1042D000DBB23B73FA7807F110034FF00001009155
:1042E000786811461A464FF0030305F041FE7868DE
:1042F0004FF0000105F0B8FF03467B75FA7807F12F
:104300000C034FF000010091786811461A464FF0F7
:10431000030305F02DFE78684FF0000105F0A4FFBF
:1043200003467B757A7DBB7D02FA03F3DAB2FB7D2F
:1043300042EA0303DBB2FB75BB7D03F10103BB75EE
:10434000BB7D032BB2D9FB7D184607F11807BD468C
:1043500080BD00BF80B58CB004AFF8607B600B46B9
:10436000FB721346BB72BB7A3B753B7D43F008037F
:10437000DBB23B753B7D4FEA0313DBB23B75FA7A48
:1043800007F1140307F1180100914FF002010191A8
:104390004FF000010291F86811461A464FF00103F0
:1043A00005F0CAFEF8684FF0000105F05DFF034616
:1043B0007B777B7F002B04D07B684FF001021A7063
:1043C00012E03B7E4FEA03239AB27B7E42EA03036C
:1043D0009BB2FB83FB8B4FEA03534FEA1353FB83E0
:1043E0007B684FF000021A70FB8B184607F120071C
:1043F000BD4680BD80B592B004AFF860B9607A6008
:104400004BF68863C2F200031B88BB864FF028037B
:1044100087F830304FF02A0387F82C304FF02C0308
:1044200087F828304FF0290387F824304FF02B030A
:1044300087F820304FF02D033B774FF0000387F8CB
:10444000363007F1340307F1180200924FF00102F1
:1044500001924FF0000202924CF24850C2F200006A
:104460004FF06A011A464FF0020305F065FE4CF268
:104470004850C2F200004FF0000105F0F5FE03467F
:1044800087F8373097F8362097F83730134487F895
:10449000363007F1280307F1180200924FF00102AD
:1044A00001924FF0000202924CF24850C2F200001A
:1044B0004FF06A011A464FF0010305F03DFE4CF241
:1044C0004850C2F200004FF0000105F0CDFE034657
:1044D00087F8373097F8362097F83730134487F845
:1044E000363007F11C0307F1140200924FF001026D
:1044F00001924FF0000202924CF24850C2F20000CA
:104500004FF06A011A464FF0010305F015FE4CF218
:104510004850C2F200004FF0000105F0A5FE03462E
:1045200087F8373097F8362097F83730134487F8F4
:1045300036303B7D4FEA03239AB23B7E42EA0303C7
:104540009BB29AB27B681A807B681B88B3F5004FD8
:1045500006D97B681B886FEA03039AB27B681A80CE
:1045600007F12C0307F1180200924FF001020192AB
:104570004FF0000202924CF24850C2F200004FF09D
:104580006A011A464FF0010305F0D6FD4CF248507F
:10459000C2F200004FF0000105F066FE034687F806
:1045A000373097F8362097F83730134487F836308D
:1045B00007F1200307F1140200924FF0010201926B
:1045C0004FF0000202924CF24850C2F200004FF04D
:1045D0006A011A464FF0010305F0AEFD4CF2485057
:1045E000C2F200004FF0000105F03EFE034687F8DE
:1045F000373097F8362097F83730134487F836303D
:104600003B7D4FEA03239AB23B7E42EA03039BB20F
:104610009AB2BB681A80BB681B88B3F5004F06D9F5
:10462000BB681B886FEA03039AB2BB681A8007F164
:10463000300307F1180200924FF0010201924FF08F
:10464000000202924CF24850C2F200004FF06A01A0
:104650001A464FF0010305F06FFD4CF24850C2F2CC
:1046600000004FF0000105F0FFFD034687F83730EA
:1046700097F8362097F83730134487F8363007F12B
:10468000240307F1140200924FF0010201924FF04F
:10469000000202924CF24850C2F200004FF06A0150
:1046A0001A464FF0010305F047FD4CF24850C2F2A4
:1046B00000004FF0000105F0D7FD034687F83730C2
:1046C00097F8362097F83730134487F836303B7D1B
:1046D0004FEA03239AB23B7E42EA03039BB29AB2AB
:1046E000FB681A80FB681B88B3F5004F06D9FB688E
:1046F0001B886FEA03039AB2FB681A8097F8373079
:10470000184607F13807BD4680BD00BF80B592B09E
:1047100004AFF860B9607A604BF68463C2F20003BC
:104720001B883B864FF0180387F82C304FF01A0394
:1047300087F828304FF01C0387F824304FF0190316
:1047400087F820304FF01B033B774FF01D033B767B
:104750004FF06A0387F835304FF0000387F83630A2
:1047600097F8352007F1300307F1140100914FF05D
:10477000010101914FF0000102914CF24850C2F248
:10478000000011461A464FF0020305F0D5FC4CF22A
:104790004850C2F200004FF0000105F065FD0346ED
:1047A00087F8373097F8362097F83730134487F872
:1047B000363097F8352007F1240307F114010091F2
:1047C0004FF0010101914FF0000102914CF248506D
:1047D000C2F2000011461A464FF0010305F0ACFC8E
:1047E0004CF24850C2F200004FF0000105F03CFDD1
:1047F000034687F8373097F8362097F83730134458
:1048000087F8363097F8352007F1180307F11001C3
:1048100000914FF0010101914FF0000102914CF223
:104820004850C2F2000011461A464FF0010305F04D
:1048300083FC4CF24850C2F200004FF0000105F03A
:1048400013FD034687F8373097F8362097F837304E
:10485000134487F836303B7C4FEA03239AB23B7D02
:1048600042EA03039BB29AB2FB681A8097F835209C
:1048700007F1280307F1140100914FF001010191A4
:104880004FF0000102914CF24850C2F20000114674
:104890001A464FF0010305F04FFC4CF24850C2F2AB
:1048A00000004FF0000105F0DFFC034687F83730C9
:1048B00097F8362097F83730134487F8363097F852
:1048C000352007F11C0307F1100100914FF00101A1
:1048D00001914FF0000102914CF24850C2F20000E9
:1048E00011461A464FF0010305F026FC4CF24850E1
:1048F000C2F200004FF0000105F0B6FC034687F855
:10490000373097F8362097F83730134487F8363029
:104910003B7C4FEA03239AB23B7D42EA03039BB2FE
:104920009AB2BB681A8097F8352007F12C0307F17B
:10493000140100914FF0010101914FF0000102912B
:104940004CF24850C2F2000011461A464FF00103E3
:1049500005F0F2FB4CF24850C2F200004FF00001AB
:1049600005F082FC034687F8373097F8362097F831
:104970003730134487F8363097F8352007F1200395
:1049800007F1100100914FF0010101914FF000017A
:1049900002914CF24850C2F2000011461A464FF004
:1049A000010305F0C9FB4CF24850C2F200004FF081
:1049B000000105F059FC034687F8373097F8362098
:1049C00097F83730134487F836303B7C4FEA03239F
:1049D0009AB23B7D42EA03039BB29AB27B681A808B
:1049E00097F83730184607F13807BD4680BD00BF3D
:1049F00080B58AB004AF78604FF015033B754FF077
:104A000016033B744FF06A03BB75BA7D07F11403BC
:104A100007F10C0100914FF0010101914FF00001ED
:104A200002914CF24850C2F2000011461A464FF073
:104A3000010305F081FB4CF24850C2F200004FF038
:104A4000000105F011FC0346FB75BA7D07F1100368
:104A500007F1080100914FF0010101914FF00001B1
:104A600002914CF24850C2F2000011461A464FF033
:104A7000010305F061FB4CF24850C2F200004FF018
:104A8000000105F0F1FB0346FB753B7B1A463B7AC0
:104A90004FEA03239BB242EA03039BB29AB27B68BC
:104AA0001A804FF00003184607F11807BD4680BD75
:104AB00080B586B002AF4DF2F633C2F200034FF07C
:104AC00000021A704FF00A004FF0010104F0E8FCF8
:104AD0004FF000033B714FF000037B714FF0000378
:104AE000BB714FF00003FB714FF000033B724FF0BE
:104AF0000003FB604FF00003FB600BE04DF28040D1
:104B0000C2F200004FF0FF0103F034F9FB6803F13B
:104B10000103FB60FB68092BF0D94DF28040C2F223
:104B200000004FF0000103F059F807F104034FF0C3
:104B3000010200924DF28040C2F200004BF69071EB
:104B4000C2F200014FF0070203F074F9FB6803F1B1
:104B50000103FB603B79012B06D03B79012B04D08C
:104B6000FB68FE2BE1D900E000BF4FF00003FB60C3
:104B70004DF28040C2F200004FF0FF0103F0FAF85E
:104B80004DF28040C2F200004FF0FF0103F0F2F856
:104B900007F104034FF0050200924DF28040C2F28B
:104BA00000004BF69871C2F200014FF0070203F0CB
:104BB00041F94DF28040C2F200004FF0FF0103F0D6
:104BC000D9F84DF28040C2F200004FF0FF0103F02F
:104BD000D1F8FB6803F10103FB603B7AAA2B10D1EB
:104BE000FB79012B0DD1BB79002B0AD17B79002BEE
:104BF00007D14DF2F633C2F200034FF001021A70F2
:104C000002E0FB68FE2BB3D9FB68FE2B0AD94DF2FC
:104C10008040C2F200004FF0000103F063F84FF053
:104C200001037EE14FF000033B714FF000037B7105
:104C30004FF00003BB714FF00003FB714FF0000316
:104C40003B724FF00003FB604DF2F633C2F20003FB
:104C50004FF000021A704DF28040C2F200004FF097
:104C6000FF0103F087F84DF28040C2F200004FF0E0
:104C7000FF0103F07FF807F104034FF005020092F3
:104C80004DF28040C2F200004BF6A071C2F200016A
:104C90004FF0070203F0CEF84DF28040C2F2000060
:104CA0004FF0FF0103F066F84DF28040C2F20000C1
:104CB0004FF0FF0103F05EF8FB6803F10103FB60B6
:104CC000FB79802B0AD1BB79FF2B07D14DF2F6334C
:104CD000C2F200034FF001021A7002E0FB68FE2BE3
:104CE000B9D9FB68FE2B0AD94DF28040C2F2000010
:104CF0004FF0000102F0F6FF4FF0010311E14FF019
:104D000000033B714FF000037B714FF00003BB7158
:104D10004FF00003FB714FF000033B724FF00003B4
:104D2000FB604DF2F633C2F200034FF000021A703E
:104D30004DF28040C2F200004FF0FF0103F01AF87C
:104D40004DF28040C2F200004FF0FF0103F012F874
:104D500007F104034FF0010200924DF28040C2F2CD
:104D600000004BF6A871C2F200014FF0070203F0F9
:104D700061F84DF28040C2F200004FF0FF0102F0F6
:104D8000F9FF07F104034FF0010200924DF2804059
:104D9000C2F200004BF6B071C2F200014FF0070200
:104DA00003F048F84DF28040C2F200004FF0FF01DE
:104DB00002F0E0FF4DF28040C2F200004FF0FF0130
:104DC00002F0D8FFFB6803F10103FB603B79002B85
:104DD00007D14DF2F633C2F200034FF001021A7010
:104DE00004E0FA6840F6F5139A42A1D94DF2F63381
:104DF000C2F200031B78002B0AD14DF28040C2F2B0
:104E000000004FF0000102F06DFF4FF0010388E059
:104E10004FF000033B714FF000037B714FF0000334
:104E2000BB714FF00003FB714FF000033B724FF07A
:104E30000003FB604DF2F633C2F200034FF00002B4
:104E40001A704DF28040C2F200004FF0FF0102F0F4
:104E500091FF4DF28040C2F200004FF0FF0102F0DE
:104E600089FF07F104034FF0050200924DF28040E4
:104E7000C2F200004BF6A071C2F200014FF007022F
:104E800002F0D8FF4DF28040C2F200004FF0FF0167
:104E900002F070FF4DF28040C2F200004FF0FF01BF
:104EA00002F068FFFB6803F10103FB60FB79802BD4
:104EB0000AD1BB79FF2B07D14DF2F633C2F20003C2
:104EC0004FF001021A7002E0FB68FE2BB9D9FB68B3
:104ED000FE2B0AD94DF28040C2F200004FF00001D3
:104EE00002F000FF4FF001031BE04DF2F633C2F277
:104EF00000031B78012B0AD14DF28040C2F2000062
:104F00004FF0000102F0EEFE4FF0000309E04DF219
:104F10008040C2F200004FF0000102F0E3FE4FF0CB
:104F20000103184607F11007BD4680BD80B58CB05F
:104F300002AF786039607B684FEA1363D8B27B6850
:104F40004FEA1343D9B27B684FEA1323DAB27B6886
:104F5000DBB24FF0580C87F818C07876B976FA763D
:104F60003B774FF0FF337B774FF0FF33BB774FF04A
:104F700000033B744FF000037B744FF00003BB74DD
:104F80004FF00003FB744FF000033B754FF000033C
:104F9000FB776FF00103FB734FF000033B624FF0B0
:104FA00000037B624DF28040C2F200004FF0FF012F
:104FB00002F0E0FE4DF28040C2F200004FF000012E
:104FC00002F00CFE4DF28040C2F200004FF0FF01F3
:104FD00002F0D0FE07F1180207F110034FF00101B3
:104FE00000914DF28040C2F2000011464FF00702DE
:104FF00002F020FF4DF28040C2F200004FF0FF01AE
:1050000002F0B8FE3B6A03F101033B623B7C002BDC
:1050100077D107F10F0207F110034FF00101009162
:105020004DF28040C2F2000011464FF0010202F042
:1050300001FF07F110034FF0000200924DF2804093
:10504000C2F2000039684FF4007202F0F3FE17E07C
:105050004DF28040C2F200004FF0FF0102F08AFEE4
:105060000346DBB23B743B7C03F01F03052B03D1EB
:105070004FF00103FB7706E07B6A03F101037B62DB
:105080007B6A632BE4D9FB7F012B3FD14FF00003F8
:10509000FB774FF000037B622FE04DF28040C2F2BD
:1050A00000004FF0FF0102F065FE0346DBB23B74E7
:1050B0003B7C002B1DD04FF00103FB774DF280406D
:1050C000C2F200004FF0FF0102F054FE4DF28040AA
:1050D000C2F200004FF0000102F004FE4DF28040E9
:1050E000C2F200004FF0FF0102F044FE4FF0000357
:1050F00035E07B6A03F101037B627B6A632BCCD9C9
:1051000005E03B6AFE2B7FF64DAF00E000BF3B6A37
:10511000FE2B12D94DF28040C2F200004FF0000188
:1051200002F0E0FD4DF28040C2F200004FF0FF01BE
:1051300002F020FE4FF0010311E04DF28040C2F278
:1051400000004FF0000102F0CDFD4DF28040C2F2B0
:1051500000004FF0FF0102F00DFE4FF00103184672
:1051600007F12807BD4680BD80B58CB002AF7860DE
:1051700039607B684FEA1363D8B27B684FEA134308
:10518000D9B27B684FEA1323DAB27B68DBB24FF007
:10519000510C87F818C07876B976FA763B774FF0DD
:1051A000FF337B774FF0FF33BB774FF000033B7447
:1051B0004FF000037B744FF00003BB744FF000030B
:1051C000FB744FF000033B754FF00003FB774FF08B
:1051D000FF33FB734FF000033B624FF00003FB848F
:1051E0004DF28040C2F200004FF0FF0102F0C2FD1C
:1051F0004DF28040C2F200004FF0000102F0EEFCE0
:105200004DF28040C2F200004FF0FF0102F0B2FD0B
:1052100007F1180207F110034FF0010100914DF260
:105220008040C2F2000011464FF0070202F002FE79
:1052300056E04DF28040C2F200004FF0FF0102F054
:1052400099FD0346DBB23B74FB8C03F10103FB8445
:105250003B7CFE2B44D14DF28040C2F200004FF067
:10526000FF0102F087FD07F10F034FF40072009277
:105270004DF28040C2F2000019464FF000023B6838
:1052800002F0D8FD4DF28040C2F200004FF0FF0165
:1052900002F070FD4DF28040C2F200004FF0FF01BD
:1052A00002F068FD4FF00103FB774DF28040C2F23F
:1052B00000004FF0FF0102F05DFD4DF28040C2F2B0
:1052C00000004FF0000102F00DFD4DF28040C2F2EF
:1052D00000004FF0FF0102F04DFD4FF000031CE015
:1052E000FB8CF92BA5D93B6A03F101033B623B6AB6
:1052F000632B7FF675AF4DF28040C2F200004FF095
:10530000000102F0EFFC4DF28040C2F200004FF0CD
:10531000FF0102F02FFD4FF00103184607F12807A7
:10532000BD4680BD80B485B000AFF860B9607A60DA
:10533000FB68BA681A60FB687A685A60FB68BA68EA
:105340009A60FB68BA68DA6007F11407BD4680BC52
:10535000704700BF80B582B000AF786039607B686D
:10536000DA687B685B689A4205D27B68DA687B689A
:105370001B689A4202D24FF0020313E07B68DB689D
:1053800018463968FFF7D2FD0346002B08D17B6829
:10539000DB6803F101027B68DA604FF0000301E093
:1053A0004FF00103184607F10807BD4680BD00BF56
:1053B00080B582B000AF786039607B689A687B689E
:1053C000DB689A4205D27B689A687B681B689A42C0
:1053D00002D24FF0020313E07B689B6818463968DD
:1053E000FFF7C2FE0346002B08D17B689B6803F1E0
:1053F00001027B689A604FF0000301E04FF0010367
:10540000184607F10807BD4680BD00BF80B582B0D1
:1054100000AF78604FF006004FF0050104F022F86D
:105420004FF006004FF0010104F03AF8786842F2BC
:105430000001C5F200014FF010024FF0000304F02C
:1054400021FD78684FF0000104F00EFF03461A4674
:105450004DF2FC03C2F200031A704DF2FC03C2F2DB
:1054600000031B78184607F10807BD4680BD00BF42
:1054700080B584B002AF786039604BF6B873C2F281
:1054800000031B784FF00002009278684FF0320161
:105490003A6804F0DFFD78684FF0000104F0E4FEA4
:1054A00003461A464DF2FC03C2F200031A704DF295
:1054B000FC03C2F200031B78184607F10807BD463B
:1054C00080BD00BF80B586B002AF786039604FF014
:1054D0000103FB734FF001033B73FB7B07F10C02ED
:1054E0004FF00101009178684FF0320104F040FD67
:1054F00078684FF0000104F0B7FE03461A464DF2FB
:10550000FC03C2F200031A704BF6B873C2F2000338
:105510001B784FF00002009278684FF032013A6831
:1055200004F098FD78684FF0000104F09DFE0346FA
:105530001A464DF2FC03C2F200031A704DF2FC034E
:10554000C2F200031B78184607F11007BD4680BD64
:1055500090B585B000AF786039604FF00003FB7301
:105560002EE0FA7B3B6802EB0304FB7B4CF6CC702D
:10557000C2F200004FF021011A464DF2F633C2F29A
:105580000003FEF7E7FE0346DBB223704DF2F7336C
:10559000C2F200031B784FEA4303DAB24DF2F6334E
:1055A000C2F200031B7842EA0303DBB2DAB24DF227
:1055B000F733C2F200031A70FB7B03F10103FB73A4
:1055C000FB7B072BCDD907F11407BD4690BD00BF6B
:1055D00080B483B000AF78604DF2F833C2F20003BC
:1055E0007A681A6007F10C07BD4680BC704700BF9F
:1055F00080B58AB002AF4FF0FF33FB604FF0FF334E
:10560000FB724FF00003BB764FF00103FB764FF0C7
:105610000003BB724FF000033B714FF0FF337B710F
:105620004FF01003BB714FF01703FB714CF2944025
:10563000C2F2000044F20001C5F200014FF008027E
:1056400004F092F84CF29440C2F2000004F0FEF82C
:105650004FF005004FF0050103F004FF4CF29440B9
:10566000C2F20000FFF7B4FF4FF005004FF0000159
:1056700003F016FF4FF00003BB834FF00003BB8322
:1056800003E0BB8B03F10103BB83BA8B40F2E7332A
:105690009A42F6D94FF005004FF0010103F000FFE8
:1056A0004FF00003BB834DF2F833C2F200031B68D6
:1056B00018464FF0000104F00BF94FF00003BB83D4
:1056C00003E0BB8B03F10103BB83BA8B40F25D1394
:1056D0009A42F6D94DF2F833C2F20003196807F185
:1056E0000B0207F10A034FF0010000900846114633
:1056F0004FF0010200F026FBBB7A002B1AD04FF0CE
:105700000003FB764DF2F833C2F200031B68184623
:105710004FF0000104F030F94FF00003BB8303E0C9
:10572000BB8B03F10103BB83BA8B40F2E7339A4290
:10573000F6D906E0BB7E03F10103BB76BB7E092BE5
:10574000B1D94DF2F833C2F200031B6818464FF08E
:10575000000104F0BDF84DF2F833C2F200031968FD
:1057600007F10B0207F10A034FF001000090084611
:1057700011464FF0010200F0E5FA4FF00003FB7014
:105780004FF0FF33BB704FF00003BB774DF2F8339F
:10579000C2F20003196807F1020207F103034FF098
:1057A00001000090084611464FF0010200F0CAFACD
:1057B000FB7803F02003002B04D0FB7803F00403F4
:1057C000002B0CD1BB7F632B8CBF00230123DBB2EA
:1057D000BA7F02F10102BA77002BD7D100E000BFF7
:1057E0004DF2F833C2F200031B6818464FF0000177
:1057F00004F0C2F84FF00003BB7706E000F050FB66
:105800000346FB77FB7F012B0CD0BB7F632B8CBF48
:1058100000230123DBB2BA7F02F10102BA77002B29
:10582000ECD100E000BF00F095F80346BB76BB7EEC
:10583000002B07D100F00AFA0346BB76BB7E002B93
:1058400003D00AE04FF0030318E000F03DFA0346EE
:10585000BB76BB7E002B03D00FE04FF002030DE0C0
:1058600007F104034FF0380040F20051C2F200018A
:105870001A464FF0040300F0EDF8FFE7184607F171
:105880002007BD4680BD00BF80B588B002AF7860FC
:105890000B467B804FF00003FB604DF2F833C2F201
:1058A00000031B6818464FF0000104F011F87A68F5
:1058B000FB6813441B784FEA0342FB6803F10101C4
:1058C0007B680B441B784FEA032342EA0302FB6820
:1058D00003F102017B680B441B7842EA03037B61FE
:1058E0007A694FF6FF739A4202D94FF001032BE019
:1058F000FB6803F103037A6813443B614DF2F8330C
:10590000C2F200031A683B6903F101037969A1F14E
:1059100004010091104639694FF0010200F046FA87
:10592000FA687B691344FB607A88FB689A42BED8A8
:105930004DF2F833C2F200031B6818464FF0000125
:1059400004F01AF84FF00003184607F11807BD4697
:1059500080BD00BF80B588B000AF4BF68C63C2F24B
:1059600000031B68BB614BF69063C2F200031B6827
:105970007B614BF69463C2F200031B683B614BF6FC
:105980009863C2F200031B68FB604FF000033B7199
:105990004FF000037B714FF00003BB714FF0000329
:1059A000FB714FF000033B724FF000037B724FF02E
:1059B0000003FB774BF6BC70C2F200004FF4367167
:1059C000FFF762FF0346BB77BB7F002B02D04FF08F
:1059D00003033AE04FF0850000F0D2F80346BB77AE
:1059E000BB7F002B02D04FF001032EE04FF082006E
:1059F00000F0C6F80346BB77BB7F002B0ED0BB7F01
:105A00006FEA83636FEA9363DBB21EE000F048FA4B
:105A10000346BB77BB7F022B0ED000E000BFFB7FAD
:105A2000632B8CBF00230123DBB2FA7F02F101025A
:105A3000FA77002BEAD100E000BFFB7F632B02D98D
:105A40004FF0010301E04FF00003184607F1200773
:105A5000BD4680BD80B588B002AFB9607A603B605A
:105A60000346FB73BB684FEA1363D8B2BB684FEAC7
:105A70001343D9B2BB684FEA1323DAB2BB68DBB277
:105A800097F80FC087F810C07874B974FA743B7532
:105A90004DF2F833C2F200031B6818464FF00001C4
:105AA00003F016FF4DF2F833C2F200031A6807F153
:105AB000100339680091104619464FF005027B68C3
:105AC00000F074F94DF2F833C2F200031B68184677
:105AD0004FF0000103F050FF4FF00003184607F1AC
