:1000000000800020910100007F03000081030000B8
:100010008303000085030000870300000000000048
:100020000000000000000000000000008903000044
:100030008B030000000000008D0300008F03000010
:100040009103000093030000C9800000ED800000D0
:10005000990300009B0300009D0300009F03000024
:10006000A1030000A3030000496700006D670000C2
:10007000A9030000AB030000AD030000AF030000C4
:10008000B1030000B3030000B503000005B0000099
:10009000B9030000BB030000BD030000BF03000064
:1000A000C1030000C3030000C5030000C703000034
:1000B000C9030000CB030000CD030000CF03000004
:1000C000D1030000D30300003138000045380000A0
:1000D000593800006D380000813800008D3800006C
:1000E00099380000A5380000B1380000E70300008F
:1000F000E9030000EB030000ED030000EF03000044
:10010000F1030000F3030000F5030000A53E00002A
:10011000F9030000FD3E0000FD030000FF030000A6
:1001200001040000030400000504000007040000AF
:10013000090400000B0400000D0400000F0400007F
:10014000110400001304000015040000170400004F
:10015000190400001B0400001D0400001F0400001F
:1001600021040000230400002504000027040000EF
:10017000290400002B0400002D0400002F040000BF
:100180003104000033040000000000000000000003
:100190004FF0000BDFF8BE020068DFF8B612096806
:1001A00001F0030100F01C00142801D14BF0020BF8
:1001B000002901D04BF0010BBBF1000F05D0A7487F
:1001C000A749DFF8722200F09FF8A64880470BF09D
:1001D000020ABAF1000F0CD0DFF86E02DFF86E12DF
:1001E00002680B680FB44FF000024FF0FF0302608B
:1001F0000B609D489D4A9E4B022808D1DFF83E12B5
:100200000A60DFF842120A60DFF836120B6001283C
:1002100008D1DFF82E120A60DFF82A120A60DFF830
:100220001E120B609348002809D193489349944AC1
:1002300000F032F893489449944A00F02DF894481D
:100240009449954A00F028F894489549DFF8E6214A
:1002500000F05AF8BBF1000F12D092489249DFF833
:10026000DA2100F051F80BF0020ABAF1000F07D0C2
:100270000FBC02600B6000BFAFF30080AFF30080E3
:10028000DFF828020FF2030E00474FF000004FF096
:100290000001DFF81CF2FEE72DE9F841884225D085
:1002A000B2EB010200D5FEE740EA010313F00303BD
:1002B00002D000F01DF819E04FF000039046121133
:1002C000F7D09A421CBFF0C8F0C103F10103F8D186
:1002D00008F00F08B8F1000F08D004780C7000F196
:1002E000010001F10101B8F10108F6D1BDE8F88182
:1002F00008B54FF0000303780B7000F1010001F125
:100300000101013AF7D108BD884237D000F0030659
:10031000002E14D04FF00405A5EB06044FF008079B
:1003200007FB06F8914669FA08F9002C07D080F817
:10033000009069FA07F900F10100013CF5E74FF080
:1003400000060F46091A88460911914614461546BB
:10035000B14206D018BFA0E8340206F10106B1424E
:10036000F8D108F00F08B8F1000F07D002704FEA7B
:10037000322200F10100B8F10108F4E77047FEE70E
:10038000FEE7FEE7FEE7FEE7FEE7FEE7FEE7FEE745
:10039000FEE7FEE7FEE7FEE7FEE7FEE7FEE7FEE735
:1003A000FEE7FEE7FEE7FEE7FEE7FEE7FEE7FEE725
:1003B000FEE7FEE7FEE7FEE7FEE7FEE7FEE7FEE715
:1003C000FEE7FEE7FEE7FEE7FEE7FEE7FEE7FEE705
:1003D000FEE7FEE7FEE7FEE7FEE7FEE7FEE7FEE7F5
:1003E000FEE7FEE7FEE7FEE7FEE7FEE7FEE7FEE7E5
:1003F000FEE7FEE7FEE7FEE7FEE7FEE7FEE7FEE7D5
:10040000FEE7FEE7FEE7FEE7FEE7FEE7FEE7FEE7C4
:10041000FEE7FEE7FEE7FEE7FEE7FEE7FEE7FEE7B4
:10042000FEE7FEE7FEE7FEE7FEE7FEE7FEE7FEE7A4
:10043000FEE7FEE7704700000000A2A2A2A2008033
:100440000340088003401080034030800340348024
:10045000034038800340180802400000007000206C
:100460000080002031AB0000000000000000000010
:10047000010000000000000000000000000000007B
:1004800090010000C0040000C0040000B0B90000EA
:10049000B0B9000000B0002050B3002050B30020DD
:1004A00010C6002000000020007000207DB7000072
:1004B00041340000AFF30080AFF30080AFF3008061
:1004C0004BF25033C2F200031A780AB901201870B7
:1004D000704700BF4BF20000C2F2000008B503688D
:1004E0002BB140F20003C0F2000303B1984708BDEE
:1004F00080B483B000AF7860396044F20003C4F286
:1005000000035A6B3B681A6044F20003C4F2000314
:100510001A6B7B681A6007F10C07BD4680BC7047F8
:1005200080B400AF45F20003C4F200031B68184614
:10053000BD4680BC704700BF80B582B000AF4FF0B1
:100540000003FB801EE04BF25733C2F200031B781E
:1005500003F1FF31FA884BF64C03C2F200034FEA75
:1005600001210A4433F8123045F20000C5F20000C0
:10057000194605F087FFFB88FF2B07D0FB8803F1A6
:100580000103FB80FB88FF2BDDD900E000BF07F1F2
:100590000807BD4680BD00BF80B500AF4BF23840B4
:1005A000C2F200004FF0A0414FF040024FF00003B4
:1005B00009F080FA4BF2C850C2F2000043F2000189
:1005C000C5F200014FF06A024FF0000309F072FA21
:1005D0004BF2A440C2F2000041F20001C5F200015A
:1005E0004FF023024FF0070309F064FA80BD00BF0B
:1005F00080B586B000AFB96013460246FA73FB714E
:100600004FF00003FB74BB687B61FA794BF25833FF
:10061000C2F200031B781344FE2B50DD4BF257331C
:10062000C2F200031B7803F10103DAB24BF2573335
:10063000C2F200031A70FFF77FFF4BF25833C2F289
:1006400000034FF000021A704BF25733C2F200035E
:100650001B78042B33D14BF25733C2F200034FF017
:1006600000021A702BE04BF25733C2F200031B78E2
:1006700018464BF25833C2F200031B781A46FB7C33
:100680001A44F97C7B690B441B78194697F813C010
:100690007B6963441B784FEA03239BB241EA03035F
:1006A0009BB299B24BF64C03C2F200034FEA002012
:1006B000024423F81210FB7C03F10103FB74FA7C63
:1006C000FB799A42CFD34BF25833C2F200031A7827
:1006D000FB791344DAB24BF25833C2F200031A70BA
:1006E00007F11807BD4680BD80B485B000AF7860C3
:1006F0000B467B804FF000033B734FF000037B738E
:100700004FF00003BB734FF00003FB734FF0000387
:10071000FB733AE03A7BF97B7B680B441B7802EB76
:10072000030148F28103C8F2800383FB01230B44D9
:100730004FEAE3124FEAE173C3EB020213464FEABA
:100740000323C2EB0303C3EB010213463B737A7B23
:100750003B7B02EB030148F28103C8F2800383FB79
:1007600001230B444FEAE3124FEAE173C3EB0202A9
:1007700013464FEA0323C2EB0303C3EB0102134604
:100780007B73FB7B03F10103FB73FB7B7A889A424B
:10079000C0D83A7B7B7B02EB030148F28103C8F2AD
:1007A000800383FB01230B444FEAE3124FEAE1731A
:1007B000C3EB020213464FEA0323C2EB0303C3EB6E
:1007C0000102D3B26FEA0303BB733A7BBB7B02EB3C
:1007D000030148F28103C8F2800383FB01230B4429
:1007E0004FEAE3124FEAE173C3EB020213464FEA0A
:1007F0000323C2EB0303C3EB0102D3B26FEA03038B
:100800007B737B7B4FEA03239AB2BB7B42EA0303F1
:100810009BB29BB2184607F11407BD4680BC7047D7
:1008200090B58FB000AF4BF23862C2F200024BF2CB
:100830001053C2F200031A604FF000037B864FF0A2
:10084000000387F835304BF6A003C0F2000307F130
:10085000040C9E46BEE80F00ACE80F00DEF8003046
:10086000ACF800304CF2D832C2F200024CF2C8337D
:10087000C2F2000310461946FFF73AFE07F13001B5
:1008800007F12E0207F12C03084611461A4603F021
:10089000F3FE0346002B0CBF002301237B8607F1E8
:1008A0002A0107F1280207F12603084611461A46D5
:1008B00004F06EF80346002B02D04FF0020301E073
:1008C0004FF00003798E1A460B4642EA03039BB2AF
:1008D0007B8607F11A03184604F0CCF90346002B77
:1008E00014BF00230123002B03D04FEA83039BB2E4
:1008F00001E04FF00403798E1A460B4642EA0303E7
:100900009BB27B864BF21053C2F200031A684BF283
:100910000403C2F200031B7853744BF21053C2F26B
:1009200000031B684FF0000242F030029A744FF04F
:10093000000242F07502DA744BF21053C2F2000367
:100940001C68FFF7EDFD034603F0FF024FF00001C6
:1009500041EA020222754FEA132202F0FF024FF031
:10096000000141EA020262754FEA134202F0FF02FF
:100970004FF0000141EA0202A2754FEA13634FF003
:10098000000242EA0303E3754BF21053C2F2000384
:100990001A684BF27033C2F200031B7893764BF265
:1009A0001053C2F200031A684CF2E033C2F20003A3
:1009B0001B681B7813764BF21053C2F200031A68BF
:1009C0004BF26933C2F200031B78937316E04BF2CB
:1009D0001053C2F20003196897F8350097F83520D4
:1009E0004CF2B803C2F200039A5C00EB0103DA7622
:1009F00097F8353003F1010387F8353097F8353033
:100A00000F2BE4D94BF21053C2F200031A684BF2D9
:100A10006C33C2F200031B78D3734BF21053C2F253
:100A200000031A684BF26D33C2F200031B78137493
:100A30004BF21053C2F200031B683A8E02F0FF0122
:100A40004FF0000040EA010183F82B104FEA122218
:100A500092B24FF0000141EA020283F82C204BF2DF
:100A60001053C2F200031B68FA8D02F0FF014FF031
:100A7000000040EA010183F82D104FEA122292B2E1
:100A80004FF0000141EA020283F82E204BF210538E
:100A9000C2F200031B68BA8D02F0FF014FF00000A4
:100AA00040EA010183F82F104FEA122292B24FF070
:100AB000000141EA020283F830204BF21053C2F2E7
:100AC00000031B687A8D02F0FF014FF0000040EA3E
:100AD000010183F831104FEA122292B24FF0000167
:100AE00041EA020283F832204BF21053C2F20003B3
:100AF0001B683A8D02F0FF014FF0000040EA01014F
:100B000083F833104FEA122292B24FF0000141EA0B
:100B1000020283F834204BF21053C2F200031B6828
:100B2000FA8C02F0FF014FF0000040EA010183F867
:100B300035104FEA122292B24FF0000141EA020250
:100B400083F836204BF21053C2F200031B687A8BF5
:100B500002F0FF014FF0000040EA010183F8371076
:100B60004FEA122292B24FF0000141EA020283F8EA
:100B700038204BF21053C2F200031C6807F119032E
:100B80004BF23840C2F200004FF040014FF0020239
:100B900003F0E8FB034603F0FF024FF0000141EAD7
:100BA000020284F839204FEA13239BB24FF000026F
:100BB00042EA030384F83A307B7E4FEAC3039AB2D9
:100BC0007B8E42EA03039BB27B864BF21053C2F248
:100BD00000031C6807F119034BF23840C2F2000011
:100BE0004FF040014FF0030203F0BCFB034603F05B
:100BF000FF024FF0000141EA020284F83B204FEA75
:100C000013239BB24FF0000242EA030384F83C3006
:100C10007B7E4FEA03139AB27B8E42EA03039BB2B8
:100C20007B864BF21053C2F200031C6807F11903D4
:100C30004BF2A440C2F200004FF040014FF001021D
:100C400003F090FB034603F0FF024FF0000141EA7E
:100C5000020284F83D204FEA13239BB24FF00002BA
:100C600042EA030384F83E304BF21053C2F2000311
:100C70001C6807F119034BF2A440C2F200004FF0C8
:100C800040014FF0020203F06DFB034603F0FF0248
:100C90004FF0000141EA020284F83F204FEA13239B
:100CA0009BB24FF0000242EA030384F840304BF25B
:100CB0001053C2F200031C6807F119034BF2A44061
:100CC000C2F200004FF040014FF0030203F04AFB74
:100CD000034603F0FF024FF0000141EA020284F8EC
:100CE00041204FEA13239BB24FF0000242EA030374
:100CF00084F842304BF21053C2F200031B684CF2EE
:100D00000C42C2F20002D26802F0FF014FF0000074
:100D100040EA010183F851104FEA122101F0FF016E
:100D20004FF0000040EA010183F852104FEA1241EF
:100D300001F0FF014FF0000040EA010183F8531079
:100D40004FEA12624FF0000141EA020283F8542098
:100D50004BF21053C2F200031B684CF20C42C2F279
:100D60000002926802F0FF014FF0000040EA01012A
:100D700083F84D104FEA122101F0FF014FF00000FF
:100D800040EA010183F84E104FEA124101F0FF01E1
:100D90004FF0000040EA010183F84F104FEA126261
:100DA0004FF0000141EA020283F850204BF2105349
:100DB000C2F200031B684CF2FC32C2F20002D2689D
:100DC00002F0FF014FF0000040EA010183F86110DA
:100DD0004FEA122101F0FF014FF0000040EA01014B
:100DE00083F862104FEA124101F0FF014FF000005A
:100DF00040EA010183F863104FEA12624FF00001EC
:100E000041EA020283F864204BF21053C2F200035D
:100E10001B684CF2FC32C2F20002926802F0FF0141
:100E20004FF0000040EA010183F85D104FEA122103
:100E300001F0FF014FF0000040EA010183F85E106D
:100E40004FEA124101F0FF014FF0000040EA0101BA
:100E500083F85F104FEA12624FF0000141EA02028C
:100E600083F860204BF21053C2F200031B684CF26F
:100E7000E832C2F20002D26802F0FF014FF0000037
:100E800040EA010183F859104FEA122101F0FF01F5
:100E90004FF0000040EA010183F85A104FEA124176
:100EA00001F0FF014FF0000040EA010183F85B1000
:100EB0004FEA12624FF0000141EA020283F85C201F
:100EC0004BF21053C2F200031B684CF2E832C2F23C
:100ED0000002926802F0FF014FF0000040EA0101B9
:100EE00083F855104FEA122101F0FF014FF0000086
:100EF00040EA010183F856104FEA124101F0FF0168
:100F00004FF0000040EA010183F857104FEA1262E7
:100F10004FF0000141EA020283F858204BF21053CF
:100F2000C2F200031C6807F119034BF23840C2F209
:100F300000004FF040014FF0020203F073FA034645
:100F400003F0FF024FF0000141EA020284F843205F
:100F50004FEA13239BB24FF0000242EA030384F8E6
:100F600044307B7E4FEA43139AB27B8E42EA0303FE
:100F70009BB27B864BF21053C2F200031C6807F150
:100F800019034BF23840C2F200004FF040014FF01D
:100F9000030203F047FA034603F0FF024FF000019B
:100FA00041EA020284F845204FEA13239BB24FF036
:100FB000000242EA030384F846307B7E4FEA831343
:100FC0009AB27B8E42EA03039BB27B864BF21053AC
:100FD000C2F200031C6807F119034BF2A440C2F2ED
:100FE00000004FF040014FF0010203F01BFA0346EE
:100FF00003F0FF024FF0000141EA020284F84720AB
:101000004FEA13239BB24FF0000242EA030384F835
:1010100048304BF21053C2F200031C6807F1190369
:101020004BF2A440C2F200004FF040014FF0020228
:1010300003F0F8F9034603F0FF024FF0000141EA24
:10104000020284F849204FEA13239BB24FF00002BA
:1010500042EA030384F84A304BF21053C2F2000311
:101060001C6807F119034BF2A440C2F200004FF0D4
:1010700040014FF0030203F0D5F9034603F0FF02ED
:101080004FF0000141EA020284F84B204FEA13239B
:101090009BB24FF0000242EA030384F84C304BF25B
:1010A0001053C2F200031A684BF25633C2F2000327
:1010B0001B7853764FF0000387F8353002F050FF6D
:1010C00017E04BF21053C2F20003196897F835008D
:1010D00097F835204CF22043C2F200039A5C00EBF3
:1010E000010383F8662097F8353003F1010387F890
:1010F000353097F835301F2BE3D94BF21053C2F23D
:1011000000031B684FF0000242F008021A704FF013
:10111000000242F001025A704BF21053C2F2000377
:1011200018684BF25233C2F2000319880B466FEA7B
:1011300083436FEA93439BB29BB24FEA03231FFAA8
:1011400083FC4BF25233C2F200031A8813466FEA53
:1011500083436FEA93439BB29BB24FEA13239BB244
:101160004CEA03039BB29BB203F0FF0C4FF0000E5E
:101170004EEA0C0C80F802C04FEA13239BB24FF0EA
:10118000000C4CEA0303C37001F1010399B24BF266
:101190005233C2F20003198002F101039AB24BF2FA
:1011A0005233C2F200031A804BF21053C2F2000312
:1011B0001A684FF0000313714FF000036FEA030346
:1011C00003F077036FEA030353714BF21053C2F23B
:1011D00000031B684CF2C832C2F20002D2E90001DF
:1011E000024602F0FF014FF0000040EA010199724F
:1011F0004FEA122101F0FF014FF0000040EA010127
:10120000D9724FEA124101F0FF014FF0000040EAAD
:10121000010119734FEA12624FF0000141EA020224
:101220005A734BF21053C2F200031B684CF2D832CF
:10123000C2F20002D2E90001024602F0FF014FF0C3
:10124000000040EA010199714FEA122101F0FF010B
:101250004FF0000040EA0101D9714FEA124101F05C
:10126000FF014FF0000040EA010119724FEA1262DB
:101270004FF0000141EA02025A724BF25A33C2F2B5
:1012800000031B78142B0ED14BF25A33C2F2000329
:101290004FF001021A704BF27633C2F200034FF0A6
:1012A00000021A700CE04BF25A33C2F200031B78B2
:1012B00003F10103DAB24BF25A33C2F200031A709F
:1012C0004BF25933C2F200031B78002B55D04BF27E
:1012D0006E33C2F200034FF001021A704BF210534A
:1012E000C2F200031A684BF26E33C2F200031B789D
:1012F00082F865304BF21053C2F200031C684BF2C7
:101300003860C2F200004FF08601FFF7EDF90346A6
:1013100003F0FF024FF0000141EA020284F8862048
:101320004FEA13239BB24FF0000242EA030384F812
:1013300087304CF20C40C2F200004BF23861C2F22E
:10134000000104F049F90346002B02D04FF080035E
:1013500001E04FF00003798E1A460B4642EA030380
:101360009BB27B864CF20C40C2F200004BF238611B
:10137000C2F2000104F030F93DE04BF26E33C2F2EC
:1013800000034FF000021A704BF21053C2F2000338
:101390001A684BF26E33C2F200031B7882F8653094
:1013A0004BF21053C2F200031C684BF23860C2F2D9
:1013B00000004FF08601FFF797F9034603F0FF02A4
:1013C0004FF0000141EA020284F886204FEA13231D
:1013D0009BB24FF0000242EA030384F887304BF2DD
:1013E0001053C2F200031B684FF0000019464FF083
:1013F0008802FFF7FDF87B8E184607F13C07BD46D3
:1014000090BD00BFB0B582B000AF4FF000033B719C
:101410004FF000037B714FF00003FB804BF238620A
:10142000C2F200024BF23463C2F200031A604CF2C3
:10143000D832C2F200024CF2C833C2F200031046A6
:101440001946FFF755F84BF23463C2F200031B68EC
:101450004FF0000242F008021A704FF0000242F012
:1014600004025A704BF23463C2F2000318684BF264
:101470005433C2F2000319880B466FEA83436FEAC4
:1014800093439BB29BB24FEA03231FFA83FC4BF2B8
:101490005433C2F200031A8813466FEA83436FEA9B
:1014A00093439BB29BB24FEA13239BB24CEA0303D4
:1014B0009BB29BB203F0FF0C4FF0000E4EEA0C0CF7
:1014C00080F802C04FEA13239BB24FF0000C4CEAA5
:1014D0000303C37001F1010399B24BF25433C2F21A
:1014E0000003198002F101039AB24BF25433C2F2A5
:1014F00000031A804BF23463C2F200031B684FF002
:1015000000021A714FF0000242F041025A714BF290
:101510003463C2F200031B684CF2C832C2F200020C
:10152000D2E90001024602F0FF014FF0000040EA5C
:10153000010199724FEA122101F0FF014FF0000002
:1015400040EA0101D9724FEA124101F0FF014FF068
:10155000000040EA010119734FEA12624FF00001E6
:1015600041EA02025A734BF23463C2F200031B6871
:101570004CF2D832C2F20002D2E90001024602F077
:10158000FF014FF0000040EA010199714FEA12217A
:1015900001F0FF014FF0000040EA0101D9714FEA6C
:1015A000124101F0FF014FF0000040EA0101197201
:1015B0004FEA12624FF0000141EA02025A723AE029
:1015C0004BF23463C2F200031C683D793A7907F1AB
:1015D00003034BF2A440C2F200004FF0230102F0DB
:1015E000FBFF0346194605F1040201F0FF004FEA34
:1015F000420323444FF0000C4CEA000098714FEA7C
:10160000112398B24FEA420323444FF000021146DF
:10161000024641EA0202DA71FB781A463B7902FA85
:1016200003F39AB2FB8842EA03039BB2FB803B7947
:1016300003F101033B713B79072BC1D94FF0000344
:101640003B7102F08DFC12E04BF23463C2F20003F6
:10165000196838793A794CF22043C2F200039A5C57
:1016600000EB0103DA773B7903F101033B713B792E
:101670001F2BE9D94BF25933C2F200031B78002B20
:1016800033D04FF001037B714BF23463C2F200039D
:101690001B687A799A774BF23463C2F200031C68B4
:1016A0004BF23860C2F200004FF03F01FFF71CF828
:1016B000034603F0FF024FF0000141EA020284F802
:1016C0003F204FEA13239BB24FF0000242EA03038C
:1016D00084F840304CF2E830C2F200004BF238613E
:1016E000C2F2000103F078FF34E04FF000037B7199
:1016F0004BF23463C2F200031B687A799A774BF29B
:101700003463C2F200031C684BF23860C2F200007E
:101710004FF03F01FEF7E8FF034603F0FF024FF0F2
:10172000000141EA020284F83F204FEA13239BB2F2
:101730004FF0000242EA030384F840304BF2346376
:10174000C2F200031B684FF0020019464FF041023D
:10175000FEF74EFFFB88184607F10807BD46B0BDEF
:1017600080B500AF4CF20C40C2F200004BF2386181
:10177000C2F2000103F05EFF4CF2C040C2F2000072
:101780004BF23861C2F200014FF0880204F06AFFA8
:1017900080BD00BF80B483B000AF7860396044F290
:1017A0000003C4F200035A6B3B681A6044F2000362
:1017B000C4F200031A6B7B681A6007F10C07BD4680
:1017C00080BC704790B583B000AF4FF00003FB8042
:1017D0004BF23862C2F200024CF23413C2F2000340
:1017E0001A604CF24C00C2F200004CF25011C2F2EE
:1017F000000103F07FFF03461A464CF27C13C2F24D
:1018000000031A704CF27C13C2F200031B784FEAFB
:101810004303DAB24CF27C13C2F200031A704CF2AA
:101820005013C2F200031B781A464CF24C13C2F25A
:1018300000031A604CF24C13C2F200031B684FEA1B
:1018400003224CF24C13C2F200031A604CF2501304
:10185000C2F200035B781A464CF24C13C2F200034A
:101860001B6842EA03024CF24C13C2F200031A60F6
:101870004CF24C13C2F200031B684FEA03224CF2F5
:101880004C13C2F200031A604CF25013C2F2000370
:101890009B781A464CF24C13C2F200031B6842EAD2
:1018A00003024CF24C13C2F200031A604CF24C00DB
:1018B000C2F200004CF25411C2F2000103F044FFE6
:1018C00003461A464CF27C13C2F200031A704CF223
:1018D0007C13C2F200031B784FEA4303DAB24CF2E6
:1018E0007C13C2F200031A704CF25013C2F20003D0
:1018F0001B781A464CF27813C2F200031A604CF2BD
:101900007813C2F200031B684FEA03224CF27813EB
:10191000C2F200031A604CF25013C2F200035B786B
:101920001A464CF27813C2F200031B6842EA030223
:101930004CF27813C2F200031A604CF27813C2F230
:1019400000031B684FEA03224CF27813C2F2000333
:101950001A604CF25013C2F200039B781A464CF204
:101960007813C2F200031B6842EA03024CF27813B8
:10197000C2F200031A604CF23813C2F200034CF2B8
:101980004C00C2F20000194603F024FF4CF234135D
:10199000C2F200031A684BF20403C2F200031B7880
:1019A00093734CF23413C2F200031B684CF24C12D6
:1019B000C2F20002126802F0FF014FF0000040EA9C
:1019C0000101D9734FEA122101F0FF014FF000002D
:1019D00040EA010119744FEA124101F0FF014FF092
:1019E000000040EA010159744FEA12624FF0000111
:1019F00041EA02029A744CF23413C2F200031B68EB
:101A00004CF27812C2F20002126802F0FF014FF0AD
:101A1000000040EA0101D9744FEA122101F0FF01F0
:101A20004FF0000040EA010119754FEA124101F040
:101A3000FF014FF0000040EA010159754FEA1262C0
:101A40004FF0000141EA02029A754FF00003FB805B
:101A50002AE04CF23413C2F200031A68F988F888BD
:101A60004CF23813C2F2000333F8100001F1080100
:101A700000F0FF0C4FEA410313444FF0000E4EEA12
:101A80000C0C83F807C04FEA102398B24FEA4103C9
:101A900013444FF000021146024641EA02021A7254
:101AA000FB8803F10103FB80FB88072BD1D902F0EF
:101AB00057FA4FF00003FB8013E04CF23413C2F2EC
:101AC00000031968F888FA884CF22043C2F2000338
:101AD0009A5C00EB010383F82820FB8803F10103E3
:101AE000FB80FB881F2BE8D94CF2D832C2F20002EF
:101AF0004CF2C833C2F2000310461946FFF74AFE03
:101B00004CF23413C2F200031B684FF0000242F0A3
:101B100008021A704FF0000242F002025A704CF2B2
:101B20003413C2F2000318684BF26033C2F20003B0
:101B300019880B466FEA83436FEA93439BB29BB2CB
:101B40004FEA03231FFA83FC4BF26033C2F2000317
:101B50001A8813466FEA83436FEA93439BB29BB2A2
:101B60004FEA13239BB24CEA03039BB29BB203F0F0
:101B7000FF0C4FF0000E4EEA0C0C80F802C04FEA4A
:101B800013239BB24FF0000C4CEA0303C37001F126
:101B9000010399B24BF26033C2F20003198002F1E3
:101BA00001039AB24BF26033C2F200031A804CF286
:101BB0003413C2F200031B684FF000021A714FF099
:101BC000000242F04A025A714CF23413C2F200038E
:101BD0001B684CF2D832C2F20002D2E90001024680
:101BE00002F0FF014FF0000040EA010199714FEA55
:101BF000122101F0FF014FF0000040EA0101D9710C
:101C00004FEA124101F0FF014FF0000040EA0101EC
:101C100019724FEA12624FF0000141EA02025A7251
:101C20004CF23413C2F200031B684CF2C832C2F209
:101C30000002D2E90001024602F0FF014FF000006D
:101C400040EA010199724FEA122101F0FF014FF0C1
:101C5000000040EA0101D9724FEA124101F0FF0190
:101C60004FF0000040EA010119734FEA12624FF091
:101C7000000141EA02025A734BF25933C2F20003E7
:101C80001B78002B3CD04BF25C33C2F200034FF0C8
:101C900001021A704CF23413C2F200031A684BF2BC
:101CA0005C33C2F200031B7882F827304CF2341305
:101CB000C2F200031C684BF23860C2F200004FF021
:101CC0004801FEF711FD034603F0FF024FF000014B
:101CD00041EA020284F848204FEA13239BB24FF0F6
:101CE000000242EA030384F849304CF2A010C2F229
:101CF00000004BF23861C2F2000103F06DFC3DE0E0
:101D00004BF25C33C2F200034FF000021A704CF247
:101D10003413C2F200031A684BF25C33C2F20003C0
:101D20001B7882F827304CF23413C2F200031C688F
:101D30004BF23860C2F200004FF04801FEF7D4FCCD
:101D4000034603F0FF024FF0000141EA020284F86B
:101D500048204FEA13239BB24FF0000242EA0303EC
:101D600084F849304CF23413C2F200031B684FF080
:101D7000030019464FF04A02FEF73AFC4CF27C137E
:101D8000C2F200031B78184607F10C07BD4690BD50
:101D900090B583B000AF4FF00003FB804BF2386288
:101DA000C2F200024CF24813C2F200031A604CF275
:101DB000D832C2F200024CF2C833C2F2000310461D
:101DC0001946FFF7E7FC0CE0FA884CF25813C2F210
:101DD00000034FF0000143F82210FB8803F10103D8
:101DE000FB80FB88072BEFD94FF00003FB804CF200
:101DF000F830C2F2000004F021FA4CF24813C2F2AB
:101E000000031A684BF20403C2F200031B789373B9
:101E10004CF24813C2F200031A684CF2F833C2F2D3
:101E200000031B8803F0FF014FF0000040EA0101AE
:101E300011754FEA13239BB24FF0000141EA0303EF
:101E400053754CF24813C2F200031A684BF269331F
:101E5000C2F200031B78D3734CF24813C2F20003A2
:101E60001A684BF26A33C2F200031B7813744CF207
:101E70004813C2F200031A684BF26B33C2F200033C
:101E80001B7853744CF24813C2F200031A684CF2E8
:101E9000E433C2F200031B8803F0FF014FF000009F
:101EA00040EA010191744FEA13239BB24FF0000105
:101EB00041EA0303D3744CF24813C2F200031C68D6
:101EC00004F060FA0346A3754CF24813C2F2000313
:101ED0001C6804F06FFA034603F0FF024FF00001A4
:101EE00041EA0202E2754FEA132202F0FF024FF0CC
:101EF000000141EA020222764FEA134202F0FF0299
:101F00004FF0000141EA020262764FEA13634FF09C
:101F1000000242EA0303A3764CF24813C2F2000324
:101F20001C6804F06FFA034603F0FF024FF0000153
:101F300041EA0202E2764FEA132202F0FF024FF07A
:101F4000000141EA020222774FEA134202F0FF0247
:101F50004FF0000141EA020262774FEA13634FF04B
:101F6000000242EA0303A3774CF24813C2F20003D3
:101F70001B684BF26432C2F20002126802F0FF01E9
:101F80004FF0000040EA0101D9774FEA122101F039
:101F9000FF014FF0000040EA010183F820104FEAF2
:101FA000124101F0FF014FF0000040EA010183F807
:101FB00021104FEA12624FF0000141EA020283F859
:101FC00022204CF24813C2F200031A684BF2683325
:101FD000C2F200031B7882F823304CF24813C2F29D
:101FE00000031C6804F0DCF8034684F8443043E046
:101FF0004CF24813C2F200031B68F888F9884CF2CF
:102000005812C2F2000252F8211000F1080201F049
:10201000FF0C4FEA820018444FF0000E4EEA0C0C01
:1020200080F804C04FEA112000F0FF0C4FEA820054
:1020300018444FF0000E4EEA0C0C80F805C04FEA31
:10204000114000F0FF0C4FEA820018444FF0000EE0
:102050004EEA0C0C80F806C04FEA11604FEA82028B
:102060001A444FF000031946034641EA0303D371B3
:10207000FB8803F10103FB804BF26833C2F20003DB
:102080001B78FA889A42B3D34FF00003FB804CF2DE
:102090004813C2F200031B684FF0000242F008022E
:1020A0001A704FF0000242F003025A704CF24813CB
:1020B000C2F2000318684BF25E33C2F200031988C3
:1020C0000B466FEA83436FEA93439BB29BB24FEA9E
:1020D00003231FFA83FC4BF25E33C2F200031A881B
:1020E00013466FEA83436FEA93439BB29BB24FEA76
:1020F00013239BB24CEA03039BB29BB203F0FF0C89
:102100004FF0000E4EEA0C0C80F802C04FEA132389
:102110009BB24FF0000C4CEA0303C37001F10103C2
:1021200099B24BF25E33C2F20003198002F101034F
:102130009AB24BF25E33C2F200031A804CF248139B
:10214000C2F200031B684FF000021A714FF0000248
:1021500042F068025A714CF24813C2F200031B6845
:102160004CF2D832C2F20002D2E90001024602F07B
:10217000FF014FF0000040EA010199714FEA12217E
:1021800001F0FF014FF0000040EA0101D9714FEA70
:10219000124101F0FF014FF0000040EA0101197205
:1021A0004FEA12624FF0000141EA02025A724CF209
:1021B0004813C2F200031B684CF2C832C2F200029C
:1021C000D2E90001024602F0FF014FF0000040EAB0
:1021D000010199724FEA122101F0FF014FF0000056
:1021E00040EA0101D9724FEA124101F0FF014FF0BC
:1021F000000040EA010119734FEA12624FF000013A
:1022000041EA02025A7301F0ABFE13E04CF24813AC
:10221000C2F200031968F888FA884CF22043C2F22F
:1022200000039A5C00EB010383F84620FB8803F16E
:102230000103FB80FB881F2BE8D94BF25933C2F214
:1022400000031B78002B3CD04BF25B33C2F200033F
:102250004FF001021A704CF24813C2F200031A68E0
:102260004BF25B33C2F200031B7882F845304CF22C
:102270004813C2F200031C684BF23860C2F200003F
:102280004FF06601FEF730FA034603F0FF024FF00D
:10229000000141EA020284F866204FEA13239BB250
:1022A0004FF0000242EA030384F867304CF2FC303E
:1022B000C2F200004BF23861C2F2000103F08CF967
:1022C0003DE04BF25B33C2F200034FF000021A70A4
:1022D0004CF24813C2F200031A684BF25B33C2F2AD
:1022E00000031B7882F845304CF24813C2F2000319
:1022F0001C684BF23860C2F200004FF06601FEF736
:10230000F3F9034603F0FF024FF0000141EA020235
:1023100084F866204FEA13239BB24FF0000242EA92
:10232000030384F867304CF24813C2F200031B68C1
:102330004FF0010019464FF06802FEF759F907F116
:102340000C07BD4690BD00BF80B483B000AF03460C
:10235000FB714EF20013CEF2000397F907204FEA0B
:102360005212F97901F01F014FF0010000FA01F15A
:1023700043F8221007F10C07BD4680BC704700BF30
:1023800080B483B000AF0346FB714EF20013CEF26F
:10239000000397F907204FEA5212F97901F01F0163
:1023A0004FF0010000FA01F102F1200243F822107F
:1023B00007F10C07BD4680BC704700BF80B483B0F6
:1023C00000AF0346FB714EF20013CEF2000397F903
:1023D00007204FEA5212F97901F01F014FF0010076
:1023E00000FA01F102F1600243F8221007F10C0734
:1023F000BD4680BC704700BF80B483B000AF0346C9
:102400003960FB7197F90730002B10DA4EF6005354
:10241000CEF20003FA7902F00F02A2F104013A6849
:10242000D2B24FEA0212D2B20B441A760DE04EF24B
:102430000013CEF2000397F907103A68D2B24FEAC0
:102440000212D2B20B4483F8002307F10C07BD46F9
:1024500080BC704780B582B000AF0346FB714FF07F
:102460000E00FFF78DFF4FF00F00FFF789FF48F2D6
:102470000003C4F2030348F20002C4F20302926CA8
:1024800022F040029A6444F20003C4F200034FF0C9
:1024900001025A6540F20003C4F208234FF0000223
:1024A000C3F8002940F20003C4F208234FF00002F1
:1024B000C3F8082940F20003C4F20823FA79C3F8EC
:1024C000042944F20003C4F200034FF001021A6130
:1024D00044F20003C4F200034FF001029A624FF08D
:1024E0000E00FFF76BFF4FF00F00FFF767FF07F1DC
:1024F0000807BD4680BD00BF80B400AF40F20003B6
:10250000C4F208234FF00102C3F80029BD4680BC85
:10251000704700BF80B483B000AF7860396044F288
:102520000003C4F200035A6B3B681A6044F20003D4
:10253000C4F200031A6B7B681A6007F10C07BD46F2
:1025400080BC704780B483B000AF7860396044F2DB
:102550000003C4F200037A689A6344F20003C4F2F1
:1025600000033A68DA6307F10C07BD4680BC704788
:1025700080B582B000AF45F20003C4F2000345F21B
:102580000002C4F20002526922F003025A6145F2CD
:102590000003C4F200034FF00302DA614FF00000C1
:1025A000FFF70CFF45F20003C4F200031B687B60D9
:1025B00045F20003C4F200039A687B689A4208D986
:1025C00045F20003C4F200034DF64262CAF615421A
:1025D000DA6007F10807BD4680BD00BF80B400AFD8
:1025E00045F20003C4F200034DF64262CAF61542FA
:1025F000DA60BD4680BC704798B500AF4CF2D83267
:10260000C2F200024CF2C833C2F20003104619466F
:10261000FFF780FF4CF29C13C2F200031B684FF0DF
:10262000000242F008021A704FF0000242F0060267
:102630005A704CF29C13C2F200031A684CF2BC337D
:10264000C2F200031B886FEA83436FEA93439BB295
:102650009BB24FEA032399B24CF2BC33C2F200039F
:102660001B886FEA83436FEA93439BB29BB24FEAA6
:1026700013239BB241EA03039BB29BB203F0FF0119
:102680004FF0000040EA010191704FEA13239BB222
:102690004FF0000141EA0303D3704CF29C13C2F2E5
:1026A00000031B684FF000021A714FF0000242F065
:1026B0007E025A714CF29C13C2F200031B684CF26A
:1026C000C832C2F20002D2E90001024602F0FF0164
:1026D0004FF0000040EA010199724FEA122101F027
:1026E000FF014FF0000040EA0101D9724FEA1241A8
:1026F00001F0FF014FF0000040EA010119734FEAB9
:1027000012624FF0000141EA02025A734CF29C132C
:10271000C2F200031B684CF2D832C2F20002D2E9C6
:102720000001024602F0FF014FF0000040EA010103
:1027300099714FEA122101F0FF014FF0000040EAC9
:102740000101D9714FEA124101F0FF014FF0000081
:1027500040EA010119724FEA12624FF0000141EAAA
:1027600002025A724CF29C13C2F200031C684CF233
:10277000B810C2F200004FF07C01FDF7B5FF034630
:1027800003F0FF024FF0000141EA020284F87C20CE
:102790004FEA13239BB24FF0000242EA030384F88E
:1027A0007D304BF25933C2F200031B78002B0AD064
:1027B0004CF28410C2F200004CF2B811C2F20001D7
:1027C00002F00AFF0BE04CF29C13C2F200031B68FC
:1027D0004FF0040019464FF07E02FDF709FF4CF25E
:1027E0008013C2F200034FF000021A704CF2BC33A7
:1027F000C2F200031B8803F101039AB24CF2BC330E
:10280000C2F200031A8098BD80B500AF4CF2D832F6
:10281000C2F200024CF2C833C2F20003104619465D
:10282000FFF778FEFDF7FCFF03461A464CF2D4335F
:10283000C2F200031A804CF28013C2F200031B782C
:10284000092B01D9FFF7D8FE4CF29C13C2F200030A
:1028500019684CF28013C2F200031B781A46134623
:102860004FEA830313444FEA430313440B4403F139
:1028700016034FF002021A704CF29C13C2F20003CE
:1028800018684CF28013C2F200031B7819464CF210
:10289000D833C2F20003D3E900230B464FEA830387
:1028A0000B444FEA43030B44034403F1080302F0D3
:1028B000FF014FF0000040EA010199724FEA122136
:1028C00001F0FF014FF0000040EA0101D9724FEA28
:1028D000124101F0FF014FF0000040EA01011973BD
:1028E0004FEA12624FF0000141EA02025A734CF2C1
:1028F0009C13C2F2000318684CF28013C2F200036A
:102900001B7819464CF2C833C2F20003D3E9002306
:102910000B464FEA83030B444FEA43030B44034443
:1029200003F1080302F0FF014FF0000040EA01014B
:1029300099714FEA122101F0FF014FF0000040EAC7
:102940000101D9714FEA124101F0FF014FF000007F
:1029500040EA010119724FEA12624FF0000141EAA8
:1029600002025A724CF29C13C2F2000318684CF235
:102970008013C2F200031B781A464CF2D433C2F221
:102980000003198813464FEA830313444FEA4303B5
:102990001344034403F1100301F0FF024FF0000061
:1029A00040EA0202DA714FEA112292B24FF00001BE
:1029B00041EA02021A724CF28013C2F200031B7841
:1029C00003F10103DAB24CF28013C2F200031A7071
:1029D0004CF21C40C2F2000006F0C4FC80BD00BFF7
:1029E00080B500AF4CF2D832C2F200024CF2C833CC
:1029F000C2F2000310461946FFF78CFDFEF7E2FE17
:102A000003461A464CF2B213C2F200031A804CF28B
:102A10008013C2F200031B78092B01D9FFF7ECFDEC
:102A20004CF29C13C2F2000319684CF28013C2F2FC
:102A300000031B781A4613464FEA830313444FEAF8
:102A4000430313440B4403F116034FF006021A70BC
:102A50004CF29C13C2F2000318684CF28013C2F2CD
:102A600000031B7819464CF2D833C2F20003D3E9B5
:102A700000230B464FEA83030B444FEA43030B4406
:102A8000034403F1080302F0FF014FF0000040EAA5
:102A9000010199724FEA122101F0FF014FF000008D
:102AA00040EA0101D9724FEA124101F0FF014FF0F3
:102AB000000040EA010119734FEA12624FF0000171
:102AC00041EA02025A734CF29C13C2F200031868E6
:102AD0004CF28013C2F200031B7819464CF2C83343
:102AE000C2F20003D3E900230B464FEA83030B44F1
:102AF0004FEA43030B44034403F1080302F0FF01D0
:102B00004FF0000040EA010199714FEA122101F0F3
:102B1000FF014FF0000040EA0101D9714FEA124174
:102B200001F0FF014FF0000040EA010119724FEA85
:102B300012624FF0000141EA02025A724CF29C13F9
:102B4000C2F2000318684CF28013C2F200031B7833
:102B50001A464CF2B213C2F20003198813464FEA28
:102B6000830313444FEA43031344034403F1100364
:102B700001F0FF024FF0000040EA0202DA714FEA72
:102B8000112292B24FF0000141EA02021A724CF295
:102B90008013C2F200031B7803F10103DAB24CF296
:102BA0008013C2F200031A704CF2B830C2F2000077
:102BB00006F0D8FB80BD00BF80B500AF4CF2D83224
:102BC000C2F200024CF2C833C2F2000310461946AA
:102BD000FFF7A0FCFFF7DCF803461A464CF240432F
:102BE000C2F200031A804CF28013C2F200031B7879
:102BF000092B01D9FFF700FD4CF29C13C2F2000330
:102C000019684CF28013C2F200031B781A4613466F
:102C10004FEA830313444FEA430313440B4403F185
:102C200016034FF004021A704CF29C13C2F2000318
:102C300018684CF28013C2F200031B7819464CF25C
:102C4000D833C2F20003D3E900230B464FEA8303D3
:102C50000B444FEA43030B44034403F1080302F01F
:102C6000FF014FF0000040EA010199724FEA122182
:102C700001F0FF014FF0000040EA0101D9724FEA74
:102C8000124101F0FF014FF0000040EA0101197309
:102C90004FEA12624FF0000141EA02025A734CF20D
:102CA0009C13C2F2000318684CF28013C2F20003B6
:102CB0001B7819464CF2C833C2F20003D3E9002353
:102CC0000B464FEA83030B444FEA43030B44034490
:102CD00003F1080302F0FF014FF0000040EA010198
:102CE00099714FEA122101F0FF014FF0000040EA14
:102CF0000101D9714FEA124101F0FF014FF00000CC
:102D000040EA010119724FEA12624FF0000141EAF4
:102D100002025A724CF29C13C2F2000318684CF281
:102D20008013C2F200031B781A464CF24043C2F2F1
:102D30000003198813464FEA830313444FEA430301
:102D40001344034403F1100301F0FF024FF00000AD
:102D500040EA0202DA714FEA112292B24FF000010A
:102D600041EA02021A724CF28013C2F200031B788D
:102D700003F10103DAB24CF28013C2F200031A70BD
:102D80004CF29410C2F2000006F0ECFA80BD00BFD5
:102D900080B500AF4CF2D832C2F200024CF2C83318
:102DA000C2F2000310461946FFF7B4FBFEF72AFBF8
:102DB00003461A464CF29813C2F200031A804CF2F2
:102DC0008013C2F200031B78092B01D9FFF714FC12
:102DD0004CF29C13C2F2000319684CF28013C2F249
:102DE00000031B781A4613464FEA830313444FEA45
:102DF000430313440B4403F116034FF001021A700E
:102E00004CF29C13C2F2000318684CF28013C2F219
:102E100000031B7819464CF2D833C2F20003D3E901
:102E200000230B464FEA83030B444FEA43030B4452
:102E3000034403F1080302F0FF014FF0000040EAF1
:102E4000010199724FEA122101F0FF014FF00000D9
:102E500040EA0101D9724FEA124101F0FF014FF03F
:102E6000000040EA010119734FEA12624FF00001BD
:102E700041EA02025A734CF29C13C2F20003186832
:102E80004CF28013C2F200031B7819464CF2C8338F
:102E9000C2F20003D3E900230B464FEA83030B443D
:102EA0004FEA43030B44034403F1080302F0FF011C
:102EB0004FF0000040EA010199714FEA122101F040
:102EC000FF014FF0000040EA0101D9714FEA1241C1
:102ED00001F0FF014FF0000040EA010119724FEAD2
:102EE00012624FF0000141EA02025A724CF29C1346
:102EF000C2F2000318684CF28013C2F200031B7880
:102F00001A464CF29813C2F20003198813464FEA8E
:102F1000830313444FEA43031344034403F11003B0
:102F200001F0FF024FF0000040EA0202DA714FEABE
:102F3000112292B24FF0000141EA02021A724CF2E1
:102F40008013C2F200031B7803F10103DAB24CF2E2
:102F50008013C2F200031A704CF2C030C2F20000BB
:102F600006F000FA80BD00BF80B500AFFEF7F8FBA9
:102F70004CF20C43C2F200039A684CF20C43C2F2CA
:102F80000003DB689A4208D24BF25933C2F20003C5
:102F90001B78002B01D1FEF7E3FB4CF2D030C2F2DC
:102FA000000006F0DFF980BD80B582B002AF43F6C5
:102FB000381300934CF21C40C2F2000046F20001AC
:102FC000C5F200014FF000024FF0090306F008F9C6
:102FD0004CF21C40C2F2000006F0A6F94FF02600A9
:102FE000FFF7B2F94FF026004FF0FE01FFF704FAA9
:102FF00045F68C3300934CF29410C2F2000047F275
:103000000001C5F200014FF000024FF0090306F085
:10301000E7F84CF29410C2F2000006F085F94FF088
:103020002700FFF791F94FF027004FF0FE01FFF75F
:10303000E3F947F2702300934CF2C030C2F2000073
:1030400048F20001C5F200014FF000024FF0090301
:1030500006F0C6F84CF2C030C2F2000006F064F987
:103060004FF02800FFF770F94FF028004FF0FE01F5
:10307000FFF7C2F947F66003C0F2040300934CF275
:10308000D030C2F2000049F20001C5F200014FF059
:1030900000024FF0090306F0A3F84CF2D030C2F260
:1030A000000006F041F94FF02900FFF74DF94FF00D
:1030B00029004FF0FE01FFF79FF943F63813009304
:1030C0004CF2B830C2F200004AF20001C5F2000131
:1030D0004FF000024FF0090306F082F84CF2B830CE
:1030E000C2F2000006F020F94FF02A00FFF72CF999
:1030F0004FF02A004FF0FE01FFF77EF94CF21C4022
:10310000C2F2000006F0D4F84CF29410C2F20000B3
:1031100006F0CEF84CF2C030C2F2000006F0C8F85B
:103120004CF2D030C2F2000006F0C2F84CF2B830D7
:10313000C2F2000006F0BCF8BD4680BD80B500AF0D
:103140004FF02700FFF71CF980BD00BF80B500AF2E
:103150004FF02700FFF7F8F880BD00BF80B582B0C0
:1031600000AF78600B46FB707A684CF2E033C2F235
:1031700000031A604CF2E033C2F200031A68FB78D5
:103180001046194600F09AFB0346002B26D04CF25D
:10319000E033C2F200031B68184600F00BFCFB781A
:1031A000002B0DD14BF26C33C2F200031B7803F1FC
:1031B0000103DAB24BF26C33C2F200031A702BE057
:1031C0004BF26A33C2F200031B7803F10103DAB257
:1031D0004BF26A33C2F200031A701DE0FB78002B39
:1031E0000DD14BF26D33C2F200031B7803F10103E2
:1031F000DAB24BF26D33C2F200031A700CE04BF2FC
:103200006B33C2F200031B7803F10103DAB24BF215
:103210006B33C2F200031A7007F10807BD4680BD88
:1032200080B500AF43F60523C0F200034FF0000065
:103230004FF002011A4600F05FFB43F61923C0F27B
:1032400000034FF001004FF003011A4600F054FB59
:1032500043F6AD43C0F200034FF002004FF003010C
:103260001A4600F049FB43F6D543C0F200034FF085
:1032700003004FF006011A4600F03EFB43F6D5531B
:10328000C0F200034FF004004FF010011A4600F0A6
:1032900033FB80BD80B500AF4FF00100FFF7DAF8D7
:1032A0004FF0FF304FF0FF31FFF74CF9FFF724F9F3
:1032B00080BD00BF90B583B000AF4BF23862C2F260
:1032C00000024CF2B413C2F200031A604CF2B413C1
:1032D000C2F200031A684BF27433C2F200031B7887
:1032E000D3734CF2B413C2F200031A684BF2773373
:1032F000C2F200031B7813744CF2B413C2F2000341
:103300001A684BF27533C2F200031B7853744CF207
:10331000B413C2F200031B684FF0000242F008022F
:103320001A704FF0000242F005025A704CF2B413CA
:10333000C2F200031A684FF000036FEA83636FEA7A
:10334000936393704FF00003D3704CF2B413C2F246
:1033500000031B684FF000021A714FF0000242F0A8
:1033600034025A714CF2B413C2F200031B684FF0DE
:1033700000029A714FF00002DA714FF000021A72E7
:103380004FF000025A724CF2B413C2F200031B68F1
:103390004FF000029A724FF00002DA724FF0000212
:1033A0001A734FF000025A734FF00003FB7100F0E4
:1033B000D7FD12E04CF2B413C2F200031968F87999
:1033C000FA794CF22043C2F200039A5C00EB01034D
:1033D0009A74FB7903F10103FB71FB791F2BE9D987
:1033E0004CF2B413C2F200031C684BF23860C2F214
:1033F00000004FF03201FDF777F9034603F0FF02BA
:103400004FF0000141EA020284F832204FEA132310
:103410009BB24FF0000242EA030384F833304CF2CF
:10342000B413C2F200031B684FF0060019464FF0B8
:103430003402FDF7DDF807F10C07BD4690BD00BF73
:1034400080B58CB002AFFFF793F8FFF7C7F8FDF730
:10345000A3F805F0C9FD4FF000004FF0050105F09D
:1034600019FE4FF002004FF0050105F013FE4FF07A
:1034700006004FF0050105F00DFE4FF000004FF083
:10348000010105F025FE4FF002004FF0010105F0AB
:103490001FFE4FF006004FF0010105F019FE4FF03E
:1034A000000003F013FD4CF28450C2F2000003F060
:1034B000BBFF4FF0080300934CF28450C2F20000AF
:1034C0004FF000014FF000024FF0080304F0F6F84F
:1034D0004CF20050C2F2000003F0A6FF4FF00803C8
:1034E00000934CF20050C2F200004FF000014FF088
:1034F00000024FF4007304F0E1F84CF20C40C2F209
:1035000000004FF00A0141F60A22C0F24F0202F019
:103510004BF84CF2FC30C2F2000040F2D231C0F263
:1035200057014CF65262C0F2570202F03DF84CF2DD
:10353000E830C2F2000046F27E41C0F2590145F681
:10354000FE12C0F27A0202F02FF84CF2A010C2F282
:1035500000004FF42F714FF4487202F025F84CF23E
:103560008410C2F2000041F66E21C0F24F0140F219
:103570006E32C0F2570202F017F84FF000033B73AF
:103580004FF000037B734FF00003BB734BF2080353
:10359000C2F200031A6807F10C03104619464FF0F7
:1035A00003024FF0000304F0B3FD4CF2B812C2F274
:1035B00000024CF29C13C2F200031A604CF280131A
:1035C000C2F200034FF000021A704CF2BC33C2F298
:1035D00000034FF001021A80FFF75CFE4FF000037A
:1035E0007B744CF24C00C2F2000002F051F84BF236
:1035F000A440C2F200004FF0230100F075FF034623
:103600001A464BF27433C2F200031B7842EA0303FA
:10361000DAB24BF27433C2F200031A704BF2743315
:10362000C2F200031B784FEA4303DAB24BF2743361
:10363000C2F200031A704CF24C00C2F200004FF0CC
:10364000230100F051FF03461A464BF27433C2F2D5
:1036500000031B7842EA0303DAB24BF27433C2F27E
:1036600000031A704BF27433C2F200031B784FEA66
:103670004303DAB24BF27433C2F200031A7001F062
:1036800059FB03461A464BF27433C2F200031B780F
:1036900042EA0303DAB24BF27433C2F200031A7047
:1036A0004BF27433C2F200031B784FEA4313DAB2D1
:1036B0004BF27433C2F200031A7000F071FC03463F
:1036C0001A464BF27433C2F200031B7842EA03033A
:1036D000DAB24BF27433C2F200031A7002F0CAF885
:1036E00003461A464BF27733C2F200031A7002F017
:1036F00057FD03467B744BF27533C2F200031A7810
:103700007B7C42EA0303DAB24BF27533C2F2000368
:103710001A704BF27533C2F200031B784FEA430371
:10372000DAB24BF27533C2F200031A704BF2384032
:10373000C2F200004FF0400100F0D6FD03461A46E9
:103740004BF27533C2F200031B7842EA0303DAB28C
:103750004BF27533C2F200031A704BF27533C2F2AA
:1037600000031B784FEA4303DAB24BF27533C2F21F
:1037700000031A704BF2A440C2F200004FF0400167
:1037800000F0B2FD4FF00003FB75FFF749FD4CF26E
:10379000C040C2F200004FF416514FF0030202F095
:1037A0001FFF4FF02600FEF709FE4FF02700FEF73F
:1037B00005FEFFF7F9FB4FF0FF33FB6145F6FF43D2
:1037C000CEF61E633B624FF000037B62FFF772FD93
:1037D0004FF0860002F054FBFFF7B0FC4CF2E430EF
:1037E000C2F2000002F074FDFFF7B0FC4BF2593357
:1037F000C2F200031B78012B16D145F20C00C5F272
:10380000000002F041FE03467B824CF2B013C2F28C
:1038100000031B887A8A9A4206D94BF25933C2F2C6
:1038200000034FF000021A70FEF7D8FED0E700BF89
:1038300080B500AF4BF23840C2F2000006F060FBEA
:1038400080BD00BF80B500AF4BF2A440C2F20000C3
:1038500006F056FB80BD00BF80B500AF4CF24C00B7
:10386000C2F2000006F04CFB80BD00BF80B500AF87
:103870004BF2C850C2F2000006F042FB80BD00BF10
:1038800080B500AFFEF7C0FF80BD00BF80B500AFC0
:10389000FFF792F980BD00BF80B500AFFFF778FA5F
:1038A00080BD00BF80B500AFFFF75EFB80BD00BFED
:1038B00080B500AFFFF794F880BD00BF80B483B03F
:1038C00000AF78600B46FB707B681B7803F1FF3319
:1038D000002B08DB7B681B7803F1FF33052B02DC30
:1038E0004FF0010301E04FF00003184607F10C0709
:1038F000BD4680BC704700BF80B483B000AF0B46AC
:103900003A600246FA71BB80F9794CF24442C2F245
:1039100000020B464FEAC303C1EB03031344FA79D9
:103920001A70F9794CF24442C2F200020B464FEA97
:10393000C303C1EB030313443A794FF0000141EA9A
:1039400002025A707A794FF0000141EA02029A703D
:10395000F8793A684CF24441C2F2000103464FEA5A
:10396000C303C0EB03030B4402F0FF014FF0000060
:1039700040EA0101D9704FEA122101F0FF014FF036
:10398000000040EA010119714FEA124101F0FF0104
:103990004FF0000040EA010159714FEA12624FF006
:1039A000000141EA02029A7107F10C07BD4680BC92
:1039B000704700BF80B582B000AF78607B681B782D
:1039C00003F1FF314CF24442C2F200020B464FEACF
:1039D000C303C1EB03031344DA7819794FEA0121D9
:1039E00041EA020259794FEA014141EA02029B7918
:1039F0004FEA036343EA02037868984707F1080730
:103A0000BD4680BD80B485B000AF786007F1140773
:103A1000BD4680BC704700BF80B586B002AF7860FD
:103A20007B689A784CF6CD43CCF6CC43A3FB0213CB
:103A30004FEAD303DBB247F2702202FB03F3FB60D1
:103A40007B689B78002B00F0A5807B685B78002B5F
:103A50001CD1FB6800934CF21C40C2F2000046F2FD
:103A60000001C5F200014FF000024FF0090305F01C
:103A7000B7FB4CF21C40C2F2000005F055FC4CF2C2
:103A80001C40C2F2000005F013FCBBE07B685B78D1
:103A9000012B1CD1FB6800934CF29410C2F2000081
:103AA00047F20001C5F200014FF000024FF0090398
:103AB00005F096FB4CF29410C2F2000005F034FCC5
:103AC0004CF29410C2F2000005F0F2FB9AE07B6821
:103AD0005B78022B1CD1FB6800934CF2C030C2F221
:103AE000000048F20001C5F200014FF000024FF063
:103AF000090305F075FB4CF2C030C2F2000005F07E
:103B000013FC4CF2C030C2F2000005F0D1FB79E0AA
:103B10007B685B78052B1CD1FB6800934CF2D0309E
:103B2000C2F2000049F20001C5F200014FF00002AC
:103B30004FF0090305F054FB4CF2D030C2F2000004
:103B400005F0F2FB4CF2D030C2F2000005F0B0FB01
:103B500058E07B685B78032B53D1FB6800934CF2F1
:103B6000B830C2F200004AF20001C5F200014FF085
:103B700000024FF0090305F033FB4CF2B830C2F2FB
:103B8000000005F0D1FB4CF2B830C2F2000005F0A5
:103B90008FFB37E07B685B78002B06D14CF21C4032
:103BA000C2F2000005F0A2FB2CE07B685B78012BE1
:103BB00006D14CF29410C2F2000005F097FB21E010
:103BC0007B685B78022B06D14CF2C030C2F2000059
:103BD00005F08CFB16E07B685B78052B06D14CF278
:103BE000D030C2F2000005F081FB0BE07B685B780F
:103BF000032B07D14CF2B830C2F2000005F076FB7F
:103C000000E000BF07F11007BD4680BD80B485B05D
:103C100000AF4FF000037B6048F20003C2F20003E4
:103C2000BB604DF20003C6F20003FB604FF00003DF
:103C30007B600FE0FB681A68BB681A60BB6803F121
:103C40000403BB60FB6803F10403FB607B6803F1C2
:103C500001037B607A6840F6CB239A42EAD907F1E8
:103C60001407BD4680BC704780B582B000AF48F2F3
:103C70000403C2F200033B6048F20003C2F20003F7
:103C80001B687B607B6883F3088848F20003C4F2FA
:103C9000030348F20002C4F20302126842F0030276
:103CA0001A603B681B689847FEE700BF80B584B088
:103CB00000AF786048F20003C4F203034FF0000243
:103CC000DA66FFF7A3FFFFF7CFFF07F11007BD4646
:103CD00080BD00BF80B584B000AF78607B689B7802
:103CE0004FEA03627B68DB784FEA034342EA030250
:103CF0007B681B794FEA032342EA03027B685B7906
:103D000042EA03031A464BF26433C2F200031A601C
:103D10007B685A784BF26833C2F200031A704BF298
:103D20006433C2F200031A6807F108034FF0780009
:103D300011461A464FF0060302F056F8BB7A4FEAD6
:103D40000362FB7A4FEA034342EA03023B7B4FEAFA
:103D5000032342EA03027B7B42EA03031A464CF246
:103D60005813C2F200031A604BF26433C2F200032C
:103D70001B6803F104024BF26433C2F200031A60C1
:103D80004BF26433C2F200031A6807F108034FF0E4
:103D9000780011461A464FF0060302F025F8BB7A68
:103DA0004FEA0362FB7A4FEA034342EA03023B7B9A
:103DB0004FEA032342EA03027B7B42EA03031A46EB
:103DC0004CF25813C2F200035A6007F11007BD46C7
:103DD00080BD00BF80B485B000AF78604FF00003B5
:103DE000FB730DE0FA7BF97B7B680B4459784CF24E
:103DF000B803C2F200039954FB7B03F10103FB7388
:103E0000FB7B0F2BEED907F11407BD4680BC704732
:103E100080B483B000AF0346FB714EF20013CEF2C4
:103E2000000397F907204FEA5212F97901F01F01B8
:103E30004FF0010000FA01F143F8221007F10C07DE
:103E4000BD4680BC704700BF80B483B000AF03465E
:103E50003960FB7197F90730002B10DA4EF60053EA
:103E6000CEF20003FA7902F00F02A2F104013A68DF
:103E7000D2B24FEA0212D2B20B441A760DE04EF2E1
:103E80000013CEF2000397F907103A68D2B24FEA56
:103E90000212D2B20B4483F8002307F10C07BD468F
:103EA00080BC704780B584B000AF4FF000037B81C9
:103EB0004FF001033B814FF0FF03BB8045F20C0044
:103EC000C5F2000002F0E0FA0346BB8145F21000A3
:103ED000C5F2000002F0D8FA0346FB814BF25933D9
:103EE000C2F200034FF001021A704FF0010005F01A
:103EF00057F907F11007BD4680BD00BF80B58AB0F5
:103F000000AF4FF0000387F827304BF27833C2F24E
:103F100000031B7803F10103DAB24BF27833C2F2EB
:103F200000031A704BF27833C2F200031B78052BA2
:103F300003D14FF003033B7102E04FF001033B71EB
:103F400007F1040318464FF00001FFF707F94FF09F
:103F5000030005F025F907F12807BD4680BD00BF25
:103F600090B583B000AF4FF00003FB7111E0FC7916
:103F70004CF20C00C5F2000002F09EFA03461A460D
:103F80004CF22043C2F200031A55FB7903F10103FE
:103F9000FB71FB791F2BEAD907F10C07BD4690BDD9
:103FA00080B584B000AF4FF001004FF0420105F042
:103FB00071F84FF0010005F0C3F84FF03300FFF740
:103FC00027FF4FF033004FF0FF01FFF73DFF4FF0A9
:103FD00003004FF0620105F05DF84FF0030005F0BB
:103FE000AFF84FF03500FFF713FF4FF035004FF0FB
:103FF000FD01FFF729FF4FF00003BB804FF00003E6
:104000007B8145F21400C5F200004FF0260102F05A
:1040100051FA45F21800C5F200004FF00F0102F00E
:1040200049FA4BF21000C5F200004FF0070102F010
:1040300041FA45F20800C5F2000002F03DFA0346DD
:10404000BB73BB7BAB2B07D0FB7B43F00103FB7344
:10405000FB7B4FEA4303FB73FB7B4FEA4303FB739A
:104060004BF20800C5F2000002F026FA0346BB73CB
:10407000BB7BAB2B07D0FB7B43F00103FB73FB7BCC
:104080004FEA4303FB73FB7B4FEA4303FB734CF2A2
:104090000800C5F2000002F00FFA0346BB73BB7BB9
:1040A000AB2B07D0FB7B43F00103FB73FB7B4FEA99
:1040B0004303FB73FB7B4FEA4303FB7345F20C00A6
:1040C000C5F2000002F0E0F90346BB81BB89002B7A
:1040D00007D0FB7B43F00103FB73FB7B4FEA4303F9
:1040E000FB73FB7B4FEA4303FB7345F21000C5F201
:1040F000000002F0C9F903463B813B89022B07D03F
:10410000FB7B43F00103FB73FB7B4FEA4303FB7331
:10411000FB7B4FEA4303FB734BF20C00C5F200003C
:1041200002F0CAF90346BB804CF20C00C5F2000055
:1041300002F0C2F90346BB80FB7B184607F110076B
:10414000BD4680BD80B586B002AFF8607A600A4691
:10415000FA72FB704CF27443C2F200034FF000029B
:104160001A702FE0FB78FA7A4FF000010091F8689E
:1041700011467A6805F014FD4BF23840C2F2000097
:104180004FF0000105F088FE03461A464CF27C13FE
:10419000C2F200031A704CF27C13C2F200031B78C7
:1041A000002B02D14FF0000318E04CF27443C2F22E
:1041B00000031B7803F10103DAB24CF27443C2F23C
:1041C00000031A704CF27443C2F200031B78092BEF
:1041D000C8D94CF27443C2F200031B78184607F1A9
:1041E0001007BD4680BD00BF80B586B002AFF86045
:1041F0007A600A46FA72FB704CF27443C2F2000312
:104200004FF000021A702FE0FB78FA7A4FF00001AD
:104210000091F86811467A6805F034FD4BF2384099
:10422000C2F200004FF0000105F036FE03461A46C8
:104230004CF27C13C2F200031A704CF27C13C2F2EF
:1042400000031B78002B02D14FF0000318E04CF262
:104250007443C2F200031B7803F10103DAB24CF29B
:104260007443C2F200031A704CF27443C2F20003AA
:104270001B78092BC8D94CF27443C2F200031B7897
:10428000184607F11007BD4680BD00BF80B584B059
:1042900000AFF8607B600B46FB721346BB72FA7A84
:1042A00007F10A03F86811461A464FF00103FFF7B9
:1042B00049FF0346092B02D94FF001030FE0FB7AB7
:1042C000F86819467A684FF00203FFF78DFF03463E
:1042D000092B02D94FF0010301E04FF0000318460B
:1042E00007F11007BD4680BD80B582B000AF786091
:1042F0000B46FB704CF26C43C2F2000347F207021C
:104300001A804CF27543C2F200034FF000021A709B
:10431000FB78786819464CF27542C2F200024FF001
:104320000103FFF70FFF0346092B02D94FF00103EA
:1043300013E04CF26C43C2F20003FA78786811463D
:104340001A464FF00203FFF7FDFE0346092B02D980
:104350004FF0010301E04FF00003184607F1080792
:10436000BD4680BD80B584B000AFF8607B600B4671
:10437000FB721346BB724CF27043C2F200034FF063
:1043800000021A704CF27043C2F200034FF00002B8
:104390005A704CF27243C2F200034FF000021A80CE
:1043A000BB7A4FEA4303DBB2FA7AF86811461A4641
:1043B0004CF27043C2F20003FFF768FF0346002B84
:1043C0001AD14CF27043C2F200031B784FEA032368
:1043D0009AB24CF27043C2F200035B7842EA0303E4
:1043E0009BB29AB24CF27243C2F200031A807B680D
:1043F0004FF000021A700AE07B684FF001021A7059
:104400004CF27243C2F200034FF000021A804CF2E9
:104410007243C2F200031B88184607F11007BD461D
:1044200080BD00BF80B584B000AFF8607B600B46F4
:10443000FB721346BB724CF27043C2F200034FF0A2
:1044400000021A704CF27043C2F200034FF00002F7
:104450005A704CF27243C2F200034FF000021A800D
:10446000BB7A4FEA4303DBB203F1FF33DBB2FA7AE4
:10447000F86811461A464CF27043C2F20003FFF787
:1044800005FF0346002B1AD14CF27043C2F2000321
:104490001B784FEA03239AB24CF27043C2F2000336
:1044A0005B7842EA03039BB29AB24CF27243C2F2C7
:1044B00000031A807B684FF000021A700AE07B68E4
:1044C0004FF001021A704CF27243C2F200034FF037
:1044D00000021A804CF27243C2F200031B88184695
:1044E00007F11007BD4680BD80B588B002AF786087
:1044F0000B46FB704FF00003BB754FF00003FB75DC
:104500004BF6B402C0F2000207F110031268114624
:10451000198003F102034FEA12421A704FF00403AC
:104520003B734FF000037B734FF00003BB7349E014
:10453000BB7D1A464FEA42021344DBB203F1050386
:10454000DBB23B74BB7D1A464FEA42021344DBB236
:1045500003F10403DBB23B73FA7807F110034FF069
:1045600000010091786811461A464FF0030305F0E8
:1045700017FB78684FF0000105F08EFC03467B7551
:10458000FA7807F10C034FF00001009178681146AA
:104590001A464FF0030305F003FB78684FF0000163
:1045A00005F07AFC03467B757A7DBB7D02FA03F346
:1045B000DAB2FB7D42EA0303DBB2FB75BB7D03F19C
:1045C0000103BB75BB7D032BB2D9FB7D184607F1F8
:1045D0001807BD4680BD00BF80B58CB004AFF86041
:1045E0007B600B46FB721346BB72BB7A3B753B7D0F
:1045F00043F00803DBB23B753B7D4FEA0313DBB2AC
:104600003B75FA7A07F1140307F1180100914FF096
:10461000020101914FF000010291F86811461A461B
:104620004FF0010305F0A0FBF8684FF0000105F022
:1046300033FC03467B777B7F002B04D07B684FF0F5
:1046400001021A7012E03B7E4FEA03239AB27B7E8E
:1046500042EA03039BB2FB83FB8B4FEA03534FEA0F
:104660001353FB837B684FF000021A70FB8B1846D4
:1046700007F12007BD4680BD80B592B004AFF86059
:10468000B9607A604BF6BC03C0F200031B88BB869E
:104690004FF0280387F830304FF02A0387F82C308A
:1046A0004FF02C0387F828304FF0290387F8243087
:1046B0004FF02B0387F820304FF02D033B774FF05E
:1046C000000387F8363007F1340307F1180200922F
:1046D0004FF0010201924FF0000202924BF2C850DB
:1046E000C2F200004FF06A011A464FF0020305F0D3
:1046F0003BFB4BF2C850C2F200004FF0000105F046
:10470000CBFB034687F8373097F8362097F83730D9
:10471000134487F8363007F1280307F11802009296
:104720004FF0010201924FF0000202924BF2C8508A
:10473000C2F200004FF06A011A464FF0010305F083
:1047400013FB4BF2C850C2F200004FF0000105F01D
:10475000A3FB034687F8373097F8362097F83730B1
:10476000134487F8363007F11C0307F11402009256
:104770004FF0010201924FF0000202924BF2C8503A
:10478000C2F200004FF06A011A464FF0010305F033
:10479000EBFA4BF2C850C2F200004FF0000105F0F6
:1047A0007BFB034687F8373097F8362097F8373089
:1047B000134487F836303B7D4FEA03239AB23B7EA1
:1047C00042EA03039BB29AB27B681A807B681B881B
:1047D000B3F5004F06D97B681B886FEA03039AB2D2
:1047E0007B681A8007F12C0307F1180200924FF042
:1047F000010201924FF0000202924BF2C850C2F245
:1048000000004FF06A011A464FF0010305F0ACFAC0
:104810004BF2C850C2F200004FF0000105F03CFB23
:10482000034687F8373097F8362097F83730134427
:1048300087F8363007F1200307F1140200924FF099
:10484000010201924FF0000202924BF2C850C2F2F4
:1048500000004FF06A011A464FF0010305F084FA98
:104860004BF2C850C2F200004FF0000105F014FBFB
:10487000034687F8373097F8362097F837301344D7
:1048800087F836303B7D4FEA03239AB23B7E42EAFB
:1048900003039BB29AB2BB681A80BB681B88B3F54E
:1048A000004F06D9BB681B886FEA03039AB2BB6846
:1048B0001A8007F1300307F1180200924FF001024D
:1048C00001924FF0000202924BF2C850C2F2000077
:1048D0004FF06A011A464FF0010305F045FA4BF21A
:1048E000C850C2F200004FF0000105F0D5FA0346AF
:1048F00087F8373097F8362097F83730134487F821
:10490000363007F1240307F1140200924FF0010240
:1049100001924FF0000202924BF2C850C2F2000026
:104920004FF06A011A464FF0010305F01DFA4BF2F1
:10493000C850C2F200004FF0000105F0ADFA034686
:1049400087F8373097F8362097F83730134487F8D0
:1049500036303B7D4FEA03239AB23B7E42EA0303A3
:104960009BB29AB2FB681A80FB681B88B3F5004FB4
:1049700006D9FB681B886FEA03039AB2FB681A80AA
:1049800097F83730184607F13807BD4680BD00BF9D
:1049900080B592B004AFF860B9607A604BF6B803A6
:1049A000C0F200031B883B864FF0180387F82C30B9
:1049B0004FF01A0387F828304FF01C0387F8243093
:1049C0004FF0190387F820304FF01B033B774FF06F
:1049D0001D033B764FF06A0387F835304FF0000334
:1049E00087F8363097F8352007F1300307F11401C6
:1049F00000914FF0010101914FF0000102914BF243
:104A0000C850C2F2000011461A464FF0020305F0EA
:104A1000ABF94BF2C850C2F200004FF0000105F0B4
:104A20003BFA034687F8373097F8362097F8373047
:104A3000134487F8363097F8352007F1240307F13F
:104A4000140100914FF0010101914FF0000102911A
:104A50004BF2C850C2F2000011461A464FF0010353
:104A600005F082F94BF2C850C2F200004FF000018D
:104A700005F012FA034687F8373097F8362097F892
:104A80003730134487F8363097F8352007F118038C
:104A900007F1100100914FF0010101914FF0000169
:104AA00002914BF2C850C2F2000011461A464FF074
:104AB000010305F059F94BF2C850C2F200004FF063
:104AC000000105F0E9F9034687F8373097F83620FA
:104AD00097F83730134487F836303B7C4FEA03238E
:104AE0009AB23B7D42EA03039BB29AB2FB681A80FA
:104AF00097F8352007F1280307F1140100914FF0D2
:104B0000010101914FF0000102914BF2C850C2F235
:104B1000000011461A464FF0010305F025F94BF24B
:104B2000C850C2F200004FF0000105F0B5F903468D
:104B300087F8373097F8362097F83730134487F8DE
:104B4000363097F8352007F11C0307F1100100916A
:104B50004FF0010101914FF0000102914BF2C8505A
:104B6000C2F2000011461A464FF0010305F0FCF8AE
:104B70004BF2C850C2F200004FF0000105F08CF972
:104B8000034687F8373097F8362097F837301344C4
:104B900087F836303B7C4FEA03239AB23B7D42EAEA
:104BA00003039BB29AB2BB681A8097F8352007F1CD
:104BB0002C0307F1140100914FF0010101914FF016
:104BC000000102914BF2C850C2F2000011461A4691
:104BD0004FF0010305F0C8F84BF2C850C2F20000D4
:104BE0004FF0000105F058F9034687F8373097F881
:104BF000362097F83730134487F8363097F8352049
:104C000007F1200307F1100100914FF0010101911C
:104C10004FF0000102914BF2C850C2F20000114661
:104C20001A464FF0010305F09FF84BF2C850C2F24C
:104C300000004FF0000105F02FF9034687F83730E8
:104C400097F8362097F83730134487F836303B7C96
:104C50004FEA03239AB23B7D42EA03039BB29AB226
:104C60007B681A8097F83730184607F13807BD4639
:104C700080BD00BF80B58AB004AF78604FF01503E7
:104C80003B754FF016033B744FF06A03BB75BA7D5A
:104C900007F1140307F10C0100914FF0010101919C
:104CA0004FF0000102914BF2C850C2F200001146D1
:104CB0001A464FF0010305F057F84BF2C850C2F204
:104CC00000004FF0000105F0E7F80346FB75BA7DE0
:104CD00007F1100307F1080100914FF00101019164
:104CE0004FF0000102914BF2C850C2F20000114691
:104CF0001A464FF0010305F037F84BF2C850C2F2E4
:104D000000004FF0000105F0C7F80346FB753B7B40
:104D10001A463B7A4FEA03239BB242EA03039BB253
:104D20009AB27B681A804FF00003184607F1180703
:104D3000BD4680BD80B586B002AF4CF27643C2F26C
:104D400000034FF000021A704FF00A004FF001010B
:104D500004F0BEF94FF000033B714FF000037B718C
:104D60004FF00003BB714FF00003FB714FF00003E5
:104D70003B724FF00003FB604FF00003FB600BE061
:104D80004CF20050C2F200004FF0FF0102F00AFEA8
:104D9000FB6803F10103FB60FB68092BF0D94CF2BF
:104DA0000050C2F200004FF0000102F02FFD07F1A9
:104DB00004034FF0010200924CF20050C2F20000D6
:104DC0004BF20C01C2F200014FF0070202F04AFE62
:104DD000FB6803F10103FB603B79012B06D03B79B3
:104DE000012B04D0FB68FE2BE1D900E000BF4FF09F
:104DF0000003FB604CF20050C2F200004FF0FF01D4
:104E000002F0D0FD4CF20050C2F200004FF0FF0162
:104E100002F0C8FD07F104034FF0050200924CF2C6
:104E20000050C2F200004BF21401C2F200014FF038
:104E3000070202F017FE4CF20050C2F200004FF0E1
:104E4000FF0102F0AFFD4CF20050C2F200004FF043
:104E5000FF0102F0A7FDFB6803F10103FB603B7A51
:104E6000AA2B10D1FB79012B0DD1BB79002B0AD1D4
:104E70007B79002B07D14CF27643C2F200034FF04E
:104E800001021A7002E0FB68FE2BB3D9FB68FE2B0F
:104E90000AD94CF20050C2F200004FF0000102F0BB
:104EA00039FD4FF001037EE14FF000033B714FF0FD
:104EB00000037B714FF00003BB714FF00003FB71E7
:104EC0004FF000033B724FF00003FB604CF276435F
:104ED000C2F200034FF000021A704CF20050C2F20E
:104EE00000004FF0FF0102F05DFD4CF20050C2F2F5
:104EF00000004FF0FF0102F055FD07F104034FF0F1
:104F0000050200924CF20050C2F200004BF21C016C
:104F1000C2F200014FF0070202F0A4FD4CF2005073
:104F2000C2F200004FF0FF0102F03CFD4CF20050D5
:104F3000C2F200004FF0FF0102F034FDFB6803F104
:104F40000103FB60FB79802B0AD1BB79FF2B07D1D2
:104F50004CF27643C2F200034FF001021A7002E0F5
:104F6000FB68FE2BB9D9FB68FE2B0AD94CF2005026
:104F7000C2F200004FF0000102F0CCFC4FF0010340
:104F800011E14FF000033B714FF000037B714FF0D4
:104F90000003BB714FF00003FB714FF000033B7245
:104FA0004FF00003FB604CF27643C2F200034FF077
:104FB00000021A704CF20050C2F200004FF0FF01E4
:104FC00002F0F0FC4CF20050C2F200004FF0FF0182
:104FD00002F0E8FC07F104034FF0010200924CF2EA
:104FE0000050C2F200004BF22401C2F200014FF067
:104FF000070202F037FD4CF20050C2F200004FF001
:10500000FF0102F0CFFC07F104034FF00102009210
:105010004CF20050C2F200004BF22C01C2F200012F
:105020004FF0070202F01EFD4CF20050C2F20000E9
:105030004FF0FF0102F0B6FC4CF20050C2F200004B
:105040004FF0FF0102F0AEFCFB6803F10103FB60CF
:105050003B79002B07D14CF27643C2F200034FF0AC
:1050600001021A7004E0FA6840F6F5139A42A1D9D9
:105070004CF27643C2F200031B78002B0AD14CF2AB
:105080000050C2F200004FF0000102F043FC4FF06C
:10509000010388E04FF000033B714FF000037B7188
:1050A0004FF00003BB714FF00003FB714FF00003A2
:1050B0003B724FF00003FB604CF27643C2F20003F8
:1050C0004FF000021A704CF20050C2F200004FF094
:1050D000FF0102F067FC4CF20050C2F200004FF0FA
:1050E000FF0102F05FFC07F104034FF0050200929C
:1050F0004CF20050C2F200004BF21C01C2F200015F
:105100004FF0070202F0AEFC4CF20050C2F2000079
:105110004FF0FF0102F046FC4CF20050C2F20000DA
:105120004FF0FF0102F03EFCFB6803F10103FB605E
:10513000FB79802B0AD1BB79FF2B07D14CF2764348
:10514000C2F200034FF001021A7002E0FB68FE2B6E
:10515000B9D9FB68FE2B0AD94CF20050C2F200000C
:105160004FF0000102F0D6FB4FF001031BE04CF2C0
:105170007643C2F200031B78012B0AD14CF2005097
:10518000C2F200004FF0000102F0C4FB4FF0000338
:1051900009E04CF20050C2F200004FF0000102F0B2
:1051A000B9FB4FF00103184607F11007BD4680BD5B
:1051B00080B58CB002AF786039607B684FEA1363CA
:1051C000D8B27B684FEA1343D9B27B684FEA132306
:1051D000DAB27B68DBB24FF0580C87F818C07876EB
:1051E000B976FA763B774FF0FF337B774FF0FF339A
:1051F000BB774FF000033B744FF000037B744FF01C
:105200000003BB744FF00003FB744FF000033B75C9
:105210004FF00003FB776FF00103FB734FF00003C7
:105220003B624FF000037B624CF20050C2F2000080
:105230004FF0FF0102F0B6FB4CF20050C2F200004A
:105240004FF0000102F0E2FA4CF20050C2F200000E
:105250004FF0FF0102F0A6FB07F1180207F110035F
:105260004FF0010100914CF20050C2F200001146D3
:105270004FF0070202F0F6FB4CF20050C2F20000C1
:105280004FF0FF0102F08EFB3B6A03F101033B622A
:105290003B7C002B77D107F10F0207F110034FF091
:1052A000010100914CF20050C2F2000011464FF093
:1052B000010202F0D7FB07F110034FF00002009249
:1052C0004CF20050C2F2000039684FF4007202F054
:1052D000C9FB17E04CF20050C2F200004FF0FF0192
:1052E00002F060FB0346DBB23B743B7C03F01F0320
:1052F000052B03D14FF00103FB7706E07B6A03F136
:1053000001037B627B6A632BE4D9FB7F012B3FD1D6
:105310004FF00003FB774FF000037B622FE04CF26D
:105320000050C2F200004FF0FF0102F03BFB0346C9
:10533000DBB23B743B7C002B1DD04FF00103FB77AD
:105340004CF20050C2F200004FF0FF0102F02AFBC5
:105350004CF20050C2F200004FF0000102F0DAFA05
:105360004CF20050C2F200004FF0FF0102F01AFBB5
:105370004FF0000335E07B6A03F101037B627B6A37
:10538000632BCCD905E03B6AFE2B7FF64DAF00E0E6
:1053900000BF3B6AFE2B12D94CF20050C2F2000053
:1053A0004FF0000102F0B6FA4CF20050C2F20000D9
:1053B0004FF0FF0102F0F6FA4FF0010311E04CF25A
:1053C0000050C2F200004FF0000102F0A3FA4CF2CC
:1053D0000050C2F200004FF0FF0102F0E3FA4FF07C
:1053E0000103184607F12807BD4680BD80B58CB083
:1053F00002AF786039607B684FEA1363D8B27B688C
:105400004FEA1343D9B27B684FEA1323DAB27B68C1
:10541000DBB24FF0510C87F818C07876B976FA767F
:105420003B774FF0FF337B774FF0FF33BB774FF085
:1054300000033B744FF000037B744FF00003BB7418
:105440004FF00003FB744FF000033B754FF0000377
:10545000FB774FF0FF33FB734FF000033B624FF0DD
:105460000003FB844CF20050C2F200004FF0FF0139
:1054700002F098FA4CF20050C2F200004FF0000126
:1054800002F0C4F94CF20050C2F200004FF0FF01EC
:1054900002F088FA07F1180207F110034FF001013A
:1054A00000914CF20050C2F2000011464FF007028A
:1054B00002F0D8FA56E04CF20050C2F200004FF071
:1054C000FF0102F06FFA0346DBB23B74FB8C03F181
:1054D0000103FB843B7CFE2B44D14CF20050C2F212
:1054E00000004FF0FF0102F05DFA07F10F034FF4E7
:1054F000007200924CF20050C2F2000019464FF0C8
:1055000000023B6802F0AEFA4CF20050C2F200001A
:105510004FF0FF0102F046FA4CF20050C2F20000D8
:105520004FF0FF0102F03EFA4FF00103FB774CF21F
:105530000050C2F200004FF0FF0102F033FA4CF2CB
:105540000050C2F200004FF0000102F0E3F94CF20B
:105550000050C2F200004FF0FF0102F023FA4FF0BA
:1055600000031CE0FB8CF92BA5D93B6A03F1010376
:105570003B623B6A632B7FF675AF4CF20050C2F280
:1055800000004FF0000102F0C5F94CF20050C2F2E9
:1055900000004FF0FF0102F005FA4FF0010318463A
:1055A00007F12807BD4680BD80B485B000AFF86024
:1055B000B9607A60FB68BA681A60FB687A685A60FA
:1055C000FB68BA689A60FB68BA68DA6007F114078A
:1055D000BD4680BC704700BF80B582B000AF786028
:1055E00039607B68DA687B685B689A4205D27B68C1
:1055F000DA687B681B689A4202D24FF0020313E01C
:105600007B68DB6818463968FFF7D2FD0346002B3C
:1056100008D17B68DB6803F101027B68DA604FF038
:10562000000301E04FF00103184607F10807BD46EB
:1056300080BD00BF80B582B000AF786039607B6804
:105640009A687B68DB689A4205D27B689A687B68B7
:105650001B689A4202D24FF0020313E07B689B68FA
:1056600018463968FFF7C2FE0346002B08D17B6855
:105670009B6803F101027B689A604FF0000301E030
:105680004FF00103184607F10807BD4680BD00BF73
:1056900080B582B000AF78604FF006004FF0050192
:1056A00003F0F8FC4FF006004FF0010103F010FD8D
:1056B000786842F20001C5F200014FF010024FF08D
:1056C000000304F0F7F978684FF0000104F0E4FB00
:1056D00003461A464CF27C13C2F200031A704CF2D5
:1056E0007C13C2F200031B78184607F10807BD4679
:1056F00080BD00BF80B584B002AF786039604BF2E6
:105700003403C2F200031B784FF000020092786865
:105710004FF032013A6804F0B5FA78684FF00001B2
:1057200004F0BAFB03461A464CF27C13C2F20003A3
:105730001A704CF27C13C2F200031B78184607F172
:105740000807BD4680BD00BF80B586B002AF786057
:1057500039604FF00103FB734FF001033B73FB7B98
:1057600007F10C024FF00101009178684FF032010F
:1057700004F016FA78684FF0000104F08DFB034640
:105780001A464CF27C13C2F200031A704BF2340337
:10579000C2F200031B784FF00002009278684FF0CD
:1057A00032013A6804F06EFA78684FF0000104F0B4
:1057B00073FB03461A464CF27C13C2F200031A70C4
:1057C0004CF27C13C2F200031B78184607F1100755
:1057D000BD4680BD90B585B000AF786039604FF0B0
:1057E0000003FB732EE0FA7B3B6802EB0304FB7BB8
:1057F0004CF24C00C2F200004FF023011A464CF26A
:105800007643C2F20003FEF7E7FE0346DBB22370E5
:105810004CF27743C2F200031B784FEA4303DAB23B
:105820004CF27643C2F200031B7842EA0303DBB278
:10583000DAB24CF27743C2F200031A70FB7B03F139
:105840000103FB73FB7B072BCDD907F11407BD4682
:1058500090BD00BF80B483B000AF78604CF2784355
:10586000C2F200037A681A6007F10C07BD4680BCDB
:10587000704700BF80B58CB002AF4FF0FF337B6143
:105880004FF0FF33FB744FF0000387F822304FF0E6
:10589000010387F823304FF00003BB744FF000037F
:1058A0003B734FF0FF337B734FF01003BB734FF02C
:1058B0001703FB734FF000033B714FF000037B7144
:1058C0004FF00003BB714FF00003FB714BF214501B
:1058D000C2F2000044F20001C5F200014FF00802DC
:1058E00003F05AFD4BF21450C2F2000003F0C6FD63
:1058F0004FF005004FF0050103F0CCFB4BF21450C4
:10590000C2F20000FFF7A6FF4FF005004FF00001C4
:1059100003F0DEFB4FF00003BB844FF00003BB84B9
:1059200003E0BB8C03F10103BB84BA8C40F2E73384
:105930009A42F6D94FF005004FF0010103F0C8FB81
:105940004FF00003BB844CF27843C2F200031B68A3
:1059500018464FF0000103F0D3FD4FF00003BB8465
:1059600003E0BB8C03F10103BB84BA8C40F25D13EE
:105970009A42F6D94CF27843C2F20003196807F153
:10598000130207F112034FF0010000900846114680
:105990004FF0010200F056FBBB7C002B1BD04FF0F8
:1059A000000387F823304CF27843C2F200031B68EF
:1059B00018464FF0000103F0F7FD4FF00003BB84E1
:1059C00003E0BB8C03F10103BB84BA8C40F2E733E4
:1059D0009A42F6D909E097F8223003F1010387F8DB
:1059E000223097F82230092BADD94CF27843C2F21D
:1059F00000031B6818464FF0000103F081FD4CF2D4
:105A00007843C2F20003196807F1130207F1120389
:105A10004FF001000090084611464FF0010200F0DF
:105A200011FB4FF00003FB704FF0FF33BB704FF0E2
:105A3000000387F826304CF27843C2F2000319685D
:105A400007F1020207F103034FF00100009008463E
:105A500011464FF0010200F0F5FAFB7803F0200345
:105A6000002B04D0FB7803F00403002B0FD197F830
:105A70002630632B8CBF00230123DBB297F826204E
:105A800002F1010287F82620002BD4D100E000BFEC
:105A90004CF27843C2F200031B6818464FF0000135
:105AA00003F082FD4FF0000387F8263008E000F095
:105AB00077FB034687F8273097F82730012B0FD064
:105AC00097F82630632B8CBF00230123DBB297F8B5
:105AD000262002F1010287F82620002BE7D100E002
