S01C000050694C4F545F73625F4D53535F434D335F6170702E7372656318
S3152000000000000120910100207F03002081030020B1
S3152000001083030020850300208703002000000000C2
S3152000002000000000000000000000000089030020FE
S315200000308B030020000000008D0300208F0300208A
S315200000409103002093030020BD710020E171002060
S31520000050990300209B0300209D0300209F0300207E
S31520000060A1030020A30300206D5100209151002000
S31520000070A9030020AB030020AD030020AF0300201E
S31520000080B1030020B3030020B503002069A200209D
S31520000090B9030020BB030020BD030020BF030020BE
S315200000A0C1030020C3030020C5030020C70300208E
S315200000B0C9030020CB030020CD030020CF0300205E
S315200000C0D1030020D303002025220020392200203E
S315200000D04D2200206122002075220020812200204E
S315200000E08D22002099220020E5030020E70300202E
S315200000F0E9030020EB030020ED030020EF0300209E
S31520000100F1030020F3030020F5030020312800200E
S31520000110F903002095280020FD030020FF0300207E
S315200001200104002003040020050400200704002009
S31520000130090400200B0400200D0400200F040020D9
S3152000014011040020130400201504002017040020A9
S31520000150190400201B0400201D0400201F04002079
S315200001602104002023040020250400202704002049
S31520000170290400202B0400202D0400202F04002019
S31520000180310400203304002000000000000000009D
S315200001904FF0000BDFF8BE020068DFF8B6120968E0
S315200001A001F0030100F01C00142801D14BF0020BD2
S315200001B0002901D04BF0010BBBF1000F05D0A74859
S315200001C0A749DFF8722200F09FF8A64880470BF077
S315200001D0020ABAF1000F0CD0DFF86E02DFF86E12B9
S315200001E002680B680FB44FF000024FF0FF03026065
S315200001F00B609D489D4A9E4B022808D1DFF83E128F
S315200002000A60DFF842120A60DFF836120B60012816
S3152000021008D1DFF82E120A60DFF82A120A60DFF80A
S315200002201E120B609348002809D193489349944A9B
S3152000023000F032F893489449944A00F02DF89448F7
S315200002409449954A00F028F894489549DFF8E62124
S3152000025000F05AF8BBF1000F12D092489249DFF80D
S31520000260DA2100F051F80BF0020ABAF1000F07D09C
S315200002700FBC02600B6000BFAFF30080AFF30080BD
S31520000280DFF828020FF2030E00474FF000004FF070
S315200002900001DFF81CF2FEE72DE9F841884225D05F
S315200002A0B2EB010200D5FEE740EA010313F0030397
S315200002B002D000F01DF819E04FF00003904612110D
S315200002C0F7D09A421CBFF0C8F0C103F10103F8D160
S315200002D008F00F08B8F1000F08D004780C7000F170
S315200002E0010001F10101B8F10108F6D1BDE8F8815C
S315200002F008B54FF0000303780B7000F1010001F1FF
S315200003000101013AF7D108BD884237D000F0030633
S31520000310002E14D04FF00405A5EB06044FF0080775
S3152000032007FB06F8914669FA08F9002C07D080F8F1
S31520000330009069FA07F900F10100013CF5E74FF05A
S3152000034000060F46091A8846091191461446154695
S31520000350B14206D018BFA0E8340206F10106B14228
S31520000360F8D108F00F08B8F1000F07D002704FEA55
S31520000370322200F10100B8F10108F4E77047FEE7E8
S31520000380FEE7FEE7FEE7FEE7FEE7FEE7FEE7FEE71F
S31520000390FEE7FEE7FEE7FEE7FEE7FEE7FEE7FEE70F
S315200003A0FEE7FEE7FEE7FEE7FEE7FEE7FEE7FEE7FF
S315200003B0FEE7FEE7FEE7FEE7FEE7FEE7FEE7FEE7EF
S315200003C0FEE7FEE7FEE7FEE7FEE7FEE7FEE7FEE7DF
S315200003D0FEE7FEE7FEE7FEE7FEE7FEE7FEE7FEE7CF
S315200003E0FEE7FEE7FEE7FEE7FEE7FEE7FEE7FEE7BF
S315200003F0FEE7FEE7FEE7FEE7FEE7FEE7FEE7FEE7AF
S31520000400FEE7FEE7FEE7FEE7FEE7FEE7FEE7FEE79E
S31520000410FEE7FEE7FEE7FEE7FEE7FEE7FEE7FEE78E
S31520000420FEE7FEE7FEE7FEE7FEE7FEE7FEE7FEE77E
S31520000430FEE7FEE7704700000000A2A2A2A200800D
S3152000044003400880034010800340308003403480FE
S3152000045003403880034018080240000000F00020C6
S3152000046000000120E99B00200000000000000000A1
S315200004700100000000000000000000200000002015
S3152000048090010020C0040020C004002060AC0020A1
S3152000049060AC002060AC0020B0AF0020B0AF0020E0
S315200004A040C2002040C2002000F0002031AA0020D7
S315200004B0511E0020AFF30080AFF30080AFF3008021
S315200004C04AF6B073C2F200031A780AB901201870EE
S315200004D0704700BF4AF66040C2F2000008B50368C4
S315200004E02BB140F20003C0F2000303B1984708BDC8
S315200004F080B400AF45F20003C4F200031B6818461F
S31520000500BD4680BC704700BF80B485B000AF786020
S315200005100B467B804FF000033B734FF000037B7349
S315200005204FF00003BB734FF00003FB734FF0000343
S31520000530FB733AE03A7BF97B7B680B441B7802EB32
S31520000540030148F28103C8F2800383FB01230B4495
S315200005504FEAE3124FEAE173C3EB020213464FEA76
S315200005600323C2EB0303C3EB010213463B737A7BDF
S315200005703B7B02EB030148F28103C8F2800383FB35
S3152000058001230B444FEAE3124FEAE173C3EB020265
S3152000059013464FEA0323C2EB0303C3EB01021346C0
S315200005A07B73FB7B03F10103FB73FB7B7A889A4207
S315200005B0C0D83A7B7B7B02EB030148F28103C8F269
S315200005C0800383FB01230B444FEAE3124FEAE173D6
S315200005D0C3EB020213464FEA0323C2EB0303C3EB2A
S315200005E00102D3B26FEA0303BB733A7BBB7B02EBF8
S315200005F0030148F28103C8F2800383FB01230B44E5
S315200006004FEAE3124FEAE173C3EB020213464FEAC5
S315200006100323C2EB0303C3EB0102D3B26FEA030346
S315200006207B737B7B4FEA03239AB2BB7B42EA0303AD
S315200006309BB29BB2184607F11407BD4680BC704793
S3152000064080B500AF4BF29400C2F200004FF0A041FB
S315200006504FF040024FF0000308F088FA4BF22420B6
S31520000660C2F2000043F20001C5F200014FF06A0217
S315200006704FF0000308F07AFA4BF20010C2F20000A5
S3152000068041F20001C5F200014FF021024FF00003B4
S3152000069008F06CFA80BD00BF90B58FB000AF4BF26A
S315200006A09422C2F200024BF26C13C2F200031A60CB
S315200006B04FF000033B864FF0000387F833304AF6AD
S315200006C05433C2F2000307F1040C9E46BEE80F0025
S315200006D0ACE80F00DEF80030ACF8003007F12E0150
S315200006E007F12C0207F12A03084611461A4602F0A2
S315200006F055FC0346002B0CBF002301233B8607F144
S31520000700280107F1260207F12403084611461A4656
S3152000071002F0D0FD0346002B02D04FF0020301E089
S315200007204FF00003398E1A460B4642EA03039BB26A
S315200007303B8607F11A03184602F02EFF0346002BCC
S3152000074014BF00230123002B03D04FEA83039BB25F
S3152000075001E04FF00403398E1A460B4642EA0303A2
S315200007609BB23B864BF26C13C2F200031A684AF620
S31520000770C173C2F200031B7853744BF26C13C2F29E
S3152000078000031B684FF0000242F030029A744FF0CB
S31520000790000242F07502DA744BF26C13C2F20003C7
S315200007A01C68FFF7A5FE034603F0FF024FF0000189
S315200007B041EA020222754FEA132202F0FF024FF0AD
S315200007C0000141EA020262754FEA134202F0FF027B
S315200007D04FF0000141EA0202A2754FEA13634FF07F
S315200007E0000242EA0303E3754BF26C13C2F20003E4
S315200007F01A684AF6CC73C2F200031B7893764BF242
S315200008006C13C2F200031A684CF22003C2F20003F2
S315200008101B681B7813764BF26C13C2F200031A681E
S315200008204AF6B473C2F200031B7853764BF26C136C
S31520000830C2F200031A684AF6C373C2F200031B7899
S31520000840937316E04BF26C13C2F20003196897F803
S31520000850330097F833204BF61453C2F200039A5C08
S3152000086000EB0103DA7697F8333003F1010387F8BA
S31520000870333097F833300F2BE4D94FF0000387F845
S3152000088033304BF26C13C2F200031A684AF6C67371
S31520000890C2F200031B78D3734BF26C13C2F200032F
S315200008A01A684AF6C773C2F200031B7813744BF218
S315200008B06C13C2F200031B68FA8D02F0FF014FF0A1
S315200008C0000040EA010183F82B104FEA122292B26F
S315200008D04FF0000141EA020283F82C204BF26C1300
S315200008E0C2F200031B68BA8D02F0FF014FF0000030
S315200008F040EA010183F82D104FEA122292B24FF0FE
S31520000900000141EA020283F82E204BF26C13C2F258
S3152000091000031B687A8D02F0FF014FF0000040EAC9
S31520000920010183F82F104FEA122292B24FF00001F4
S3152000093041EA020283F830204BF26C13C2F2000324
S315200009401B683A8D02F0FF014FF0000040EA0101DA
S3152000095083F831104FEA122292B24FF0000141EA99
S31520000960020283F832204BF26C13C2F200031B689A
S31520000970FA8C02F0FF014FF0000040EA010183F8F3
S3152000098033104FEA122292B24FF0000141EA0202DE
S3152000099083F834204BF26C13C2F200031B68BA8C26
S315200009A002F0FF014FF0000040EA010183F8351004
S315200009B04FEA122292B24FF0000141EA020283F876
S315200009C036204BF26C13C2F200031B687A8B02F0BE
S315200009D0FF014FF0000040EA010183F837104FEA8B
S315200009E0122292B24FF0000141EA020283F8382027
S315200009F04BF26C13C2F200031C6807F119034FF087
S31520000A0040004FF002011A4602F042F9034603F075
S31520000A10FF024FF0000141EA020284F839204FEA32
S31520000A2013239BB24FF0000242EA030384F83A30C4
S31520000A307B7E4FEAC3039AB23B8E42EA03039BB204
S31520000A403B864BF26C13C2F200031C6807F11903B4
S31520000A504FF040004FF003011A4602F019F9034601
S31520000A6003F0FF024FF0000141EA020284F83B2026
S31520000A704FEA13239BB24FF0000242EA030384F8A5
S31520000A803C307B7E4FEA03139AB23B8E42EA030345
S31520000A909BB23B864BF26C13C2F200031B684CF2EE
S31520000AA04C02C2F20002D26802F0FF014FF00000B1
S31520000AB040EA010183F845104FEA122101F0FF01B7
S31520000AC04FF0000040EA010183F846104FEA124138
S31520000AD001F0FF014FF0000040EA010183F84710C2
S31520000AE04FEA12624FF0000141EA020283F84820E1
S31520000AF04BF26C13C2F200031B684CF24C02C2F29A
S31520000B000002926802F0FF014FF0000040EA010166
S31520000B1083F841104FEA122101F0FF014FF0000047
S31520000B2040EA010183F842104FEA124101F0FF0129
S31520000B304FF0000040EA010183F843104FEA1262A9
S31520000B404FF0000141EA020283F844204BF26C1375
S31520000B50C2F200031B684CF23C02C2F20002D268C9
S31520000B6002F0FF014FF0000040EA010183F8551022
S31520000B704FEA122101F0FF014FF0000040EA010187
S31520000B8083F856104FEA124101F0FF014FF00000A2
S31520000B9040EA010183F857104FEA12624FF0000134
S31520000BA041EA020283F858204BF26C13C2F200038A
S31520000BB01B684CF23C02C2F20002926802F0FF016E
S31520000BC04FF0000040EA010183F851104FEA12214C
S31520000BD001F0FF014FF0000040EA010183F85210B6
S31520000BE04FEA124101F0FF014FF0000040EA0101F7
S31520000BF083F853104FEA12624FF0000141EA0202D5
S31520000C0083F854204BF26C13C2F200031B684CF29B
S31520000C102802C2F20002D26802F0FF014FF0000063
S31520000C2040EA010183F84D104FEA122101F0FF013D
S31520000C304FF0000040EA010183F84E104FEA1241BE
S31520000C4001F0FF014FF0000040EA010183F84F1048
S31520000C504FEA12624FF0000141EA020283F8502067
S31520000C604BF26C13C2F200031B684CF22802C2F24C
S31520000C700002926802F0FF014FF0000040EA0101F5
S31520000C8083F849104FEA122101F0FF014FF00000CE
S31520000C9040EA010183F84A104FEA124101F0FF01B0
S31520000CA04FF0000040EA010183F84B104FEA126230
S31520000CB04FF0000141EA020283F84C204BF26C13FC
S31520000CC0C2F200031C6807F119034FF040004FF0F1
S31520000CD002011A4602F03AF8034603F0FF024FF0EB
S31520000CE0000141EA020284F83D204FEA13239BB219
S31520000CF04FF0000242EA030384F83E307B7E4FEA3F
S31520000D0043139AB23B8E42EA03039BB23B864BF2D5
S31520000D106C13C2F200031C6807F119034FF0400060
S31520000D204FF003011A4602F011F8034603F0FF02C2
S31520000D304FF0000141EA020284F83F204FEA1323D4
S31520000D409BB24FF0000242EA030384F840307B7ED8
S31520000D504FEA83139AB23B8E42EA03039BB23B8649
S31520000D604CF26000C2F2000001F014FE17E04BF2D4
S31520000D706C13C2F20003196897F8330097F83320F2
S31520000D804CF26003C2F200039A5C00EB010383F885
S31520000D905A2097F8333003F1010387F8333097F858
S31520000DA033301F2BE3D94BF26C13C2F200031B68BE
S31520000DB04FF0000242F008021A704FF0000242F093
S31520000DC001025A704BF26C13C2F2000318684AF6FD
S31520000DD0B273C2F2000319880B466FEA83436FEAA7
S31520000DE093439BB29BB24FEA03231FFA83FC4AF636
S31520000DF0B273C2F200031A8813466FEA83436FEA7E
S31520000E0093439BB29BB24FEA13239BB24CEA030354
S31520000E109BB29BB203F0FF0C4FF0000E4EEA0C0C77
S31520000E2080F802C04FEA13239BB24FF0000C4CEA25
S31520000E300303C37001F1010399B24AF6B273C2F2F9
S31520000E400003198002F101039AB24AF6B273C2F284
S31520000E5000031A804BF26C13C2F200031B684FF09A
S31520000E6000021A714FF0000242F07C025A714BF2D6
S31520000E706C13C2F200031B684FF000029A714FF008
S31520000E800002DA714FF000021A724FF000025A7215
S31520000E904BF26C13C2F200031B684FF000029A72E9
S31520000EA04FF00002DA724FF000021A734FF0000280
S31520000EB05A734AF6B573C2F200031B78002B4BD047
S31520000EC04AF6C873C2F200034FF001021A704BF2C1
S31520000ED06C13C2F200031A684AF6C873C2F2000302
S31520000EE01B7882F859304BF26C13C2F200031C684F
S31520000EF04BF29420C2F200004FF07A01FFF704FB78
S31520000F00034603F0FF024FF0000141EA020284F893
S31520000F107A204FEA13239BB24FF0000242EA0303E2
S31520000F2084F87B304CF24C00C2F200004BF2942144
S31520000F30C2F2000102F0E2FF0346002B02D04FF07E
S31520000F40800301E04FF00003398E1A460B4642EA31
S31520000F5003039BB23B863DE04AF6C873C2F2000308
S31520000F604FF000021A704BF26C13C2F200031A689B
S31520000F704AF6C873C2F200031B7882F859304BF246
S31520000F806C13C2F200031C684BF29420C2F20000DC
S31520000F904FF07A01FFF7B8FA034603F0FF024FF04D
S31520000FA0000141EA020284F87A204FEA13239BB219
S31520000FB04FF0000242EA030384F87B304CF2F8003B
S31520000FC0C2F200004BF29421C2F200014FF07C02E3
S31520000FD004F05AF83B8E184607F13C07BD4690BDF3
S31520000FE0B0B582B000AF4FF000037B714FF0000325
S31520000FF0FB714BF29422C2F200024BF29023C2F212
S3152000100000031A602EE04BF29023C2F200031C6804
S315200010107D79BB797A794BF20010C2F200004FF04D
S31520001020210101F06BFF0346194605F1040201F088
S31520001030FF004FEA420323444FF0000C4CEA000025
S3152000104098714FEA112398B24FEA420323444FF096
S3152000105000021146024641EA0202DA717B7903F167
S3152000106001037B717B79072BCDD94AF6B573C2F282
S3152000107000031B78002B0DD04FF00103FB714CF2BF
S315200010802800C2F200004BF29421C2F2000102F0C5
S3152000109035FF0EE04FF00003FB714CF2F800C2F270
S315200010A000004BF29421C2F200014FF07C0203F0C3
S315200010B0EBFF07F10807BD46B0BD00BF80B500AF06
S315200010C04CF24C00C2F200004BF29421C2F2000115
S315200010D002F042FF80BD00BF90B583B000AF4FF055
S315200010E00003FB804BF29422C2F200024BF6A4537B
S315200010F0C2F200031A600CE0FA884BF6B453C2F22F
S3152000110000034FF0000143F82210FB8803F101038E
S31520001110FB80FB88072BEFD94FF00003FB804CF2B6
S315200011203800C2F2000003F029FC4BF6A453C2F2A9
S3152000113000031A684AF6C173C2F200031B78937340
S315200011404BF6A453C2F200031A684CF23803C2F2DB
S3152000115000031B8803F0FF014FF0000040EA010165
S3152000116011754FEA13239BB24FF0000141EA0303A6
S3152000117053754BF6A453C2F200031A684AF6C3739A
S31520001180C2F200031B78D3734BF6A453C2F20003BA
S315200011901A684AF6C473C2F200031B7813744BF61E
S315200011A0A453C2F200031A684AF6C573C2F20003BA
S315200011B01B7853744BF6A453C2F200031A684CF200
S315200011C02403C2F200031B8803F0FF014FF0000046
S315200011D040EA010191744FEA13239BB24FF00001BC
S315200011E041EA0303D3744BF6A453C2F200031C68EE
S315200011F003F0DAFD0346A3754BF6A453C2F20003AF
S315200012001C6803F0E9FD034603F0FF024FF00001DE
S3152000121041EA0202E2754FEA132202F0FF024FF082
S31520001220000141EA020222764FEA134202F0FF024F
S315200012304FF0000141EA020262764FEA13634FF053
S31520001240000242EA0303A3764BF6A453C2F200033C
S315200012501C6803F0E9FD034603F0FF024FF000018E
S3152000126041EA0202E2764FEA132202F0FF024FF031
S31520001270000141EA020222774FEA134202F0FF02FE
S315200012804FF0000141EA020262774FEA13634FF002
S31520001290000242EA0303A3774BF6A453C2F20003EB
S315200012A01B684AF6BC72C2F20002126802F0FF0105
S315200012B04FF0000040EA0101D9774FEA122101F0F0
S315200012C0FF014FF0000040EA010183F820104FEAA9
S315200012D0124101F0FF014FF0000040EA010183F8BE
S315200012E021104FEA12624FF0000141EA020283F810
S315200012F022204BF6A453C2F200031A684AF6C073A2
S31520001300C2F200031B7882F823304BF6A453C2F2B4
S3152000131000031C6803F0E8FA034684F8443043E0EF
S315200013204BF6A453C2F200031B68F888F9884BF6E3
S31520001330B452C2F2000252F8211000F1080201F064
S31520001340FF0C4FEA820018444FF0000E4EEA0C0CB8
S3152000135080F804C04FEA112000F0FF0C4FEA82000B
S3152000136018444FF0000E4EEA0C0C80F805C04FEAE8
S31520001370114000F0FF0C4FEA820018444FF0000E97
S315200013804EEA0C0C80F806C04FEA11604FEA820242
S315200013901A444FF000031946034641EA0303D3716A
S315200013A0FB8803F10103FB804AF6C073C2F20003F7
S315200013B01B78FA889A42B3D34CF26000C2F200003E
S315200013C001F0E8FA13E04BF6A453C2F200031968C1
S315200013D0F888FA884CF26003C2F200039A5C00EBAC
S315200013E0010383F84620FB8803F10103FB80FB8879
S315200013F01F2BE8D94BF6A453C2F200031B684FF00B
S31520001400000242F008021A704FF0000242F0030276
S315200014105A704BF6A453C2F2000318684AF6B87302
S31520001420C2F2000319880B466FEA83436FEA93439F
S315200014309BB29BB24FEA03231FFA83FC4AF6B8738A
S31520001440C2F200031A8813466FEA83436FEA934376
S315200014509BB29BB24FEA13239BB24CEA03039BB287
S315200014609BB203F0FF0C4FF0000E4EEA0C0C80F8F6
S3152000147002C04FEA13239BB24FF0000C4CEA030341
S31520001480C37001F1010399B24AF6B873C2F20003A0
S31520001490198002F101039AB24AF6B873C2F2000328
S315200014A01A804BF6A453C2F200031B684FF00002C9
S315200014B01A714FF0000242F068025A714BF6A4539B
S315200014C0C2F200031B684FF000029A714FF000022F
S315200014D0DA714FF000021A724FF000025A724BF680
S315200014E0A453C2F200031B684FF000029A724FF019
S315200014F00002DA724FF000021A734FF000025A739C
S315200015004AF6B573C2F200031B78002B3DD04AF68B
S31520001510B673C2F200034FF001021A704BF6A453C1
S31520001520C2F200031A684AF6B673C2F200031B78A9
S3152000153082F845304BF6A453C2F200031C684BF2E6
S315200015409420C2F200004FF06601FEF7DDFF03464D
S315200015509BB203F0FF024FF0000141EA020284F839
S3152000156066204FEA13239BB24FF0000242EA0303A0
S3152000157084F867304CF23C00C2F200004BF2942112
S31520001580C2F2000102F0BAFC3EE04AF6B673C2F29D
S3152000159000034FF000021A704BF6A453C2F2000368
S315200015A01A684AF6B673C2F200031B7882F84530F1
S315200015B04BF6A453C2F200031C684BF29420C2F2ED
S315200015C000004FF06601FEF79FFF03469BB203F033
S315200015D0FF024FF0000141EA020284F866204FEA3A
S315200015E013239BB24FF0000242EA030384F86730CC
S315200015F04CF2F800C2F200004BF29421C2F2000134
S315200016004FF0680203F040FD07F10C07BD4690BD80
S3152000161080B483B000AF0346FB714EF20013CEF2C6
S31520001620000397F907204FEA5212F97901F01F01BA
S315200016304FF0010000FA01F143F8221007F10C07E0
S31520001640BD4680BC704700BF80B483B000AF034660
S31520001650FB714EF20013CEF2000397F907204FEAF2
S315200016605212F97901F01F014FF0010000FA01F141
S3152000167002F1200243F8221007F10C07BD4680BC78
S31520001680704700BF80B483B000AF0346FB714EF2B3
S315200016900013CEF2000397F907204FEA5212F97988
S315200016A001F01F014FF0010000FA01F102F1600282
S315200016B043F8221007F10C07BD4680BC704700BFD7
S315200016C080B483B000AF03463960FB7197F90730C9
S315200016D0002B10DA4EF60053CEF20003FA7902F010
S315200016E00F02A2F104013A68D2B24FEA0212D2B234
S315200016F00B441A760DE04EF20013CEF2000397F952
S3152000170007103A68D2B24FEA0212D2B20B4483F8DB
S31520001710002307F10C07BD4680BC704780B582B018
S3152000172000AF0346FB714FF00E00FFF78DFF48F226
S315200017300003C4F2030348F20002C4F20302926CCF
S3152000174022F040029A6444F20003C4F200034FF0F0
S3152000175000025A6540F20003C4F208234FF000024B
S31520001760C3F8802140F20003C4F208234FF00002A0
S31520001770C3F8882140F20003C4F20823FA79C3F89B
S31520001780842144F20003C4F200034FF001021A61DF
S315200017904FF00E00FFF776FF07F10807BD4680BD24
S315200017A080B400AF40F20003C4F208234FF00102D8
S315200017B0C3F88021BD4680BC704700BF80B400AF0F
S315200017C044F20003C4F200031B681846BD4680BCE1
S315200017D0704700BF80B483B000AF786044F2000346
S315200017E0C4F200037A685A6007F10C07BD4680BC34
S315200017F0704700BF80B582B000AF0346FB714FF043
S315200018000E00FFF721FF4FF00F00FFF71DFF48F2F4
S315200018100003C4F2030348F20002C4F20302926CEE
S3152000182022F040029A6444F20003C4F200034FF00F
S3152000183001025A6540F20003C4F208234FF0000269
S31520001840C3F8002940F20003C4F208234FF0000237
S31520001850C3F8082940F20003C4F20823FA79C3F832
S31520001860042944F20003C4F200034FF001021A6176
S3152000187044F20003C4F200034FF001029A624FF0D3
S315200018800E00FFF7FFFE4FF00F00FFF7FBFE07F1FC
S315200018900807BD4680BD00BF80B400AF40F20003FC
S315200018A0C4F208234FF00102C3F80029BD4680BCCC
S315200018B0704700BF80B483B000AF7860396044F2CF
S315200018C00003C4F200035A6B3B681A6044F200031B
S315200018D0C4F200031A6B7B681A6007F10C07BD4639
S315200018E080BC704780B483B000AF7860396044F222
S315200018F00003C4F200037A689A6344F20003C4F238
S3152000190000033A68DA6307F10C07BD4680BC7047CE
S3152000191080B582B000AF45F20003C4F2000345F261
S315200019200002C4F20002526922F003025A6145F213
S315200019300003C4F200034FF00302DA614FF0000007
S31520001940FFF7A0FE45F20003C4F200031B687B608C
S3152000195045F20003C4F200039A687B689A4208D9CC
S3152000196045F20003C4F200034DF64262CAF6154260
S31520001970DA6007F10807BD4680BD00BF80B400AF1E
S3152000198045F20003C4F200034DF64262CAF6154240
S31520001990DA60BD4680BC704780B400AF48F20003D1
S315200019A0C4F20303D3F89C311846BD4680BC704769
S315200019B080B400AF48F20003C4F203034FF00102E3
S315200019C0C3F89C21BD4680BC704700BF80B582B05D
S315200019D000AF4CF21802C2F200024CF20803C2F227
S315200019E0000310461946FFF765FFFEF755FE03462E
S315200019F0FB804BF6E853C2F2000319684BF6E0531E
S31520001A00C2F200031B781A4613464FEA8303134497
S31520001A104FEA430313440B4403F116034FF002022B
S31520001A201A704BF6E853C2F2000318684BF6E053DF
S31520001A30C2F200031B7819464CF21803C2F20003C7
S31520001A40D3E900230B464FEA83030B444FEA4303B3
S31520001A500B44034403F1080302F0FF014FF000009A
S31520001A6040EA010199724FEA122101F0FF014FF07D
S31520001A70000040EA0101D9724FEA124101F0FF014C
S31520001A804FF0000040EA010119734FEA12624FF04D
S31520001A90000141EA02025A734BF6E853C2F20003F0
S31520001AA018684BF6E053C2F200031B7819464CF235
S31520001AB00803C2F20003D3E900230B464FEA83034F
S31520001AC00B444FEA43030B44034403F1080302F09B
S31520001AD0FF014FF0000040EA010199714FEA1221FF
S31520001AE001F0FF014FF0000040EA0101D9714FEAF1
S31520001AF0124101F0FF014FF0000040EA0101197286
S31520001B004FEA12624FF0000141EA02025A724BF686
S31520001B10E853C2F2000319684BF6E053C2F2000301
S31520001B201B781A4613464FEA830313444FEA4303AE
S31520001B3013440B4403F11003BA794FF0000141EA34
S31520001B400202DA71FA794FF0000141EA02021A72B2
S31520001B504BF6E053C2F200031B7803F10103DAB21D
S31520001B604BF6E053C2F200031A704CF25C00C2F24C
S31520001B70000006F053FC07F10807BD4680BD00BFF4
S31520001B8080B582B000AFFFF7A7FA0346FB804BF67D
S31520001B90E450C2F2000006F041FC07F10807BD46FA
S31520001BA080BD00BF80B500AFFFF71AFA4CF20000E7
S31520001BB0C2F2000006F032FC80BD00BF80B500AF47
S31520001BC04CF24C03C2F200039A684CF24C03C2F268
S31520001BD00003DB689A4208D24AF6B573C2F20003C4
S31520001BE01B78002B01D1FFF769FA4CF21000C2F2E4
S31520001BF0000006F013FC80BD80B582B002AF47F22C
S31520001C00702300934CF25C00C2F2000046F2000101
S31520001C10C5F200014FF000024FF0090306F05AFB0F
S31520001C204CF25C00C2F2000006F0DAFB4FF0260010
S31520001C30FFF7EEFC4FF026004FF0FE01FFF740FDC8
S31520001C404EF2E04300934BF6E450C2F2000047F216
S31520001C500001C5F200014FF000024FF0090306F023
S31520001C6039FB4BF6E450C2F2000006F0B9FB4FF008
S31520001C702700FFF7CDFC4FF027004FF0FE01FFF7BE
S31520001C801FFD45F25073C0F2010300934CF2000091
S31520001C90C2F2000048F20001C5F200014FF0000236
S31520001CA04FF0090306F016FB4CF20000C2F20000CA
S31520001CB006F096FB4FF02800FFF7AAFC4FF028000D
S31520001CC04FF0FE01FFF7FCFC47F66003C0F2040369
S31520001CD000934CF21000C2F2000049F20001C5F256
S31520001CE000014FF000024FF0090306F0F3FA4CF220
S31520001CF01000C2F2000006F073FB4FF02900FFF738
S31520001D0087FC4FF029004FF0FE01FFF7D9FC4CF27B
S31520001D105C00C2F2000006F045FBBD4680BD00BF58
S31520001D2080B500AF4FF02700FFF78EFC80BD00BFC7
S31520001D3080B500AF4FF02700FFF76AFC80BD00BFDB
S31520001D4080B582B000AF78607A684CF22003C2F288
S31520001D5000031A604CF22003C2F200031B681846E7
S31520001D604FF0010100F0BCFA0346002B15D04CF2CF
S31520001D702003C2F200031B68184600F023FB4AF634
S31520001D80C473C2F200031B7803F10103DAB24AF6E8
S31520001D90C473C2F200031A700CE04AF6C573C2F28D
S31520001DA000031B7803F10103DAB24AF6C573C2F2C7
S31520001DB000031A7007F10807BD4680BD80B500AF45
S31520001DC042F21543C2F200034FF000004FF0020129
S31520001DD01A4600F099FA42F22943C2F200034FF064
S31520001DE001004FF003011A4600F08EFA42F21D530D
S31520001DF0C2F200034FF002004FF003011A4600F032
S31520001E0083FA42F24963C2F200034FF003004FF017
S31520001E1006011A4600F078FA42F24973C2F200032C
S31520001E204FF004004FF010011A4600F06DFA80BD05
S31520001E3080B500AF4FF00100FFF7DCFC4FF0FF301C
S31520001E404FF0FF31FFF74EFDFFF726FD80BD00BFA7
S31520001E5080B5ADF5046D86B002AFFFF759FDFFF7EB
S31520001E608DFDFEF7EDFB4CF24C00C2F200004FF068
S31520001E700A0141F60A22C0F24F0202F027F84CF27C
S31520001E803C00C2F2000040F2D231C0F257014CF6BB
S31520001E905262C0F2570202F019F84CF22800C2F240
S31520001EA0000046F27E41C0F2590145F6FE12C0F20C
S31520001EB07A0202F00BF84BF60062C2F200024BF6F1
S31520001EC0E853C2F200031A604BF6E053C2F2000355
S31520001ED04FF000021A70FFF7ABFF4BF20010C2F270
S31520001EE000004FF0210100F091FF4BF6A840C2F20E
S31520001EF0000002F05FF84BF6A840C2F200004FF057
S31520001F00210100F083FF4FF0000387F81A384FF0C5
S31520001F100103A7F8223807F5C06303F10C034FF03D
S31520001F2000021A8007F581634FF000021A704FF005
S31520001F30000003F0DDFC4CF2BC10C2F2000004F0FD
S31520001F40EDFA4FF0080300934CF2BC10C2F20000E9
S31520001F504FF000014FF000024FF0080304F028FC78
S31520001F6006F0BCF84FF000004FF0050106F00CF922
S31520001F704FF00A004FF0050106F006F94FF0000079
S31520001F804FF0010106F01EF94FF00A03C7F830386A
S31520001F9007F502734FF021021A7007F502734FF00E
S31520001FA020025A7007F502734FF01902DA7007F50E
S31520001FB002734FF018021A714CF23810C2F2000068
S31520001FC004F0ACFA4FF0080300934CF23810C2F23A
S31520001FD000004FF000014FF000024FF4007304F0B0
S31520001FE0E7FB01F039FB034687F8373842F2000356
S31520001FF0C6F20303C7F84038D7F840381B68DAB270
S3152000200007F11003A3F10C031A7007F11003A3F1D3
S315200020100C031B7803F10103DAB207F11003A3F1D5
S315200020200C031A7007F11003A3F10C0342F200000F
S31520002030C6F2030019464FF001024FF0000305F0E7
S31520002040E1F84AF6CC73C2F200031B7803F10103D0
S31520002050DAB24AF6CC73C2F200031A70FFF79CFC80
S315200020600346C7F83838D7F83838002B1CD04AF63C
S31520002070CC73C2F200031B7803F10103DAB24AF6ED
S31520002080CC73C2F200031A7042F20400C6F20300B7
S315200020904AF6CC71C2F200014FF001024FF0000364
S315200020A005F0B0F8FFF784FCFFF788FE45F208003C
S315200020B0C5F2000002F0FAFE0346A7F8243800F025
S315200020C09FFC0346A7F8263801F0B6FF02F00CFC69
S315200020D0034687F82B384CF2F800C2F200004FF482
S315200020E016514FF0030202F08DFFFFF785FD4FF0EA
S315200020F0FF33C7F8443845F6FF43CEF61E63C7F8CC
S3152000210048384FF00003C7F84C384FF00000FFF76F
S3152000211005FBD7F84408FFF75DFBFFF741FB02E01C
S3152000212000BF00E000BF4FF0830002F04DFAFFF73A
S3152000213045FB0346C7F84C3836E007F58262A2F124
S31520002140070207F58263A3F1060307F5816C1046A3
S315200021501946624602F0B6FC07F581631B78012B0F
S315200021601BD14AF6C373C2F200031B7803F10103A5
S31520002170DAB24AF6C373C2F200031A7007F5816316
S315200021804FF000021A7007F58263A3F10703184681
S31520002190FFF7D6FDFFF7F2FB0CE0FFF70FFB034638
S315200021A0C7F84C38FFF7EAFBD7F84C28D7F8483859
S315200021B09A42C2D84FF0820002F006FA4FF086000B
S315200021C002F002FA4CF22400C2F2000002F020FCD7
S315200021D0FFF7F4FA0346C7F84C38D7F84408FFF758
S315200021E0F9FA4AF6B573C2F200031B78012B97D190
S315200021F045F20C00C5F2000002F058FE0346A7F88F
S315200022003E384BF6FC53C2F200031B88B7F83E2833
S315200022109A4287D94AF6B573C2F200034FF00002FC
S315200022201A7080E780B500AF4BF29400C2F200002E
S3152000223006F0C2FE80BD00BF80B500AF4BF2001095
S31520002240C2F2000006F0B8FE80BD00BF80B500AF28
S315200022504BF22800C2F2000006F0AEFE80BD00BFA1
S3152000226080B500AF4BF22420C2F2000006F0A4FE97
S3152000227080BD00BF80B500AFFFF7A8FB80BD00BFC3
S3152000228080B500AFFFF77CFC80BD00BF80B500AFF6
S31520002290FFF788FC80BD00BF80B500AFFFF78EFC3E
S315200022A080BD00BF80B483B000AF0346FB714EF201
S315200022B00013CEF2000397F907204FEA5212F9795C
S315200022C001F01F014FF0010000FA01F102F1200296
S315200022D043F8221007F10C07BD4680BC704700BFAB
S315200022E080B485B000AF78600B46FB704FF00003DA
S315200022F0BB734FF00003FB734FF00103184607F141
S315200023001407BD4680BC704780B483B000AF0B462F
S315200023103A600246FA71BB80F9794CF28002C2F229
S3152000232000020B464FEAC303C1EB03031344FA79B9
S315200023301A70F9794CF28002C2F200020B464FEA7B
S31520002340C303C1EB030313443A794FF0000141EA7A
S3152000235002025A707A794FF0000141EA02029A701D
S31520002360F8793A684CF28001C2F2000103464FEA3E
S31520002370C303C0EB03030B4402F0FF014FF0000040
S3152000238040EA0101D9704FEA122101F0FF014FF016
S31520002390000040EA010119714FEA124101F0FF01E4
S315200023A04FF0000040EA010159714FEA12624FF0E6
S315200023B0000141EA02029A7107F10C07BD4680BC72
S315200023C0704700BF80B582B000AF78607B681B780D
S315200023D003F1FF314CF28002C2F200020B464FEAB3
S315200023E0C303C1EB03031344DA7819794FEA0121B9
S315200023F041EA020259794FEA014141EA02029B79F8
S315200024004FEA036343EA02037868984707F108070F
S31520002410BD4680BD80B485B000AF786007F1140753
S31520002420BD4680BC704700BF80B586B002AF7860DD
S315200024307B689B7847F2702202FB03F3FB607B6884
S315200024409B78002B41D07B685B78002B1CD1FB68E6
S3152000245000934CF25C00C2F2000046F20001C5F285
S3152000246000014FF000024FF0090305F033FF4CF254
S315200024705C00C2F2000005F0B3FF4CF25C00C2F231
S31520002480000005F08FFF33E07B685B78012B2ED1AF
S31520002490FB6800934BF6E450C2F2000047F20001BD
S315200024A0C5F200014FF000024FF0090305F012FFBC
S315200024B04BF6E450C2F2000005F092FF4BF6E450D2
S315200024C0C2F2000005F06EFF12E07B685B78002BFD
S315200024D004D14FF02600FFF7E5FE09E07B685B7824
S315200024E0012B05D14FF02700FFF7DCFE00E000BFEF
S315200024F007F11007BD4680BD80B483B000AF786079
S3152000250003E07B6803F1FF337B607B68002BF8D107
S3152000251007F10C07BD4680BC704700BF80B584B06C
S3152000252000AF78607B685B78072B07D07B685B7889
S31520002530142B03D07B685B78212B22D14AF6644387
S31520002540C2F200031A687B6803F10103104619469C
S315200025504FF001024FF0000304F054FE7B685A78D6
S315200025604AF6B473C2F200031A704AF66443C2F202
S3152000257000031B6803F101024AF66443C2F200031A
S315200025801A604AF66843C2F200031B681B78072BC1
S3152000259056D14AF66843C2F200031B6803F10103D1
S315200025A01B78142B4CD14AF66843C2F200031B68F1
S315200025B003F102031B78212B42D14CF2BC10C2F24C
S315200025C000004FF0000104F09BF94CF2BC13C2F25C
S315200025D000031A684CF2BC13C2F200031B681B6886
S315200025E043F08063136043F68000C0F20100FFF7DA
S315200025F083FF4FF000004FF4805103F09FFD034608
S31520002600FB7343F68000C0F20100FFF775FFFB7BEA
S31520002610002B0DD04AF6C273C2F200031B7843F09A
S315200026200103DAB24AF6C273C2F200031A7007E057
S315200026304FF001004FF4805103F080FD0346BB7339
S3152000264007F11007BD4680BD80B584B000AF786025
S315200026507B689B784FEA03627B68DB784FEA03430B
S3152000266042EA03027B681B794FEA032342EA03020C
S315200026707B685B7942EA03031A464AF6BC73C2F2C8
S3152000268000031A607B685A784AF6C073C2F20003C8
S315200026901A704AF6BC73C2F200031A6807F10803DF
S315200026A04FF0780011461A464FF0060301F040FF1E
S315200026B0BB7A4FEA0362FB7A4FEA034342EA0302FC
S315200026C03B7B4FEA032342EA03027B7B42EA030376
S315200026D01A464BF6B453C2F200031A604AF6BC738C
S315200026E0C2F200031B6803F104024AF6BC73C2F26D
S315200026F000031A604AF6BC73C2F200031A6807F197
S3152000270008034FF0780011461A464FF0060301F0F1
S315200027100FFFBB7A4FEA0362FB7A4FEA034342EA92
S3152000272003023B7B4FEA032342EA03027B7B42EA16
S3152000273003031A464BF6B453C2F200035A6007F15C
S315200027401007BD4680BD00BF80B485B000AF78605D
S315200027504FF00003FB730DE0FA7BF97B7B680B449B
S3152000276059784BF61453C2F200039954FB7B03F1BC
S315200027700103FB73FB7B0F2BEED907F11407BD4634
S3152000278080BC704780B483B000AF0346FB714EF225
S315200027900013CEF2000397F907204FEA5212F97977
S315200027A001F01F014FF0010000FA01F143F8221059
S315200027B007F10C07BD4680BC704700BF80B483B0CC
S315200027C000AF03463960FB7197F90730002B10DA0A
S315200027D04EF60053CEF20003FA7902F00F02A2F170
S315200027E004013A68D2B24FEA0212D2B20B441A76E8
S315200027F00DE04EF20013CEF2000397F907103A6867
S31520002800D2B24FEA0212D2B20B4483F8002307F168
S315200028100C07BD4680BC704780B400AF43F200036E
S31520002820C4F20103D3F884301846BD4680BC7047F5
S3152000283080B584B000AF4FF00003BB604FF0FF03BC
S315200028403B8045F20C00C5F2000002F02FFB034648
S315200028501A464BF6FC53C2F200031A8045F21000CA
S31520002860C5F2000002F022FB0346FB81FFF7D4FFEE
S3152000287003467B604AF6B573C2F200034FF00102AD
S315200028801A704FF0010005F005FD07F11007BD464F
S3152000289080BD00BF90B58BB000AF4FF0000387F826
S315200028A0273015E097F827404BF20C00C5F20000C0
S315200028B002F014FB03461A4607F1280101EB040334
S315200028C003F8242C97F8273003F1010387F82730E3
S315200028D097F827301F2BE5D94FF0000387F82730CC
S315200028E015E097F827404BF20C00C5F2000002F0E5
S315200028F0F5FA03461A4607F1280101EB040303F80B
S31520002900242C97F8273003F1010387F8273097F80E
S3152000291027301F2BE5D907F104024CF22003C2F21F
S3152000292000031A604CF22003C2F200031B6818460B
S315200029304FF00001FFF7D4FC0346002B15D04CF2D4
S315200029402003C2F200031B681846FFF73BFD4AF638
S31520002950C673C2F200031B7803F10103DAB24AF60A
S31520002960C673C2F200031A700CE04AF6C773C2F2AD
S3152000297000031B7803F10103DAB24AF6C773C2F2E9
S3152000298000031A704FF0030005F084FC07F12C07B2
S31520002990BD4690BD90B585B000AF78604FF000037E
S315200029A0FB730FE0FA7B7B6802EB03044CF20C000E
S315200029B0C5F2000002F092FA03462370FB7B03F176
S315200029C00103FB73FB7B1F2BECD94FF00003FB733A
S315200029D00FE0FA7B7B6802EB03044CF20C00C5F295
S315200029E0000002F07BFA03462370FB7B03F1010310
S315200029F0FB73FB7B1F2BECD907F11407BD4690BD5B
S31520002A0080B582B000AF4FF000004FF0050105F011
S31520002A10BBFB4FF000004FF0010105F0D3FB4FF058
S31520002A2001004FF0820105F0AFFB4FF0010005F0E9
S31520002A3001FC4FF03300FFF7A5FE4FF033004FF0B7
S31520002A40FF01FFF7BBFE4FF003004FF0620105F0D8
S31520002A509BFB4FF0030005F0EDFB4FF03500FFF731
S31520002A6091FE4FF035004FF0FF01FFF7A7FE4FF024
S31520002A7000033B804FF00003FB804BF21000C5F2B1
S31520002A8000004FF0010102F027FA45F21400C5F2CA
S31520002A9000004FF0010102F01FFA45F21800C5F2BE
S31520002AA000004FF00F0102F017FA45F21000C5F2B0
S31520002AB0000002F0FBF90346BB804BF20C00C5F286
S31520002AC0000002F00BFA03463B804CF20C00C5F2E4
S31520002AD0000002F003FA03463B80BB88184607F144
S31520002AE00807BD4680BD00BF80B586B002AFB9607D
S31520002AF013460246FA73FB714CF2AC03C2F2000392
S31520002B004FF000021A7032E0FB79FA7B4FF0000199
S31520002B1000914BF29400C2F200001146BA6806F00A
S31520002B209BF84BF29400C2F200004FF0000106F031
S31520002B300FFA03461A464BF6D853C2F200031A7010
S31520002B404BF6D853C2F200031B78002B02D14FF06C
S31520002B50000318E04CF2AC03C2F200031B7803F129
S31520002B600103DAB24CF2AC03C2F200031A704CF243
S31520002B70AC03C2F200031B78092BC5D94CF2AC0377
S31520002B80C2F200031B78184607F11007BD4680BD28
S31520002B9080B586B002AFB96013460246FA73FB7160
S31520002BA04CF2AC03C2F200034FF000021A7032E07E
S31520002BB0FB79FA7B4FF0000100914BF29400C2F2B0
S31520002BC000001146BA6806F0B9F84BF29400C2F23A
S31520002BD000004FF0000106F0BBF903461A464BF6FB
S31520002BE0D853C2F200031A704BF6D853C2F2000330
S31520002BF01B78002B02D14FF0000318E04CF2AC03F7
S31520002C00C2F200031B7803F10103DAB24CF2AC03E3
S31520002C10C2F200031A704CF2AC03C2F200031B7816
S31520002C20092BC5D94CF2AC03C2F200031B78184617
S31520002C3007F11007BD4680BD80B582B000AF0B46B8
S31520002C403A600246FA71BB71FA7907F1060310461B
S31520002C5019464FF00102FFF747FF0346092B02D919
S31520002C604FF001030EE0FB79184639684FF0020257
S31520002C70FFF78EFF0346092B02D94FF0010301E02F
S31520002C804FF00003184607F10807BD4680BD00BF78
S31520002C9080B582B000AF0B463A600246FA71BB712E
S31520002CA04CF2A803C2F200034FF000021A704CF255
S31520002CB0A803C2F200034FF000025A704CF2AA0396
S31520002CC0C2F200034FF000021A80BB794FEA430399
S31520002CD0DBB2FA79104619464CF2A802C2F200027B
S31520002CE0FFF7AAFF0346002B1AD14CF2A803C2F223
S31520002CF000031B784FEA03239AB24CF2A803C2F2D0
S31520002D0000035B7842EA03039BB29AB24CF2AA0311
S31520002D10C2F200031A803B684FF000021A700AE0E4
S31520002D203B684FF001021A704CF2AA03C2F200036C
S31520002D304FF000021A804CF2AA03C2F200031B884D
S31520002D40184607F10807BD4680BD00BF80B582B092
S31520002D5000AF0B463A600246FA71BB714CF2A803EB
S31520002D60C2F200034FF000021A704CF2A803C2F21E
S31520002D7000034FF000025A704CF2AA03C2F200037D
S31520002D804FF000021A80BB794FEA4303DBB203F10E
S31520002D90FF33DBB2FA79104619464CF2A802C2F28A
S31520002DA00002FFF749FF0346002B1AD14CF2A80375
S31520002DB0C2F200031B784FEA03239AB24CF2A8030F
S31520002DC0C2F200035B7842EA03039BB29AB24CF24A
S31520002DD0AA03C2F200031A803B684FF000021A7061
S31520002DE00AE03B684FF001021A704CF2AA03C2F2C5
S31520002DF000034FF000021A804CF2AA03C2F200032D
S31520002E001B88184607F10807BD4680BD80B588B0E7
S31520002E1002AF78600B46FB704FF00003BB754FF096
S31520002E200003FB754AF66832C2F2000207F110036E
S31520002E3012681146198003F102034FEA12421A70F2
S31520002E404FF004033B734FF000037B734FF00003F6
S31520002E50BB7349E0BB7D1A464FEA42021344DBB2FC
S31520002E6003F10503DBB23B74BB7D1A464FEA4202EF
S31520002E701344DBB203F10403DBB23B73FA7807F1A8
S31520002E8010034FF000010091786811461A464FF062
S31520002E90030305F0E1FE78684FF0000106F058F8CC
S31520002EA003467B75FA7807F10C034FF00001009179
S31520002EB0786811461A464FF0030305F0CDFE786870
S31520002EC04FF0000106F044F803467B757A7DBB7D02
S31520002ED002FA03F3DAB2FB7D42EA0303DBB2FB75A7
S31520002EE0BB7D03F10103BB75BB7D032BB2D9FB7DF3
S31520002EF0184607F11807BD4680BD00BF80B58CB0C7
S31520002F0004AFF8607B600B46FB721346BB72BB7A3C
S31520002F103B753B7D43F00803DBB23B753B7D4FEAB7
S31520002F200313DBB23B75FA7A07F1140307F1180194
S31520002F3000914FF0020101914FF000010291F868D3
S31520002F4011461A464FF0010305F06AFFF8684FF064
S31520002F50000105F0FDFF03467B777B7F002B04D025
S31520002F607B684FF001021A7012E03B7E4FEA032382
S31520002F709AB27B7E42EA03039BB2FB83FB8B4FEA2A
S31520002F8003534FEA1353FB837B684FF000021A70FA
S31520002F90FB8B184607F12007BD4680BD80B592B051
S31520002FA004AFF860B9607A604AF67033C2F2000363
S31520002FB01B88BB864FF0280387F830304FF02A0352
S31520002FC087F82C304FF02C0387F828304FF0290350
S31520002FD087F824304FF02B0387F820304FF02D034D
S31520002FE03B774FF0000387F8363007F1340307F1BB
S31520002FF0180200924FF0010201924FF00002029255
S315200030004BF22420C2F200004FF06A011A464FF01C
S31520003010020305F005FF4BF22420C2F200004FF018
S31520003020000105F095FF034687F8373097F83620DC
S3152000303097F83730134487F8363007F1280307F11D
S31520003040180200924FF0010201924FF00002029204
S315200030504BF22420C2F200004FF06A011A464FF0CC
S31520003060010305F0DDFE4BF22420C2F200004FF0F2
S31520003070000105F06DFF034687F8373097F83620B4
S3152000308097F83730134487F8363007F11C0307F1D9
S31520003090140200924FF0010201924FF000020292B8
S315200030A04BF22420C2F200004FF06A011A464FF07C
S315200030B0010305F0B5FE4BF22420C2F200004FF0CA
S315200030C0000105F045FF034687F8373097F836208C
S315200030D097F83730134487F836303B7D4FEA032381
S315200030E09AB23B7E42EA03039BB29AB27B681A806D
S315200030F07B681B88B3F5004F06D97B681B886FEA6F
S3152000310003039AB27B681A8007F12C0307F1180291
S3152000311000924FF0010201924FF0000202924BF210
S315200031202420C2F200004FF06A011A464FF0010334
S3152000313005F076FE4BF22420C2F200004FF000018B
S3152000314005F006FF034687F8373097F8362097F8BC
S315200031503730134487F8363007F1200307F114027D
S3152000316000924FF0010201924FF0000202924BF2C0
S315200031702420C2F200004FF06A011A464FF00103E4
S3152000318005F04EFE4BF22420C2F200004FF0000163
S3152000319005F0DEFE034687F8373097F8362097F895
S315200031A03730134487F836303B7D4FEA03239AB2F3
S315200031B03B7E42EA03039BB29AB2BB681A80BB6885
S315200031C01B88B3F5004F06D9BB681B886FEA03033B
S315200031D09AB2BB681A8007F1300307F118020092F1
S315200031E04FF0010201924FF0000202924BF224208E
S315200031F0C2F200004FF06A011A464FF0010305F0B3
S315200032000FFE4BF22420C2F200004FF0000105F021
S315200032109FFE034687F8373097F8362097F83730E1
S31520003220134487F8363007F1240307F1140200927D
S315200032304FF0010201924FF0000202924BF224203D
S31520003240C2F200004FF06A011A464FF0010305F062
S31520003250E7FD4BF22420C2F200004FF0000105F0FA
S3152000326077FE034687F8373097F8362097F83730B9
S31520003270134487F836303B7D4FEA03239AB23B7ED0
S3152000328042EA03039BB29AB2FB681A80FB681B884A
S31520003290B3F5004F06D9FB681B886FEA03039AB281
S315200032A0FB681A8097F83730184607F13807BD466D
S315200032B080BD00BF80B592B004AFF860B9607A6077
S315200032C04AF66C33C2F200031B883B864FF0180384
S315200032D087F82C304FF01A0387F828304FF01C035C
S315200032E087F824304FF0190387F820304FF01B035E
S315200032F03B774FF01D033B764FF06A0387F8353056
S315200033004FF0000387F8363097F8352007F1300361
S3152000331007F1140100914FF0010101914FF00001D6
S3152000332002914BF22420C2F2000011461A464FF0B9
S31520003330020305F075FD4BF22420C2F200004FF087
S31520003340000105F005FE034687F8373097F836204A
S3152000335097F83730134487F8363097F8352007F139
S31520003360240307F1140100914FF0010101914FF060
S31520003370000102914BF22420C2F2000011461A46A7
S315200033804FF0010305F04CFD4BF22420C2F2000061
S315200033904FF0000105F0DCFD034687F8373097F83B
S315200033A0362097F83730134487F8363097F835208B
S315200033B007F1180307F1100100914FF00101019167
S315200033C04FF0000102914BF22420C2F20000114678
S315200033D01A464FF0010305F023FD4BF22420C2F2DA
S315200033E000004FF0000105F0B3FD034687F83730A3
S315200033F097F8362097F83730134487F836303B7CD9
S315200034004FEA03239AB23B7D42EA03039BB29AB268
S31520003410FB681A8097F8352007F1280307F1140175
S3152000342000914FF0010101914FF0000102914BF202
S315200034302420C2F2000011461A464FF0010305F07F
S31520003440EFFC4BF22420C2F200004FF0000105F001
S315200034507FFD034687F8373097F8362097F83730C0
S31520003460134487F8363097F8352007F11C0307F107
S31520003470100100914FF0010101914FF000010291DE
S315200034804BF22420C2F2000011461A464FF00103E7
S3152000349005F0C6FC4BF22420C2F200004FF00001DA
S315200034A005F056FD034687F8373097F8362097F80B
S315200034B03730134487F836303B7C4FEA03239AB2E1
S315200034C03B7D42EA03039BB29AB2BB681A8097F807
S315200034D0352007F12C0307F1140100914FF001016B
S315200034E001914FF0000102914BF22420C2F200001C
S315200034F011461A464FF0010305F092FC4BF22420A8
S31520003500C2F200004FF0000105F022FD034687F8C5
S31520003510373097F8362097F83730134487F8363007
S3152000352097F8352007F1200307F1100100914FF09D
S31520003530010101914FF0000102914BF22420C2F2C9
S31520003540000011461A464FF0010305F069FC4BF2C4
S315200035502420C2F200004FF0000105F0F9FC0346DA
S3152000356087F8373097F8362097F83730134487F89E
S3152000357036303B7C4FEA03239AB23B7D42EA030373
S315200035809BB29AB27B681A8097F83730184607F1B3
S315200035903807BD4680BD00BF80B58AB004AF7860CD
S315200035A04FF015033B754FF016033B744FF06A033B
S315200035B0BB75BA7D07F1140307F10C0100914FF09A
S315200035C0010101914FF0000102914BF22420C2F239
S315200035D0000011461A464FF0010305F021FC4BF27C
S315200035E02420C2F200004FF0000105F0B1FC034692
S315200035F0FB75BA7D07F1100307F1080100914FF022
S31520003600010101914FF0000102914BF22420C2F2F8
S31520003610000011461A464FF0010305F001FC4BF25B
S315200036202420C2F200004FF0000105F091FC034671
S31520003630FB753B7B1A463B7A4FEA03239BB242EA51
S3152000364003039BB29AB27B681A804FF00003184698
S3152000365007F11807BD4680BD80B586B002AF4CF293
S31520003660AE03C2F200034FF000021A704FF00A00B8
S315200036704FF0010104F0A6FD4FF000033B714FF01F
S3152000368000037B714FF00003BB714FF00003FB7109
S315200036904FF000033B724FF00003FB604FF0000336
S315200036A0FB600BE04CF23810C2F200004FF0FF0135
S315200036B003F0F2F9FB6803F10103FB60FB68092BB9
S315200036C0F0D94CF23810C2F200004FF0000103F09E
S315200036D017F907F104034FF0010200924CF238105B
S315200036E0C2F200004AF66C41C2F200014FF0070216
S315200036F003F032FAFB6803F10103FB603B79012BEF
S3152000370006D03B79012B04D0FB68FE2BE1D900E0E3
S3152000371000BF4FF00003FB604CF23810C2F20000ED
S315200037204FF0FF0103F0B8F94CF23810C2F2000056
S315200037304FF0FF0103F0B0F907F104034FF0050243
S3152000374000924CF23810C2F200004AF67441C2F2DE
S3152000375000014FF0070203F0FFF94CF23810C2F2D5
S3152000376000004FF0FF0103F097F94CF23810C2F237
S3152000377000004FF0FF0103F08FF9FB6803F101030E
S31520003780FB603B7AAA2B10D1FB79012B0DD1BB799B
S31520003790002B0AD17B79002B07D14CF2AE03C2F263
S315200037A000034FF001021A7002E0FB68FE2BB3D92A
S315200037B0FB68FE2B0AD94CF23810C2F200004FF0FB
S315200037C0000103F021F94FF001037EE14FF00003E1
S315200037D03B714FF000037B714FF00003BB714FF03C
S315200037E00003FB714FF000033B724FF00003FB60B8
S315200037F04CF2AE03C2F200034FF000021A704CF2F4
S315200038003810C2F200004FF0FF0103F045F94CF2E8
S315200038103810C2F200004FF0FF0103F03DF907F126
S3152000382004034FF0050200924CF23810C2F2000059
S315200038304AF67C41C2F200014FF0070203F08CF9F0
S315200038404CF23810C2F200004FF0FF0103F024F9C9
S315200038504CF23810C2F200004FF0FF0103F01CF9C1
S31520003860FB6803F10103FB60FB79802B0AD1BB794E
S31520003870FF2B07D14CF2AE03C2F200034FF0010238
S315200038801A7002E0FB68FE2BB9D9FB68FE2B0AD919
S315200038904CF23810C2F200004FF0000103F0B4F8E9
S315200038A04FF0010311E14FF000033B714FF000038D
S315200038B07B714FF00003BB714FF00003FB714FF09B
S315200038C000033B724FF00003FB604CF2AE03C2F2E2
S315200038D000034FF000021A704CF23810C2F20000BA
S315200038E04FF0FF0103F0D8F84CF23810C2F2000076
S315200038F04FF0FF0103F0D0F807F104034FF0010267
S3152000390000924CF23810C2F200004AF68441C2F20C
S3152000391000014FF0070203F01FF94CF23810C2F2F3
S3152000392000004FF0FF0103F0B7F807F104034FF052
S31520003930010200924CF23810C2F200004AF68C4185
S31520003940C2F200014FF0070203F006F94CF23810DC
S31520003950C2F200004FF0FF0103F09EF84CF238103F
S31520003960C2F200004FF0FF0103F096F8FB6803F166
S315200039700103FB603B79002B07D14CF2AE03C2F268
S3152000398000034FF001021A7004E0FA6840F6F513BE
S315200039909A42A1D94CF2AE03C2F200031B78002B47
S315200039A00AD14CF23810C2F200004FF0000103F0A9
S315200039B02BF84FF0010388E04FF000033B714FF0E6
S315200039C000037B714FF00003BB714FF00003FB71C6
S315200039D04FF000033B724FF00003FB604CF2AE0346
S315200039E0C2F200034FF000021A704CF23810C2F2F5
S315200039F000004FF0FF0103F04FF84CF23810C2F2EE
S31520003A0000004FF0FF0103F047F807F104034FF0E1
S31520003A10050200924CF23810C2F200004AF67C41B0
S31520003A20C2F200014FF0070203F096F84CF238106C
S31520003A30C2F200004FF0FF0103F02EF84CF23810CE
S31520003A40C2F200004FF0FF0103F026F8FB6803F1F5
S31520003A500103FB60FB79802B0AD1BB79FF2B07D1B1
S31520003A604CF2AE03C2F200034FF001021A7002E0DC
S31520003A70FB68FE2BB9D9FB68FE2B0AD94CF238100D
S31520003A80C2F200004FF0000102F0BEFF4FF001032A
S31520003A901BE04CF2AE03C2F200031B78012B0AD1C5
S31520003AA04CF23810C2F200004FF0000102F0ACFFD9
S31520003AB04FF0000309E04CF23810C2F200004FF03C
S31520003AC0000102F0A1FF4FF00103184607F110078D
S31520003AD0BD4680BD80B58CB002AF786039607B680A
S31520003AE04FEA1363D8B27B684FEA1343D9B27B6897
S31520003AF04FEA1323DAB27B68DBB24FF0580C87F813
S31520003B0018C07876B976FA763B774FF0FF337B7715
S31520003B104FF0FF33BB774FF000033B744FF00003A9
S31520003B207B744FF00003BB744FF00003FB744FF01F
S31520003B3000033B754FF00003FB776FF00103FB7327
S31520003B404FF000033B624FF000037B624CF23810CB
S31520003B50C2F200004FF0FF0102F09EFF4CF2381037
S31520003B60C2F200004FF0000102F0CAFE4CF23810FB
S31520003B70C2F200004FF0FF0102F08EFF07F118029B
S31520003B8007F110034FF0010100914CF23810C2F2F8
S31520003B90000011464FF0070202F0DEFF4CF238100B
S31520003BA0C2F200004FF0FF0102F076FF3B6A03F1FC
S31520003BB001033B623B7C002B77D107F10F0207F113
S31520003BC010034FF0010100914CF23810C2F20000B0
S31520003BD011464FF0010202F0BFFF07F110034FF02C
S31520003BE0000200924CF23810C2F2000039684FF4FD
S31520003BF0007202F0B1FF17E04CF23810C2F200005A
S31520003C004FF0FF0102F048FF0346DBB23B743B7CDA
S31520003C1003F01F03052B03D14FF00103FB7706E0CA
S31520003C207B6A03F101037B627B6A632BE4D9FB7F0A
S31520003C30012B3FD14FF00003FB774FF000037B624F
S31520003C402FE04CF23810C2F200004FF0FF0102F0D4
S31520003C5023FF0346DBB23B743B7C002B1DD04FF089
S31520003C600103FB774CF23810C2F200004FF0FF013F
S31520003C7002F012FF4CF23810C2F200004FF00001A1
S31520003C8002F0C2FE4CF23810C2F200004FF0FF01E3
S31520003C9002F002FF4FF0000335E07B6A03F10103D7
S31520003CA07B627B6A632BCCD905E03B6AFE2B7FF6D1
S31520003CB04DAF00E000BF3B6AFE2B12D94CF2381004
S31520003CC0C2F200004FF0000102F09EFE4CF23810C6
S31520003CD0C2F200004FF0FF0102F0DEFE4FF00103BA
S31520003CE011E04CF23810C2F200004FF0000102F051
S31520003CF08BFE4CF23810C2F200004FF0FF0102F0AA
S31520003D00CBFE4FF00103184607F12807BD4680BDBC
S31520003D1080B58CB002AF786039607B684FEA136358
S31520003D20D8B27B684FEA1343D9B27B684FEA132394
S31520003D30DAB27B68DBB24FF0510C87F818C0787680
S31520003D40B976FA763B774FF0FF337B774FF0FF3328
S31520003D50BB774FF000033B744FF000037B744FF0AA
S31520003D600003BB744FF00003FB744FF000033B7558
S31520003D704FF00003FB774FF0FF33FB734FF0000348
S31520003D803B624FF00003FB844CF23810C2F2000075
S31520003D904FF0FF0102F080FE4CF23810C2F2000014
S31520003DA04FF0000102F0ACFD4CF23810C2F20000D8
S31520003DB04FF0FF0102F070FE07F1180207F1100321
S31520003DC04FF0010100914CF23810C2F2000011466A
S31520003DD04FF0070202F0C0FE56E04CF23810C2F255
S31520003DE000004FF0FF0102F057FE0346DBB23B74A2
S31520003DF0FB8C03F10103FB843B7CFE2B44D14CF26C
S31520003E003810C2F200004FF0FF0102F045FE07F124
S31520003E100F034FF4007200924CF23810C2F20000E9
S31520003E2019464FF000023B6802F096FE4CF238101D
S31520003E30C2F200004FF0FF0102F02EFE4CF23810C5
S31520003E40C2F200004FF0FF0102F026FE4FF0010300
S31520003E50FB774CF23810C2F200004FF0FF0102F05F
S31520003E601BFE4CF23810C2F200004FF0000102F0A7
S31520003E70CBFD4CF23810C2F200004FF0FF0102F0E9
S31520003E800BFE4FF000031CE0FB8CF92BA5D93B6AF7
S31520003E9003F101033B623B6A632B7FF675AF4CF25D
S31520003EA03810C2F200004FF0000102F0ADFD4CF2D6
S31520003EB03810C2F200004FF0FF0102F0EDFD4FF086
S31520003EC00103184607F12807BD4680BD80B485B09A
S31520003ED000AFF860B9607A60FB68BA681A60FB6860
S31520003EE07A685A60FB68BA689A60FB68BA68DA60D2
S31520003EF007F11407BD4680BC704700BF80B582B06D
S31520003F0000AF786039607B68DA687B685B689A42C4
S31520003F1005D27B68DA687B681B689A4202D24FF02A
S31520003F20020313E07B68DB6818463968FFF7D2FD89
S31520003F300346002B08D17B68DB6803F101027B680E
S31520003F40DA604FF0000301E04FF00103184607F155
S31520003F500807BD4680BD00BF80B582B000AF78603F
S31520003F6039607B689A687B68DB689A4205D27B68F1
S31520003F709A687B681B689A4202D24FF0020313E0CC
S31520003F807B689B6818463968FFF7C2FE0346002BFC
S31520003F9008D17B689B6803F101027B689A604FF029
S31520003FA0000301E04FF00103184607F10807BD465C
S31520003FB080BD00BF80B582B000AF78604FF00600AC
S31520003FC04FF0050104F0E0F84FF006004FF0010134
S31520003FD004F0F8F8786842F20001C5F200014FF0CB
S31520003FE010024FF0000304F0C1FD78684FF0000185
S31520003FF004F0AEFF03461A464BF6D853C2F200032E
S315200040001A704BF6D853C2F200031B78184607F1F4
S315200040100807BD4680BD00BF80B483B000AF78607E
S315200040204CF2B003C2F200037A681A6007F10C075B
S31520004030BD4680BC704700BF80B58AB002AF4FF046
S31520004040FF33FB604FF0FF33FB724FF00003BB766C
S315200040504FF00103FB764FF00003BB724FF00003D5
S315200040603B714FF0FF337B714FF01003BB714FF064
S315200040701703FB714BF27010C2F2000044F20001EC
S31520004080C5F200014FF0080204F0E2F94BF270107D
S31520004090C2F2000004F04EFA4FF005004FF0050181
S315200040A004F072F84BF27010C2F20000FFF7B4FF72
S315200040B04FF005004FF0000104F084F84FF00003A4
S315200040C0BB834FF00003BB8303E0BB8B03F10103EB
S315200040D0BB83BA8B40F2E7339A42F6D94FF00500FC
S315200040E04FF0010104F06EF84FF00003BB834CF251
S315200040F0B003C2F200031B6818464FF0000104F01B
S315200041005BFA4FF00003BB8303E0BB8B03F1010393
S31520004110BB83BA8B40F25D139A42F6D94CF2B003B8
S31520004120C2F20003196807F10B0207F10A034FF0E8
S3152000413001000090084611464FF0010200F026FBD0
S31520004140BB7A002B1AD04FF00003FB764CF2B0035B
S31520004150C2F200031B6818464FF0000104F080FAF3
S315200041604FF00003BB8303E0BB8B03F10103BB834A
S31520004170BA8B40F2E7339A42F6D906E0BB7E03F1CA
S315200041800103BB76BB7E092BB1D94CF2B003C2F238
S3152000419000031B6818464FF0000104F00DFA4CF29C
S315200041A0B003C2F20003196807F10B0207F10A03F4
S315200041B04FF001000090084611464FF0010200F032
S315200041C0E5FA4FF00003FB704FF0FF33BB704FF062
S315200041D00003BB774CF2B003C2F20003196807F163
S315200041E0020207F103034FF0010000900846114632
S315200041F04FF0010200F0CAFAFB7803F02003002BEF
S3152000420004D0FB7803F00403002B0CD1BB7F632B77
S315200042108CBF00230123DBB2BA7F02F10102BA77F9
S31520004220002BD7D100E000BF4CF2B003C2F200034E
S315200042301B6818464FF0000104F012FA4FF00003F5
S31520004240BB7706E000F050FB0346FB77FB7F012B94
S315200042500CD0BB7F632B8CBF00230123DBB2BA7F3C
S3152000426002F10102BA77002BECD100E000BF00F08A
S3152000427095F80346BB76BB7E002B07D100F00AFAE1
S315200042800346BB76BB7E002B03D00AE04FF0030328
S3152000429018E000F03DFA0346BB76BB7E002B03D028
S315200042A00FE04FF002030DE007F104034FF0380052
S315200042B040F20051C2F200011A464FF0040300F00A
S315200042C0EDF8FFE7184607F12007BD4680BD00BF81
S315200042D080B588B002AF78600B467B804FF0000334
S315200042E0FB604CF2B003C2F200031B6818464FF085
S315200042F0000104F061F97A68FB6813441B784FEAE1
S315200043000342FB6803F101017B680B441B784FEAEB
S31520004310032342EA0302FB6803F102017B680B4494
S315200043201B7842EA03037B617A694FF6FF739A4250
S3152000433002D94FF001032BE0FB6803F103037A68EF
S3152000434013443B614CF2B003C2F200031A683B6986
S3152000435003F101037969A1F104010091104639693D
S315200043604FF0010200F046FAFA687B691344FB60BD
S315200043707A88FB689A42BED84CF2B003C2F2000398
S315200043801B6818464FF0000104F06AF94FF000034D
S31520004390184607F11807BD4680BD00BF80B588B016
S315200043A000AF4AF67433C2F200031B68BB614AF6BB
S315200043B07833C2F200031B687B614AF67C33C2F273
S315200043C000031B683B614AF68033C2F200031B6878
S315200043D0FB604FF000033B714FF000037B714FF001
S315200043E00003BB714FF00003FB714FF000033B72DB
S315200043F04FF000037B724FF00003FB774AF69440A0
S31520004400C2F200004FF43671FFF762FF0346BB7716
S31520004410BB7F002B02D04FF003033AE04FF085001C
S3152000442000F0D2F80346BB77BB7F002B02D04FF0BB
S3152000443001032EE04FF0820000F0C6F80346BB775A
S31520004440BB7F002B0ED0BB7F6FEA83636FEA93633B
S31520004450DBB21EE000F048FA0346BB77BB7F022B97
S315200044600ED000E000BFFB7F632B8CBF002301230F
S31520004470DBB2FA7F02F10102FA77002BEAD100E0E3
S3152000448000BFFB7F632B02D94FF0010301E04FF001
S315200044900003184607F12007BD4680BD80B588B0C9
S315200044A002AFB9607A603B600346FB73BB684FEA94
S315200044B01363D8B2BB684FEA1343D9B2BB684FEA3D
S315200044C01323DAB2BB68DBB297F80FC087F810C0A7
S315200044D07874B974FA743B754CF2B003C2F20003D7
S315200044E01B6818464FF0000104F066F84CF2B00342
S315200044F0C2F200031A6807F11003396800911046CA
S3152000450019464FF005027B6800F074F94CF2B003AF
S31520004510C2F200031B6818464FF0000104F0A0F811
S315200045204FF00003184607F11807BD4680BD00BFAF
S3152000453080B588B002AFB9607A603B600346FB73F2
S31520004540BB684FEA1363D8B2BB684FEA1343D9B2AC
S31520004550BB684FEA1323DAB2BB68DBB297F80FC009
S3152000456087F810C07874B974FA743B754CF2B003AE
S31520004570C2F200031B6818464FF0000104F01CF835
S315200045804CF2B003C2F200031A683B6803F1020141
S3152000459007F110030091104619464FF005027B687B
S315200045A000F0F4F84CF2B003C2F200031B68184680
S315200045B04FF0000104F054F87B6803F1020318461B
S315200045C007F11807BD4680BD80B586B002AF034609
S315200045D0FB714CF2B003C2F200031B6818464FF081
S315200045E0000103F0E9FF4FF00003BB734FF0FF33E8
S315200045F07B734FF00003FB734CF2B003C2F200034F
S31520004600196807F10D0207F10E034FF00100009023
S31520004610084611464FF0010200F0B8F8BB7B03F0C4
S315200046202003002B0CD1FB7B632B8CBF00230123A3
S31520004630DBB2FA7B02F10102FA73002BDCD100E037
S3152000464000BFFB7B632B02D94FF002031DE04CF227
S31520004650B003C2F20003196807F1070207F10E033F
S315200046604FF001000090084611464FF0010200F07D
S31520004670C1F84CF2B003C2F200031B6818464FF093
S31520004680000103F0EDFF4FF00003184607F1100775
S31520004690BD4680BD80B584B002AF4FF00003BB712C
S315200046A04FF0FF337B714FF00003FB714CF2B003E8
S315200046B0C2F20003196807F1050207F106034FF05D
S315200046C001000090084611464FF0010200F05EF806
S315200046D0BB7903F02003002B0CD1FB79632B8CBF15
S315200046E000230123DBB2FA7902F10102FA71002BD1
S315200046F0DCD100E000BFFB79632B02D94FF0010328
S3152000470001E04FF00003184607F10807BD4680BDBB
S3152000471080B584B002AF4FF00003BB714FF0FF337A
S315200047207B714FF00003FB714CF2B003C2F2000321
S31520004730196807F1050207F106034FF00100009002
S31520004740084611464FF0010200F020F8BB7903F02D
S315200047500403002B0CD1FB79632B8CBF0023012390
S31520004760DBB2FA7902F10102FA71002BDCD100E00A
S3152000477000BFFB79632B02D94FF0010301E04FF014
S315200047800003184607F10807BD4680BD80B588B0EE
S3152000479002AFF860B9607A603B604FF000033B746B
S315200047A07B689AB23B6A99B207F110030091F868C8
S315200047B0B96803F0ABFF4FF00003FB8211E0FA8AE1
S315200047C03B6A9A4209D2FA8A3B681344FA8A07F16D
S315200047D018010A4412F8082C1A70FB8A03F1010307
S315200047E0FB82FA8A40F2E7339A42E8D907F11807A2
S315200047F0BD4680BD80B5D2B002AF07F10C0CCCF817
S31520004800000007F10800016007F104010A603A463A
S3152000481013604FF00003A7F83E3111E0B7F83E31A0
S31520004820B7F83E1107F1080212680A44117807F119
S315200048301002D154B7F83E3103F10103A7F83E31F7
S31520004840B7F83E2107F104031B689A42E6D315E028
S31520004850B7F83E31B7F83E1107F104021268C2EBF1
S3152000486001013A4612680A44117807F11002D15420
S31520004870B7F83E3103F10103A7F83E31B7F83E21E0
S3152000488007F104031968D7F848310B449A42DFD35D
S3152000489007F104031B689AB2D7F848319BB2134438
S315200048A09BB207F10C0107F110024FF000000090B7
S315200048B0086811461A464FF0000303F027FF4FF011
S315200048C00003A7F83E3105E0B7F83E3103F10103B6
S315200048D0A7F83E31B7F83E2140F2E7339A42F3D9A2
S315200048E007F5A077BD4680BD80B582B000AF4FF0FA
S315200048F000033B704FF000037B704FF00003BB704A
S315200049004FF00003FB704FF000033B714FF00003A4
S315200049107B714FF00003BB714FF00003FB7111E078
S315200049203B464FF0780044F2B421C4F200011A4607
S315200049304FF00403FFF7FCFD3B78E22B14D03B78C5
S31520004940A22B11D03B78E42B0ED03B78A42B0BD096
S31520004950FB79632B8CBF00230123DBB2FA7902F1AA
S315200049600102FA71002BDBD13B7903F03F03BB71C7
S31520004970BB79184607F10807BD4680BD80B584B0CF
S3152000498000AF78604FF000033B720CE007F108039C
S315200049904FF0780040F23851C2F200011A464FF02B
S315200049A00403FFF7C5FD3B7A002BEFD0BB7A03F05B
S315200049B007034FEA03239AB2FB7A13449AB27B6821
S315200049C01A807B681B88C3F100039BB29AB27B686E
S315200049D01A807B681B884FEA03534FEA13537A6881
S315200049E013807B681B88B3F5006F06D97B681B880C
S315200049F0A3F500639AB27B681A807B681B884FEA0E
S31520004A0093039AB27B681A8007F11007BD4680BDD2
S31520004A1080B584B000AF78604FF000033B724FF052
S31520004A208600FFF7D1FDFFF75FFF0346FB7303E028
S31520004A30FFF75AFF0346FB73FB7B022BF8D10CE0F2
S31520004A4007F108034FF0780040F27C31C2F20001F2
S31520004A501A464FF00403FFF76BFD3B7A002BEFD08D
S31520004A603B7B03F007034FEA03239AB27B7B134475
S31520004A709AB27B681A807B681B88C3F100039BB2BD
S31520004A809AB27B681A807B681B884FEA03534FEAE9
S31520004A9013537A6813807B681B88B3F5006F06D999
S31520004AA07B681B88A3F500639AB27B681A807B68B3
S31520004AB01B884FEA93039AB27B681A8007F1100786
S31520004AC0BD4680BD80B588B000AFF860B9607A6019
S31520004AD04FF00003BB774FF00003FB774FF0000346
S31520004AE07B774FF0FF333B754FF0FF337B754FF0ED
S31520004AF0FF33BB754FF0FF33FB754FF000033B745C
S31520004B004FF000037B744FF00003BB746FF020035B
S31520004B10FB74FDF705F907F118034FF0780043F60B
S31520004B200801C4F200011A464FF00403FFF700FD06
S31520004B30FDF7FEF87B7FDF2B0CD0BB7F632B8CBF72
S31520004B4000230123DBB2BA7F02F10102BA77002BE0
S31520004B50DFD100E000BFBB7F632B00F21E817B68A4
S31520004B604FF001021A7007F118034FF0780040F653
S31520004B701841C2F200011A464FF00403FFF7D8FC91
S31520004B807A7FFB681A70FB6803F101033A7F1A707B
S31520004B90FB6803F10203FA7E1A70FB6803F1030334
S31520004BA0BA7E1A70FB681B7803F1FF314CF2800243
S31520004BB0C2F200020B464FEAC303C1EB03031344C0
S31520004BC05A789B784FEA032343EA02039BB2042BCD
S31520004BD038D9FB681B7803F1FF314CF28002C2F210
S31520004BE000020B464FEAC303C1EB030313445A7872
S31520004BF09B784FEA032343EA02039BB2082B21D872
S31520004C0007F118034FF0780040F61C41C2F200016C
S31520004C101A464FF00403FFF78BFCFB6803F10403ED
S31520004C207A7F1A70FB6803F105033A7F1A70FB68D6
S31520004C3003F10603FA7E1A70FB6803F10703BA7EB6
S31520004C401A7090E0FB681B7803F1FF314CF280026A
S31520004C50C2F200020B464FEAC303C1EB030313441F
S31520004C605A789B784FEA032343EA02039BB2082B28
S31520004C7079D9FB681B7803F1FF314CF28002C2F22E
S31520004C8000020B464FEAC303C1EB030313445A78D1
S31520004C909B784FEA032343EA02039BB2102B62D888
S31520004CA007F118034FF0780040F61C41C2F20001CC
S31520004CB01A464FF00403FFF73BFCFB6803F104039D
S31520004CC07A7F1A70FB6803F105033A7F1A70FB6836
S31520004CD003F10603FA7E1A70FB6803F10703BA7E16
S31520004CE01A7007F118034FF0780040F62041C2F2FF
S31520004CF000011A464FF00403FFF71AFCFB6803F184
S31520004D0008037A7F1A70FB6803F109033A7F1A7049
S31520004D10FB6803F10A03FA7E1A70FB6803F10B03A2
S31520004D20BA7E1A7007F118034FF0780040F6244136
S31520004D30C2F200011A464FF00403FFF7F9FBFB68A5
S31520004D4003F10C037A7F1A70FB6803F10D033A7F97
S31520004D501A70FB6803F10E03FA7E1A70FB6803F1E2
S31520004D600F03BA7E1A7007F114034FF0380040F68D
S31520004D701841C2F200011A464FF00403FFF78EFBDA
S31520004D8007F110034FF0380043F60801C4F2000182
S31520004D901A464FF00403FFF781FB4FF00003184635
S31520004DA007F12007BD4680BD80B582B000AF3B46E7
S31520004DB04FF0780040F20451C2F200011A464FF03B
S31520004DC00403FFF7B5FBFB78FB71FB79184607F167
S31520004DD00807BD4680BD00BF80B584B000AF07F18F
S31520004DE004034FF0780040F21451C2F200011A4633
S31520004DF04FF00403FFF79CFBBB794FEA0362FB7974
S31520004E004FEA034342EA03023B7A4FEA032342EA8C
S31520004E1003027B7A42EA0303FB60FB68184607F12C
S31520004E201007BD4680BD00BF80B584B000AF07F136
S31520004E3004034FF0780040F2EC21C2F200011A463A
S31520004E404FF00403FFF774FBBB794FEA0362FB794B
S31520004E504FEA034342EA03023B7A4FEA032342EA3C
S31520004E6003027B7A42EA0303FB60FB68184607F1DC
S31520004E701007BD4680BD00BF0160704700687047BF
S31520004E800EB503FA01F303EA020301686FEA020290
S31520004E9001EA020141EA030101600EBD006800EA51
S31520004EA0020020FA01F070470180704700887047A1
S31520004EB00EB503FA01F303EA020301886FEA020240
S31520004EC001EA020141EA030101800EBD008800EAE1
S31520004ED0020020FA01F07047017070470078704791
S31520004EE00EB503FA01F303EA020301786FEA020220
S31520004EF001EA020141EA030101700EBD007800EAD1
S31520004F00020020FA01F0704780B483B000AF034658
S31520004F10FB714EF20013CEF2000397F907204FEAF9
S31520004F205212F97901F01F014FF0010000FA01F148
S31520004F3002F1600243F8221007F10C07BD4680BC3F
S31520004F40704700BF80B483B000AF78600B46FB701B
S31520004F507B6803F070427B6823F07F4323F4700361
S31520004F604FEA43131A44FB784FEA8303134403F1B1
S31520004F7000734FF001021A6007F10C07BD4680BC92
S31520004F80704700BF80B483B000AF78600B46FB70DB
S31520004F907B6803F070427B6823F07F4323F4700321
S31520004FA04FEA43131A44FB784FEA8303134403F171
S31520004FB000734FF000021A6007F10C07BD4680BC53
S31520004FC0704700BF80B483B000AF78600B46FB709B
S31520004FD07B6803F070427B6823F07F4323F47003E1
S31520004FE04FEA43131A44FB784FEA8303134403F131
S31520004FF000731B68DBB2184607F10C07BD4680BC60
S31520005000704700BF80B584B000AFF860B960134622
S31520005010FB71FA684CF2F803C2F200039A4207D0F9
S31520005020FA684CF2B803C2F200039A4200D000BEDE
S31520005030FB79F868B9681A4600F088F9FB681B689E
S3152000504003F1300318464FF00301FFF79BFFFB687F
S315200050501B6803F1340318464FF00201FFF792FF55
S31520005060FB681B6803F1380318464FF00001FFF771
S3152000507089FFFA6845F2E573C2F20003536207F12D
S315200050801007BD4680BD00BF80B489B000AFF86070
S31520005090B9607A604FF000033B61FA684CF2F8037E
S315200050A0C2F200039A4207D0FA684CF2B803C2F261
S315200050B000039A4200D000BEBB68002B00D100BE80
S315200050C07B68002B00D100BEFA684CF2F803C2F2CE
S315200050D000039A4206D0FA684CF2B803C2F20003E3
S315200050E09A423DD1BB68002B3AD07B68002B37D043
S315200050F0FB681B681B7DFB76FB685A7BFB7E42EABE
S315200051000303DAB2FB685A73FB7E03F02003002BFD
S3152000511023D04FF01003FB617B680F2B01D87B68EF
S31520005120FB614FF000037B610EE0FB681B68B968EA
S315200051303A690A4412781A703B6903F101033B610C
S315200051407B6903F101037B617A69FB699A42ECD39F
S315200051507A687B69C3EB02037B607B68002BC7D12F
S3152000516007F12407BD4680BC704700BF684620F083
S3152000517007018D4689B500AF4CF2F800C2F2000057
S3152000518000F01AFABD46BDE889408546704700BF43
S31520005190684620F007018D4689B500AF4CF2B8006D
S315200051A0C2F2000000F008FABD46BDE889408546F7
S315200051B0704700BF80B588B000AF786039607A68E4
S315200051C04CF2F803C2F200039A4207D07A684CF2F6
S315200051D0B803C2F200039A4200D000BE7A684CF2AD
S315200051E0F803C2F200039A4207D07A684CF2B80359
S315200051F0C2F200039A4240F0A4807B683A689A6023
S3152000520004F006FD7A684CF2F803C2F200039A42D3
S3152000521006D14AF69073C2F200031B68FB6105E0D3
S315200052204AF69473C2F200031B68FB61FB694FEADE
S31520005230C3023B68B2FBF3F37B617B694FEA5303FE
S315200052403B613B694FEA9313FB60FB684FEA83138C
S315200052503A69C3EB0203BB61FB684FEAC3137A6961
S31520005260C3EB0202BB694FEA4303C3EB0203BA69ED
S315200052701344BB61FA684FF6FF739A4200D900BE09
S31520005280FA684FF6FF739A425BD8FB68012B31D937
S315200052907B681B6803F10C0318464FF00701FFF7E4
S315200052A051FE7B681B68FA684FEA1222D2B21A7145
S315200052B07B681B68FA68D2B21A707B681B6803F198
S315200052C00C0318464FF00701FFF75CFE7B681B684E
S315200052D003F1300318464FF00701FFF733FEBB6991
S315200052E0FF2B00D900BE7B681B68BA69D2B283F84F
S315200052F03C2026E07B681B6803F10C0318464FF020
S315200053000701FFF71FFE7B681B68FA684FEA122227
S31520005310D2B21A717B681B68FA68D2B21A707B689F
S315200053201B6803F10C0318464FF00701FFF72AFE0E
S315200053307B681B6803F1300318464FF00701FFF71F
S3152000534021FE07F12007BD4680BD00BF80B584B091
S3152000535000AFF860B9601346FB71FA684CF2F803A7
S31520005360C2F200039A4207D0FA684CF2B803C2F29E
S3152000537000039A4200D000BEFA684CF2F803C2F24B
S3152000538000039A4224D1FB684FF080421A60FB68E2
S315200053904FF00A021A7148F20003C4F2030348F2DE
S315200053A00002C4F20302926C42F080029A644FF02B
S315200053B00A00FFF7A9FD48F20003C4F2030348F2EE
S315200053C00002C4F20302926C22F080029A6425E065
S315200053D0FA6840F20003C4F201031360FB684FF041
S315200053E00B021A7148F20003C4F2030348F20002CA
S315200053F0C4F20302926C42F480729A644FF00B005E
S31520005400FFF782FD48F20003C4F2030348F20002CC
S31520005410C4F20302926C22F480729A64FB681B68C1
S315200054204FF000021A71FB681B684FF000021A72D7
S31520005430FB681B6803F1080318464FF00101FFF7CC
S3152000544081FDFB681B6803F1080318464FF0020133
S31520005450FFF778FDFB681B6803F1080318464FF039
S315200054600001FFF76FFDFB681B6803F11003184668
S315200054704FF00401FFF786FDFB681B6803F110035C
S3152000548018464FF00501FFF77DFDFB681B6803F109
S31520005490340318464FF00101FFF774FDFB681B68C3
S315200054A003F1340318464FF00001FFF76BFDFB684C
S315200054B01B6803F1380318464FF00101FFF762FD20
S315200054C0FB681B6803F1300318464FF00501FFF710
S315200054D059FDFB681B6803F1300318464FF006019F
S315200054E0FFF750FDFB681B6803F1300318464FF0A9
S315200054F00701FFF747FDFB681B6803F138031846D1
